:020000040800F2
:10000000D01B00203D0300084B320008413100089E
:10001000493200083D31000869370008000000003F
:10002000000000000000000000000000C3350008D0
:100030003F31000800000000BD3500087D030008C6
:100040005703000857030008570300085703000828
:100050005703000857030008570300085703000818
:100060005703000857030008570300085703000808
:1000700057030008570300085703000857030008F8
:1000800057030008570300085703000857030008E8
:1000900057030008570300085703000857030008D8
:1000A00057030008570300085703000857030008C8
:1000B00057030008570300085703000857030008B8
:1000C00057030008570300085703000857030008A8
:1000D00057030008ED3600085703000857030008CF
:1000E0005703000857030008570300085703000888
:1000F0005703000857030008570300085703000878
:1001000057030008BF3500085703000857030008CD
:100110005703000857030008570300085703000857
:100120005703000857030008570300085703000847
:100130005703000857030008570300085703000837
:100140005703000857030008570300085703000827
:100150005703000857030008570300085703000817
:100160005703000857030008570300085703000807
:100170005703000857030008570300080000000059
:1001800057030008570300085703000857030008E7
:100190005703000857030008570300080000000039
:1001A00057030008570300085703000800F002F83F
:1001B00000F0B4F80AA090E8000C82448344AAF14D
:1001C0000107DA4501D100F0A9F8AFF2090EBAE84B
:1001D0000F0013F0010F18BFFB1A43F0010318477B
:1001E00038D7000058D700000A444FF0000C10F830
:1001F000013B13F0070408BF10F8014B1D1108BFA5
:1002000010F8015B641E05D010F8016B641E01F844
:10021000016BF9D113F0080F1EBF10F8014BAD1C94
:100220000C1B09D16D1E58BF01F801CBFAD505E0B2
:1002300014F8016B01F8016B6D1EF9D59142D6D30C
:10024000704700000023002400250026103A28BF34
:1002500078C1FBD8520728BF30C148BF0B60704738
:100260006E2900F04186702900F0B78166290CF0F4
:100270002B8465290CF0288467290CF025846129DA
:100280000CF0248403681B0A28BF41F0800169290F
:1002900000F02881642900F02581752900F0228171
:1002A0006F2901F03E81782900F08381E92901F06E
:1002B000D980E42901F0D680F52901F0D380EF2917
:1002C00001F03B81F82900F082810368DB0928BF37
:1002D00041F08001632901F05A80732901F05F80A9
:1002E000E32901F01386F32901F0188600207047F6
:1002F0001FB50CF0DCFB01F0EBFB0400002000213B
:100300000CF05CF9401C6060002000210CF040F90A
:10031000E06000F0F5FC1FBD10B510BD02F052F812
:100320001146FFF7E5FF07F085FD02F0AFFA03B4D1
:10033000FFF7F2FF03BC02F0C7FA0000094880474C
:1003400009480047FEE7FEE7FEE7FEE7FEE7FEE7B7
:10035000FEE7FEE7FEE7FEE704480549054A064BCF
:1003600070470000C9350008AD010008D013002017
:10037000D01B0020D0170020D017002030B410B5BB
:100380000348804730BCAE4630BC024800470000FE
:10039000E5800008C535000800BF704710B54C1057
:1003A00084EA530404D54042C1F1000138BF491E1C
:1003B0001B4204D55242C3F1000338BF5B1E00F05C
:1003C000B1FC14F0804F04D04042C1F1000138BFAD
:1003D000491E14F0004F04D05242C3F1000338BF4D
:1003E0005B1E10BD7CB51D4616460C00009001D06A
:1003F0002044401E074B7B442A4669460190304604
:1004000000F09BFF05461CB10020694600F0A8FFE4
:1004100028467CBD710F00000FB41CB5084B06AA1E
:100420007B4469460090059800F087FF0446002051
:10043000694600F095FF20461CBC5DF814FB0000E7
:100440003D0F000070B5044685690068C10601D5FE
:10045000302600E02026C00707D070BDD4E9012176
:1004600030469047206A401C20626D1EF6D570BD54
:1004700070B5044685690078C00707D170BDD4E91E
:10048000012120209047206A401C20626D1EF6D575
:1004900070BD70B50C460546012A05D02878800647
:1004A00000D5EA69002302E0012305E05B1C9342CA
:1004B00002D2E05C0028F9D1A869E618C01AA86148
:1004C000286A184428622846FFF7BCFF04E0D5E9F3
:1004D000012114F8010B9047B442F8D32846FFF7E6
:1004E000C7FF70BD2DE9F04106460024106875294C
:1004F000314616A510D000F08CFC002802DA4042EC
:1005000013A507E031688A0701D512A502E0490763
:1005100004D511A5012401E000F084FC00210A2289
:1005200006F1240709E0B0FBF2FCB0FBF2F302FB9A
:100530001C00303078541846491C0028F3D123465B
:100540002A463046BDE8F04100F075BC00000000CE
:100550002D0000002B00000020000000F0B40D462C
:100560000188090502D5214C7C4402E01F4C7C44E3
:100570000E34002100F1240608E002F00F071209F2
:10058000E75D42EA03721B097754491C52EA0307EC
:10059000F3D102780023120704D5702D06D009B1DB
:1005A000022311342246F0BC00F045BC0123103474
:1005B000F8E770B504460D462146106800F032FC9D
:1005C000024629462046BDE870400023C6E7D21DFA
:1005D00022F00703D3E90023C0E70368126843F061
:1005E000200303600823C3610023B7E7ACD20000F7
:1005F0002DE9F05F894604464FF0000ADFF874B138
:10060000FB44C0F820A02046E1688847002874D049
:10061000252806D0D4E901219047206A401C206299
:10062000F1E700265F462046E16888472028054616
:1006300007DB312D05D2781910F8200C08B10643DC
:10064000F1E7B00701D526F00406C4F81CA0002786
:10065000C4F818A02A2D09D0284603F0CCF938B3E5
:1006600004EB8708303DC8F8185019E059F8041B0E
:10067000204604EB87029161E1688847012F054617
:1006800018D1E069002820DA26F020061DE0D8F80D
:10069000180000EB800005EB40003038C8F8180067
:1006A0002046E1688847054603F0A5F90028EED109
:1006B000012F0AD02E2D08D12046E16888477F1CE3
:1006C0000546022F46F02006C4DBA069002803DAA5
:1006D000404246F00106A061F00701D026F0100666
:1006E0006C2D0BD0682D09D04C2D39D06A2D35D00A
:1006F000742D35D07A2D33D016E038E0E1682F46DE
:1007000020468847B842054609D16C2F26D04FF4C1
:100710008060E168064320468847054604E06C2F68
:100720001AD04FF4807006430DB3A5F1410019288B
:1007300002D8203546F400664A46294620462660FF
:100740004E46FFF78DFD80B101280BD0F61D26F037
:10075000070000F1080956E74020E4E78020D8E7C9
:100760000020D6E706F104094DE7284652E7206A43
:10077000BDE8F09F3CD200000FB400B58DB010A9C9
:10078000099000910B904FF0FF300A9000200C90E0
:10079000064878440690064878446A4607900F99C0
:1007A00009A801F065F90DB05DF814FBFB1200001B
:1007B000131300002DE9FF5F1D464FF0FF3B9146EC
:1007C0004FF000085F46D5E90146A96901987F1CF2
:1007D0008847296A824688470028F6D1BAF1FF3F48
:1007E0000CD0002E24F4C06419DD600614D5BAF1D3
:1007F0002B0F09D0BAF12D0F0ED103E0584604B0EB
:10080000BDE8F09F44F48064A96901987F1C884783
:10081000761E8246002E02DDBAF1300F03D0B9F108
:10082000000F26D032E0A969761E01987F1C44F49F
:1008300000748847002E824605DDBAF1780F06D095
:10084000BAF1580F03D0B9F1000F10D01EE0B9F182
:10085000000F02D0B9F1100F18D1A969761E0198C6
:100860007F1C24F4007488478246102002E0082090
:1008700000E00A20814609E0A96908FB0908761E04
:1008800001987F1C44F4007488478246002E05DDE1
:100890004946504600F05CFE0028EDDAE96901980F
:1008A0008847A00502D46FF00100A8E7E00725D132
:1008B000600613D5600502D5C8F1000000E040468F
:1008C00029680A1D2A600968220501D5087015E00B
:1008D000220701D5088011E008600FE02868011D9B
:1008E00029600068210502D580F8008006E0210714
:1008F00002D5A0F8008001E0C0F8008038467EE70D
:10090000401ECAB210F8011F8A4202D00029F9D154
:100910000020704740EA010310B59B070FD1042A5D
:100920000DD310C808C9121F9C42F8D020BA19BABA
:10093000884201D9012010BD4FF0FF3010BD1AB11F
:10094000D30703D0521C07E0002010BD10F8013B74
:1009500011F8014B1B1B07D110F8013B11F8014B9B
:100960001B1B01D1921EF1D1184610BD40EA0103B4
:10097000024630B59B0710D14FF0013400E008C2A9
:1009800008C91D1B9D4315EAC41FF8D013F0FF01D1
:1009900002F8011B0DD01B0AF8E711F8013B002BF0
:1009A00002F8013B05D011F8013B002B02F8013B96
:1009B000F3D130BD10B5431C02E010F8011B71B13A
:1009C0008107FAD14FF0013202C88C1A8C4314EA25
:1009D000C211F9D0C01A0A0603D0C01E10BDC01A39
:1009E00010BD0A0401D0801E10BD0902FCD0401EBB
:1009F00010BD40EA010370B59B072ED14FF00136C0
:100A0000042A2AD308C810C99D1B9D43121F15EA4A
:100A1000C61517D0D8B2E1B2401A50EA056110D11C
:100A200098B2A1B2401A50EA05410AD123F07F40A2
:100A300024F07F41401A50EA052102D1180EA0EBA4
:100A4000146070BDA342DBD018BA21BA884201D924
:100A5000012070BD4FF0FF3070BD0AB9002070BD9D
:100A600010F8013B11F8014B63B1A3420AD1521EA9
:100A700008D010F8013B11F8014B1BB1A34201D182
:100A8000521EEDD1181B70BD421E12F8013F002B03
:100A9000FBD111F8013B002B02F8013BF9D1704763
:100AA000032A40F2308010F0030C00F0158011F89A
:100AB000013BBCF1020F624498BF11F801CB00F872
:100AC000013B38BF11F8013BA2F1040298BF00F8C6
:100AD00001CB38BF00F8013B11F0030300F0258083
:100AE000083AC0F0088051F8043B083A51F804CBAA
:100AF000A0E80810F5E7121D5CBF51F8043B40F870
:100B0000043BAFF30080D20724BF11F8013B11F87A
:100B100001CB48BF11F8012B24BF00F8013B00F8BE
:100B200001CB48BF00F8012B704710B5203AC0F048
:100B30000B80B1E81850203AA0E81850B1E81850DE
:100B4000A0E81850BFF4F5AF5FEA027C24BFB1E81B
:100B50001850A0E8185044BF18C918C0BDE810408C
:100B60005FEA827C24BF51F8043B40F8043B08BF95
:100B70007047D20728BF31F8023B48BF11F8012B5C
:100B800028BF20F8023B48BF00F8012B70474FF008
:100B900000020429C0F0128010F0030C00F01B804A
:100BA000CCF1040CBCF1020F18BF00F8012BA8BF58
:100BB00020F8022BA1EB0C0100F00DB85FEAC17C1C
:100BC00024BF00F8012B00F8012B48BF00F8012BCF
:100BD00070474FF0000200B5134694469646203900
:100BE00022BFA0E80C50A0E80C50B1F12001BFF4E6
:100BF000F7AF090728BFA0E80C5048BF0CC05DF84C
:100C000004EB890028BF40F8042B08BF704748BF99
:100C100020F8022B11F0804F18BF00F8012B70470D
:100C200010B5044610F0030F08BF11F0030F40F099
:100C300015804FF0013E121FC0F20E8051F8043BA8
:100C4000A3EB0E0C2CEA030C1CEACE1C08BF40F8E8
:100C5000043BF0D0A1F1040102F10402521E08DBB2
:100C600011F8013B002B00F8013BF7D11146FFF7CB
:100C70008EFF204610BD00004FF0013C50F8042BC1
:100C800051F8043B9A4221D1A2EB0C03934313EA9F
:100C9000CC1317D150F8042B51F8043B9A4215D1CC
:100CA000A2EB0C03934313EACC130BD150F8042BA3
:100CB00051F8043B9A4209D1A2EB0C03934313EA87
:100CC000CC13DBD04FF00000704700BFD01A01BA40
:100CD000B1FA81F101F0180122FA01F0CB40C1F123
:100CE0002001DBB2C0B2C01A2CFA01F3D11A914331
:100CF00011EAC311E6D17047704770477047000092
:100D000070B5064C7C44064D7D4403E020682044C9
:100D10008047241DAC42F9D170BD00006CCD0000AD
:100D20006CCD000053EA020C00F069802DE9F04B15
:100D30004FF00006002B1FBFB3FA83F503FA05F44A
:100D400024FA05F65E4012BF1643B2FA82F502FAA3
:100D500005F4C5F120051EBF22FA05FC44EA0C0487
:100D6000203556EA044C4FEA144418BF641C4FF077
:100D700000084FF00009904271EB030C39D30029B1
:100D800019BFB1FA81F701FA07F6B0FA80F700FA55
:100D900007F6C7F120071EBF20FA07FC46EA0C063B
:100DA0002037B6FBF4FCA7EB0507103F07F01F0B3D
:100DB000CBF120060CFA0BFB2CFA06F644BFB34627
:100DC0000026202FA4BF5E464FF0000B5BEA060C06
:100DD00008BF4FF0010B19EB0B09ABFB027C48EB92
:100DE0000608C01B06FB02CC0BFB03CC71EB0C010D
:100DF000C1E70B46024641464846BDE8F08B13B5B5
:100E00004FF000004FF00001AFF30080BDE81C4040
:100E1000704709684A0501D540B27047C905FCD53D
:100E200000B2704709684A0501D5C0B27047C905CC
:100E3000FCD580B270472DE9F0470D4699469246A1
:100E4000044600F124080168880604D5E06921F011
:100E50001001216000E00120A84201DD471B00E0F5
:100E60000027A1697A1902EB0900081AA06120780D
:100E7000C00602D42046FFF7E5FA002608E0D4E9D0
:100E800001211AF806009047206A401C761C206257
:100E90004E45F4DB2078C0060AD52046FFF7D2FA8B
:100EA00006E0D4E9012130209047206A401C2062EE
:100EB000381EA7F10107F4DC07E0D4E9012118F896
:100EC00005009047206A401C2062281EA5F10105FC
:100ED000F3DC2046FFF7CCFA2078000602D502208A
:100EE000BDE8F0870120FBE711680268006A53053E
:100EF00001D508700AE0D30501D5088006E0130685
:100F000003D5C217C1E9000200E008600120704764
:100F100070472DE9FF4F0C461E464FF0FF378BB050
:100F2000D2E90001DDF860800A908A46C1F30A55D3
:100F300005B93D46002108464FF00000BAF1000F08
:100F400000F4400005DA00EB80004FF4400101EAB4
:100F500050004FEA9059B9F1010F00DDB9460A98E7
:100F600050EA4A000ED044F61050A5F2FF35454332
:100F70002F14B8F1000F1ED07542291E1EDDC9F1D5
:100F800000021CE0B8F1010F4FF0000001D0302149
:100F900003E0F24305E02154401CB042FBDB304645
:100FA0000022002121540B99C1F80880C1E90020DA
:100FB0000FB0BDE8F08FBD1B6D1CDEE74A4600DABE
:100FC000694206A801F068F906AB93E8070003AB95
:100FD00083E8070050460A9901F07CFC8DE8070081
:100FE000A0F500501F3800900398002D0ADD42F252
:100FF0001F014A460844002303A90390684601F0F4
:1010000027FF09E0A0F500504A461F38002303A936
:101010000390684601F046FF8DE807000004000CCD
:1010200003D04FF0FF30410800E01046B8F1000F48
:1010300003D00022009215461EE0751E05D400F074
:101040004FFD303262556D1EF9D5B346012208437B
:1010500002D000227F1C04E02078302801D1002239
:101060007F1E002A099784D01DE0112D07DA00F0B9
:1010700037FD303262556D1C50EA0102F5D108434C
:1010800002D00098C8B10EE00021681E05E0235C84
:10109000625C63542254401E491C8142F7DBAB461C
:1010A000A81B401E0990002004F80B000B98099A19
:1010B000C0F80880C0E9002B7AE711264FF000083D
:1010C00057E72DE9F04F88460446D21D22F007016C
:1010D00091B0D1E90001CDE90A0102F046FB0246D8
:1010E0000B98C00F01D02D2007E02068810701D5A3
:1010F0002B2002E0202101EAC000032A099001D040
:10110000072A05DB03464146204600F0B5FE0BE109
:101110002078800601D5E06900E00620B8F1650F6F
:10112000814606D0B8F1660F18D0B8F1670F70D1BC
:1011300031E00020B9F1110F009001DB112301E033
:1011400009F101030AAA01A90CA8FFF7E2FEDDE9F3
:101150000C70002609F10105834647E001204B464B
:1011600000904FF000470AAA01A90CA8FFF7D1FE92
:10117000DDE90DB00C995D46002610B909F10100BA
:101180000D18B9EB050003D4C0F1FF3609F10105D4
:10119000A5EB09002BE0B9F1010F01DA4FF00109CD
:1011A0000020B9F1110F0090484601DD112300E045
:1011B00003460AAA01A90CA8FFF7ABFEDDE90C70F3
:1011C0004D4600268346207800070AD4AB4500DA56
:1011D0005D4601A8012D04DD411911F8011C3029DB
:1011E00007D04F4502DA17F1040F04DA01208246D6
:1011F0000FE06D1EEEE7002F02DCED1B3E4403E026
:10120000781CA84200DD7D1CB81B00F1010A4FF0DC
:1012100000472078000703D4AA4501DB4FF0FF3ACE
:101220000021B7F1004F0DF143088DF8431024D091
:1012300002202B23002F01DA7F422D230A21021ED8
:10124000A0F1010000DC5FB197FBF1FC97FBF1F22C
:1012500001FB1C7C17460CF1300C08F801CDEEE7C1
:10126000A8F1010003702188090501D5452100E09E
:101270006521A0F1010800F8011C09980FA9A1EB54
:101280000807FF1D00B10120411901EBEA70A169B7
:101290003844081A401EA0612078C00602D42046B7
:1012A000FFF7D0F8099828B1D4E901219047206AC6
:1012B000401C20622078C00622D52046FFF7C2F8E5
:1012C0001EE0002E04DBB34502DD01A8805D00E0D6
:1012D0003020D4E901219047206A401C2062761C0E
:1012E000AAF101005FEA000A0AD100F0F1FBC06830
:1012F0000168405CD4E901219047206A401C2062CB
:10130000281EA5F10105DCDC07E0D4E9012118F86D
:10131000010B9047206A401C2062381EA7F101078C
:10132000F3DC2046FFF7A4F8032011B041E60000EB
:1013300001694A1C02610878704700B58FB0CDE999
:1013400001310021059105497944CDE90310114689
:101350006846FFF74DF90FB000BD0000E5FFFFFF45
:101360000A6802F8010B0A607047D1E900239A422B
:1013700002D2531C0B601070704710B5436913B153
:10138000AFF3008001E0FFF784F8012010BD127870
:1013900000F124010A7000224A700122EDE7116871
:1013A0004FF0FF32E9E700002DE9FF5F15468A465E
:1013B0000446DFF8AC80F8440027D8E900103E4628
:1013C000CDE9001010E03AF816106A4602A800F0C5
:1013D000D5FF411C07D02178890603D5E269391869
:1013E00091420DD80744761C2078800602D5E0692A
:1013F000B84205DDAE42E6DB3AF816000028E2D13D
:10140000A069C01BA0612046FFF71CF8D8E90010B6
:10141000CDE90010002017E03AF818106A4602A83B
:1014200000F0ACFFB0F1FF3F81460BD000250DF17D
:10143000080B05E0D4E901211BF8050090476D1C5D
:101440004D45F7D308F10100B0428046E4DB206A45
:10145000384420622046FFF70BF8BDE8FF9F0000EC
:101460009AC400002DE9F0418046D21D22F0070207
:101470000025D2E90002F52915A614D0011E72F14B
:10148000000106DA0023D0EB030063EB020211A691
:1014900008E0D8F800108B0701D50FA602E0490735
:1014A00001D50EA601251146002408F1240704E009
:1014B00000F016FB30323A55641C50EA0102F7D1B5
:1014C0002B46324621464046BDE8F041FFF7B3BC0B
:1014D000000000002D0000002B0000002000000094
:1014E00030B4002100F1240408E002F00705D2081E
:1014F000303542EA4372DB086554491C52EA030561
:10150000F3D10468002310A2250707D5A40600D450
:1015100021B1C46901230DA2641EC46130BCFFF770
:101520008ABC10B5044621461068FFF77BFC0246D2
:101530002046BDE810400023D2E7D21D22F007016B
:10154000D1E90023CCE700000000000030000000DB
:101550003A2800D2303820F02002412A01D3A2F1EB
:101560003700884201D34FF0FF3070472DE9FF4F1D
:1015700006468BB00878FF2806D0491C2D2805D0D8
:1015800000244FF0000908E000200CE00124F8E7F7
:1015900009EB8903491C00EB43090878FF28F7D1C0
:1015A00014B1C9F100008146107800252C46AA46E6
:1015B00029462D2801D02B2804D1521C2D2813D0C8
:1015C000002082468B461078FF280FD04FF0000C89
:1015D0000A21521CA5FB017804FB018105FB0C11BB
:1015E000C5194BEB0104EEE70120EAE700210846AC
:1015F0004FF00000BAF1000F02D000EB800040086D
:10160000C0F38157012F01DD4FF0FF370E9955EAE6
:10161000040009EB01080BD04FF0020918F5FA7F1E
:1016200016DA4FEACA70002F706008DD012007E06B
:101630004FEACA70C6E900B00FB0BDE8F08F0020D5
:10164000306000F049FAC0F800901821084616E012
:10165000B8F5FA7F18DD002F02DAF748784401E088
:10166000F6487844D0E90010C6E9001040EACA7094
:10167000706000F031FAC0F80090142108460FB0F5
:10168000BDE8F04F0BF01DBA002108464FF00000F6
:10169000B8F10001099002DAC7F1000200E03A4611
:1016A00001DAC8F1000106A800F0F6FD06AB93E8E8
:1016B000070003AB83E8070044F23E005BEA040145
:1016C0000090584604D144F21E012C465D4600911C
:1016D000210C0904014306D10099240444EA15446D
:1016E0002D041039009104F07F41014306D1009987
:1016F000240244EA15642D020839009104F0704177
:10170000014306D10099240144EA15742D01091FF3
:10171000009104F04041014306D10099A40044EA3D
:101720009574AD00891E009104F00041084304D176
:1017300000986D196441401E00904FF001033A4635
:101740006846B8F1000FCDE9014503A902DD01F0BB
:10175000BEFB01E001F091FBBAF1000F04460D461B
:1017600001D084F00044002108464FF000000999A0
:1017700040F2FF77484010F00C0F07D124F00040F2
:10178000284303D0C4F30A50B84212D100F0A4F9A0
:10179000C0F80090C4F30A50B8420AD1A84878446F
:1017A000D0E90010C6E9001004F000410843706061
:1017B00042E7C6E900543FE72DE9FF4F1F464FF0CF
:1017C000000A4FF0FF38454691B0D7E90146CDF801
:1017D0003CA000F07DF9C0680168405C1090B969D8
:1017E00012986D1C8847396A814688470028F6D1CF
:1017F000B9F1FF3F0AD0002E24F4D06411DDB9F115
:101800002B0F08D0B9F12D0F0BD102E0404615B0D7
:1018100013E744F48064B96912986D1C8847761EFA
:101820008146600504A901D52D2000E02B20002E63
:1018300001F1010B0DF130088DF810003FDDB9F119
:10184000690F08D0B9F1490F05D0B9F16E0F02D078
:10185000B9F14E0F1CD13B4601A8009580E850021B
:10186000DDE912126FF002000BF096F9C11CCED127
:101870000EE0B96912986D1C884781461398761E50
:1018800044F4007405600F98401C002E0F9016DD84
:10189000B9F1300FEDD0B9F1780F02D0B9F1580F8E
:1018A0000DD10F9801280AD13B46CDE90054DDE95E
:1018B0001212001F02960BF06DF9C11CA7D11099EE
:1018C00089453ED144F0800406E01399681CAAF1D2
:1018D000010A44F400740860B9696D1C1298761E00
:1018E000884730288146F0D02BE01099894505D1F2
:1018F000200603D4761E44F0800418E0484602F027
:101900007AF808B3761E0DF123018B4544F4007478
:1019100008D2A9F130000BF8010B200607D5AAF177
:10192000010003E0200602D40AF101008246A0056E
:1019300002D51399681C0860B96912986D1C884714
:101940008146002ED1DC53E0002E51DDB9F1650F48
:1019500002D0B9F1450F4BD1A00549D5B9696D1C2D
:101960001298761E24F440748847002E81460CDDC0
:101970002B2804D0B9F12D0F07D144F48074B96934
:1019800012986D1C8847761E8146E00501D52D21F1
:1019900000E02B2108F8011BCDF8008021E0761E25
:1019A0000DF13901884544F400740CD2A9F13000DE
:1019B00010F0FF0088F8000002D10099884509D98D
:1019C00008F1010806E0E00501D51E4801E042F2F9
:1019D0000F708246B96912986D1C8847814613982A
:1019E0000560002E04DD484602F005F80028D6D137
:1019F000F96912988847FF2053468BF8000088F851
:101A0000000000200A900B9004AA0CA90AA8FFF776
:101A1000ADFDA00502D46FF00100F8E614F0240F2C
:101A200012D0E0071CD13868DDE90A12031D3B60C3
:101A30000068C0E9001213E0E0C20000D2C200005A
:101A400096C10000F1D8FFFF0AA9684601F0BCFF6B
:101A5000E00705D13868009A011D3960006802600E
:101A60002846D4E60268114413780160184670478E
:101A7000D1600549794451610449794411620021DA
:101A80001161114600F04EBAEDFFFFFFED000000BE
:101A9000426842B1016811F8013B23B1521EC0E90E
:101AA0000012184670470121C160881E70474268C5
:101AB0005AB1C368016843B983688B4205D0491E97
:101AC000521CC0E90012002070474FF0FF307047F1
:101AD00000487047901300200048704770130020A2
:101AE00030B5B0F10A024FEA900E71F100034EEAF0
:101AF000817EB0EB0E0061EB91014FEA101E4EEAC1
:101B0000017E10EB0E0041EB11114FEA102E4EEA50
:101B1000016E10EB0E0041EB11214FEA104E4EEA20
:101B2000014E10EB0E0041EB1141401841F1000154
:101B30004FEAD00040EA41704FEAD10110EB800536
:101B40004FEA810444EA907444EB01046D1944EBBC
:101B50000404521BA3414FF0000348BF0A3200D5D2
:101B600030BD401C41F1000130BD10B5044600F00D
:101B70004FFC0068005D00F0010010BD2DE9F04F42
:101B800004460D46D21D22F0070089B0D0E9009727
:101B90004846394601F0E9FD0246F80F01D02D23F1
:101BA00007E02068810701D52B2302E0202101EA0C
:101BB000C0038DF820300BB1012000E00020032A83
:101BC000824601D0072A04DB2946204600F054F95A
:101BD0003FE12078800601D40D2500E0E569C7F3D8
:101BE0000A560D2D49DA00214FEA175B08464FF0DF
:101BF0000000002F00F4400007DA00EB80004FF4F3
:101C0000400100EBD07001EA60008115012901DD7F
:101C10004FF0FF3100224FEA850CBCF1180F06D3BC
:101C20001346ACF118004FF08052C24003E04FF46D
:101C3000801323FA0CF30CF10C0CBCF1200F04D32D
:101C4000ACF1200C09FA0CF001E007FA0CF00029C5
:101C50004FF0004801DD18B90FE00ED140450CD31C
:101C600019EB02095F4121B9404502D19F4329EA9E
:101C70000209BBEB175F00D0761C2088000502D557
:101C80007B48784402E07A487844193808AA30231F
:101C900002F80A30037C0AF10101002E0AF1020A5F
:101CA00053546A4602DC4FF0300101E04FF031013D
:101CB0004FF001088DF8001002D0A6F2FF3603E0C5
:101CC00059EA470100D06B4E002D02DC217809074C
:101CD00004D54FF002082E218DF80110C4460021D2
:101CE0000BE0C7F303433F01C35C491C6D1E02F8C0
:101CF0000830052908F1010801DA002DF1DC002186
:101D00000CE000EB1973491C1B786D1E082902F8C2
:101D100008304FEA091908F1010801DA002DF0DC5A
:101D200021688B0602D516E0A8F10108E04505DD23
:101D300002EB080313F8013C302BF5D0B8F1000F8B
:101D400009DD02EB080313F8013C2E2B03D1090730
:101D500001D4A8F10108002D05DD3E2102F808108C
:101D60006D1E08F10108407C002E02F8080008F101
:101D7000010804DA2D20764202F8080002E02B2048
:101D800002F808000A214FF47A70864208F101082F
:101D90000BDB96FBF0F3303302F8083096FBF0F3E0
:101DA00008F1010800FB136601E0642E0CDB6420DF
:101DB00096FBF0F3303302F8083096FBF0F308F1AD
:101DC000010800FB136601E00A2E06DB96FBF1F02A
:101DD000303002F8080008F1010896FBF1F001FB31
:101DE0001060303002F80800A16908F1010808EB22
:101DF000050202EB0A00081AA0612078C00602D48E
:101E00002046FEF71FFB216A08AE01EB0A002062A4
:101E100004E0D4E9012116F8010B9047BAF1010A58
:101E2000F7D22078C00602D52046FEF70BFB6E469F
:101E300009E016F8010B3E280FD0D4E901219047A4
:101E4000206A401C2062B8F10108F2D22046FEF759
:101E50000FFB09B00320BDE8F08F206A2844206200
:101E600003E0D4E90121302090476D1EEBD3F8E761
:101E7000E9BB000002FCFFFF2DE9F0411F460446CC
:101E800003260168072A01F4006004DB08B116A5E7
:101E900005E016A503E008B115A500E015A521F0A1
:101EA00010002060A069C01EA0610FB1401EA0619B
:101EB0002046FEF7C7FA4FB1D4E9012138469047D2
:101EC000206A401C2062C01C206206E0206AFAE7FB
:101ED000D4E9012115F8010B9047761EF8D220466F
:101EE000FEF7C6FABDE8F0814E414E006E616E000D
:101EF000494E4600696E660010B5436913B1AFF3F1
:101F0000008001E0FFF750FA012010BD128800F1B7
:101F1000240182840022C2840122EDE711684FF07F
:101F2000FF32E9E72DE9F34F4FF0000A0C46564621
:101F30008DB001200C9001F10C000B9062690B98A0
:101F400001219047051E2DD0252D2CD0216A8847D0
:101F5000C0B162690B9801219047216A8847002827
:101F6000F7D16269411E0B98904700E0761CA16989
:101F70000D988847216A88470028F7D1E1690D98B4
:101F80008847DBE7A1690D988847A842074601D139
:101F9000761CD3E7E1690D9888477F1C02D1BAF11E
:101FA000000F6FD06BE162690B9800273D46394600
:101FB00090472A2804D162690B9801219047012596
:101FC000DFF8D08262690B9801219047A0F13001BF
:101FD0000A290AD24745E5DC07EB870100EB4107F8
:101FE000303FDFD445F01005ECE7E90601D46FF08F
:101FF00000476C280AD04C2814D0682815D06A28CD
:102000000DD074281CD07A281AD01DE062690B9874
:10201000012190476C2802D045F0040514E045F0FA
:1020200002050DE045F020050AE062690B980121E8
:102030009047682802D045F0080505E045F40065A2
:1020400062690B9801219047C4E9015765283DD08A
:1020500019DC58287AD00CDC452837D004DC252838
:1020600026D041289ED131E046282FD0472899D14B
:102070002CE05B2877D0612828D063287CD06428A6
:1020800023D15AE0F6E06F2848D008DC66281DD03E
:1020900067281BD0692821D06E2816D127E0702828
:1020A00045D0732868D0752847D078280DD14DE0E9
:1020B000A1690D988847252805463FF469AFE16975
:1020C0000D9888476D1C3FF46AAFD8E00D99234600
:1020D0006A466FF001000AF05BFDC5E045F0400084
:1020E00023464FF000026060A80736D43EE0E807C0
:1020F0007FF447AF2068011D21600068290501D5E4
:1021000006701BE7290701D5068017E7A90703D545
:10211000F117C0E9006111E706600FE745F04000E4
:1021200023464FF008026060A80716D41EE040F670
:102130000E0125EA0100606016E045F040002346EC
:102140004FF00A026060A80707D40FE045F0400096
:102150006060A80708D5234610220D996FF0010092
:10216000AFF3008080E007E0102223460D996FF066
:102170000100FEF71FFB77E04FF0000963284F4690
:10218000C8464B46CB4602D05B2806D038E0E8066E
:1021900001D40120A060012732E06269D4F80CB0BC
:1021A0000B98012190475E2807D14FF0010949465D
:1021B0006269D4F80CB00B989047216939B90021B5
:1021C0000A4603AB43F82120491C0829FADBD8B39F
:1021D000216949B308F1010862690B980121904710
:1021E0005D28F4D1B9F1000F09D0002003A951F8FE
:1021F0002020D24341F82020401C0828F7DB03AB05
:102200002069002820794FEA40701ED05B462246A4
:10221000CDF80080CDE901970D9900286FF00100FD
:1022200020DAAFF300801FE0C11703AA00EBD161F1
:102230004B1121F01F0102EB8302411A13680120A8
:10224000884003431360C7E719E00D992246002830
:102250006FF00100009702DAAFF3008004E0AFF303
:10226000008001E0AFF3008000280ADA401C06D1AC
:102270000C9820B14FF0FF300FB0BDE8F08F504602
:10228000FAE7E90701D10AF1010A064400200C909F
:1022900054E60000CCCCCC0C2DE9F0478146164624
:1022A0008AB0354878440DC88DE80D00324878442E
:1022B000801C03AC0DC884E80D0041F69B30084437
:1022C000372190FBF1F290FBF1F5A5F1800501FBC0
:1022D00012041B3C02D56442012000E00020DFF81C
:1022E00098A080460027FA44AAF1BE0A0EE0E00753
:1022F0000AD03246684607EB470101230AEB810109
:1023000000F0D0FD8DE8070064107F1C002CEED19A
:10231000194F7F44AE3F19E0E80715D007EB0410D2
:102320000DF1180A90E80E008AE80E00C068F0422D
:1023300001D1981908903246012306A903A800F09C
:10234000B1FD03AB83E807006D10641C002DE3D1E1
:102350004FF0010332466946B8F1000F03A802D0DE
:1023600000F076FD01E000F09DFDC9E90001C9F82B
:1023700008200AB0BDE8F08758B6000070B51646D0
:102380000C46054600F044F8036893F80101012863
:1023900006D0FF2C0FD8185D68B101202C7070BDDD
:1023A000D3F807013246214603F2071303442846B7
:1023B000BDE8704018474FF0FF3070BD00487047CF
:1023C000701300207546FFF7F9FFAE460500694619
:1023D000534620F00700854618B020B5FDF7BCFF36
:1023E000BDE820404FF000064FF000074FF0000816
:1023F0004FF0000B21F00701AC46ACE8C009ACE897
:10240000C009ACE8C009ACE8C0098D4670470000BF
:1024100010B5FFF75DFB001D10BD00BFA1A10000BE
:1024200010B5FFF759FB006810BD10B50446FFF763
:1024300053FB046010BD00002DE9FF4F1F464FF015
:102440003C0987B04FF00042DDE9141001F10108AA
:10245000DDF858A002EA4050039000200590834622
:10246000054604460490B969461E08988847AAF1B3
:10247000010A0290BAF1000F3BDD02982E2815D018
:102480001021FFF765F800282EDB4FF0010B0599AE
:10249000014317D0B9F1000F0BDB4A46C11700F01A
:1024A000FEF905430C43A9F1040905E0012004905D
:1024B0000BE008B145F0010501200590049820B912
:1024C000361D02E0049800B1361FB969089808F17A
:1024D00001088847BBF1000FAAF1010A0290C9D098
:1024E0000999C1F80080C5E70298702808D05028E3
:1024F00006D0F96908988847BBF1000F14D04FE067
:10250000002002900120BBF1000F049009D0B969AE
:10251000089808F101088847AAF10109B9F1000FEC
:1025200007DCF969089888476FF001000BB0BDE837
:10253000F08F2B2804D02D280CD14FF0FF300490C1
:10254000B969089808F101088847A9F10109B9F1AA
:10255000000FE6DD411CE4D00A21FEF7F9FF002858
:10256000DFDB029908F1010801EB810100EB41007A
:102570000290B969089888470A21FEF7E9FF099A8D
:10258000A9F10109B9F1000FC2F8008001DD0028AE
:10259000E7DAF969089888470499029800FB016610
:1025A00055EA040004D004F04041090002D006E0DE
:1025B000039898E0A40044EA9574AD00B61E04F0B8
:1025C0000041080002D16D196441761E159810F083
:1025D000240F03D04FF00B095C4803E04FF02809AB
:1025E0006FF07D008246564507DAAAEB0601894462
:1025F000B9F1410F01DD4FF0410901200021A9F19E
:10260000010200F04CF9024628400B4621400843E5
:1026100001D0012100E00021501E029143F1FF3161
:1026200028402140084301D0012000E00020029909
:10263000834651EA0B014FD0002108464FF00000BD
:10264000039900F4400039B100EB80004FF44001E1
:1026500000EBD07001EA60008015012802DD4FF028
:10266000FF3000E013D0401C36D0029860B3BBF1BD
:10267000000F0CD14A460120002100F010F928403B
:102680002140084301D0012000E00020E0B10120FA
:102690004A46002100F003F9034640190A46614109
:1026A0002D1A8C4111D3B9F1400F09DD159810F0A6
:1026B000240F02D0AAF1340603E0AAF1170600E0C5
:1026C000761C00254FF0004406E05B1E42F1FF320D
:1026D00020EA030521EA0204CAF10100B04206DA49
:1026E0001B49039808430190002000900EE0039AD4
:1026F000C4F3D321E80A0A43164940EA44500A4386
:102700003146CDE90002684601F06BF9159810F0EA
:10271000240F0BD01598C00715D13868DDE90012D9
:10272000031D3B600068C0E900120CE002A8694686
:1027300001F04AF91598C00705D13868029A011DC1
:102740003960006802604046F0E6000002FCFFFFCE
:102750000000F07F0000F03F2DE9FF4F92461D463C
:1027600085B04FF00041DDE9124BDDE914727F1EA8
:1027700001EA4B50414940F0FF4940EA010800217D
:1027800022F020004928049102D04E2828D04CE0A5
:102790003BA0012607C88DE80700A9690698641CBC
:1027A00088477F1E014606D41DF8060018B121F0A7
:1027B000200181420BD0E96906988847032E34D066
:1027C000082E32D06FF0010009B0BDE8F08F761C02
:1027D000032E01D0082EE0D1601CCAF80000DCE70F
:1027E000A9690698641C88477F1E2AD420F020001F
:1027F000412826D1A9690698641C88477F1E20D4E9
:1028000020F020004E281CD1A9690698641C884736
:102810007F1E48F4002849F48009CAF8004001D41A
:10282000282806D0E969069888475FEACB7012D05D
:1028300022E0A9690698641C88477F1E01D40028FD
:1028400003DAE96906988847BCE72928F1D1641CB6
:10285000CAF80040E9E71BF0240F07D02868049964
:10286000031D2B600068C0E9001805E02868021D00
:102870002A600068C0F800902046A5E70000F07FBD
:10288000494E46494E4954590000000010B50446CF
:10289000AFF300802046BDE81040FDF748BDB2F11F
:1028A00020030AD5C2F1200301FA02F120FA03F352
:1028B00000FA02F041EA0301704700FA03F14FF019
:1028C000000070477047000001491820ABBEFEE7CA
:1028D000260002005FEA400C08BF91F0000F4FEAAB
:1028E0008C234FEAC12243EA51514FEA1C5018BFD2
:1028F00000F5F0404FEA300018BF41F000415FEAB8
:102900006C5C00F02980BCF1FF3F08BF40F08040C4
:102910007047130C06BF12044FF0100C4FF0000C60
:10292000130E04BF12020CF1080C130F04BF1201A6
:102930000CF1040C930F04BF92000CF1020CD30FA6
:1029400004BF52000CF1010C11464FF00002A0F13F
:102950001F00A0EB0C00704711F0004F08BF70473C
:1029600031F000413FF4D5AF0B0C06BF09044FF026
:10297000100C4FF0000C0B0E04BF09020CF1080CF8
:102980000B0F04BF09010CF1040C8B0F04BF89006D
:102990000CF1020CCB0F04BF49000CF1010CCCF17F
:1029A0002003A0EB0C0022FA03F302FA0CF241EA36
:1029B000030100F10100704720F07F4C80EA030022
:1029C00023F07F47ACEB070303F57C5300F0004096
:1029D00003F1FF032DE980494FEA154B09B44FEA93
:1029E000144325EA0B4E24EA03480FF2042606EBB3
:1029F000132749083E785FEA320203FB0667C7F5F2
:102A0000000707FB06F64FEA54374FEAD64606F1B1
:102A1000020607FB066CCCF1005C4FEA1C472CEA6F
:102A2000074C07FB06F40CFB06F504EB15464FEAD2
:102A3000961634BF00204FF000404FEAD13706FB16
:102A400007FC4FEA1C4C0CFB0BF7D21B03FB0CF7EB
:102A500061EB07010CFB0EF7B0EB074072EB17427E
:102A60000CFB08F734BFA2EB0742B2EB074261EB65
:102A700017414FEA0C444FEA910706FB07FC4FEA67
:102A80001C4C0CFB0BF7B0EBC74072EB573203FB4F
:102A90000CF734BFA2EBC742B2EBC74261EB573130
:102AA0000CFB0EF7B0EBC70072EB57720CFB08F78C
:102AB00034BFA2EBC702B2EBC70261EB5771039FB1
:102AC0004FEA816141EA921104EBCC044FEAD1371D
:102AD0004FEA826206FB07FC42EA90124FEA8060EE
:102AE0004FEA1C4C0CFB0BF7D21B03FB0CF761EB02
:102AF00007010CFB0EF7B0EB074072EB17420CFB23
:102B000008F734BFA2EB0742B2EB074261EB174173
:102B10004FEA8C554FEA910704EB9C2406FB07FC17
:102B20004FEA1C4C0CFB0BF7B0EBC74072EB573273
:102B300003FB0CF734BFA2EBC742B2EBC74261EB19
:102B400057310CFB0EF7B0EBC70072EB57720CFB62
:102B500008F734BFA2EBC702B2EBC70261EB5771B3
:102B600015EB4C254FEA816141EA92114FEA8262EE
:102B70004FEAD13742EA901206FB07FC44F1000409
:102B80004FEA80604FEA1C4C0CFB0BF7D21B03FB97
:102B90000CF761EB07010CFB0EF7B0EB074072EB93
:102BA00017420CFB08F734BFA2EB0742B2EB074217
:102BB00061EB174115EB1C154FEA813141EA924157
:102BC0004FEA823242EA90424FEA80304FEA0C7676
:102BD00044F1000448EA03434EEA0B484FF0000E6C
:102BE000B2EB080C71EB030724BF624639464EEB8B
:102BF0000E0E4FF0000B0018524149414BEB0B0BEE
:102C0000B2EB080C71EB03077BF1000B24BF6246AB
:102C100039464EEB0E0E4FF0000B00185241494161
:102C20004BEB0B0BB2EB080C71EB03077BF1000BCA
:102C300024BF624639464EEB0E0E51EA020718BF1A
:102C400046F0010616EB0E7655F1000254F1000134
:102C500003D5BDE88901BDE80088BDE88901BDE86C
:102C60000048B619524141EB0101A3F1010370473D
:102C700080807F7E7D7C7B7A7978777676757473B9
:102C8000727171706F6E6E6D6C6C6B6A6A69686878
:102C9000676666656464636362616160605F5F5E0E
:102CA0005E5D5D5C5C5B5B5A5A5959585857575684
:102CB00056555555545453535252525151505050E9
:102CC0004F4F4F4E4E4D4D4D4C4C4C4B4B4B4A4A3B
:102CD0004A4949494848484747474746464645457F
:102CE00045444444444343434342424242414141B8
:102CF00046EA0646A3F570534FEA164646EA4256A0
:102D00004FEAD22242EA415210B54FEAD121A3F153
:102D1000010300F02FF820F0004000F1020C00F059
:102D2000004701EB00501146BCF5006F40EA070078
:102D300000D210BDBAF1000F0AD01CB503B44FF099
:102D400004004FF004014FF000000FBCBDE810403C
:102D50004FF00001BBF1010FB9BF04484FF0FF3144
:102D60000348002140EA070010BD00BFFFFFEF7FCE
:102D70000000F07F002B9C4630D477002BD01CB590
:102D80004FEA370703B44FF010004FF01001BAF1CB
:102D9000000F06D0BCF1000FDCBF40F0080040F08F
:102DA00008014FF000000FBCBDE810400BF1010B13
:102DB000BBF1010F08BF5FEA170722BF12F1010242
:102DC00011F101014FF0004143F1000300F0004018
:102DD00043EA00007047F9D35708D0E746EA0646B1
:102DE00013F1400F4FEA16461FDD13F1200FDFBF2E
:102DF00016430A46002120335B42BED0C3F12007B0
:102E000046EA064602FA07F74FEA164646EA07067A
:102E1000C3F1200722FA03F201FA07F721FA03F1BE
:102E20004FF0000342EA0702A7E746EA020646EA35
:102E300006464FEA164646EA0106BCBF46EA064683
:102E4000360C4FF000034FF000024FF0000194E702
:102E50002DE9804C9A46934670B491E8380007C833
:102E600031EA400C48BF34EA430C03D5FFF7A4FD18
:102E7000FFF780FFF0BCBDE8008C2DE9804C9A463E
:102E8000934670B491E8380007C831EA400C48BF57
:102E900034EA430C03D5FFF78FFDFFF729FFF0BCA1
:102EA000BDE8008C2DE9804C9A46934670B491E8B9
:102EB000380007C810F0804F08BF13F0804F03D1CF
:102EC00000F01AF8FFF756FFF0BCBDE8008C2DE9C2
:102ED000804C9A46934670B491E8380007C810F0C9
:102EE000804F08BF13F0804F03D100F005F8FFF7C3
:102EF000FFFEF0BCBDE8008C20F07F4780EA0300B5
:102F000023F07F4C07EB0C03A3F57C5300F000404B
:102F1000A3F1FE0392F0000F00F0B38095F0000FD4
:102F200000F077802DE901494FEA11404FEA14463D
:102F300021EA004800FB06FC24EA064708FB06F6E7
:102F400007FB08F800FB07F718EB06484CEB164C9C
:102F50004FEA124B18EB07484FEA15464CEB174067
:102F600022EA0B4E0BFB06FC25EA06470EFB06F693
:102F700007FB0EFE0BFB07F71EEB064E4CEB164C49
:102F80004FF000061EEB074E4CEB174B18EB0B08EF
:102F900040F1000018EB0E0B58EB000840F1000068
:102FA0008F1A4FF000013CBFC943661B14BFB5EB3D
:102FB000040C00213CBFC943F61B4FEA17444EEAFC
:102FC0008E0E27EA04454FEA1C4704FB07622CEAF1
:102FD000074C05FB07F70CFB05F604FB0CFC16EB96
:102FE000074642EB174216EB0C4642EB1C421BEB2A
:102FF000060658EB0202414146EA9E0601D5BDE8AD
:103000000189B619524141EB0101A3F10103BDE869
:1030100001894FEA14454FEA114724EA054621EA9F
:10302000074C05FB07F406FB07F70CFB06F105FB55
:103030000CFC11EB074144EB17444FEA124711EB2C
:103040000C4144EB1C4422EA074C05FB07F206FB4B
:1030500007F70CFB06F605FB0CFC16EB074642EBEC
:10306000174216EB0C4642EB1C456A1854F100015E
:1030700048BF7047B619524141EB0101A3F101036A
:10308000704795F0000F37D04FEA11424FEA1447CE
:1030900021EA024624EA074C02FB07F106FB07F788
:1030A0000CFB06F402FB0CFC14EB074441EB17414C
:1030B0004FEA154714EB0C4441EB1C4125EA074C41
:1030C00002FB07F506FB07F70CFB06F602FB0CFC00
:1030D00016EB074645EB174516EB0C4645EB1C4235
:1030E000121951F1000148BF7047B619524141EB26
:1030F0000101A3F1010370474FEA14454FEA11475C
:1031000024EA054621EA074C05FB07F106FB07F711
:103110000CFB06F24FF0000605FB0CFC12EB07421D
:1031200041EB174112EB0C4251EB1C4148BF704779
:10313000921841EB0101A3F101037047FEE7FEE79E
:10314000FEE7000070B53D4800683C48083800685C
:103150003A48001F0068394E4FF440740C3E234635
:1031600000220121304604F0B4FA23460222002155
:10317000304604F0D2FA2146304604F065FA0A20BF
:1031800002F02EFC0024B5152946304604F05AFA08
:10319000052002F025FC2946304604F055FA0520AA
:1031A00002F01EFC641CE4B2092CEDD32946304623
:1031B00004F04AFA4FF400742146304604F042FA13
:1031C000052002F00DFC2146304604F03DFA0520B2
:1031D00002F006FC234601220221304604F079FA6F
:1031E000234602220121304604F097FA2B460122A1
:1031F0000221304604F06DFA2B46022201213046AE
:1032000004F08BFA0E4C204604F0F8FB00220D4926
:10321000204604F091FB002272231146204604F060
:103220004BFC204604F01CFC2115204604F07EFBDC
:10323000BDE870400A2002F0D3BB00000C0402403D
:1032400000540040801A0600FEE7FEE770B5002536
:1032500005F1B000C0B200F09DF8002000F09AF82F
:10326000102000F097F80024002000F01DF9641CE5
:10327000E4B2802CF8D36D1CEDB2042DE8D370BD00
:1032800070B5642002F0ACFB0024084D285D00F00E
:1032900081F8641CE4B2162CF8D3FFF7D7FFBDE821
:1032A00070400021084600F003B800001C00002018
:1032B00010B50446B031C8B200F06CF8102040EAF6
:1032C000141000F067F804F00F00BDE8104000F0A3
:1032D00061B800002DE9F04180460F460024203AF5
:1032E000D5B2B8F17F0F02D9A0467F1CFFB2102BD8
:1032F00011D039464046FFF7DBFF164905EB450084
:1033000001EB4005285D00F0CFF8641CE4B2062C08
:10331000F8D3BDE8F08139464046FFF7C9FF0E4EAD
:1033200004EB0510305C00F0BFF8641CE4B2082C1C
:10333000F6D37F1CF9B24046FFF7BAFF002404EB36
:1033400005103044007A00F0AFF8641CE4B2082C99
:10335000F5D3DEE7CCCB0008F4CD00082DE9F04131
:1033600004460E461746984600250DE04346314672
:103370002046FFF7AFFF0834E4B2782C02D90024CE
:10338000B61CF6B26D1CEDB27A5D002AEED1BDE836
:10339000F08100002DE9F041404900220A70487098
:1033A00042F2107425463E4E40F2016739463046DF
:1033B00004F06CFB28B1FFF7C5FE02E0012002F02B
:1033C0000FFB3946304604F061FB08B16D1EF5D1A4
:1033D00075B9FFF7B7FE02E0012002F001FB3946A4
:1033E000304604F053FB08B1641EF5D1002C53D0D5
:1033F000304604F06CFB4FF4A0642146304604F0E4
:1034000045FB0028F9D06FF001027821304604F026
:103410004AFB40F201542146304604F037FB0028B5
:10342000F9D02146304604F020FB40F207542146F3
:10343000304604F02BFB0028F9D01A4C174B002221
:103440000621204602F0E4FD02220621204602F079
:1034500037FFE114304604F0FDFA0621204602F061
:1034600039FD20220621204602F0A1FD0028F8D0D7
:1034700020220621204602F07FFD0621204602F090
:1034800020FD34460021204604F0E4FA204604F0F2
:1034900023FB21688905FCD4BDE8F08104000020ED
:1034A00000540040006002402DE9F04140494022B4
:1034B0000A70487042F2107425463E4E40F2016791
:1034C0003946304604F0E2FA28B1FFF73BFE02E04D
:1034D000012002F085FA3946304604F0D7FA08B1E7
:1034E0006D1EF5D175B9FFF72DFE02E0012002F047
:1034F00077FA3946304604F0C9FA08B1641EF5D1AE
:10350000002C53D0304604F0E2FA4FF4A064214678
:10351000304604F0BBFA0028F9D06FF001027821A0
:10352000304604F0C0FA40F201542146304604F01F
:10353000ADFA0028F9D02146304604F096FA40F260
:1035400007542146304604F0A1FA0028F9D01A4C5D
:10355000174B00220621204602F05AFD02220621C6
:10356000204602F0ADFEE114304604F073FA062165
:10357000204602F0AFFC20220621204602F017FD73
:103580000028F8D020220621204602F0F5FC062172
:10359000204602F096FC34460021204604F05AFAF8
:1035A000204604F099FA21688905FCD4BDE8F08131
:1035B000080000200054004000600240FEE706F0D2
:1035C00015BFFEE702F002BA7CB54448016841F439
:1035D00070010160424D286840F0010028602868B1
:1035E0008007FCD53E4C083420680026C0F38100DB
:1035F000022857D1019602E00198401C01900198E1
:103600005028F9D320680090009820F0F000009036
:10361000009840F08000009000982060019602E041
:103620000198401C019001985028F9D3206800901F
:10363000009820F0F0000090009840F0900000907A
:1036400000982060019602E00198401C01900198CA
:103650005028F9D320680090009820F0F0000090E6
:10366000009840F0A000009000982060019602E0D1
:103670000198401C019001985028F9D320680090CF
:10368000009820F0F0000090009840F0B00000900A
:1036900000982060019602E00198401C019001987A
:1036A0005028F9D3C82000F0ADF9206820F00300BD
:1036B000206028680B4908402860286820F4802092
:1036C00028602660206806490748091D08600448EC
:1036D0000C300660BDE87C4007F0FCBE88ED00E0E1
:1036E00000380240FFFFF6FE1030002470B5194C80
:1036F0001749204608F00CFE002828D0204608F084
:1037000069FD154D0221284602F0E0FD02461349ED
:103710001348FDF7C5F9641521461048FDF737FA3F
:10372000104B012018700221284602F0CAFB20220B
:103730000221284602F020FC22460221284602F0FF
:10374000BFFD2846BDE87040022102F0C3BB70BD3A
:103750000403040000100140006402401002002035
:103760008004002078010020FEE703B401984100A6
:10377000009850EAC12018BF04204A0D18BF40F03D
:10378000010040F2FF72B2EB515F08BF40F002004F
:10379000012808BF052002B070470907090E00285C
:1037A00004DB00F1E02080F80014704700F00F0007
:1037B00000F1E02080F8141D7047000000000000B8
:1037C00030B52DED048B81B0B0EE408AF0EE608A0A
:1037D0006A4651EC180B03F087FD00989FED329B71
:1037E0007E300090002821DC53EC192B51EC180B93
:1037F00008F040FF1AD0002140F608004FF000000A
:10380000044651EC180B08F0EFFE08EE100A40F6E3
:10381000080004EA00014FF00000B5EEC08AF1EEA6
:1038200010FA04BF0220FEF700FE2DE00098FF28EA
:1038300030DB002108464FF0000000F4400553EC57
:10384000192B51EC180B09F08BF88CBF00240124C4
:103850000220FEF7EAFD9FED168A4DB1002C0CBF49
:103860004FF400004FF48000A84218BF9FED118A6A
:10387000042108464FF00000002C01BFB1EE480AB9
:1038800001B0BDEC048B30BDB0EE480A01B0BDEC18
:10389000048B30BD51EC180B08F0A6FE01B000EE11
:1038A000100ABDEC048B30BD0000000000000000D9
:1038B0000000807FFFFF7F7F30B540F2FF742DED69
:1038C000048BF0EE608A18EE901A85B0B0EE408A54
:1038D0009FED2B9B05468DED008B34EA115147D0AF
:1038E00053EC192B51EC180B08F0C4FE40D02A46BB
:1038F00051EC180B09F01EF941EC180B18EE900A68
:103900008DED008B34EA10501CD053EC192B51EC88
:10391000180B08F0AFFE2BD10220FEF786FD00F059
:1039200043F810EE901A18EE900A8DED020B8DED13
:10393000008B61F31E0003909DED020B05B0BDEC02
:10394000048B30BD0220FEF770FD00F01DF810EE74
:10395000901A18EE900A8DED020B8DED008B61F33D
:103960001E0003909DED020B05B0BDEC048B30BD35
:1039700005B0B0EE480AF0EE680ABDEC048B30BD2D
:1039800000000000000000009FED050B10B553EC97
:10399000102B51EC100B08F0E5FE41EC100B10BDA4
:1039A00000000000000000709FED050B10B553EC07
:1039B000102B51EC100B08F0D5FE41EC100B10BD94
:1039C000000000000000001010B5044691ED000B4F
:1039D000FFF7F6FE84ED000A10BD012004F082B866
:1039E000704710B5044690ED000B0846FFF764FFE2
:1039F00084ED000B10BD30380A2801D20120704739
:103A00000020704708B50021009100EB800002E023
:103A10000099491C00910099B1EB400FF8D308BD03
:103A2000816841F00801816081680907FCD48168E0
:103A300041F00401816081684907FCD47047521E3F
:103A400001290FD002290CD1032A0AD8816B21F455
:103A500040118163816B4FF4401303EA025211431A
:103A6000816370470F2AFCD8C16A21F47001C162DA
:103A7000C16A4FF4700303EA02521143C1627047F6
:103A800004490A6822F4E0220A600A6802430A60D4
:103A90007047000004230140002904D0816841F4EC
:103AA000006181607047816821F400618160704726
:103AB000816841F4807181607047816841F40071D0
:103AC000816070478168C90703D1816841F00101B5
:103AD0008160704701290AD0022907D1816821F449
:103AE00040118160816841EA0251816070478168BC
:103AF00021F040518160816841EA02718160704724
:103B0000012909D0022906D1816821F47021816040
:103B10008168114381607047816821F07061816024
:103B2000816811438160704730B51F24062909D28E
:103B3000456B01EB81018C40A54302FA01F42C4353
:103B4000446318E00C290AD2056B891F01EB81013F
:103B50008C40A54302FA01F42C4304630BE01029C6
:103B600009D2C56A0C3901EB81018C40A54302FAE8
:103B700001F42C43C46207250A2A08D2046902EB27
:103B800042018D40AC438B402343036130BD122A78
:103B9000FCD8C4680A3A02EB42018D40AC438B402A
:103BA0002343C36030BD012906D0022903D18168B7
:103BB00041F4800181607047816841F080418160FB
:103BC0007047002A12D0CA0503D5426842F48072B9
:103BD00042604A0503D5426842F480624260890728
:103BE00003D5816841F0020181607047CA0503D5A1
:103BF000426822F4807242604A0503D5426822F48A
:103C0000806242608907F0D5816821F002018160FD
:103C10007047000004490A6822F01F020A600A681F
:103C200002430A6070470000042301400248034930
:103C30000088088004F0D2BA0C0000200A0000209E
:103C40001CB505480549CDE9001000231A46072197
:103C5000034802F06BFB1CBD99830008C185000876
:103C60006000002000F00F01000900EB800001EB74
:103C70004000C0B2704700F00F01000900EB800067
:103C800001EB4000C0B2704770B500245B1E0125F7
:103C900005EB531507E051F8243052F82460334007
:103CA00040F82430641CA542F5D870BD10B501F071
:103CB0001F040123A3404C09002A50F8241003D00C
:103CC000194340F8241010BD994340F8241010BD4A
:103CD000521E012303EB52129200FCF71BBE4A094D
:103CE00050F8220001F01F01C840C0F300007047E7
:103CF00070B500245B1E012505EB531507E051F854
:103D0000243052F82460334340F82430641CA54228
:103D1000F5D870BD10B58AB040F6024005F004F940
:103D200041F2081005F000F940F6164005F0FCF8E5
:103D30004FF44030FFF7A4FE012300220321324854
:103D400003F0C7FC314C0021204602F0E9F830496D
:103D50000191012202922F49039100210491D30283
:103D60000593079108925004099001AA204602F099
:103D7000FDF900221146204602F0B5F80021204648
:103D800002F0C5F80021204602F0A4F80020FFF759
:103D900041FF1F4C01224C3C02212046FFF711FF3E
:103DA000012211022046FFF70CFF00212046FFF7F9
:103DB00073FE012211462046FFF741FE01230A222D
:103DC00000212046FFF7B0FE002201212046FFF728
:103DD00097FE002201212046FFF77CFE2046FFF7D8
:103DE0006CFE2046FFF764FE2046FFF76BFE0120C5
:103DF00001F0E4FD2046FFF713FE01212046FFF706
:103E0000D2FE0AB010BD000000080240006402406B
:103E10004C2001400C00002010B540F6014005F098
:103E200083F840F6044005F07FF84FF4406005F059
:103E30007BF84AF6802301220021084803F049FC60
:103E400001231A460021064803F043FC0123BDE884
:103E500010401A460021034803F03BBC0004024016
:103E6000001002400000024010B58AB04FF44060DC
:103E700005F05AF840F6154005F056F841F21D00DD
:103E800005F052F841F2040005F04EF8102300222C
:103E900003212D4803F01DFC2C4C01220521204656
:103EA00002F06AF804220521204602F065F8082293
:103EB0000521204602F060F810220521204602F07C
:103EC0005BF820220521204602F056F80722052142
:103ED000204602F008F81E4901911E480390402038
:103EE000079001210891029100210491420105925D
:103EF0004FF440320992069101AA0521204602F0B2
:103F000035F90521204601F0E5FF114C083C20461B
:103F100001F0EEFC00221146204601F025FD0021B3
:103F2000204601F013FD00221146204601F031FD2C
:103F30000021204601F0FCFC0021204601F0EAFCB3
:103F400007F04AFF0AB010BD0000024000600240C6
:103F5000087400400A00002030B587B040F60140E8
:103F600004F0E2FF41F20E0004F0DEFF40F61540DF
:103F700004F0DAFF1A4D4FF460442246052128462A
:103F800003F02EFB234600220221284603F0A1FB6A
:103F9000234602220021284603F0BFFBAC1423462F
:103FA00000220121284603F094FB2346022200212F
:103FB000284603F0B2FB002001904FF4827100917B
:103FC000029003210591E1100391102106910490C4
:103FD0006946044807F05EF907F034F807B030BDD1
:103FE000000402400038004070B540F6034004F081
:103FF0009BFF094D4FF47C5401222346114628466D
:1040000003F067FB234602220021284603F085FBCC
:1040100001482830046070BD000C024070B58AB0C1
:1040200040F6014004F080FF41F2150004F07CFFEF
:1040300040F6154004F078FF304E4FF400742246ED
:104040000421304603F0CCFA65102A46042130469C
:1040500003F0C6FA234601220221304603F039FB61
:10406000234602220121304603F057FB2B46012252
:104070000221304603F02DFB2B460222012130465F
:1040800003F04BFB1F4C00221D49204603F054FC5B
:10409000002272231146204603F00EFD204603F055
:1040A000DFFC2115204603F041FC174C0621204679
:1040B00001F036FF01A802F0A1F840210791134951
:1040C0000391002104910591022108910D491031BD
:1040D0000191012102914FF44030099001AA06217B
:1040E000204602F043F80621204601F007FF012296
:1040F0000621204601F0F7FE0AB070BD0004024020
:10410000801A0600005400400060024008000020B1
:1041100010B5002441F21C0004F006FF04F056F82C
:1041200000F010F8054800680549C0F30120086157
:1041300000F024F804F0ACFD204610BD70380240B9
:104140000800002010B54FF4E054204604F040FE73
:10415000204604F04DFE4FF4807004F015FF064831
:10416000FF21C1607F21816041F60F4004F0DCFE39
:10417000BDE8104005F046B80800002010B5002446
:104180001148826811490A81C06848812520087059
:104190000620C87004204870302088700020086114
:1041A000C860232008715920487150208871084642
:1041B00004F0B4FF28B1064943F2F020086020461D
:1041C00010BD4FF0FF34FAE7080000201004002073
:1041D0005028004070B58AB040F6164004F0A4FEA6
:1041E0003B4C0221204601F09BFE00210791394AF9
:1041F00003920491A2150892374A0192012002907D
:1042000005914FF44030099001AA0221204601F0A7
:10421000ADFF0221204601F071FE0422022120465A
:1042200001F061FE0221204601F054FE4FF440608F
:1042300004F07AFE41F2041004F076FE274E641575
:1042400022460721304603F0CBF965002A460721B4
:10425000304603F0C5F9234601220221304603F01F
:1042600038FA234602220021304603F056FA2B4644
:1042700001220221304603F02CFA2B4602220021B3
:10428000304603F04AFA144C241F204607F0AAFFD8
:104290004FF4E131204607F041FF0421204608F0A9
:1042A00050F80821204608F052F84021204608F036
:1042B00009F8204608F010F800221146252003F0E6
:1042C00067FE4FF44171204608F018F80AB070BD3F
:1042D000006402401002002004100140000002406F
:1042E00010B503F031F9BDE8104002F049B8000004
:1042F00010B504460A466078012304F1300101F04C
:104300009CFD08B1032010BD94F82E0294F82F12E2
:1043100040EA0120A0F52A41553901D0022010BD04
:1043200014F8660FE178627840EA0161A078663C93
:10433000000440EA022001430B48B0EB012F01D1F9
:10434000002010BD14F8821FE278637841EA026110
:10435000A278120442EA03221143B0EB012F01D1EB
:10436000002010BD012010BD0046415470B503F07F
:104370008BFE04460D4603F021FF50B103F084FE8E
:1043800004460D4603F090FE04196941641C41F196
:1043900000052046294670BD00E0401C02780AB1A5
:1043A0008A42FAD1007870472DE9F0471546036834
:1043B0001C78303C092C02D85A783A2A04D00024C0
:1043C0002CB10B20BDE8F0879B1C0360F8E7AD48DB
:1043D00004680C6084B1207820B1607801F04CFD55
:1043E000C1070BD0002738462770607001F0EDFC44
:1043F000C1070AD00320E5E70C20E3E71DB1400721
:1044000001D50A20DEE70020DCE71DB1400701D519
:104410000A20D7E7002631462046FFF769FF01460C
:10442000012912D104F5F770027972B1017AC27ACA
:1044300041EA0266817A407A090441EA0020064393
:1044400031462046FFF754FF0146032902D019B137
:104450000D20B7E70120B5E794F83B0094F83C1035
:1044600040EA0120B0F5007F01D00D20AAE794F8C2
:10447000460094F8471040EA012058B914F8540F48
:10448000E178627840EA0160A1780904543C41EA8D
:10449000022108438146E06194F84010E17001294F
:1044A00003D0022901D00D208CE7484394F83D2029
:1044B000A27012B1531E1A4201D00D2082E794F867
:1044C000411094F8423041EA03232381190701D0B7
:1044D0000D2077E794F8431094F8445041EA052101
:1044E00061B914F8501FE57894F801C041EA0561FC
:1044F000A5782D04503C45EA0C25294394F83E50FC
:1045000094F83FC045EA0C28B8F1000F07D008EB3B
:10451000000505EB131C614503D20D2052E70D2069
:1045200050E7A1EB0C01B1FBF2F131B3012540F6EC
:10453000F672914200D302254FF6F672914200D3F3
:104540000325891CA16106EB0C02A26206EB08029E
:104550002262032D13D02BB310446062022D23D0AE
:1045600001F0010001EB410100EB510000F2FF10EE
:10457000B9EB502F1AD20D2024E70D2022E70BB102
:104580000D201FE714F85C0FE278637840EA0260C0
:10459000A278120442EA0322104344F8380C5C3C2F
:1045A0008800E3E70D200DE74800DFE74FF0FF301C
:1045B0002061E760032D59D1677194F8600094F889
:1045C000611040EA0120821962616078012304F1E0
:1045D000300101F032FCE8BB94F82E0294F82F125F
:1045E00040EA0120A0F52A4155393FD114F8300F97
:1045F000E178627840EA0160A178303C090441EA40
:10460000022108432049884230D194F8140294F8DA
:10461000171294F8152240EA016094F81612090462
:1046200041EA02210843194988421FD194F81C022B
:1046300094F81F1294F81D2240EA016094F81E12AB
:10464000090441EA02210843E06094F8180294F852
:104650001B1200E00AE040EA016094F81A1294F894
:104660001922090441EA0221084320612570054905
:10467000091F0888401C0880E080E762277100203D
:10468000A0E6000058000020525261417272416160
:10469000891E8269921E8A4201D800207047826A70
:1046A000807801FB0020704770B51D25084C00E0A4
:1046B000641E802006F0ACFB08B9002CF8D124B1B0
:1046C000044806F09FFB284670BD132070BD000013
:1046D000A0860100FF07C0002DE9F05F81460F466C
:1046E000387820F04000401E00EB800101EBC00450
:1046F00000260125DFF85CA007F101084FF6FF7BDB
:104700001AF80600395C10F8080041EA00207DB173
:1047100002F088FB0546FF2C07D22046641C39F8BE
:10472000100002F07FFBA84206D00020BDE8F09FF9
:10473000584501D00020F9E7761C0D2EE0D33878DB
:10474000400605D525B139F8140008B10020EDE781
:104750000120EBE764D600082DE9F04FADF26C4D77
:10476000044604226BA12046FCF743F900281FD120
:10477000207928B10D2803D00A2801D0202817D18C
:1047800066A003F0EBFA20210AA8FCF722FA202108
:1047900002A8FCF71EFA002500266449002002F05A
:1047A00081F8DFF88CB138B162A1584603F0C4FB40
:1047B0000DF26C4DBDE8F08F012266A192A802F0C7
:1047C00081F840B15BA1584603F0B6FB00210846D2
:1047D00002F068F8ECE701ABFF2252A992A802F0C0
:1047E00029F960B9019850B152A94FF0000901F8B8
:1047F00000900027B84652AC0DF1480A6BE059A171
:10480000584603F099FB92A801F080FF002108466A
:1048100002F048F8CCE7002004E00246401C0AF809
:104820000210641C217819B10D2901D00A29F4D194
:104830000AF8009020780D2800D1641C20780A28FE
:1048400000D1641C9DF848005B2810D02FB10322D2
:104850004CA112A8FCF7CDF8F0B1B8F1000F3AD096
:10486000032248A112A8FCF7C4F820BB24E00722C9
:1048700045A112A8FCF7BDF848B10027072244A1C2
:1048800012A8FCF7B6F820B14FF0000823E001278A
:10489000F4E74FF001081EE03D2112A8FCF730F8C4
:1048A00048B1411C00E0491C08782028FBD00AA828
:1048B000FCF75CF801250EE03D2112A8FCF720F87A
:1048C00048B1411C00E0491C08782028FBD002A810
:1048D000FCF74CF80126207800289CD192A801F022
:1048E00015FF0021084601F0DDFF25B10AAA2AA123
:1048F000584603F021FB26B102AA2AA1584603F02C
:104900001BFB002D86D0002E84D029A1584603F031
:1049100013FB4DE7636F6E6600000000636F6E6609
:1049200020636F6D6D616E640000000080060020E2
:1049300000100140636F6E6669672E696E692066BC
:10494000696C65206E6F7420666F756E642E0D0A3B
:1049500000000000303A636F6E6669672E696E6909
:1049600000000000636F6E6669672E696E692066DD
:10497000696C652072656164206572726F722E0DBC
:104980000A000000436830005B526174696F5D008B
:104990005B4C696D69745D00526174696F3D25738C
:1049A0000D0A00004C696D69743D25730D0A000005
:1049B000636F6E66696720726561642073756363F7
:1049C0006573730D0A00000010B5C2B00B222CA154
:1049D000FCF70FF8002818D12CA003F0BFF9002431
:1049E0004FF4807102A8FCF7F4F80C22214602A8CB
:1049F00006F092FA04222AA102A8FBF7FAFF0100AE
:104A0000294804D029A103F097FA42B010BD9DF8BF
:104A10000C109DF80D2041EA02219DF80E2041EA7C
:104A200002419DF80F2041EA026101919DF81010AA
:104A30009DF8112041EA02219DF8122041EA02412D
:104A40009DF8132041EA0261009122A1044603F07F
:104A500073FA019807F0BAFF41EC100B25A153EC53
:104A6000102B204603F068FA009807F0AFFF41ECE6
:104A7000100B24A153EC102B204603F05DFAC4E781
:104A8000636F6E666967207265616400636F6E664E
:104A90006967207265616420636F6D6D616E64008B
:104AA000434F4E4600000000001001404E6F20763C
:104AB000616C696420636F6E6669677572617469A1
:104AC0006F6E20666F756E6420696E20666C617310
:104AD000680D0A007265616420706172616D6574B1
:104AE0006572732066726F6D20666C6173680D0A63
:104AF00000000000726174696F3A252E31660D0A5C
:104B0000000000006C696D69743A252E32660D0A4A
:104B10000000000070B5C0B00B2229A1FBF769FFAF
:104B200000284AD129A003F019F92D4C206807F07C
:104B30004DFF41EC100B2F4D53EC102B29A12846B3
:104B400003F0FAF9606807F041FF41EC100B2AA16D
:104B500053EC102B284603F0EFF9A9156846FCF733
:104B600038F829A16846FBF701FF20688DF804009A
:104B7000010A8DF80510010C8DF80610000E8DF855
:104B8000070060688DF80800010A8DF80910010C13
:104B90008DF80A10000E0C268DF80B00002420461C
:104BA00006F0B6FA06F04AFB32462146684606F0A1
:104BB000DFF917A1284603F0BFF940B070BD00002F
:104BC000636F6E666967207361766500636F6E66FA
:104BD0006967207361766520636F6D6D616E640037
:104BE0007C010020726174696F3A252E31660D0ACE
:104BF00000000000001001406C696D69743A252EB8
:104C000032660D0A00000000434F4E4600000000CF
:104C10007361766520706172616D65746572732071
:104C2000746F20666C6173680D0A00002DE9F04115
:104C30002DED028BEAB005460C462846FBF7BAFE7E
:104C4000024629462046FBF7D4FE002870D17CA1FD
:104C50002846FCF711F828B100242CB17AA003F003
:104C60007DF804E00124F8E77BA003F077F8202228
:104C70007D4962A8FBF759FF14B1DFED7C8A01E0A2
:104C8000DFED7B8A294642A8FBF770FE9DF80801FC
:104C9000A0F16101192902D820388DF808012A46AF
:104CA00074A152A8FBF7B8FB2A4675A14AA8FBF7E6
:104CB000B3FB00254FF4807102A8FBF78AFF0C229A
:104CC000294602A806F028F9042272A102A8FBF7DF
:104CD00090FE724D724E50B172A1304603F02CF925
:104CE000B7EE000A85ED000A85ED010A1DE09DF88A
:104CF0000C009DF80D1040EA01209DF80E1040EACE
:104D000001409DF80F1040EA016028609DF81000F6
:104D10009DF8111040EA01209DF8121040EA014070
:104D20009DF8131040EA0160686014B1286801E042
:104D30005DE0686807F04AFE41EC100B63A153EC9C
:104D4000102B62A8FBF768FB62AB42AA61A1304658
:104D500003F0F2F8BDEEE80A61A1304610EE102A29
:104D600003F0EAF8DFF89081002788F8007098F8DF
:104D700000000028FBD01F2260495AA8FBF750FF13
:104D80008DF887715AA8FBF715FE5AAA01E0401E5C
:104D90001754002806DD111811F8011C0D29F6D052
:104DA0000A29F4D088F800704FF400715348FBF7DB
:104DB000EEFE5AA802F0C2FEF0B15AA806F082FA3E
:104DC000B0EE408AB5EEC08AF1EE10FA04D3B4EE2C
:104DD000E88AF1EE10FA1BDD52AA49A1304603F031
:104DE000ABF862AB42AA3BA1304603F0A5F86AB02B
:104DF000BDEC028BBDE8F08152AA41A1304603F020
:104E00009BF862AB42AA33A1304603F095F8EEE777
:104E100014B185ED008A01E085ED018A4AAA38A126
:104E2000304603F089F818EE100A07F0CFFDCDE9FF
:104E3000000142AA34A1304603F07EF8D7E7000013
:104E4000726174696F000000726174696F20636F32
:104E50006D6D616E640000006C696D697420636F34
:104E60006D6D616E64000000F8D700080000C84254
:104E70000000FA43257320696E76616C6964000056
:104E80002573206D6F64696669656420737563635B
:104E900065737300434F4E46000000007C01002004
:104EA000001001404E6F2076616C696420636F6E64
:104EB00066696775726174696F6E20666F756E647E
:104EC00020696E20666C6173680D0A00252E3166BC
:104ED000000000002573203D2025730D0A0000000E
:104EE000496E7075742076616C756528302D256467
:104EF000293A0D0A000000007801002080040020FB
:104F000025730D0A000000002573203D20252E3159
:104F1000660D0A002DE9F04106460F46002F08D025
:104F20003946304602F0A8FA022809D20120BDE82D
:104F3000F081F56815B1B069A84205D8012503E0F4
:104F4000B1698142F3D83D462C46641CB069A04249
:104F500004D80224022D01D20020E8E72146304681
:104F600002F08AFA38B1411CE1D00128DFD0AC420E
:104F7000EBD10020DBE76FF070422146304603F0B2
:104F8000EBFC28B927B122463946304603F0E4FC51
:104F900020B101280BD001242046C8E7F460306915
:104FA000411CF9D0401E306101207071F4E74FF0D0
:104FB000FF34F1E710B501F023FB104C60B110A0F5
:104FC00001F0AEFB02466AB1082A11D00FA12046BB
:104FD00002F0B2FF002010BD19A1204602F0ACFF84
:104FE000002010BD23A1204602F0A6FF012010BD25
:104FF0002BA1204602F0A0FF012010BD00100140AF
:10500000303A2F6869646544617461004661696C77
:10501000656420746F2063726561746520686964DB
:105020006564617461206469726563746F72792C60
:10503000206572726F723A2025640D0A000000002C
:1050400053442063617264206E6F742072656164E2
:105050007920666F72206869646564617461206498
:1050600069726563746F7279206372656174696FC8
:105070006E0D0A0048696465646174612064697238
:105080006563746F727920637265617465642073FF
:1050900075636365737366756C6C790D0A00000047
:1050A0004869646564617461206469726563746FE2
:1050B000727920616C7265616479206578697374B6
:1050C000730D0A0010B501F09BFA104C60B110A0EE
:1050D00001F026FB02466AB1082A11D00EA1204633
:1050E00002F02AFF002010BD16A1204602F024FF86
:1050F000002010BD1FA1204602F01EFF012010BDA0
:1051000026A1204602F018FF012010BD001001402A
:10511000303A2F6C6F6700004661696C65642074DB
:105120006F20637265617465206C6F6720646972BB
:105130006563746F72792C206572726F723A2025E4
:10514000640D0A0053442063617264206E6F742002
:10515000726561647920666F72206C6F6720646984
:10516000726563746F7279206372656174696F6EC2
:105170000D0A00004C6F67206469726563746F727A
:105180007920637265617465642073756363657308
:105190007366756C6C790D0A000000004C6F672017
:1051A0006469726563746F727920616C72656164A1
:1051B00079206578697374730D0A00002DE9F35F37
:1051C0008846D8F8006000E0761C30782F28FBD0A5
:1051D0005C28F9D00098D0F81CA000242546284669
:1051E0006D1C305C202808D32F2806D05C2804D002
:1051F000FF2C09D30620BDE8FC9F7119C8F80010E8
:1052000020282DD2042535E0C0B2A0F181011E294D
:1052100002D95F391C290ED829466D1C715CA1F199
:1052200040023F2A04D3403A7D2A01D30620E2E718
:1052300001EB002080B2012101F0EDFD074647B1EE
:10524000802F08D2394665A0FFF7A6F818B10620CE
:10525000D1E70620CFE72046641C2AF81070BEE78D
:10526000002507E0601E3AF81000202801D02E2803
:1052700002D1641E002CF5D154B100202AF814008C
:1052800000980B222021806902F017FE002702E01F
:105290000620B0E77F1C3AF817002028FAD02E2805
:1052A000F8D01FB145F0030500E0641E24B1601E74
:1052B0003AF810002E28F8D14FF00008C1464FF000
:1052C000080B38467F1C3AF8106006B3202E03D036
:1052D0002E2E04D1A74202D045F00305F1E7D845B0
:1052E00001D2A74219D1BBF10B0F0ED0A74201D0BA
:1052F00045F003050BD827464FF008084FF00B0B7D
:105300004FEA89604FEA1069DBE745F00305009832
:1053100080690178E5293DD03EE0802E08D33046F3
:1053200001F080FD002101F076FD064645F0020502
:10533000FF2E0FD9ABF10100804503D345F00305E3
:10534000D846BEE70098310A8269404608F1010854
:10535000115418E026B1314623A0FFF71DF818B10B
:105360005F2645F003050EE0A6F14100192802D89A
:1053700049F0020907E0A6F16100192803D849F0B5
:105380000109203EB6B200988169404608F1010843
:105390000E5496E705210170BBF1080F03D14FEAC7
:1053A00089604FEA1069C9F38100032803D06FEACE
:1053B0000901890701D145F00205A90709D409F0BF
:1053C0000301012901D145F01005012801D145F063
:1053D000080500988069C57200200CE7222A3A3C33
:1053E0003E3F7C7F000000002B2C3B3D5B5D0000BE
:1053F00000B595B011A802F005F811AB0EA211A1ED
:1054000001A8FBF709F80A2201A9134801F05AFA8A
:105410000346124833B101AA11A102F08DFD00200C
:1054200015B000BD01AA1AA102F086FD0A4801F0DC
:10543000C3FB0120F4E70000303A2F68696465443B
:105440006174610025732F68696465446174612526
:10545000732E7478740000004C110020001001407D
:105460004661696C656420746F2063726561746560
:105470002068696465646174612066696C653A20BE
:1054800025732C206572726F723A2025640D0A0014
:1054900048696465646174612066696C6520637243
:1054A00065617465643A2025730D0A0000B589B002
:1054B00003460EA20FA101A8FAF7AEFF0A2201A926
:1054C000104801F0FFF903460F4833B101AA0FA1BC
:1054D00002F032FD002009B000BD01AA16A102F0C1
:1054E0002BFD084801F068FB0120F4E7303A2F6CEF
:1054F0006F67000025732F6C6F67256C752E7478AD
:1055000074000000280F0020001001404661696C03
:10551000656420746F20637265617465206C6F67C9
:105520002066696C653A2025732C206572726F7253
:105530003A2025640D0A00004C6F672066696C658F
:1055400020637265617465643A2025730D0A00005A
:1055500000B5A5B021A801F055FF21AB0EA212A104
:1055600011A8FAF759FF11A901A8FBF7FFF90A22C0
:1055700001A9114801F0A6F90346104833B101AA68
:105580000FA102F0D9FC002025B000BD01AA19A18D
:1055900002F0D2FC0120F7E7303A2F6F7665724CAB
:1055A000696D69740000000025732F6C696D697462
:1055B00025732E7478740000040D00200010014043
:1055C0004661696C656420746F20637265617465FF
:1055D000206F7665726C696D69742066696C653AD6
:1055E0002025732C206572726F723A2025640D0A93
:1055F000000000004F7665726C696D697420666901
:105600006C6520637265617465643A2025730D0AC8
:105610000000000000B5A5B021A801F0F3FE21AB09
:105620000EA211A111A8FAF7F7FE11A901A8FBF724
:105630009DF90A2201A9104801F044F903460F48D8
:1056400033B101AA0EA102F077FC002025B000BD05
:1056500001AA17A102F070FC0120F7E7303A2F737E
:10566000616D706C6500000025732F6461746125A5
:10567000732E747874000000B00800200010014000
:105680004661696C656420746F206372656174653E
:105690002073616D706C652066696C653A202573B6
:1056A0002C206572726F723A2025640D0A0000008A
:1056B00053616D706C652066696C6520637265610D
:1056C0007465643A2025730D0A00000010B500F0DF
:1056D00097FF104C60B110A001F022F802466AB1A9
:1056E000082A11D010A1204602F026FC002010BD8F
:1056F0001AA1204602F020FC002010BD25A1204662
:1057000002F01AFC012010BD2DA1204602F014FC6D
:10571000012010BD00100140303A2F6F7665724CA9
:10572000696D6974000000004661696C65642074ED
:105730006F20637265617465206F7665726C696D48
:105740006974206469726563746F72792C20657264
:10575000726F723A2025640D0A00000053442063E2
:10576000617264206E6F7420726561647920666F67
:1057700072206F7665726C696D69742064697265F8
:1057800063746F7279206372656174696F6E0D0A5C
:10579000000000004F7665726C696D697420646961
:1057A000726563746F7279206372656174656420D9
:1057B0007375636365737366756C6C790D0A0000AD
:1057C0004F7665726C696D69742064697265637483
:1057D0006F727920616C7265616479206578697394
:1057E00074730D0A0000000010B500F009FF104CA2
:1057F00060B110A000F094FF02466AB1082A11D0EF
:105800000FA1204602F098FB002010BD18A12046F1
:1058100002F092FB002010BD22A1204602F08CFB7A
:10582000012010BD29A1204602F086FB012010BDF9
:1058300000100140303A2F73616D706C65000000FC
:105840004661696C656420746F206372656174657C
:105850002073616D706C65206469726563746F722A
:10586000792C206572726F723A2025640D0A00004F
:1058700053442063617264206E6F742072656164AA
:105880007920666F722073616D706C652064697237
:105890006563746F7279206372656174696F6E0DF0
:1058A0000A00000053616D706C6520646972656365
:1058B000746F7279206372656174656420737563B7
:1058C0006365737366756C6C790D0A0053616D7056
:1058D0006C65206469726563746F727920616C72A3
:1058E00065616479206578697374730D0A0000003E
:1058F00010B50749C84209D140F61D04204603F0FF
:1059000033FB2046BDE8104003F01EBB10BD000075
:10591000008CFFBF002906D0012903D1016841F0A6
:10592000805101607047016841F480510160704707
:10593000002906D0012903D1016841F480310160BA
:105940007047016841F0010101607047002906D0ED
:10595000012903D1016841F4802101607047016889
:1059600041F004010160704700290AD0012907D1E4
:10597000016821F460110160016841EA024101609F
:105980007047016821F0380101600168114301602E
:10599000704700290AD0012907D1016821F440018C
:1059A0000160016841EA024101607047016821F02D
:1059B000C00101600168114301607047024908603D
:1059C00008680028FCD170470000002003480168E7
:1059D000002902D00168491E0160704700000020C4
:1059E00070B50E494A68A0FB024508695A2801DDD6
:1059F000086900E05A20C117021B71EB05020BDA9F
:105A0000241A65EB010501F0C9FD04194D4101F0AF
:105A1000C5FD001BA941FADB70BD0000A8010020F4
:105A20002DE9F04704460021204600F088F90028BF
:105A300052D1FF26B1462169206802F046FA80461D
:105A40005FEA080047D167693D7855B1F87A00F000
:105A50003F00E52D03D0010706D50F2804D0FF260F
:105A600031E04FF0040836E00F2801D0CEB11DE040
:105A7000E06940B3690606D597F80D9025F040051A
:105A80002E46E1882184B54208D1797B494505D16C
:105A90003946FEF721FE08B1761E00E0FF26F6B279
:105AA00011E0384605F04EFC484514D0FF264FF66D
:105AB000FF702084A169C87AC00704D10B22384640
:105AC00002F0E5F938B10021204600F007F88046E1
:105AD0005FEA0800AFD04046BDE8F0872DE9F0410D
