:020000040800F2
:10000000F01000203D030008FF320008F531000821
:10001000FD320008F13100081D3800080000000022
:10002000000000000000000000000000773600081B
:10003000F331000800000000713600087D0300085D
:100040005703000857030008570300085703000828
:100050005703000857030008570300085703000818
:100060005703000857030008570300085703000808
:1000700057030008570300085703000857030008F8
:1000800057030008570300085703000857030008E8
:1000900057030008570300085703000857030008D8
:1000A00057030008570300085703000857030008C8
:1000B00057030008570300085703000857030008B8
:1000C00057030008570300085703000857030008A8
:1000D00057030008A137000857030008570300081A
:1000E0005703000857030008570300085703000888
:1000F0005703000857030008570300085703000878
:100100005703000873360008570300085703000818
:100110005703000857030008570300085703000857
:100120005703000857030008570300085703000847
:100130005703000857030008570300085703000837
:100140005703000857030008570300085703000827
:100150005703000857030008570300085703000817
:100160005703000857030008570300085703000807
:100170005703000857030008570300080000000059
:1001800057030008570300085703000857030008E7
:100190005703000857030008570300080000000039
:1001A00057030008570300085703000800F002F83F
:1001B00000F0B4F80AA090E8000C82448344AAF14D
:1001C0000107DA4501D100F0A9F8AFF2090EBAE84B
:1001D0000F0013F0010F18BFFB1A43F0010318477B
:1001E0001CBB00003CBB00000A444FF0000C10F8A0
:1001F000013B13F0070408BF10F8014B1D1108BFA5
:1002000010F8015B641E05D010F8016B641E01F844
:10021000016BF9D113F0080F1EBF10F8014BAD1C94
:100220000C1B09D16D1E58BF01F801CBFAD505E0B2
:1002300014F8016B01F8016B6D1EF9D59142D6D30C
:10024000704700000023002400250026103A28BF34
:1002500078C1FBD8520728BF30C148BF0B60704738
:100260006E2900F0B385702900F0138766290AF023
:10027000DF8665290AF0DC8667290AF0D9866129BC
:100280000AF0D88603681B0A28BF41F0800169295B
:1002900000F06085642900F05D85752900F05A85BD
:1002A0006F2900F0A086782900F0DF86E92900F0A8
:1002B0003B86E42900F03886F52900F03586EF29E1
:1002C00000F09D86F82900F0DE860368DB0928BF70
:1002D00041F08001632900F0BC85732900F0C185DD
:1002E000E32901F0B983F32901F0BE8300207047B0
:1002F0001FB50AF090FE01F0C7FD040000200021A8
:100300000AF010FC401C6060002000210AF0F4FBA1
:10031000E06000F051FC1FBD10B510BD01F086FD7E
:100320001146FFF7E5FF06F0CDFC02F0DFF803B45D
:10033000FFF7F2FF03BC02F00DFB00000948804705
:1003400009480047FEE7FEE7FEE7FEE7FEE7FEE7B7
:10035000FEE7FEE7FEE7FEE704480549054A064BCF
:10036000704700007D360008AD010008F00800204D
:10037000F0100020F00C0020F00C002030B410B57C
:100380000348804730BCAE4630BC024800470000FE
:10039000716F00087936000800BF704710B54C1027
:1003A00084EA530404D54042C1F1000138BF491E1C
:1003B0001B4204D55242C3F1000338BF5B1E00F05C
:1003C0000DFC14F0804F04D04042C1F1000138BF51
:1003D000491E14F0004F04D05242C3F1000338BF4D
:1003E0005B1E10BD7CB51D4616460C00009001D06A
:1003F0002044401E074B7B442A4669460190304604
:1004000000F0FDFC05461CB10020694600F00AFD25
:1004100028467CBD350A00000FB41CB5084B06AA5F
:100420007B4469460090059800F0E9FC04460020F2
:10043000694600F0F7FC20461CBC5DF814FB000088
:10044000010A000070B50C460546012A05D028783F
:10045000800600D5EA69002302E0012305E05B1C69
:10046000934202D2E05C0028F9D1A869E618C01ACC
:10047000A861286A18442862284600F031FC04E08C
:10048000D5E9012114F8010B9047B442F8D328466E
:1004900000F03CFC70BD00002DE9F05F8946044689
:1004A0004FF0000ADFF874B1FB44C0F820A02046EA
:1004B000E1688847002874D0252806D0D4E90121B6
:1004C0009047206A401C2062F1E700265F462046E4
:1004D000E16888472028054607DB312D05D27819C9
:1004E00010F8200C08B10643F1E7B00701D526F05B
:1004F0000406C4F81CA00027C4F818A02A2D09D0AF
:10050000284603F0ECFA38B304EB8708303DC8F80E
:10051000185019E059F8041B204604EB870291613A
:10052000E1688847012F054618D1E069002820DAE4
:1005300026F020061DE0D8F8180000EB800005EB3F
:1005400040003038C8F818002046E1688847054662
:1005500003F0C5FA0028EED1012F0AD02E2D08D1C4
:100560002046E16888477F1C0546022F46F020069A
:10057000C4DBA069002803DA404246F00106A0610E
:10058000F00701D026F010066C2D0BD0682D09D095
:100590004C2D39D06A2D35D0742D35D07A2D33D0ED
:1005A00016E038E0E1682F4620468847B842054605
:1005B00009D16C2F26D04FF48060E16806432046B5
:1005C0008847054604E06C2F1AD04FF4807006432C
:1005D0000DB3A5F14100192802D8203546F4006674
:1005E0004A462946204626604E46FFF739FE80B12E
:1005F00001280BD0F61D26F0070000F1080956E788
:100600004020E4E78020D8E70020D6E706F104097F
:100610004DE7284652E7206ABDE8F09F50B700003A
:100620000FB400B58DB010A9099000910B904FF058
:10063000FF300A9000200C90064878440690064847
:1006400078446A4607900F9909A800F041FD0DB063
:100650005DF814FBB30A0000CB0A00002DE9FF5F30
:100660001D464FF0FF3B91464FF000085F46D5E92D
:100670000146A96901987F1C8847296A82468847F4
:100680000028F6D1BAF1FF3F0CD0002E24F4C0644C
:1006900019DD600614D5BAF12B0F09D0BAF12D0F70
:1006A0000ED103E0584604B0BDE8F09F44F48064E6
:1006B000A96901987F1C8847761E8246002E02DDBC
:1006C000BAF1300F03D0B9F1000F26D032E0A9699A
:1006D000761E01987F1C44F400748847002E8246E1
:1006E00005DDBAF1780F06D0BAF1580F03D0B9F191
:1006F000000F10D01EE0B9F1000F02D0B9F1100FB9
:1007000018D1A969761E01987F1C24F400748847CB
:100710008246102002E0082000E00A20814609E01D
:10072000A96908FB0908761E01987F1C44F400742F
:1007300088478246002E05DD4946504600F0B4FC4D
:100740000028EDDAE96901988847A00502D46FF026
:100750000100A8E7E00725D1600613D5600502D5A2
:10076000C8F1000000E0404629680A1D2A600968B7
:10077000220501D5087015E0220701D5088011E097
:1007800008600FE02868011D29600068210502D576
:1007900080F8008006E0210702D5A0F8008001E083
:1007A000C0F8008038467EE730B505460B462A463D
:1007B00013F8014B12F8010B08B1A042F8D01CB19C
:1007C000002802D06D1CF1E7284630BD40EA010345
:1007D00010B59B070FD1042A0DD310C808C9121FEA
:1007E0009C42F8D020BA19BA884201D9012010BD24
:1007F0004FF0FF3010BD1AB1D30703D0521C07E0F1
:10080000002010BD10F8013B11F8014B1B1B07D154
:1008100010F8013B11F8014B1B1B01D1921EF1D1C5
:10082000184610BD40EA0103024630B59B0710D1BF
:100830004FF0013400E008C208C91D1B9D4315EAB2
:10084000C41FF8D013F0FF0102F8011B0DD01B0AE2
:10085000F8E711F8013B002B02F8013B05D011F835
:10086000013B002B02F8013BF3D130BD10B5431C16
:1008700002E010F8011B71B18107FAD14FF001328B
:1008800002C88C1A8C4314EAC211F9D0C01A0A06A5
:1008900003D0C01E10BDC01A10BD0A0401D0801EB6
:1008A00010BD0902FCD0401E10BD40EA010370B526
:1008B0009B072ED14FF00136042A2AD308C810C94D
:1008C0009D1B9D43121F15EAC61517D0D8B2E1B281
:1008D000401A50EA056110D198B2A1B2401A50EA0C
:1008E00005410AD123F07F4024F07F41401A50EAAD
:1008F000052102D1180EA0EB146070BDA342DBD01D
:1009000018BA21BA884201D9012070BD4FF0FF30DA
:1009100070BD0AB9002070BD10F8013B11F8014B01
:1009200063B1A3420AD1521E08D010F8013B11F85E
:10093000014B1BB1A34201D1521EEDD1181B70BD5A
:10094000421E12F8013F002BFBD111F8013B002B96
:1009500002F8013BF9D17047032A40F2308010F0D1
:10096000030C00F0158011F8013BBCF1020F62444A
:1009700098BF11F801CB00F8013B38BF11F8013BDB
:10098000A2F1040298BF00F801CB38BF00F8013B88
:1009900011F0030300F02580083AC0F0088051F8F8
:1009A000043B083A51F804CBA0E80810F5E7121D03
:1009B0005CBF51F8043B40F8043BAFF30080D20722
:1009C00024BF11F8013B11F801CB48BF11F8012BEE
:1009D00024BF00F8013B00F801CB48BF00F8012B11
:1009E000704710B5203AC0F00B80B1E81850203A9B
:1009F000A0E81850B1E81850A0E81850BFF4F5AFBF
:100A00005FEA027C24BFB1E81850A0E8185044BF48
:100A100018C918C0BDE810405FEA827C24BF51F8B5
:100A2000043B40F8043B08BF7047D20728BF31F8A9
:100A3000023B48BF11F8012B28BF20F8023B48BFFA
:100A400000F8012B70474FF000020429C0F012801B
:100A500010F0030C00F01B80CCF1040CBCF1020F71
:100A600018BF00F8012BA8BF20F8022BA1EB0C0146
:100A700000F00DB85FEAC17C24BF00F8012B00F83C
:100A8000012B48BF00F8012B70474FF0000200B562
:100A9000134694469646203922BFA0E80C50A0E8A1
:100AA0000C50B1F12001BFF4F7AF090728BFA0E84F
:100AB0000C5048BF0CC05DF804EB890028BF40F81B
:100AC000042B08BF704748BF20F8022B11F0804F5D
:100AD00018BF00F8012B704710B5044610F0030F43
:100AE00008BF11F0030F40F015804FF0013E121FB8
:100AF000C0F20E8051F8043BA3EB0E0C2CEA030C61
:100B00001CEACE1C08BF40F8043BF0D0A1F1040160
:100B100002F10402521E08DB11F8013B002B00F821
:100B2000013BF7D11146FFF78EFF204610BD0000B4
:100B30004FF0013C50F8042B51F8043B9A4221D16C
:100B4000A2EB0C03934313EACC1317D150F8042BF8
:100B500051F8043B9A4215D1A2EB0C03934313EADC
:100B6000CC130BD150F8042B51F8043B9A4209D115
:100B7000A2EB0C03934313EACC13DBD04FF000003D
:100B8000704700BFD01A01BAB1FA81F101F0180123
:100B900022FA01F0CB40C1F12001DBB2C0B2C01A91
:100BA0002CFA01F3D11A914311EAC311E6D170472F
:100BB000704770477047000070B5064C7C44064D86
:100BC0007D4403E0206820448047241DAC42F9D1D5
:100BD00070BD000098B2000098B2000053EA020C09
:100BE00000F069802DE9F04B4FF00006002B1FBF8D
:100BF000B3FA83F503FA05F424FA05F65E4012BF52
:100C00001643B2FA82F502FA05F4C5F120051EBFBB
:100C100022FA05FC44EA0C04203556EA044C4FEA5B
:100C2000144418BF641C4FF000084FF000099042B4
:100C300071EB030C39D3002919BFB1FA81F701FA1E
:100C400007F6B0FA80F700FA07F6C7F120071EBFD3
:100C500020FA07FC46EA0C062037B6FBF4FCA7EBAB
:100C60000507103F07F01F0BCBF120060CFA0BFB1A
:100C70002CFA06F644BFB3460026202FA4BF5E46DA
:100C80004FF0000B5BEA060C08BF4FF0010B19EBAD
:100C90000B09ABFB027C48EB0608C01B06FB02CC31
:100CA0000BFB03CC71EB0C01C1E70B46024641463E
:100CB0004846BDE8F08B13B54FF000004FF000013F
:100CC000AFF30080BDE81C40704710B500F082FA19
:100CD000006810BD10B5044600F07CFA046010BD39
:100CE00070B5044685690068C10601D5302600E06C
:100CF0002026C00707D070BDD4E9012130469047B7
:100D0000206A401C20626D1EF6D570BD70B5044689
:100D100085690078C00707D170BDD4E90121202082
:100D20009047206A401C20626D1EF6D570BD096890
:100D30004A0501D540B27047C905FCD500B27047DD
:100D400009684A0501D5C0B27047C905FCD580B213
:100D5000704700002DE9F04106460024106875290F
:100D6000314616A510D0FFF7E2FF002802DA404214
:100D700013A507E031688A0701D512A502E04907EB
:100D800004D511A5012401E0FFF7DAFF00210A22B2
:100D900006F1240709E0B0FBF2FCB0FBF2F302FB22
:100DA0001C00303078541846491C0028F3D12346E3
:100DB0002A463046BDE8F04100F05EBA000000006F
:100DC0002D0000002B0000002000000011680268C8
:100DD000006A530501D508700AE0D30501D50880E3
:100DE00006E0130603D5C217C1E9000200E008605F
:100DF0000120704701694A1C02610878704700B5FC
:100E00008FB0CDE901310021059105497944CDE943
:100E1000031011466846FFF73FFB0FB000BD00000E
:100E2000E5FFFFFF0A6802F8010B0A607047D1E98D
:100E300000239A4202D2531C0B601070704710B509
:100E4000436913B1AFF3008001E0FFF7FBFA012023
:100E500010BD127800F124010A7000224A700122AC
:100E6000EDE711684FF0FF32E9E700002DE9FF5F81
:100E700015468A460446DFF8AC80F8440027D8E9D6
:100E800000103E46CDE9001010E03AF816106A4610
:100E900002A800F0A7FF411C07D02178890603D5DE
:100EA000E269391891420DD80744761C20788006F3
:100EB00002D5E069B84205DDAE42E6DB3AF816003D
:100EC0000028E2D1A069C01BA0612046FFF708FFFF
:100ED000D8E90010CDE90010002017E03AF818100A
:100EE0006A4602A800F07EFFB0F1FF3F81460BD0BA
:100EF00000250DF1080B05E0D4E901211BF80500E0
:100F000090476D1C4D45F7D308F10100B042804673
:100F1000E4DB206A384420622046FFF7F7FEBDE894
:100F2000FF9F000092AD00002DE9F0418046D21DE8
:100F300022F007020025D2E90002F52915A614D0F7
:100F4000011E72F1000106DA0023D0EB030063EB0F
:100F5000020211A608E0D8F800108B0701D50FA6F1
:100F600002E0490701D50EA601251146002408F12B
:100F7000240704E000F032F930323A55641C50EA9C
:100F80000102F7D12B46324621464046BDE8F041EA
:100F900000F072B9000000002D0000002B000000DE
:100FA0002000000030B4002100F1240408E002F029
:100FB0000705D208303542EA4372DB086554491C04
:100FC00052EA0305F3D10468002310A2250707D5D0
:100FD000A40600D421B1C46901230DA2641EC4611A
:100FE00030BC00F049B910B5044621461068FFF73F
:100FF000A7FE02462046BDE810400023D2E7D21DDE
:1010000022F00701D1E90023CCE700000000000036
:1010100030000000F0B40D460188090502D5214CCE
:101020007C4402E01F4C7C440E34002100F1240675
:1010300008E002F00F071209E75D42EA03721B099C
:101040007754491C52EA0307F3D1027800231207B0
:1010500004D5702D06D009B1022311342246F0BC0C
:1010600000F00AB901231034F8E770B504460D46C4
:1010700021461068FFF764FE024629462046BDE877
:1010800070400023C6E7D21D22F00703D3E90023F6
:10109000C0E70368126843F0200303600823C361BC
:1010A0000023B7E7F4AB00003A2800D2303820F034
:1010B0002002412A01D3A2F13700884201D34FF028
:1010C000FF3070470268114413780160184670477A
:1010D000D160054979445161044979441162002184
:1010E0001161114600F0C4BCEDFFFFFF8901000053
:1010F000426842B1016811F8013B23B1521EC0E9B8
:101100000012184670470121C160881E704742686E
:101110005AB1C368016843B983688B4205D0491E40
:10112000521CC0E90012002070474FF0FF3070479A
:101130000FB4002300B589B00CA900910B99CB60C6
:10114000214B7B440693214B7B44079304236FF090
:101150000042CDE901321E4A7A446B4608920246AB
:10116000002009F0C9FF09B05DF814FB70B5064610
:101170004FF0FF3015460C46324686B00091CDE95F
:10118000010169460020049004A8FFF7D1FF024640
:101190000498211825B108B1084600E020462860CF
:1011A000049800280DD0002A02DD0098884208D05B
:1011B0003246081B69460094CDE9010404A8FFF7F4
:1011C000B7FF06B070BD0000ABFFFFFFC3FFFFFF1E
:1011D0000B010000004870479008002030B5B0F1C6
:1011E0000A024FEA900E71F100034EEA817EB0EBE5
:1011F0000E0061EB91014FEA101E4EEA017E10EBEA
:101200000E0041EB11114FEA102E4EEA016E10EB69
:101210000E0041EB11214FEA104E4EEA014E10EB49
:101220000E0041EB1141401841F100014FEAD0009E
:1012300040EA41704FEAD10110EB80054FEA81048A
:1012400044EA907444EB01046D1944EB0404521B0E
:10125000A3414FF0000348BF0A3200D530BD401C07
:1012600041F1000130BD10B5044600F005FE0068F4
:10127000005D00F0010010BD2DE9F0470D469946D4
:101280009246044600F124080168880604D5E06906
:1012900021F01001216000E00120A84201DD471B80
:1012A00000E00027A1697A1902EB0900081AA06181
:1012B0002078C00602D42046FFF712FD002608E081
:1012C000D4E901211AF806009047206A401C761CD8
:1012D00020624E45F4DB2078C0060AD52046FFF791
:1012E000FFFC06E0D4E9012130209047206A401C31
:1012F0002062381EA7F10107F4DC07E0D4E90121E0
:1013000018F805009047206A401C2062281EA5F1AD
:101310000105F3DC2046FFF7F9FC2078000602D532
:101320000220BDE8F0870120FBE770472DE9FF4F61
:101330000C461E464FF0FF378BB0D2E90001DDF8B6
:1013400060800A908A46C1F30A5505B93D460021DE
:1013500008464FF00000BAF1000F00F4400005DA33
:1013600000EB80004FF4400101EA50004FEA905931
:10137000B9F1010F00DDB9460A9850EA4A000ED0D3
:1013800044F61050A5F2FF3545432F14B8F1000F75
:101390001ED07542291E1EDDC9F100021CE0B8F105
:1013A000010F4FF0000001D0302103E0F24305E0CF
:1013B0002154401CB042FBDB304600220021215466
:1013C0000B99C1F80880C1E900200FB0BDE8F08F8B
:1013D000BD1B6D1CDEE74A4600DA694206A801F033
:1013E00013F806AB93E8070003AB83E80700504609
:1013F0000A9901F0C8FA8DE80700A0F500501F38DF
:1014000000900398002D0ADD42F21F014A4608446D
:10141000002303A90390684601F074FD09E0A0F5DC
:1014200000504A461F38002303A90390684601F084
:1014300093FD8DE807000004000C03D04FF0FF304F
:10144000410800E01046B8F1000F03D000220092DE
:1014500015461EE0751E05D4FFF7C0FE30326255FA
:101460006D1EF9D5B3460122084302D000227F1C2D
:1014700004E02078302801D100227F1E002A09973D
:1014800084D01DE0112D07DAFFF7A8FE3032625537
:101490006D1C50EA0102F5D1084302D00098C8B192
:1014A0000EE00021681E05E0235C625C6354225458
:1014B000401E491C8142F7DBAB46A81B401E099029
:1014C000002004F80B000B98099AC0F80880C0E9C6
:1014D000002B7AE711264FF0000857E72DE9F04F6F
:1014E00088460446D21D22F0070191B0D1E90001DF
:1014F000CDE90A0102F093F902460B98C00F01D022
:101500002D2007E02068810701D52B2002E0202153
:1015100001EAC000032A099001D0072A05DB03462F
:101520004146204600F0B4FC0BE12078800601D54E
:10153000E06900E00620B8F1650F814606D0B8F1F9
:10154000660F18D0B8F1670F70D131E00020B9F103
:10155000110F009001DB112301E009F101030AAA38
:1015600001A90CA8FFF7E2FEDDE90C70002609F1E5
:101570000105834647E001204B4600904FF00047AD
:101580000AAA01A90CA8FFF7D1FEDDE90DB00C995C
:101590005D46002610B909F101000D18B9EB0500F0
:1015A00003D4C0F1FF3609F10105A5EB09002BE0DA
:1015B000B9F1010F01DA4FF001090020B9F1110F63
:1015C0000090484601DD112300E003460AAA01A964
:1015D0000CA8FFF7ABFEDDE90C704D4600268346F4
:1015E000207800070AD4AB4500DA5D4601A8012D3A
:1015F00004DD411911F8011C302907D04F4502DAEA
:1016000017F1040F04DA012082460FE06D1EEEE7A9
:10161000002F02DCED1B3E4403E0781CA84200DDF5
:101620007D1CB81B00F1010A4FF00047207800072D
:1016300003D4AA4501DB4FF0FF3A0021B7F1004F78
:101640000DF143088DF8431024D002202B23002FE6
:1016500001DA7F422D230A21021EA0F1010000DCE5
:101660005FB197FBF1FC97FBF1F201FB1C7C174685
:101670000CF1300C08F801CDEEE7A8F10100037081
:101680002188090501D5452100E06521A0F1010867
:1016900000F8011C09980FA9A1EB0807FF1D00B174
:1016A0000120411901EBEA70A1693844081A401E73
:1016B000A0612078C00602D42046FFF711FB0998EC
:1016C00028B1D4E901219047206A401C206220788B
:1016D000C00622D52046FFF703FB1EE0002E04DBE8
:1016E000B34502DD01A8805D00E03020D4E901218E
:1016F0009047206A401C2062761CAAF101005FEA34
:10170000000A0AD100F0C0FBC0680168405CD4E95F
:1017100001219047206A401C2062281EA5F1010586
:10172000DCDC07E0D4E9012118F8010B9047206ABE
:10173000401C2062381EA7F10107F3DC2046FFF7AA
:10174000E5FA032011B041E62DE9F04F04460D46BD
:10175000D21D22F0070089B0D0E9009748463946EB
:1017600002F05DF80246F80F01D02D2307E0206853
:10177000810701D52B2302E0202101EAC0038DF867
:1017800020300BB1012000E00020032A824601D066
:10179000072A04DB2946204600F07AFB3FE1207847
:1017A000800601D40D2500E0E569C7F30A560D2D2A
:1017B00049DA00214FEA175B08464FF00000002F7E
:1017C00000F4400007DA00EB80004FF4400100EB2A
:1017D000D07001EA60008115012901DD4FF0FF3171
:1017E00000224FEA850CBCF1180F06D31346ACF16A
:1017F00018004FF08052C24003E04FF4801323FAE8
:101800000CF30CF10C0CBCF1200F04D3ACF1200C48
:1018100009FA0CF001E007FA0CF000294FF000483B
:1018200001DD18B90FE00ED140450CD319EB0209C8
:101830005F4121B9404502D19F4329EA0209BBEB30
:10184000175F00D0761C2088000502D57B487844BD
:1018500002E07A487844193808AA302302F80A309E
:10186000037C0AF10101002E0AF1020A53546A4670
:1018700002DC4FF0300101E04FF031014FF0010880
:101880008DF8001002D0A6F2FF3603E059EA4701B6
:1018900000D06B4E002D02DC2178090704D54FF0F3
:1018A00002082E218DF80110C44600210BE0C7F379
:1018B00003433F01C35C491C6D1E02F80830052933
:1018C00008F1010801DA002DF1DC00210CE000EB49
:1018D0001973491C1B786D1E082902F808304FEA5D
:1018E000091908F1010801DA002DF0DC21688B06E6
:1018F00002D516E0A8F10108E04505DD02EB08037A
:1019000013F8013C302BF5D0B8F1000F09DD02EBE4
:10191000080313F8013C2E2B03D1090701D4A8F1C9
:101920000108002D05DD3E2102F808106D1E08F1AA
:101930000108407C002E02F8080008F1010804DAD2
:101940002D20764202F8080002E02B2002F8080061
:101950000A214FF47A70864208F101080BDB96FBEE
:10196000F0F3303302F8083096FBF0F308F1010889
:1019700000FB136601E0642E0CDB642096FBF0F3A1
:10198000303302F8083096FBF0F308F1010800FB51
:10199000136601E00A2E06DB96FBF1F0303002F808
:1019A000080008F1010896FBF1F001FB10603030EF
:1019B00002F80800A16908F1010808EB050202EB32
:1019C0000A00081AA0612078C00602D42046FFF75A
:1019D00087F9216A08AE01EB0A00206204E0D4E92D
:1019E000012116F8010B9047BAF1010AF7D22078CD
:1019F000C00602D52046FFF773F96E4609E016F8D7
:101A0000010B3E280FD0D4E901219047206A401CE9
:101A10002062B8F10108F2D22046FFF777F909B049
:101A20000320BDE8F08F206A2844206203E0D4E957
:101A30000121302090476D1EEBD3F8E701A4000090
:101A400002FCFFFF10B5436913B1AFF3008001E062
:101A5000FFF70CFA012010BD128800F124018284E6
:101A60000022C2840122EDE711684FF0FF32E9E75E
:101A70002DE9F34F4FF0000A0C4656468DB0012079
:101A80000C9001F10C000B9062690B9801219047BA
:101A9000051E2DD0252D2CD0216A8847C0B1626942
:101AA0000B9801219047216A88470028F7D1626985
:101AB000411E0B98904700E0761CA1690D9888475D
:101AC000216A88470028F7D1E1690D988847DBE74C
:101AD000A1690D988847A842074601D1761CD3E733
:101AE000E1690D9888477F1C02D1BAF1000F6FD0D1
:101AF0006BE162690B9800273D46394690472A28DA
:101B000004D162690B98012190470125DFF8D0824A
:101B100062690B9801219047A0F130010A290AD28D
:101B20004745E5DC07EB870100EB4107303FDFD499
:101B300045F01005ECE7E90601D46FF000476C288A
:101B40000AD04C2814D0682815D06A280DD07428E3
:101B50001CD07A281AD01DE062690B9801219047A9
:101B60006C2802D045F0040514E045F002050DE0B4
:101B700045F020050AE062690B980121904768282A
:101B800002D045F0080505E045F4006562690B9850
:101B900001219047C4E9015765283DD019DC582838
:101BA0007AD00CDC452837D004DC252826D0412803
:101BB0009ED131E046282FD0472899D12CE05B28D0
:101BC00077D0612828D063287CD0642823D15AE0BC
:101BD000F6E06F2848D008DC66281DD067281BD0A7
:101BE000692821D06E2816D127E0702845D07328A7
:101BF00068D0752847D078280DD14DE0A1690D989F
:101C00008847252805463FF469AFE1690D98884764
:101C10006D1C3FF46AAFD8E00D9923466A466FF019
:101C2000010009F069FAC5E045F0400023464FF095
:101C300000026060A80736D43EE0E8077FF447AFB3
:101C40002068011D21600068290501D506701BE789
:101C5000290701D5068017E7A90703D5F117C0E9C1
:101C6000006111E706600FE745F0400023464FF0A2
:101C700008026060A80716D41EE040F60E0125EAAF
:101C80000100606016E045F0400023464FF00A0274
:101C90006060A80707D40FE045F040006060A80727
:101CA00008D5234610220D996FF00100AFF3008094
:101CB00080E007E0102223460D996FF00100FEF747
:101CC000CDFC77E04FF0000963284F46C8464B46ED
:101CD000CB4602D05B2806D038E0E80601D40120CC
:101CE000A060012732E06269D4F80CB00B980121A2
:101CF00090475E2807D14FF0010949466269D4F840
:101D00000CB00B989047216939B900210A4603AB02
:101D100043F82120491C0829FADBD8B3216949B3CB
:101D200008F1010862690B98012190475D28F4D100
:101D3000B9F1000F09D0002003A951F82020D243A7
:101D400041F82020401C0828F7DB03AB206900285D
:101D500020794FEA40701ED05B462246CDF80080C5
:101D6000CDE901970D9900286FF0010020DAAFF35B
:101D700000801FE0C11703AA00EBD1614B1121F0D5
:101D80001F0102EB8302411A1368012088400343BC
:101D90001360C7E719E00D99224600286FF0010093
:101DA000009702DAAFF3008004E0AFF3008001E0B7
:101DB000AFF3008000280ADA401C06D10C9820B14D
:101DC0004FF0FF300FB0BDE8F08F5046FAE7E9075B
:101DD00001D10AF1010A064400200C9054E60000EB
:101DE000CCCCCC0C70B516460C46054600F044F839
:101DF000036893F80101012806D0FF2C0FD8185D65
:101E000068B101202C7070BDD3F80701324621461D
:101E100003F2071303442846BDE8704018474FF00B
:101E2000FF3070BD00487047900800207546FFF7EE
:101E3000F9FFAE4605006946534620F00700854687
:101E400018B020B5FEF788FABDE820404FF0000634
:101E50004FF000074FF000084FF0000B21F0070192
:101E6000AC46ACE8C009ACE8C009ACE8C009ACE8D5
:101E7000C0098D467047000010B500F005F8001D40
:101E800010BD00BFA18C000000487047B0080020C2
:101E90002DE9F0411F46044603260168072A01F494
:101EA000006004DB08B116A505E016A503E008B143
:101EB00015A500E015A521F010002060A069C01E46
:101EC000A0610FB1401EA0612046FEF709FF4FB18F
:101ED000D4E9012138469047206A401C2062C01C8A
:101EE000206206E0206AFAE7D4E9012115F8010B27
:101EF0009047761EF8D22046FEF708FFBDE8F08135
:101F00004E414E006E616E00494E4600696E66009D
:101F10002DE9FF4F06468BB00878FF2806D0491CF4
:101F20002D2805D000244FF0000908E000200CE027
:101F30000124F8E709EB8903491C00EB4309087801
:101F4000FF28F7D114B1C9F10000814610780025AF
:101F50002C46AA4629462D2801D02B2804D1521CF4
:101F60002D2813D0002082468B461078FF280FD0F2
:101F70004FF0000C0A21521CA5FB017804FB0181E3
:101F800005FB0C11C5194BEB0104EEE70120EAE754
:101F9000002108464FF00000BAF1000F02D000EB1C
:101FA00080004008C0F38157012F01DD4FF0FF375B
:101FB0000E9955EA040009EB01080BD04FF0020915
:101FC00018F5FA7F16DA4FEACA70002F706008DD44
:101FD000012007E04FEACA70C6E900B00FB0BDE8C3
:101FE000F08F00203060FFF7F5F8C0F8009018215E
:101FF000084616E0B8F5FA7F18DD002F02DAF74838
:10200000784401E0F6487844D0E90010C6E90010B1
:1020100040EACA707060FFF7DDF8C0F80090142144
:1020200008460FB0BDE8F04F08F0FFBF002108469A
:102030004FF00000B8F10001099002DAC7F1000288
:1020400000E03A4601DAC8F1000106A800F0DCF928
:1020500006AB93E8070003AB83E8070044F23E00B9
:102060005BEA04010090584604D144F21E012C465C
:102070005D460091210C0904014306D10099240416
:1020800044EA15442D041039009104F07F410143C6
:1020900006D10099240244EA15642D020839009102
:1020A00004F07041014306D10099240144EA1574FB
:1020B0002D01091F009104F04041014306D1009910
:1020C000A40044EA9574AD00891E009104F000411B
:1020D000084304D100986D196441401E00904FF0F0
:1020E00001033A466846B8F1000FCDE9014503A95E
:1020F00002DD00F046FF01E000F019FFBAF1000F29
:1021000004460D4601D084F00044002108464FF0FB
:102110000000099940F2FF77484010F00C0F07D1FA
:1021200024F00040284303D0C4F30A50B84212D12F
:10213000FFF750F8C0F80090C4F30A50B8420AD133
:10214000A8487844D0E90010C6E9001004F0004126
:102150000843706042E7C6E900543FE72DE9FF4FAE
:102160001F464FF0000A4FF0FF38454691B0D7E9BF
:102170000146CDF83CA0FFF787FEC0680168405CCF
:102180001090B96912986D1C8847396A8146884752
:102190000028F6D1B9F1FF3F0AD0002E24F4D06414
:1021A00011DDB9F12B0F08D0B9F12D0F0BD102E0E1
:1021B000404615B013E744F48064B96912986D1C69
:1021C0008847761E8146600504A901D52D2000E0D0
:1021D0002B20002E01F1010B0DF130088DF81000BD
:1021E0003FDDB9F1690F08D0B9F1490F05D0B9F158
:1021F0006E0F02D0B9F14E0F1CD13B4601A80095DD
:1022000080E85002DDE912126FF0020008F078FF5A
:10221000C11CCED10EE0B96912986D1C8847814669
:102220001398761E44F4007405600F98401C002E2D
:102230000F9016DDB9F1300FEDD0B9F1780F02D063
:10224000B9F1580F0DD10F9801280AD13B46CDE9BD
:102250000054DDE91212001F029608F04FFFC11C66
:10226000A7D1109989453ED144F0800406E0139926
:10227000681CAAF1010A44F400740860B9696D1C75
:102280001298761E884730288146F0D02BE01099AE
:10229000894505D1200603D4761E44F0800418E059
:1022A000484601F01CFC08B3761E0DF123018B4556
:1022B00044F4007408D2A9F130000BF8010B200699
:1022C00007D5AAF1010003E0200602D40AF10100BB
:1022D0008246A00502D51399681C0860B969129856
:1022E0006D1C88478146002ED1DC53E0002E51DD65
:1022F000B9F1650F02D0B9F1450F4BD1A00549D511
:10230000B9696D1C1298761E24F440748847002E1B
:1023100081460CDD2B2804D0B9F12D0F07D144F4F0
:102320008074B96912986D1C8847761E8146E00555
:1023300001D52D2100E02B2108F8011BCDF80080EC
:1023400021E0761E0DF13901884544F400740CD269
:10235000A9F1300010F0FF0088F8000002D10099C8
:10236000884509D908F1010806E0E00501D51E48B5
:1023700001E042F20F708246B96912986D1C8847DD
:10238000814613980560002E04DD484601F0A7FB46
:102390000028D6D1F96912988847FF2053468BF858
:1023A000000088F8000000200A900B9004AA0CA9F5
:1023B0000AA8FFF7ADFDA00502D46FF00100F8E612
:1023C00014F0240F12D0E0071CD13868DDE90A129E
:1023D000031D3B600068C0E9001213E0209D00006F
:1023E000129D0000D69B0000F1D8FFFF0AA96846A5
:1023F00001F05EFBE00705D13868009A011D3960E5
:10240000006802602846D4E62DE9F047814616466A
:102410008AB0354878440DC88DE80D0032487844BC
:10242000801C03AC0DC884E80D0041F69B300844C5
:10243000372190FBF1F290FBF1F5A5F1800501FB4E
:1024400012041B3C02D56442012000E00020DFF8AA
:1024500098A080460027FA44AAF1BE0A0EE0E007E1
:102460000AD03246684607EB470101230AEB810197
:1024700000F072FD8DE8070064107F1C002CEED187
:10248000194F7F44AE3F19E0E80715D007EB041061
:102490000DF1180A90E80E008AE80E00C068F042BC
:1024A00001D1981908903246012306A903A800F02B
:1024B00053FD03AB83E807006D10641C002DE3D1CE
:1024C0004FF0010332466946B8F1000F03A802D06D
:1024D00000F018FD01E000F03FFDC9E90001C9F876
:1024E00008200AB0BDE8F087CC98000010B504467B
:1024F000AFF300802046BDE81040FDF718BF7047DD
:102500002DE9FF4F1F464FF03C0987B04FF00042C6
:10251000DDE9141001F10108DDF858A002EA40508D
:102520000390002005908346054604460490B9694F
:10253000461E08988847AAF1010A0290BAF1000FD6
:102540003BDD02982E2815D01021FEF7ADFD0028A6
:102550002EDB4FF0010B0599014317D0B9F1000FA5
:102560000BDB4A46C11700F0FBF905430C43A9F108
:10257000040905E0012004900BE008B145F00105D5
:1025800001200590049820B9361D02E0049800B19E
:10259000361FB969089808F101088847BBF1000F98
:1025A000AAF1010A0290C9D00999C1F80080C5E7D3
:1025B0000298702808D0502806D0F96908988847F2
:1025C000BBF1000F14D04FE0002002900120BBF1BE
:1025D000000F049009D0B969089808F101088847EC
:1025E000AAF10109B9F1000F07DCF96908988847D9
:1025F0006FF001000BB0BDE8F08F2B2804D02D2820
:102600000CD14FF0FF300490B969089808F1010827
:102610008847A9F10109B9F1000FE6DD411CE4D0BA
:102620000A21FEF741FD0028DFDB029908F10108CD
:1026300001EB810100EB41000290B96908988847DD
:102640000A21FEF731FD099AA9F10109B9F1000F3C
:10265000C2F8008001DD0028E7DAF96908988847A8
:102660000499029800FB016655EA040004D004F0C6
:102670004041090002D006E0039898E0A40044EA33
:102680009574AD00B61E04F00041080002D16D192A
:102690006441761E159810F0240F03D04FF00B09FB
:1026A0005C4803E04FF028096FF07D0082465645F4
:1026B00007DAAAEB06018944B9F1410F01DD4FF0B9
:1026C000410901200021A9F1010200F049F9024667
:1026D00028400B462140084301D0012100E00021A1
:1026E000501E029143F1FF3128402140084301D0A0
:1026F000012000E000200299834651EA0B014FD0EF
:10270000002108464FF00000039900F4400039B161
:1027100000EB80004FF4400100EBD07001EA600054
:102720008015012802DD4FF0FF3000E013D0401C7F
:1027300036D0029860B3BBF1000F0CD14A4601209D
:10274000002100F00DF928402140084301D001206C
:1027500000E00020E0B101204A46002100F000F92D
:10276000034640190A4661412D1A8C4111D3B9F133
:10277000400F09DD159810F0240F02D0AAF134069D
:1027800003E0AAF1170600E0761C00254FF0004494
:1027900006E05B1E42F1FF3220EA030521EA020453
:1027A000CAF10100B04206DA1B49039808430190C0
:1027B000002000900EE0039AC4F3D321E80A0A43F4
:1027C000164940EA44500A433146CDE900026846C2
:1027D00001F07BF9159810F0240F0BD01598C00765
:1027E00015D13868DDE90012031D3B600068C0E9BF
:1027F00000120CE002A8694601F05AF91598C007CA
:1028000005D13868029A011D3960006802604046AF
:10281000F0E6000002FCFFFF0000F07F0000F03F48
:102820002DE9FF4F92461D4685B04FF00041DDE98E
:10283000124BDDE914727F1E01EA4B50414940F012
:10284000FF4940EA0108002122F0200049280491B4
:1028500002D04E2828D04CE03BA0012607C88DE8C6
:102860000700A9690698641C88477F1E014606D4A4
:102870001DF8060018B121F0200181420BD0E96952
:1028800006988847032E34D0082E32D06FF001000E
:1028900009B0BDE8F08F761C032E01D0082EE0D1E0
:1028A000601CCAF80000DCE7A9690698641C884728
:1028B0007F1E2AD420F02000412826D1A96906983D
:1028C000641C88477F1E20D420F020004E281CD195
:1028D000A9690698641C88477F1E48F4002849F4BB
:1028E0008009CAF8004001D4282806D0E969069872
:1028F00088475FEACB7012D022E0A9690698641C71
:1029000088477F1E01D4002803DAE96906988847C2
:10291000BCE72928F1D1641CCAF80040E9E71BF0A4
:10292000240F07D028680499031D2B600068C0E9B4
:10293000001805E02868021D2A600068C0F80090B1
:102940002046A5E70000F07F494E46494E495459BC
:102950000000000001491820ABBEFEE7260002007F
:10296000B2F120030AD5C2F1200301FA02F120FAE4
:1029700003F300FA02F041EA0301704700FA03F1A1
:102980004FF0000070475FEA400C08BF91F0000F65
:102990004FEA8C234FEAC12243EA51514FEA1C50BF
:1029A00018BF00F5F0404FEA300018BF41F0004179
:1029B0005FEA6C5C00F02980BCF1FF3F08BF40F08B
:1029C00080407047130C06BF12044FF0100C4FF0FC
:1029D000000C130E04BF12020CF1080C130F04BFFD
:1029E00012010CF1040C930F04BF92000CF1020CC5
:1029F000D30F04BF52000CF1010C11464FF000023E
:102A0000A0F11F00A0EB0C00704711F0004F08BFB1
:102A1000704731F000413FF4D5AF0B0C06BF0904FD
:102A20004FF0100C4FF0000C0B0E04BF09020CF11C
:102A3000080C0B0F04BF09010CF1040C8B0F04BF31
:102A400089000CF1020CCB0F04BF49000CF1010C02
:102A5000CCF12003A0EB0C0022FA03F302FA0CF2F3
:102A600041EA030100F10100704720F07F4C80EA49
:102A7000030023F07F47ACEB070303F57C5300F022
:102A8000004003F1FF032DE980494FEA154B09B4DB
:102A90004FEA144325EA0B4E24EA03480FF20426BA
:102AA00006EB132749083E785FEA320203FB06670C
:102AB000C7F5000707FB06F64FEA54374FEAD6463C
:102AC00006F1020607FB066CCCF1005C4FEA1C47DE
:102AD0002CEA074C07FB06F40CFB06F504EB154645
:102AE0004FEA961634BF00204FF000404FEAD1372E
:102AF00006FB07FC4FEA1C4C0CFB0BF7D21B03FB3D
:102B00000CF761EB07010CFB0EF7B0EB074072EB23
:102B100017420CFB08F734BFA2EB0742B2EB0742A7
:102B200061EB17414FEA0C444FEA910706FB07FCA3
:102B30004FEA1C4C0CFB0BF7B0EBC74072EB573263
:102B400003FB0CF734BFA2EBC742B2EBC74261EB09
:102B500057310CFB0EF7B0EBC70072EB57720CFB52
:102B600008F734BFA2EBC702B2EBC70261EB5771A3
:102B7000039F4FEA816141EA921104EBCC044FEAD2
:102B8000D1374FEA826206FB07FC42EA90124FEA15
:102B900080604FEA1C4C0CFB0BF7D21B03FB0CF7BD
:102BA00061EB07010CFB0EF7B0EB074072EB17422D
:102BB0000CFB08F734BFA2EB0742B2EB074261EB14
:102BC00017414FEA8C554FEA910704EB9C2406FB12
:102BD00007FC4FEA1C4C0CFB0BF7B0EBC74072EB49
:102BE000573203FB0CF734BFA2EBC742B2EBC7422C
:102BF00061EB57310CFB0EF7B0EBC70072EB57726D
:102C00000CFB08F734BFA2EBC702B2EBC70261EBC3
:102C1000577115EB4C254FEA816141EA92114FEA59
:102C200082624FEAD13742EA901206FB07FC44F178
:102C300000044FEA80604FEA1C4C0CFB0BF7D21BE0
:102C400003FB0CF761EB07010CFB0EF7B0EB074041
:102C500072EB17420CFB08F734BFA2EB0742B2EB52
:102C6000074261EB174115EB1C154FEA813141EA30
:102C700092414FEA823242EA90424FEA80304FEA74
:102C80000C7644F1000448EA03434EEA0B484FF047
:102C9000000EB2EB080C71EB030724BF6246394605
:102CA0004EEB0E0E4FF0000B0018524149414BEB1A
:102CB0000B0BB2EB080C71EB03077BF1000B24BF8D
:102CC000624639464EEB0E0E4FF0000B0018524193
:102CD00049414BEB0B0BB2EB080C71EB03077BF19B
:102CE000000B24BF624639464EEB0E0E51EA020736
:102CF00018BF46F0010616EB0E7655F1000254F1AE
:102D0000000103D5BDE88901BDE80088BDE889015F
:102D1000BDE80048B619524141EB0101A3F101039E
:102D2000704780807F7E7D7C7B7A79787776767538
:102D30007473727171706F6E6E6D6C6C6B6A6A69B0
:102D40006868676666656464636362616160605F4A
:102D50005F5E5E5D5D5C5C5B5B5A5A5959585857C3
:102D6000575656555555545453535252525151502B
:102D700050504F4F4F4E4E4D4D4D4C4C4C4B4B4B7E
:102D80004A4A4A49494948484847474747464646C4
:102D900045454544444444434343434242424241FF
:102DA0004141000046EA0646A3F570534FEA164635
:102DB00046EA42564FEAD22242EA415210B54FEA61
:102DC000D121A3F1010300F02FF820F0004000F121
:102DD000020C00F0004701EB00501146BCF5006FFB
:102DE00040EA070000D210BDBAF1000F0AD01CB5AE
:102DF00003B44FF004004FF004014FF000000FBC8B
:102E0000BDE810404FF00001BBF1010FB9BF04480D
:102E10004FF0FF310348002140EA070010BD00BF1A
:102E2000FFFFEF7F0000F07F002B9C4630D477003F
:102E30002BD01CB54FEA370703B44FF010004FF00A
:102E40001001BAF1000F06D0BCF1000FDCBF40F05A
:102E5000080040F008014FF000000FBCBDE8104032
:102E60000BF1010BBBF1010F08BF5FEA170722BF8F
:102E700012F1010211F101014FF0004143F1000391
:102E800000F0004043EA00007047F9D35708D0E74C
:102E900046EA064613F1400F4FEA16461FDD13F1CE
:102EA000200FDFBF16430A46002120335B42BED00D
:102EB000C3F1200746EA064602FA07F74FEA16462C
:102EC00046EA0706C3F1200722FA03F201FA07F7E0
:102ED00021FA03F14FF0000342EA0702A7E746EAAE
:102EE000020646EA06464FEA164646EA0106BCBF17
:102EF00046EA0646360C4FF000034FF000024FF052
:102F0000000194E72DE9804C9A46934670B491E80D
:102F1000380007C831EA400C48BF34EA430C03D5F7
:102F2000FFF7A3FDFFF780FFF0BCBDE8008C2DE9A3
:102F3000804C9A46934670B491E8380007C831EA4D
:102F4000400C48BF34EA430C03D5FFF78EFDFFF772
:102F500029FFF0BCBDE8008C2DE9804C9A469346D1
:102F600070B491E8380007C810F0804F08BF13F024
:102F7000804F03D100F01AF8FFF756FFF0BCBDE810
:102F8000008C2DE9804C9A46934670B491E8380045
:102F900007C810F0804F08BF13F0804F03D100F036
:102FA00005F8FFF7FFFEF0BCBDE8008C20F07F477E
:102FB00080EA030023F07F4C07EB0C03A3F57C535E
:102FC00000F00040A3F1FE0392F0000F00F0B38088
:102FD00095F0000F00F077802DE901494FEA11408C
:102FE0004FEA144621EA004800FB06FC24EA0647A3
:102FF00008FB06F607FB08F800FB07F718EB064886
:103000004CEB164C4FEA124B18EB07484FEA1546AB
:103010004CEB174022EA0B4E0BFB06FC25EA064759
:103020000EFB06F607FB0EFE0BFB07F71EEB064E2C
:103030004CEB164C4FF000061EEB074E4CEB174BBB
:1030400018EB0B0840F1000018EB0E0B58EB0008D2
:1030500040F100008F1A4FF000013CBFC943661BCE
:1030600014BFB5EB040C00213CBFC943F61B4FEA6B
:1030700017444EEA8E0E27EA04454FEA1C4704FB2C
:1030800007622CEA074C05FB07F70CFB05F604FB6F
:103090000CFC16EB074642EB174216EB0C4642EBD4
:1030A0001C421BEB060658EB0202414146EA9E0613
:1030B00001D5BDE80189B619524141EB0101A3F1E7
:1030C0000103BDE801894FEA14454FEA114724EA9C
:1030D000054621EA074C05FB07F406FB07F70CFB46
:1030E00006F105FB0CFC11EB074144EB17444FEADA
:1030F000124711EB0C4144EB1C4422EA074C05FB40
:1031000007F206FB07F70CFB06F605FB0CFC16EBBB
:10311000074642EB174216EB0C4642EB1C456A1879
:1031200054F1000148BF7047B619524141EB01010B
:10313000A3F10103704795F0000F37D04FEA114219
:103140004FEA144721EA024624EA074C02FB07F142
:1031500006FB07F70CFB06F402FB0CFC14EB074420
:1031600041EB17414FEA154714EB0C4441EB1C416E
:1031700025EA074C02FB07F506FB07F70CFB06F6F2
:1031800002FB0CFC16EB074645EB174516EB0C460D
:1031900045EB1C42121951F1000148BF7047B619A6
:1031A000524141EB0101A3F1010370474FEA14457D
:1031B0004FEA114724EA054621EA074C05FB07F1CF
:1031C00006FB07F70CFB06F24FF0000605FB0CFCB4
:1031D00012EB074241EB174112EB0C4251EB1C4141
:1031E00048BF7047921841EB0101A3F101037047FA
:1031F000FEE7FEE7FEE7000070B53D4800683C488A
:10320000083800683A48001F0068394E4FF440748F
:103210000C3E234600220121304603F04AFB2346A0
:1032200002220021304603F068FB2146304603F0BD
:10323000FBFA0A2002F0C4F80024B51529463046EE
:1032400003F0F0FA052002F0BBF82946304603F0FF
:10325000EBFA052002F0B4F8641CE4B2092CEDD3BB
:103260002946304603F0E0FA4FF400742146304618
:1032700003F0D8FA052002F0A3F82146304603F007
:10328000D3FA052002F09CF82346012202213046A1
:1032900003F00FFB234602220121304603F02DFBF1
:1032A0002B4601220221304603F003FB2B4602226B
:1032B0000121304603F021FB0E4C204603F0F2FBC7
:1032C00000220D49204603F08BFB00227223114699
:1032D000204603F045FC204603F016FC211520464D
:1032E00003F078FBBDE870400A2002F069B80000E6
:1032F0000C04024000540040801A0600FEE7FEE77E
:1033000070B5002505F1B000C0B200F09DF80020B6
:1033100000F09AF8102000F097F80024002000F048
:103320001DF9641CE4B2802CF8D36D1CEDB2042DA1
:10333000E8D370BD70B5642002F042F80024084D57
:10334000285D00F081F8641CE4B2162CF8D3FFF776
:10335000D7FFBDE870400021084600F003B8000028
:103360001C00002010B50446B031C8B200F06CF863
:10337000102040EA141000F067F804F00F00BDE8D8
:10338000104000F061B800002DE9F04180460F4682
:103390000024203AD5B2B8F17F0F02D9A0467F1C95
:1033A000FFB2102B11D039464046FFF7DBFF16491C
:1033B00005EB450001EB4005285D00F0CFF8641CEB
:1033C000E4B2062CF8D3BDE8F08139464046FFF759
:1033D000C9FF0E4E04EB0510305C00F0BFF8641C12
:1033E000E4B2082CF6D37F1CF9B24046FFF7BAFFCF
:1033F000002404EB05103044007A00F0AFF8641CA0
:10340000E4B2082CF5D3DEE734B100085CB3000861
:103410002DE9F04104460E461746984600250DE07A
:10342000434631462046FFF7AFFF0834E4B2782C1C
:1034300002D90024B61CF6B26D1CEDB27A5D002AEA
:10344000EED1BDE8F08100002DE9F04140490022B5
:103450000A70487042F2107425463E4E40F20167F1
:103460003946304603F066FB28B1FFF7C5FE02E09F
:10347000012001F0A5FF3946304603F05BFB08B19F
:103480006D1EF5D175B9FFF7B7FE02E0012001F01E
:1034900097FF3946304603F04DFB08B1641EF5D165
:1034A000002C53D0304603F066FB4FF4A064214655
:1034B000304603F03FFB0028F9D06FF0010278217D
:1034C000304603F044FB40F201542146304603F0FD
:1034D00031FB0028F9D02146304603F01AFB40F2B8
:1034E00007542146304603F025FB0028F9D01A4C3A
:1034F000174B00220621204602F0C6F902220621BF
:10350000204602F019FBE114304603F0F7FA0621D9
:10351000204602F01BF920220621204602F083F902
:103520000028F8D020220621204602F061F9062169
:10353000204602F002F934460021204603F0DEFA6C
:10354000204603F01DFB21688905FCD4BDE8F0810D
:103550000400002000540040006002402DE9F041CA
:10356000404940220A70487042F2107425463E4E8F
:1035700040F201673946304603F0DCFA28B1FFF724
:103580003BFE02E0012001F01BFF3946304603F00C
:10359000D1FA08B16D1EF5D175B9FFF72DFE02E025
:1035A000012001F00DFF3946304603F0C3FA08B19F
:1035B000641EF5D1002C53D0304603F0DCFA4FF4F2
:1035C000A0642146304603F0B5FA0028F9D06FF028
:1035D00001027821304603F0BAFA40F20154214644
:1035E000304603F0A7FA0028F9D02146304603F010
:1035F00090FA40F207542146304603F09BFA002827
:10360000F9D01A4C174B00220621204602F03CF953
:1036100002220621204602F08FFAE114304603F020
:103620006DFA0621204602F091F82022062120465C
:1036300002F0F9F80028F8D020220621204602F0F6
:10364000D7F80621204602F078F8344600212046BB
:1036500003F054FA204603F093FA21688905FCD45C
:10366000BDE8F081080000200054004000600240E6
:10367000FEE705F0B7BBFEE701F098BE7CB5444815
:10368000016841F470010160424D286840F001007A
:10369000286028688007FCD53E4C08342068002646
:1036A000C0F38100022857D1019602E00198401C26
:1036B000019001985028F9D320680090009820F0DC
:1036C000F0000090009840F080000090009820608A
:1036D000019602E00198401C019001985028F9D30E
:1036E00020680090009820F0F0000090009840F0D2
:1036F0009000009000982060019602E00198401C24
:10370000019001985028F9D320680090009820F08B
:10371000F0000090009840F0A00000900098206019
:10372000019602E00198401C019001985028F9D3BD
:1037300020680090009820F0F0000090009840F081
:10374000B000009000982060019602E00198401CB3
:10375000019001985028F9D3C82000F0C7F92068DB
:1037600020F00300206028680B4908402860286882
:1037700020F4802028602660206806490748091D3B
:10378000086004480C300660BDE87C4006F050BB81
:1037900088ED00E000380240FFFFF6FE1030002404
:1037A00070B5194C1749204607F06EF9002828D04B
:1037B000204607F0CBF8154D0221284602F0C2F949
:1037C000024613491348FDF7C7F86415214610480F
:1037D000FDF739F9104B012018700221284601F03D
:1037E000ACFF20220221284602F002F822460221E4
:1037F000284602F0A1F92846BDE87040022101F0F8
:10380000A5BF70BD04030400001001400064024025
:10381000F00100206004002078010020FEE703B4DE
:1038200001984100009850EAC12018BF04204A0DB9
:1038300018BF40F0010040F2FF72B2EB515F08BFC9
:1038400040F00200012808BF052002B070470907B8
:10385000090E002804DB00F1E02080F80014704716
:1038600000F00F0000F1E02080F8141D7047000008
:1038700030B52DED048B81B0B0EE408AF0EE608A59
:103880006A4651EC180B02F09FFE00989FED329BA8
:103890007E300090002821DC53EC192B51EC180BE2
:1038A00007F09CF91AD0002140F608004FF0000004
:1038B000044651EC180B07F04BF908EE100A40F6DD
:1038C000080004EA00014FF00000B5EEC08AF1EEF6
:1038D00010FA04BF0220FDF7FDF92DE00098FF2843
:1038E00030DB002108464FF0000000F4400553ECA7
:1038F000192B51EC180B07F0E7FA8CBF00240124B8
:103900000220FDF7E7F99FED168A4DB1002C0CBFA0
:103910004FF400004FF48000A84218BF9FED118AB9
:10392000042108464FF00000002C01BFB1EE480A08
:1039300001B0BDEC048B30BDB0EE480A01B0BDEC67
:10394000048B30BD51EC180B07F002F901B000EE0A
:10395000100ABDEC048B30BD000000000000000028
:103960000000807FFFFF7F7F30B583B00446FDF706
:10397000ACF99FED090B05468DED000B00222146A9
:103980006846FDF7F3FB2846FDF7A4F99DED000B13
:1039900003B030BD00000000000000000000000087
:1039A00030B540F2FF742DED048BF0EE608A18EE16
:1039B000901A85B0B0EE408A9FED2B9B05468DEDA9
:1039C000008B34EA115147D053EC192B51EC180BF2
:1039D00007F004F940D02A4651EC180B07F05EFBC3
:1039E00041EC180B18EE900A8DED008B34EA105064
:1039F0001CD053EC192B51EC180B07F0EFF82BD11E
:103A00000220FDF767F900F043F810EE901A18EE67
:103A1000900A8DED020B8DED008B61F31E0003907B
:103A20009DED020B05B0BDEC048B30BD0220FDF70F
:103A300051F900F01DF810EE901A18EE900A8DED75
:103A4000020B8DED008B61F31E0003909DED020BC8
:103A500005B0BDEC048B30BD05B0B0EE480AF0EE09
:103A6000680ABDEC048B30BD0000000000000000BF
:103A70009FED050B10B553EC102B51EC100B07F01C
:103A800025F941EC100B10BD000000000000007093
:103A90009FED050B10B553EC102B51EC100B07F0FC
:103AA00015F941EC100B10BD0000000000000010E3
:103AB00010B5044691ED000BFFF7DAFE84ED000A25
:103AC00010BD012003F062B8704710B5044690EDB8
:103AD000000B0846FFF764FF84ED000B10BD303883
:103AE0000A2801D2012070470020704708B5002144
:103AF000009100EB800002E00099491C00910099C0
:103B0000B1EB400FF8D308BD816841F00801816036
:103B100081680907FCD4816841F0040181608168F3
:103B20004907FCD47047521E01290FD002290CD13D
:103B3000032A0AD8816B21F440118163816B4FF411
:103B4000401303EA02521143816370470F2AFCD8E5
:103B5000C16A21F47001C162C16A4FF4700303EAC3
:103B600002521143C162704704490A6822F4E022FC
:103B70000A600A6802430A6070470000042301409B
:103B8000002904D0816841F4006181607047816838
:103B900021F4006181607047816841F48071816027
:103BA0007047816841F40071816070478168C9077E
:103BB00003D1816841F001018160704701290AD079
:103BC000022907D1816821F440118160816841EAAE
:103BD000025181607047816821F0405181608168A5
:103BE00041EA027181607047012909D0022906D19A
:103BF000816821F470218160816811438160704780
:103C0000816821F070618160816811438160704733
:103C100030B51F24062909D2456B01EB81018C4088
:103C2000A54302FA01F42C43446318E00C290AD29C
:103C3000056B891F01EB81018C40A54302FA01F459
:103C40002C4304630BE0102909D2C56A0C3901EB3F
:103C500081018C40A54302FA01F42C43C46207257C
:103C60000A2A08D2046902EB42018D40AC438B4022
:103C70002343036130BD122AFCD8C4680A3A02EB20
:103C800042018D40AC438B402343C36030BD0129CA
:103C900006D0022903D1816841F480018160704718
:103CA000816841F0804181607047002A12D0CA05C6
:103CB00003D5426842F4807242604A0503D54268E7
:103CC00042F480624260890703D5816841F00201B5
:103CD00081607047CA0503D5426822F48072426051
:103CE0004A0503D5426822F4806242608907F0D514
:103CF000816821F0020181607047000004490A6870
:103D000022F01F020A600A6802430A60704700003E
:103D100004230140024803490088088003F0A4B945
:103D20000C0000200A0000201CB505480549CDE91B
:103D3000001000231A460721034801F033FF1CBD81
:103D400089710008F97200086000002000F00F017E
:103D5000000900EB800001EB4000C0B2704770B575
:103D600000245B1E012505EB531507E051F82430B4
:103D700052F82460334040F82430641CA542F5D842
:103D800070BD10B501F01F040123A3404C09002AA7
:103D900050F8241003D0194340F8241010BD994363
:103DA00040F8241010BD521E012303EB5212920062
:103DB000FCF70CBD4A0950F8220001F01F01C84071
:103DC000C0F30000704770B500245B1E012505EBB1
:103DD000531507E051F8243052F82460334340F87B
:103DE0002430641CA542F5D870BD000010B58AB01F
:103DF00040F6024003F036FF41F2081003F032FFB4
:103E000040F6164003F02EFF4FF44030FFF7ACFEB3
:103E1000012300220321324802F04BFD314C0021E6
:103E2000204601F0B9FC30490191012202922F494C
:103E3000039100210491D302059307910892500445
:103E4000099001AA204601F0CDFD0022114620462E
:103E500001F085FC0021204601F095FC0021204660
:103E600001F074FC0020FFF749FF1F4C01224C3C7D
:103E700002212046FFF719FF012211022046FFF719
:103E800014FF00212046FFF77BFE01221146204649
:103E9000FFF749FE01230A2200212046FFF7B8FE62
:103EA000002201212046FFF79FFE0022012120462B
:103EB000FFF784FE2046FFF774FE2046FFF76CFEF6
:103EC0002046FFF773FE012001F068FA2046FFF755
:103ED0001BFE01212046FFF7DAFE0AB010BD0000EC
:103EE00000080240006402404C2001400C00002009
:103EF00010B540F6014003F0B5FE40F6044003F073
:103F0000B1FE4FF4406003F0ADFE4AF6802301227B
:103F10000021084802F0CDFC01231A460021064882
:103F200002F0C7FC0123BDE810401A4600210348F7
:103F300002F0BFBC0004024000100240000002403A
:103F400010B58AB04FF4406003F08CFE40F6154087
:103F500003F088FE41F21D0003F084FE41F20400EC
:103F600003F080FE1023002203212D4802F0A1FC63
:103F70002C4C01220521204601F03AFC04220521A7
:103F8000204601F035FC08220521204601F030FCD6
:103F900010220521204601F02BFC2022052120467D
:103FA00001F026FC07220521204601F0D8FB1E491E
:103FB00001911E4803904020079001210891029131
:103FC00000210491420105924FF44032099206917A
:103FD00001AA0521204601F005FD0521204601F03A
:103FE000B5FB114C083C204601F072F90022114645
:103FF000204601F0A9F90021204601F097F900229E
:104000001146204601F0B5F90021204601F080F963
:104010000021204601F06EF906F09AFA0AB010BDB0
:104020000000024000600240087400400A000020C6
:1040300030B587B040F6014003F014FE41F20E00A7
:1040400003F010FE40F6154003F00CFE1A4D4FF43D
:10405000604422460521284602F0B2FB2346002296
:104060000221284602F025FC234602220021284690
:1040700002F043FCAC14234600220121284602F042
:1040800018FC234602220021284602F036FC0020BC
:1040900001904FF482710091029003210591E1108B
:1040A00003911021069104906946044805F0EEFD45
:1040B00005F0C4FC07B030BD0004024000380040E9
:1040C00070B540F6034003F0CDFD094D4FF47C542C
:1040D000012223461146284602F0EBFB234602222A
:1040E0000021284602F009FC01482830046070BD18
:1040F000000C024070B58AB040F6014003F0B2FDFA
:1041000041F2150003F0AEFD40F6154003F0AAFDA4
:10411000304E4FF4007422460421304602F050FB2A
:1041200065102A460421304602F04AFB234601224C
:104130000221304602F0BDFB234602220121304617
:1041400002F0DBFB2B4601220221304602F0B1FBDC
:104150002B4602220121304602F0CFFB1F4C0022E9
:104160001D49204602F03CFC0022722311462046E5
:1041700002F0F6FC204602F0C7FC2115204602F0B2
:1041800029FC174C0621204601F006FB01A801F08E
:1041900071FC40210791134903910021049105917D
:1041A000022108910D4910310191012102914FF432
:1041B0004030099001AA0621204601F013FC062197
:1041C000204601F0D7FA01220621204601F0C7FA65
:1041D0000AB070BD00040240801A0600005400407E
:1041E000006002400800002010B5002441F21C00CD
:1041F00003F038FD02F030FF00F010F805480068C9
:104200000549C0F30120086100F024F803F0DEFB4B
:10421000204610BD703802400800002010B54FF451
:10422000E054204603F072FC204603F07FFC4FF47C
:10423000807003F047FD0648FF21C1607F21816047
:1042400041F60F4003F00EFDBDE8104003F042BF01
:104250000800002010B500241148826811490A8125
:10426000C0684881252008700620C8700420487066
:104270003020887000200861C86023200871592010
:10428000487150208871084603F0B0FE28B10649F5
:1042900043F2F0200860204610BD4FF0FF34FAE7EB
:1042A00008000020F00300205028004070B58AB0BC
:1042B00040F6164003F0D6FC3B4C0221204601F0AC
:1042C0006BFA00210791394A03920491A2150892D2
:1042D000374A01920120029005914FF44030099035
:1042E00001AA0221204601F07DFB0221204601F0B7
:1042F00041FA04220221204601F031FA022120462F
:1043000001F024FA4FF4406003F0ACFC41F20410D9
:1043100003F0A8FC274E641522460721304602F020
:104320004FFA65002A460721304602F049FA234633
:1043300001220221304602F0BCFA2346022200216B
:10434000304602F0DAFA2B4601220221304602F012
:10435000B0FA2B4602220021304602F0CEFA144C6D
:10436000241F204606F0FAFA4FF4E131204606F009
:1043700091FA0421204606F0A0FB0821204606F011
:10438000A2FB4021204606F059FB204606F060FBC8
:1043900000221146252002F041FD4FF441712046D4
:1043A00006F068FB0AB070BD00640240F001002016
:1043B000041001400000024010B502F0B5F9BDE85C
:1043C000104001F019BC000010B504460A466078A0
:1043D000012304F1300101F06CF908B1032010BD94
:1043E00094F82E0294F82F1240EA0120A0F52A41F9
:1043F000553901D0022010BD14F8660FE1786278BB
:1044000040EA0161A078663C000440EA02200143D2
:104410000B48B0EB012F01D1002010BD14F8821F12
:10442000E278637841EA0261A278120442EA032248
:104430001143B0EB012F01D1002010BD012010BDB0
:104440000046415470B502F065FD04460D4602F089
:10445000FBFD50B102F05EFD04460D4602F06AFD20
:1044600004196941641C41F100052046294670BDCC
:1044700000E0401C02780AB18A42FAD10078704705
:104480002DE9F047154603681C78303C092C02D80A
:104490005A783A2A04D000242CB10B20BDE8F087CA
:1044A0009B1C0360F8E7AD4804680C6084B1207879
:1044B00020B1607801F01CF9C1070BD00027384605
:1044C0002770607001F0BDF8C1070AD00320E5E74E
:1044D0000C20E3E71DB1400701D50A20DEE70020EC
:1044E000DCE71DB1400701D50A20D7E70026314699
:1044F0002046FFF769FF0146012912D104F5F77044
:10450000027972B1017AC27A41EA0266817A407A0E
:10451000090441EA0020064331462046FFF754FFD4
:104520000146032902D019B10D20B7E70120B5E7F4
:1045300094F83B0094F83C1040EA0120B0F5007F6D
:1045400001D00D20AAE794F8460094F8471040EAFD
:10455000012058B914F8540FE178627840EA0160FC
:10456000A1780904543C41EA022108438146E061F4
:1045700094F84010E170012903D0022901D00D20E8
:104580008CE7484394F83D20A27012B1531E1A42A2
:1045900001D00D2082E794F8411094F8423041EAAE
:1045A00003232381190701D00D2077E794F84310E6
:1045B00094F8445041EA052161B914F8501FE57898
:1045C00094F801C041EA0561A5782D04503C45EA04
:1045D0000C25294394F83E5094F83FC045EA0C2836
:1045E000B8F1000F07D008EB000505EB131C61457F
:1045F00003D20D2052E70D2050E7A1EB0C01B1FBD7
:10460000F2F131B3012540F6F672914200D3022552
:104610004FF6F672914200D30325891CA16106EB87
:104620000C02A26206EB08022262032D13D02BB308
:1046300010446062022D23D001F0010001EB410122
:1046400000EB510000F2FF10B9EB502F1AD20D20F1
:1046500024E70D2022E70BB10D201FE714F85C0FB3
:10466000E278637840EA0260A278120442EA032208
:10467000104344F8380C5C3C8800E3E70D200DE75C
:104680004800DFE74FF0FF302061E760032D59D18C
:10469000677194F8600094F8611040EA0120821973
:1046A00062616078012304F1300101F002F8E8BB97
:1046B00094F82E0294F82F1240EA0120A0F52A4126
:1046C00055393FD114F8300FE178627840EA016043
:1046D000A178303C090441EA02210843204988427C
:1046E00030D194F8140294F8171294F8152240EA85
:1046F000016094F81612090441EA0221084319499D
:1047000088421FD194F81C0294F81F1294F81D22BD
:1047100040EA016094F81E12090441EA02210843AC
:10472000E06094F8180294F81B1200E00AE040EAF6
:10473000016094F81A1294F81922090441EA02213E
:104740000843206125700549091F0888401C08801E
:10475000E080E76227710020A0E6000058000020FA
:104760005252614172724161891E8269921E8A426F
:1047700001D800207047826A807801FB00207047D2
:1047800070B51D25084C00E0641E802005F03CF843
:1047900008B9002CF8D124B1044805F02FF82846B8
:1047A00070BD132070BD0000A0860100FF07C0008F
:1047B00010B5C2B00B221CA1FCF777F8002815D168
:1047C00000244FF4807102A8FCF75FF90C22214607
:1047D00002A805F09DF8042216A102A8FCF765F8CE
:1047E000164C28B116A1204602F0ECFA42B010BDDA
:1047F0000398019004980090019806F09BFB41EC0F
:10480000100B19A153EC102B204602F0DBFA009894
:1048100006F090FB41EC100B17A153EC102B204637
:1048200002F0D0FAE2E70000636F6E6669672072FB
:1048300065616400434F4E460000000000100140D7
:104840004E6F2076616C696420636F6E6669677570
:10485000726174696F6E20666F756E6420696E2078
:10486000666C6173680D0A00726174696F3A202585
:104870002E31660D0A0000006C696D69743A2025BE
:104880002E32660D0A0000002DE9F04FADF2745D86
:104890000B2273A1FCF709F8002815D120214CA8A0
:1048A000FCF7F3F8202144A8FCF7EFF84FF00008DC
:1048B000C1466E49002001F0E9FADFF8B4A138B131
:1048C0006CA1504602F07EFA0DF2745DBDE8F08FE7
:1048D000012270A1D4A801F0E9FA40B165A15046C7
:1048E00002F070FA0021084601F0D0FAECE743AB81
:1048F000FF2294A9D4A801F08DFB58B9439848B180
:1049000094A94FF0000B01F800B00025002694ACEC
:1049100054AF54E063A1504602F054FAD4A801F019
:10492000ABFA0021084601F0B1FACDE7002003E020
:104930000246401CB954641C217819B10D2901D0DC
:104940000A29F5D107F800B020780D2800D1641CA1
:1049500020780A2800D1641C9DF850015B280ED0F5
:104960002DB1042257A154A8FBF79FFFD0B1FEB18F
:10497000042254A154A8FBF798FFC8B919E00722F4
:1049800052A154A8FBF791FF40B10025072251A185
:1049900054A8FBF78AFF18B1002610E00125F5E7BF
:1049A00001260CE0391D4CA8FBF73CFF4FF0010835
:1049B00005E0391D44A8FBF735FF4FF001092078C9
:1049C0000028B3D1D4A801F057FA0021084601F01D
:1049D0005DFAB8F1000F38D04CAA40A1504602F061
:1049E000F1F9B9F1000F35D044AA3FA1504602F0C9
:1049F000E9F900244FF4807103A8FCF746F83DA1C3
:104A000003A8FBF70FFF4CA8FEF7AEFF51EC100B0D
:104A100006F09EF802900298049044A8FEF7A4FFC6
:104A200051EC100B06F094F80190019805900C25BC
:104A3000204605F069F82A46214603A804F094FFB1
:104A40002EA1504602F0BEF93EE733A1504602F0D7
:104A5000B9F939E735A1504602F0B4F934E700005E
:104A6000636F6E6669675F7361766500600600203C
:104A700000100140636F6E6669672E696E6920667B
:104A8000696C65206E6F7420666F756E642E0D0AFA
:104A900000000000303A636F6E6669672E696E69C8
:104AA00000000000636F6E6669672E696E6920669C
:104AB000696C652072656164206572726F722E0D7B
:104AC0000A0000004368303D000000005B52617442
:104AD000696F5D005B4C696D69745D00726174693A
:104AE0006F3A2025730D0A006C696D69743A2025B0
:104AF000730D0A00434F4E46000000007361766557
:104B000020706172616D657465727320746F2066C8
:104B10006C6173680D0A0000726174696F3A206EEF
:104B20006F7420666F756E640D0A00006C696D69A4
:104B3000743A206E6F7420666F756E640D0A000003
:104B40002DE9F047ADF50F6D05468A4614465046EF
:104B5000FBF78CFE024651462046FBF7A6FE0028D6
:104B600023D12022FB490DF2AC40FBF73AFF2A4645
:104B7000F9A199A8FBF750FCF9A191A8FBF752FE07
:104B80005246F9A189A8FBF747FC5246F9A181A832
:104B9000FBF742FCFC49002001F078F9DFF8EC93C8
:104BA00038B1FBA1484602F00DF90DF50F6DBDE8D7
:104BB000F0870122FEA10DF2CC6001F077F900260A
:104BC0000DF2CC5838B10DF2AC435246FCA1484628
:104BD00002F0F8F859E00DF59563FF220DF2CC5183
:104BE0000DF2CC6001F016FA78BBDDF8A80460B3D2
:104BF00008F8006000250DF2CC540DF2CC4732E0ED
:104C0000002003E00246401CB954641C217819B10D
:104C10000D2901D00A29F5D13E5420780D2800D164
:104C2000641C20780A2800D1641C9DF8CC045B2801
:104C30000CD0C5B191A8FBF719FE024691A90DF25F
:104C4000CC40FBF732FE70B934E00FE099A8FBF7D7
:104C50000DFE024699A90DF2CC40FBF726FE08B1E5
:104C6000002500E0012520780028C9D10DF2CC6094
:104C700001F002F90DF2AC435246D1A1484602F0D0
:104C8000A1F80DF2AC40FEF76FFECFA1484602F04E
:104C900099F8D34D2E7028780028FCD01F22D149D6
:104CA000A1A8FBF719FF8DF8A362A1A8FBF7DEFD11
:104CB000A1AC0AE091A8FBF7D9FDC1190DF2AC40F7
:104CC000FBF7B0FDD2E7401E2654002806DD211870
:104CD00011F8011C0D29F6D00A29F4D02E70A1A8D4
:104CE000FEF742FE51EC100B05F032FF00EE100A09
:104CF000B5EEC00AF1EE10FA27D310EE100ABA4949
:104D0000884222DCA1A801F06DFFF0B10122A8A128
:104D10000DF2CC6001F0CAF8002842D091AB99AAFC
:104D2000B2A1A9A80094FBF777FB0A22A0A10DF27B
:104D3000CC6001F0BBF8C8B1AFA1484602F042F820
:104D40000021084601F0A2F82FE789AAB2A148463F
:104D500002F038F80DF2AC43524699A1484602F0F1
:104D600031F80021084601F091F81EE7A9A8FBF7E9
:104D70007DFD02460DF2A443A9A90DF2CC6001F01D
:104D80005DFA04460DF2CC6001F076F8002C7CD080
:104D9000A3A1484602F016F80021084601F076F873
:104DA00003E70DF59563FF220DF2CC510DF2CC60B7
:104DB00001F030F904460DF2CC6001F05DF844B129
:104DC0009BA1484601F0FEFF0021084601F05EF875
:104DD000EBE6DDF8A80408F8006099A90DF2CC50C4
:104DE000FBF7E2FC0746380075D091A9FBF7DCFC25
:104DF0000446A9AD6CB37FA12046FBF7D5FC07465E
:104E0000AFB191A8FBF732FDA4EB0801441822468C
:104E10000DF2CC51A9A8FBF75FFE2E55A1A9A9A8B8
:104E2000FBF78EFD3946A9A8FBF78AFD8FE091A814
:104E3000FBF71CFDA4EB0801441822460DF2CC51EF
:104E4000A9A8FBF749FE2E55A1A9A9A8FBF778FD53
:104E50007DE068A13846FBF7A7FC044614B1A078B2
:104E60005B281ED00DF2CC51A9A8FBF7DBFC9CB34C
:104E7000A41C214601A8FBF7D5FC267091A9A9A87E
:104E8000FBF75EFDA1A9A9A800E002E1FBF758FD30
:104E900058A1A9A8FBF754FD01A9A9A8FBF750FD4B
:104EA00055E0A4EB08073A460DF2CC51A9A8FBF750
:104EB00013FEEE554FA1A9A8FBF742FD91A9A9A8A1
:104EC000FBF73EFDA1A9A9A8FBF73AFD2146A9A839
:104ED000FBF736FD3BE011E0FFE746A1A9A8FBF791
:104EE0002FFD91A9A9A8FBF72BFDA1A9A9A8FBF764
:104EF00027FD40A1A9A8FBF723FD28E00DF2CC5126
:104F0000A9A8FBF78FFC9DF8CC0560B10DF2CC5041
:104F1000FBF7ACFC404410F8010C0A2803D035A183
:104F2000A9A8FBF70DFD99A9A9A8FBF709FD31A1D7
:104F3000A9A8FBF705FD91A9A9A8FBF701FDA1A967
:104F4000A9A8FBF7FDFC2BA1A9A8FBF7F9FC0A22F5
:104F500017A175E0DCBB00085B25735D0000000055
:104F60004368303D000000002573696E76616C690E
:104F7000640000002573206D6F64696669656420B4
:104F80007375636365737300600600200010014051
:104F9000636F6E6669672E696E692066696C65204D
:104FA0006E6F7420666F756E642E0D0A000000002F
:104FB000303A636F6E6669672E696E6900000000A3
:104FC00025733D25730D0A00496E70757420766156
:104FD0006C756528307E313030293A0D0A000000AA
:104FE00078010020600400200000C84225730D0AEB
:104FF000257325730D0A00004661696C6564207491
:105000006F2063726561746520636F6E66696720E7
:1050100066696C652E0D0A0025730D0A00000000FC
:105020005772697465206572726F722E0D0A0000E6
:1050300052656164206572726F722E0D0A00000065
:105040000DF2CC6000F032FF40B11BA1484601F0E8
:10505000B9FE0021084600F019FFA6E5A9A8FBF754
:1050600005FC02460DF2A443A9A90DF2CC6001F0A3
:10507000E5F804460DF2CC6000F0FEFE4CB1AFF254
:105080006001484601F09EFE0021084600F0FEFE49
:105090008BE50021084600F0F9FE81AAAFF28801F5
:1050A000484601F08FFEA1AB5246AFF2EC014846F4
:1050B00001F088FE79E500004661696C6564207442
:1050C0006F206F70656E20636F6E6669672066691A
:1050D0006C6520666F722077726974696E672E0D39
:1050E0000A0000002DE9F04106460F46002F08D0C7
:1050F0003946304601F0B1FA022809D20120BDE854
:10510000F081F56815B1B069A84205D8012503E022
:10511000B1698142F3D83D462C46641CB069A04277
:1051200004D80224022D01D20020E8E721463046AF
:1051300001F093FA38B1411CE1D00128DFD0AC4234
:10514000EBD10020DBE76FF070422146304602F0E1
:105150009FFA28B927B122463946304602F098FA1C
:1051600020B101280BD001242046C8E7F460306943
:10517000411CF9D0401E306101207071F4E74FF0FE
:10518000FF34F1E72DE9F05F8B46DBF8008001E0AA
:1051900008F1010898F800102F29F9D05C29F7D000
:1051A000D0F818900B222021484601F0CCFD0025B4
:1051B0002E462F464FF0080A38467F1C18F800404C
:1051C000202C0BD92F2C09D05C2C07D02E2C01D0F1
:1051D000564516D3BAF1080F0AD107E008EB0700CD
:1051E000CBF80000202C4AD8042049E02E2C02D015
:1051F0000620BDE8F09F08264FF00B0AA806050E12
:10520000DAE7802C01D345F00305A4F181001E28C4
:1052100002D95F381C2817D838467F1C18F80000C0
:10522000A0F140013F2902D340397D2903D2AAF1E0
:1052300001018E4201D30620DBE7711C09F806400C
:105240004E1C09F80100B7E721461DA0FFF710F931
:1052500008B10620CDE7A4F14100192802D845F095
:10526000020507E0A4F16100192803D845F0010503
:10527000203CE4B23046761C09F800409CE7002050
:1052800026B199F80010E52902D004E00620B0E725
:10529000052189F80010BAF1080F01D1A9060D0EF9
:1052A00005F00301012901D140F01000C5F381018F
:1052B000012901D140F0080089F80B00002098E78F
:1052C000222A2B2C3A3B3C3D3E3F5B5D7C7F00001D
:1052D00010B50749C84209D140F61D04204602F026
:1052E000E1FC2046BDE8104002F0CCBC10BD00003F
:1052F000008CFFBF002906D0012903D1016841F0CD
:10530000805101607047016841F48051016070472D
:10531000002906D0012903D1016841F480310160E0
:105320007047016841F0010101607047002906D013
:10533000012903D1016841F48021016070470168AF
:1053400041F004010160704700290AD0012907D10A
:10535000016821F460110160016841EA02410160C5
:105360007047016821F03801016001681143016054
:10537000704700290AD0012907D1016821F44001B2
:105380000160016841EA024101607047016821F053
:10539000C001016001681143016070470249086063
:1053A00008680028FCD1704700000020034801680D
:1053B000002902D00168491E0160704700000020EA
:1053C00070B50E494A68A0FB024508695A2801DDFC
:1053D000086900E05A20C117021B71EB05020BDAC5
:1053E000241A65EB010501F0C9F904194D4101F0DA
:1053F000C5F9001BA941FADB70BD0000880100203F
:1054000070B504460021204600F0D5F8002818D1D8
:105410002169206801F09FFC05468DB9606901781B
:1054200081B1C17A090704D40B22A16901F075FC8E
:1054300030B10021204600F007F80546002DE7D0E6
:10544000284670BD0425FBE72DE9F04104460E46D1
:10545000E088401C87B2002F04D0206910B13907C2
:1054600003D06AE00420BDE8F081401C2061E168BF
:1054700031B120688278521E12EA171F06D05CE014
:1054800020680089B84258D80420ECE701F0E5F81C
:105490000546012D01D80220E5E7681C15D02068DB
:1054A0008169A94243D896B1E168FFF71BFE054622
:1054B00028000ED0012D0ED0681C0ED000212068CF
:1054C00001F049FC58B10120CDE70120CBE70420D1
:1054D000C9E70720C7E70220C5E70120C3E7206826
:1054E0004FF400723030002101F02DFC2946206875
:1054F000FFF73AF92168C86200264FF001080EE074
:1055000080F804800021206801F025FC08B101200A
:10551000A9E72068C16A491CC162761CF6B22068FE
:105520008178B142ECD82168C96A891BC162E56003
:1055300029462068FFF718F92061E78007F00F017E
:105540003022206802EB41110844606100208AE7A4
:1055500070B505460021284600F02DF804462000CD
:1055600011D12969286801F0F6FB04465CB9686925
:105570000078E52807D030B101212846FFF764FF05
:105580000446002CEDD0A4B92969286801F0E3FB9A
:10559000044620000DD16E6920220021304601F022
:1055A000D2FB0B223046A96901F0C4FB2968012017
:1055B0000871204670BD70B504460D46E580A168AF
:1055C000012903D0206882698A4201D8022070BD77
:1055D00019B90278032A00D1416A11B18078060115
:1055E0001CE0E1600189A94201D8022070BD406A37
:1055F00000EB151020611AE0206801F02EF801463A
:10560000481C07D0022903D320688069884203D848
:10561000022070BD012070BDA81B85B2B542EBD23F
:10562000E1602068FFF7A0F800EB1510206105F09D
:105630000F013022206802EB411108446061002014
:1056400070BD00B593B000210091002802D0012068
:1056500013B000BD03F0A7FB1D2801D00120F7E720
:1056600001A803F091F91D2801D00120F0E7BDF851
:10567000480003F003FB684603F064FB00998901CE
:1056800000D5FEE71D2801D00120E1E74FF40060BE
:1056900003F09AF81D2801D00120D9E7002003F07B
:1056A000E9FF1D2801D00120D2E70020D0E700202B
:1056B000704770B505460C461C20002C02D01BB16B
:1056C00025B10BE0042070BD042070BD51024FF4E1
:1056D0000072012B06D0204603F0F8FB1D2805D0F0
:1056E000012070BD204602F039FEF7E7002070BDB2
:1056F000002801D0012070470020704770B5054692
:105700000C461C20002C02D01BB125B10BE004205C
:1057100070BD042070BD51024FF40072012B06D001
:10572000204603F0F9FC1D2805D0012070BD20465D
:1057300002F004FFF7E7002070BD01EB410100EB30
:10574000C100016921F001010161704701EB4101D4
:1057500000EBC100016941F001010161704701EBFB
:10576000410100EBC100016921F0606141EA426141
:105770000161704701EB410100EBC100016921F4B7
:1057800080710161704701EB410100EBC1000169CB
:1057900041F480710161704701EB410200EBC202EC
:1057A000136923F0010313610023136153619361B3
:1057B000D3611362212353623D2204290BD201EBF2
:1057C00041035B00C1F3400103EB81018A40816822
:1057D0000A4382607047091F01EB41035B00C1F37C
:1057E000400103EB81018A40C1680A43C2607047EF
:1057F00004290BD201EB41035B00C1F3400103EB31
:1058000081018A4081680A4382607047091F01EB69
:1058100041035B00C1F3400103EB81018A40C16891
:105820000A43C260704704290ED201EB41035B00BA
:10583000C1F3400103EB810100688A40024201D0BC
:105840000120704700207047091F01EB41035B00F6
:10585000C1F3400103EB810140688A40024201D05C
:10586000012070470020704701EB410100EBC100AF
:10587000002A04D0016941F02001016170470169EB
:1058800021F020010161704701EB410100EBC100F3
:10589000002A01D003627047C361704730B501EB45
:1058A000410100EBC100416A136A194341F0040150
:1058B000416211688161D168C161D16A4161036946
:1058C0001C490B4014695168956A2143146B2C43A1
:1058D000214394692143D4692143194301619168AB
:1058E000002912D0012915D0016941F4004101615C
:1058F0005169A1B1016921F480610161516A99B1D5
:10590000016921F48071016130BD016941F40071C8
:105910000161EDE7016921F400710161E8E70169C6
:1059200041F480610161E9E7016941F4807101613D
:1059300030BD00003F871CFE30B58DB00446274DBA
:10594000012203212846FFF753FF042203212846A2
:10595000FFF74EFF082203212846FFF749FF1022D8
:1059600003212846FFF744FF202203212846FFF7A2
:105970003FFF03212846FFF7E0FE03212846FFF7FB
:105980000BFF17480090039400200A900B90012110
:105990000291059008030190800004904FF440307C
:1059A0000C9048050790800006900320089009910C
:1059B0006A4603212846FFF771FF0122032128468A
:1059C000FFF752FF042203212846FFF7C8FE0321F8
:1059D0002846FFF7BBFE0DB030BD0000006402405A
:1059E000802C014030B501EB410100EBC100416A60
:1059F00021F004014162116881619168C161D1693E
:105A0000416103691A490B40146A116995690C4395
:105A100045EA81010C4344EA030101615168002910
:105A200012D0012915D0016941F400410161D1680A
:105A3000A1B1016921F480610161516999B10169E4
:105A400021F48071016130BD016941F4007101618F
:105A5000EDE7016921F400710161E8E7016941F4B2
:105A600080610161E9E7016941F48071016130BD44
:105A70003F87FCFF00210160012242608160C2601B
:105A8000016142618161C1610162704730B58DB0D1
:105A90000446274D012203212846FFF7A9FE0422D0
:105AA00003212846FFF7A4FE082203212846FFF71A
:105AB0009FFE102203212846FFF79AFE2022032191
:105AC0002846FFF795FE03212846FFF736FE0321FF
:105AD0002846FFF761FE17480090039440200A9083
