:020000040800F2
:10000000F81000203D030008CB270008C126000897
:10001000C9270008BD260008E92C000800000000E0
:10002000000000000000000000000000432B00085A
:10003000BF260008000000003D2B00087D030008DB
:100040005703000857030008570300085703000828
:100050005703000857030008570300085703000818
:100060005703000857030008570300085703000808
:1000700057030008570300085703000857030008F8
:1000800057030008570300085703000857030008E8
:1000900057030008570300085703000857030008D8
:1000A00057030008570300085703000857030008C8
:1000B00057030008570300085703000857030008B8
:1000C00057030008570300085703000857030008A8
:1000D000570300086D2C0008570300085703000859
:1000E0005703000857030008570300085703000888
:1000F0005703000857030008570300085703000878
:10010000570300083F2B0008570300085703000857
:100110005703000857030008570300085703000857
:100120005703000857030008570300085703000847
:100130005703000857030008570300085703000837
:100140005703000857030008570300085703000827
:100150005703000857030008570300085703000817
:100160005703000857030008570300085703000807
:100170005703000857030008570300080000000059
:1001800057030008570300085703000857030008E7
:100190005703000857030008570300080000000039
:1001A00057030008570300085703000800F002F83F
:1001B00000F0B4F80AA090E8000C82448344AAF14D
:1001C0000107DA4501D100F0A9F8AFF2090EBAE84B
:1001D0000F0013F0010F18BFFB1A43F0010318477B
:1001E000DCA10000FCA100000A444FF0000C10F854
:1001F000013B13F0070408BF10F8014B1D1108BFA5
:1002000010F8015B641E05D010F8016B641E01F844
:10021000016BF9D113F0080F1EBF10F8014BAD1C94
:100220000C1B09D16D1E58BF01F801CBFAD505E0B2
:1002300014F8016B01F8016B6D1EF9D59142D6D30C
:10024000704700000023002400250026103A28BF34
:1002500078C1FBD8520728BF30C148BF0B60704738
:100260006E2900F09385702901F00381662909F059
:10027000BD82652909F0BA82672909F0B782612930
:1002800009F0B68203681B0A28BF41F08001692982
:1002900000F04085642900F03D85752900F03A851D
:1002A0006F2901F09080782901F0CF80E92901F0D1
:1002B0002B80E42901F02880F52901F02580EF2921
:1002C00001F08D80F82901F0CE800368DB0928BF9A
:1002D00041F08001632900F0AC87732900F0B187F9
:1002E000E32901F08983F32901F08E830020704710
:1002F0001FB509F076FA01F00BF904000020002187
:1003000009F0E2F9401C60600020002109F0C6F904
:10031000E06000F03DFC1FBD10B510BD01F0C8FD50
:100320001146FFF7E5FF05F0BDFA01F0EFFD03B45C
:10033000FFF7F2FF03BC01F0F3FD0000094880471E
:1003400009480047FEE7FEE7FEE7FEE7FEE7FEE7B7
:10035000FEE7FEE7FEE7FEE704480549054A064BCF
:1003600070470000492B0008AD010008F808002084
:10037000F8100020F80C0020F80C002030B410B564
:100380000348804730BCAE4630BC024800470000FE
:10039000515B0008452B000800BF704710B54C109A
:1003A00084EA530404D54042C1F1000138BF491E1C
:1003B0001B4204D55242C3F1000338BF5B1E00F05C
:1003C000F9FB14F0804F04D04042C1F1000138BF66
:1003D000491E14F0004F04D05242C3F1000338BF4D
:1003E0005B1E10BD7CB51D4616460C00009001D06A
:1003F0002044401E074B7B442A4669460190304604
:1004000000F0EDFE05461CB10020694600F0FAFE42
:1004100028467CBD150E00000FB41CB5084B06AA7B
:100420007B4469460090059800F0D9FE0446002000
:10043000694600F0E7FE20461CBC5DF814FB000096
:10044000E10D000070B50C460546012A05D028785C
:10045000800600D5EA69002302E0012305E05B1C69
:10046000934202D2E05C0028F9D1A869E618C01ACC
:10047000A861286A18442862284600F012FC04E0AB
:10048000D5E9012114F8010B9047B442F8D328466E
:1004900000F01DFC70BD00002DE9F05F89460446A8
:1004A0004FF0000ADFF874B1FB44C0F820A02046EA
:1004B000E1688847002874D0252806D0D4E90121B6
:1004C0009047206A401C2062F1E700265F462046E4
:1004D000E16888472028054607DB312D05D27819C9
:1004E00010F8200C08B10643F1E7B00701D526F05B
:1004F0000406C4F81CA00027C4F818A02A2D09D0AF
:10050000284602F01EFC38B304EB8708303DC8F8DB
:10051000185019E059F8041B204604EB870291613A
:10052000E1688847012F054618D1E069002820DAE4
:1005300026F020061DE0D8F8180000EB800005EB3F
:1005400040003038C8F818002046E1688847054662
:1005500002F0F7FB0028EED1012F0AD02E2D08D192
:100560002046E16888477F1C0546022F46F020069A
:10057000C4DBA069002803DA404246F00106A0610E
:10058000F00701D026F010066C2D0BD0682D09D095
:100590004C2D39D06A2D35D0742D35D07A2D33D0ED
:1005A00016E038E0E1682F4620468847B842054605
:1005B00009D16C2F26D04FF48060E16806432046B5
:1005C0008847054604E06C2F1AD04FF4807006432C
:1005D0000DB3A5F14100192802D8203546F4006674
:1005E0004A462946204626604E46FFF739FE80B12E
:1005F00001280BD0F61D26F0070000F1080956E788
:100600004020E4E78020D8E70020D6E706F104097F
:100610004DE7284652E7206ABDE8F09F109E000093
:100620000FB400B58DB010A9099000910B904FF058
:10063000FF300A9000200C90064878440690064847
:1006400078446A4607900F9909A800F031FF0DB071
:100650005DF814FB930E0000AB0E00002DE9FF5F68
:100660001D464FF0FF3B91464FF000085F46D5E92D
:100670000146A96901987F1C8847296A82468847F4
:100680000028F6D1BAF1FF3F0CD0002E24F4C0644C
:1006900019DD600614D5BAF12B0F09D0BAF12D0F70
:1006A0000ED103E0584604B0BDE8F09F44F48064E6
:1006B000A96901987F1C8847761E8246002E02DDBC
:1006C000BAF1300F03D0B9F1000F26D032E0A9699A
:1006D000761E01987F1C44F400748847002E8246E1
:1006E00005DDBAF1780F06D0BAF1580F03D0B9F191
:1006F000000F10D01EE0B9F1000F02D0B9F1100FB9
:1007000018D1A969761E01987F1C24F400748847CB
:100710008246102002E0082000E00A20814609E01D
:10072000A96908FB0908761E01987F1C44F400742F
:1007300088478246002E05DD4946504600F0A4FE5B
:100740000028EDDAE96901988847A00502D46FF026
:100750000100A8E7E00725D1600613D5600502D5A2
:10076000C8F1000000E0404629680A1D2A600968B7
:10077000220501D5087015E0220701D5088011E097
:1007800008600FE02868011D29600068210502D576
:1007900080F8008006E0210702D5A0F8008001E083
:1007A000C0F8008038467EE7401ECAB210F8011F2C
:1007B0008A4202D00029F9D10020704740EA0103A3
:1007C00010B59B070FD1042A0DD310C808C9121FFA
:1007D0009C42F8D020BA19BA884201D9012010BD34
:1007E0004FF0FF3010BD1AB1D30703D0521C07E001
:1007F000002010BD10F8013B11F8014B1B1B07D165
:1008000010F8013B11F8014B1B1B01D1921EF1D1D5
:10081000184610BD40EA0103024630B59B0710D1CF
:100820004FF0013400E008C208C91D1B9D4315EAC2
:10083000C41FF8D013F0FF0102F8011B0DD01B0AF2
:10084000F8E711F8013B002B02F8013B05D011F845
:10085000013B002B02F8013BF3D130BD10B5431C26
:1008600002E010F8011B71B18107FAD14FF001329B
:1008700002C88C1A8C4314EAC211F9D0C01A0A06B5
:1008800003D0C01E10BDC01A10BD0A0401D0801EC6
:1008900010BD0902FCD0401E10BD40EA010370B536
:1008A0009B072ED14FF00136042A2AD308C810C95D
:1008B0009D1B9D43121F15EAC61517D0D8B2E1B291
:1008C000401A50EA056110D198B2A1B2401A50EA1C
:1008D00005410AD123F07F4024F07F41401A50EABD
:1008E000052102D1180EA0EB146070BDA342DBD02D
:1008F00018BA21BA884201D9012070BD4FF0FF30EB
:1009000070BD0AB9002070BD10F8013B11F8014B11
:1009100063B1A3420AD1521E08D010F8013B11F86E
:10092000014B1BB1A34201D1521EEDD1181B70BD6A
:10093000032A40F2308010F0030C00F0158011F80B
:10094000013BBCF1020F624498BF11F801CB00F8E3
:10095000013B38BF11F8013BA2F1040298BF00F837
:1009600001CB38BF00F8013B11F0030300F02580F4
:10097000083AC0F0088051F8043B083A51F804CB1B
:10098000A0E80810F5E7121D5CBF51F8043B40F8E1
:10099000043BAFF30080D20724BF11F8013B11F8EC
:1009A00001CB48BF11F8012B24BF00F8013B00F830
:1009B00001CB48BF00F8012B704710B5203AC0F0BA
:1009C0000B80B1E81850203AA0E81850B1E8185050
:1009D000A0E81850BFF4F5AF5FEA027C24BFB1E88D
:1009E0001850A0E8185044BF18C918C0BDE81040FE
:1009F0005FEA827C24BF51F8043B40F8043B08BF07
:100A00007047D20728BF31F8023B48BF11F8012BCD
:100A100028BF20F8023B48BF00F8012B70474FF079
:100A200000020429C0F0128010F0030C00F01B80BB
:100A3000CCF1040CBCF1020F18BF00F8012BA8BFC9
:100A400020F8022BA1EB0C0100F00DB85FEAC17C8D
:100A500024BF00F8012B00F8012B48BF00F8012B40
:100A600070474FF0000200B5134694469646203971
:100A700022BFA0E80C50A0E80C50B1F12001BFF457
:100A8000F7AF090728BFA0E80C5048BF0CC05DF8BD
:100A900004EB890028BF40F8042B08BF704748BF0B
:100AA00020F8022B11F0804F18BF00F8012B70477F
:100AB00010B5044610F0030F08BF11F0030F40F00B
:100AC00015804FF0013E121FC0F20E8051F8043B1A
:100AD000A3EB0E0C2CEA030C1CEACE1C08BF40F85A
:100AE000043BF0D0A1F1040102F10402521E08DB24
:100AF00011F8013B002B00F8013BF7D11146FFF73D
:100B00008EFF204610BD00004FF0013C50F8042B32
:100B100051F8043B9A4221D1A2EB0C03934313EA10
:100B2000CC1317D150F8042B51F8043B9A4215D13D
:100B3000A2EB0C03934313EACC130BD150F8042B14
:100B400051F8043B9A4209D1A2EB0C03934313EAF8
:100B5000CC13DBD04FF00000704700BFD01A01BAB1
:100B6000B1FA81F101F0180122FA01F0CB40C1F194
:100B70002001DBB2C0B2C01A2CFA01F3D11A9143A2
:100B800011EAC311E6D17047704770477047000003
:100B900070B5064C7C44064D7D4403E0206820443B
:100BA0008047241DAC42F9D170BD0000709900004F
:100BB0007099000053EA020C00F069802DE9F04BB7
:100BC0004FF00006002B1FBFB3FA83F503FA05F4BC
:100BD00024FA05F65E4012BF1643B2FA82F502FA15
:100BE00005F4C5F120051EBF22FA05FC44EA0C04F9
:100BF000203556EA044C4FEA144418BF641C4FF0E9
:100C000000084FF00009904271EB030C39D3002922
:100C100019BFB1FA81F701FA07F6B0FA80F700FAC6
:100C200007F6C7F120071EBF20FA07FC46EA0C06AC
:100C30002037B6FBF4FCA7EB0507103F07F01F0BAE
:100C4000CBF120060CFA0BFB2CFA06F644BFB34698
:100C50000026202FA4BF5E464FF0000B5BEA060C77
:100C600008BF4FF0010B19EB0B09ABFB027C48EB03
:100C70000608C01B06FB02CC0BFB03CC71EB0C017E
:100C8000C1E70B46024641464846BDE8F08B13B526
:100C90004FF000004FF00001AFF30080BDE81C40B2
:100CA000704770B5044685690068C10601D53026D5
:100CB00000E02026C00707D070BDD4E901213046EE
:100CC0009047206A401C20626D1EF6D570BD70B53D
:100CD000044685690078C00707D170BDD4E90121B9
:100CE00020209047206A401C20626D1EF6D570BD02
:100CF00009684A0501D540B27047C905FCD500B264
:100D0000704709684A0501D5C0B27047C905FCD5CE
:100D100080B270472DE9F04106460024106875291D
:100D2000314616A510D0FFF7E3FF002802DA404253
:100D300013A507E031688A0701D512A502E049072B
:100D400004D511A5012401E0FFF7DBFF00210A22F1
:100D500006F1240709E0B0FBF2FCB0FBF2F302FB62
:100D60001C00303078541846491C0028F3D1234623
:100D70002A463046BDE8F04100F01CBC00000000EF
:100D80002D0000002B000000200000001168026808
:100D9000006A530501D508700AE0D30501D5088023
:100DA00006E0130603D5C217C1E9000200E008609F
:100DB0000120704770472DE9FF4F0C461E464FF04B
:100DC000FF378BB0D2E90001DDF860800A908A46D7
:100DD000C1F30A5505B93D46002108464FF0000011
:100DE000BAF1000F00F4400005DA00EB80004FF488
:100DF000400101EA50004FEA9059B9F1010F00DDBE
:100E0000B9460A9850EA4A000ED044F61050A5F2AE
:100E1000FF3545432F14B8F1000F1ED07542291E2F
:100E20001EDDC9F100021CE0B8F1010F4FF0000017
:100E300001D0302103E0F24305E02154401CB042D0
:100E4000FBDB30460022002121540B99C1F80880B9
:100E5000C1E900200FB0BDE8F08FBD1B6D1CDEE7BF
:100E60004A4600DA694206A800F08CFF06AB93E818
:100E7000070003AB83E8070050460A9901F056F8D3
:100E80008DE80700A0F500501F3800900398002D52
:100E90000ADD42F21F014A460844002303A90390D9
:100EA000684601F0BFFA09E0A0F500504A461F3835
:100EB000002303A90390684601F0C9FA8DE80700F2
:100EC0000004000C03D04FF0FF30410800E0104652
:100ED000B8F1000F03D00022009215461EE0751EE7
:100EE00005D400F019FB303262556D1EF9D5B346BA
:100EF0000122084302D000227F1C04E02078302821
:100F000001D100227F1E002A099784D01DE0112DF7
:100F100007DA00F001FB303262556D1C50EA010225
:100F2000F5D1084302D00098C8B10EE00021681E38
:100F300005E0235C625C63542254401E491C8142DC
:100F4000F7DBAB46A81B401E0990002004F80B00FD
:100F50000B98099AC0F80880C0E9002B7AE711269F
:100F60004FF0000857E72DE9F04F88460446D21DA0
:100F700022F0070191B0D1E90001CDE90A0101F0A9
:100F8000B4FE02460B98C00F01D02D2007E0206868
:100F9000810701D52B2002E0202101EAC000032AAD
:100FA000099001D0072A05DB03464146204600F0A0
:100FB000D9FC0BE12078800601D5E06900E006202D
:100FC000B8F1650F814606D0B8F1660F18D0B8F1B8
:100FD000670F70D131E00020B9F1110F009001DBF3
:100FE000112301E009F101030AAA01A90CA8FFF7E6
:100FF000E2FEDDE90C70002609F10105834647E0B9
:1010000001204B4600904FF000470AAA01A90CA806
:10101000FFF7D1FEDDE90DB00C995D46002610B951
:1010200009F101000D18B9EB050003D4C0F1FF363A
:1010300009F10105A5EB09002BE0B9F1010F01DA77
:101040004FF001090020B9F1110F0090484601DD71
:10105000112300E003460AAA01A90CA8FFF7ABFE82
:10106000DDE90C704D4600268346207800070AD43F
:10107000AB4500DA5D4601A8012D04DD411911F8E8
:10108000011C302907D04F4502DA17F1040F04DAAA
:10109000012082460FE06D1EEEE7002F02DCED1B03
:1010A0003E4403E0781CA84200DD7D1CB81B00F123
:1010B000010A4FF000472078000703D4AA4501DB5E
:1010C0004FF0FF3A0021B7F1004F0DF143088DF8C2
:1010D000431024D002202B23002F01DA7F422D233E
:1010E0000A21021EA0F1010000DC5FB197FBF1FCB8
:1010F00097FBF1F201FB1C7C17460CF1300C08F851
:1011000001CDEEE7A8F1010003702188090501D5A2
:10111000452100E06521A0F1010800F8011C0998B3
:101120000FA9A1EB0807FF1D00B10120411901EB38
:10113000EA70A1693844081A401EA0612078C006F0
:1011400002D42046FFF7ADFD099828B1D4E901216A
:101150009047206A401C20622078C00622D5204695
:10116000FFF79FFD1EE0002E04DBB34502DD01A862
:10117000805D00E03020D4E901219047206A401CC6
:101180002062761CAAF101005FEA000A0AD100F091
:10119000BFF9C0680168405CD4E901219047206A2A
:1011A000401C2062281EA5F10105DCDC07E0D4E923
:1011B000012118F8010B9047206A401C2062381E5C
:1011C000A7F10107F3DC2046FFF781FD032011B0F2
:1011D00041E6000001694A1C02610878704700B5C9
:1011E0008FB0CDE901310021059105497944CDE960
:1011F000031011466846FFF74FF90FB000BD00001D
:10120000E5FFFFFF0A6802F8010B0A607047D1E9A9
:1012100000239A4202D2531C0B601070704710B525
:10122000436913B1AFF3008001E0FFF70BF9012030
:1012300010BD127800F124010A7000224A700122C8
:10124000EDE711684FF0FF32E9E700002DE9FF5F9D
:1012500015468A460446DFF8AC80F8440027D8E9F2
:1012600000103E46CDE9001010E03AF816106A462C
:1012700002A800F0F9FD411C07D02178890603D5AA
:10128000E269391891420DD80744761C207880060F
:1012900002D5E069B84205DDAE42E6DB3AF8160059
:1012A0000028E2D1A069C01BA0612046FFF7F9FC2D
:1012B000D8E90010CDE90010002017E03AF8181026
:1012C0006A4602A800F0D0FDB0F1FF3F81460BD086
:1012D00000250DF1080B05E0D4E901211BF80500FC
:1012E00090476D1C4D45F7D308F10100B042804690
:1012F000E4DB206A384420622046FFF7E8FCBDE8C2
:10130000FF9F0000729000002DE9F0418046D21D41
:1013100022F007020025D2E90002F52915A614D013
:10132000011E72F1000106DA0023D0EB030063EB2B
:10133000020211A608E0D8F800108B0701D50FA60D
:1013400002E0490701D50EA601251146002408F147
:10135000240704E000F0E0F830323A55641C50EA0B
:101360000102F7D12B46324621464046BDE8F04106
:1013700000F020B9000000002D0000002B0000004C
:101380002000000030B4002100F1240408E002F045
:101390000705D208303542EA4372DB086554491C20
:1013A00052EA0305F3D10468002310A2250707D5EC
:1013B000A40600D421B1C46901230DA2641EC46136
:1013C00030BC00F0F7B810B5044621461068FFF7AE
:1013D00098FC02462046BDE810400023D2E7D21D0B
:1013E00022F00701D1E90023CCE700000000000053
:1013F00030000000F0B40D460188090502D5214CEB
:101400007C4402E01F4C7C440E34002100F1240691
:1014100008E002F00F071209E75D42EA03721B09B8
:101420007754491C52EA0307F3D1027800231207CC
:1014300004D5702D06D009B1022311342246F0BC28
:1014400000F0B8B801231034F8E770B504460D4633
:1014500021461068FFF755FC024629462046BDE8A4
:1014600070400023C6E7D21D22F00703D3E9002312
:10147000C0E70368126843F0200303600823C361D8
:101480000023B7E7D48E00003A2800D2303820F08D
:101490002002412A01D3A2F13700884201D34FF044
:1014A000FF30704702681144137801601846704796
:1014B000D1600549794451610449794411620021A0
:1014C0001161114600F0A4BAEDFFFFFFE500000036
:1014D000426842B1016811F8013B23B1521EC0E9D4
:1014E0000012184670470121C160881E704742688B
:1014F0005AB1C368016843B983688B4205D0491E5D
:10150000521CC0E90012002070474FF0FF307047B6
:1015100000487047B808002030B5B0F10A024FEA21
:10152000900E71F100034EEA817EB0EB0E0061EB8C
:1015300091014FEA101E4EEA017E10EB0E0041EBC6
:1015400011114FEA102E4EEA016E10EB0E0041EB26
:1015500011214FEA104E4EEA014E10EB0E0041EB06
:101560001141401841F100014FEAD00040EA4170BA
:101570004FEAD10110EB80054FEA810444EA9074F0
:1015800044EB01046D1944EB0404521BA3414FF0DA
:10159000000348BF0A3200D530BD401C41F10001B4
:1015A00030BD10B5044600F0A9FC0068005D00F0F5
:1015B000010010BD2DE9F0470D46994692460446BC
:1015C00000F124080168880604D5E06921F01001C3
:1015D000216000E00120A84201DD471B00E0002758
:1015E000A1697A1902EB0900081AA0612078C006E7
:1015F00002D42046FFF755FB002608E0D4E901217C
:101600001AF806009047206A401C761C20624E455E
:10161000F4DB2078C0060AD52046FFF742FB06E03F
:10162000D4E9012130209047206A401C2062381EF6
:10163000A7F10107F4DC07E0D4E9012118F805005F
:101640009047206A401C2062281EA5F10105F3DCAA
:101650002046FFF73CFB2078000602D50220BDE8BB
:10166000F0870120FBE700002DE9F04F04460D460E
:10167000D21D22F0070089B0D0E9009748463946CC
:1016800001F033FB0246F80F01D02D2307E020685C
:10169000810701D52B2302E0202101EAC0038DF848
:1016A00020300BB1012000E00020032A824601D047
:1016B000072A04DB2946204600F054F93FE1207850
:1016C000800601D40D2500E0E569C7F30A560D2D0B
:1016D00049DA00214FEA175B08464FF00000002F5F
:1016E00000F4400007DA00EB80004FF4400100EB0B
:1016F000D07001EA60008115012901DD4FF0FF3152
:1017000000224FEA850CBCF1180F06D31346ACF14A
:1017100018004FF08052C24003E04FF4801323FAC8
:101720000CF30CF10C0CBCF1200F04D3ACF1200C29
:1017300009FA0CF001E007FA0CF000294FF000481C
:1017400001DD18B90FE00ED140450CD319EB0209A9
:101750005F4121B9404502D19F4329EA0209BBEB11
:10176000175F00D0761C2088000502D57B4878449E
:1017700002E07A487844193808AA302302F80A307F
:10178000037C0AF10101002E0AF1020A53546A4651
:1017900002DC4FF0300101E04FF031014FF0010861
:1017A0008DF8001002D0A6F2FF3603E059EA470197
:1017B00000D06B4E002D02DC2178090704D54FF0D4
:1017C00002082E218DF80110C44600210BE0C7F35A
:1017D00003433F01C35C491C6D1E02F80830052914
:1017E00008F1010801DA002DF1DC00210CE000EB2A
:1017F0001973491C1B786D1E082902F808304FEA3E
:10180000091908F1010801DA002DF0DC21688B06C6
:1018100002D516E0A8F10108E04505DD02EB08035A
:1018200013F8013C302BF5D0B8F1000F09DD02EBC5
:10183000080313F8013C2E2B03D1090701D4A8F1AA
:101840000108002D05DD3E2102F808106D1E08F18B
:101850000108407C002E02F8080008F1010804DAB3
:101860002D20764202F8080002E02B2002F8080042
:101870000A214FF47A70864208F101080BDB96FBCF
:10188000F0F3303302F8083096FBF0F308F101086A
:1018900000FB136601E0642E0CDB642096FBF0F382
:1018A000303302F8083096FBF0F308F1010800FB32
:1018B000136601E00A2E06DB96FBF1F0303002F8E9
:1018C000080008F1010896FBF1F001FB10603030D0
:1018D00002F80800A16908F1010808EB050202EB13
:1018E0000A00081AA0612078C00602D42046FFF73B
:1018F000D8F9216A08AE01EB0A00206204E0D4E9BD
:10190000012116F8010B9047BAF1010AF7D22078AD
:10191000C00602D52046FFF7C4F96E4609E016F866
:10192000010B3E280FD0D4E901219047206A401CCA
:101930002062B8F10108F2D22046FFF7C8F909B0D9
:101940000320BDE8F08F206A2844206203E0D4E938
:101950000121302090476D1EEBD3F8E7A18B0000EA
:1019600002FCFFFF2DE9F0411F46044603260168F3
:10197000072A01F4006004DB08B116A505E016A5EE
:1019800003E008B115A500E015A521F010002060C6
:10199000A069C01EA0610FB1401EA0612046FFF7E4
:1019A00080F94FB1D4E9012138469047206A401CA4
:1019B0002062C01C206206E0206AFAE7D4E9012117
:1019C00015F8010B9047761EF8D22046FFF77FF9F5
:1019D000BDE8F0814E414E006E616E00494E4600FA
:1019E000696E660010B5436913B1AFF3008001E082
:1019F000FFF72CFC012010BD128800F12401828425
:101A00000022C2840122EDE711684FF0FF32E9E7BE
:101A10002DE9F34F4FF0000A0C4656468DB00120D9
:101A20000C9001F10C000B9062690B98012190471A
:101A3000051E2DD0252D2CD0216A8847C0B16269A2
:101A40000B9801219047216A88470028F7D16269E5
:101A5000411E0B98904700E0761CA1690D988847BD
:101A6000216A88470028F7D1E1690D988847DBE7AC
:101A7000A1690D988847A842074601D1761CD3E793
:101A8000E1690D9888477F1C02D1BAF1000F6FD031
:101A90006BE162690B9800273D46394690472A283A
:101AA00004D162690B98012190470125DFF8D082AB
:101AB00062690B9801219047A0F130010A290AD2EE
:101AC0004745E5DC07EB870100EB4107303FDFD4FA
:101AD00045F01005ECE7E90601D46FF000476C28EB
:101AE0000AD04C2814D0682815D06A280DD0742844
:101AF0001CD07A281AD01DE062690B98012190470A
:101B00006C2802D045F0040514E045F002050DE014
:101B100045F020050AE062690B980121904768288A
:101B200002D045F0080505E045F4006562690B98B0
:101B300001219047C4E9015765283DD019DC582898
:101B40007AD00CDC452837D004DC252826D0412863
:101B50009ED131E046282FD0472899D12CE05B2830
:101B600077D0612828D063287CD0642823D15AE01C
:101B7000F6E06F2848D008DC66281DD067281BD007
:101B8000692821D06E2816D127E0702845D0732807
:101B900068D0752847D078280DD14DE0A1690D98FF
:101BA0008847252805463FF469AFE1690D988847C5
:101BB0006D1C3FF46AAFD8E00D9923466A466FF07A
:101BC0000100AFF30080C5E045F0400023464FF030
:101BD00000026060A80736D43EE0E8077FF447AF14
:101BE0002068011D21600068290501D506701BE7EA
:101BF000290701D5068017E7A90703D5F117C0E922
:101C0000006111E706600FE745F0400023464FF002
:101C100008026060A80716D41EE040F60E0125EA0F
:101C20000100606016E045F0400023464FF00A02D4
:101C30006060A80707D40FE045F040006060A80787
:101C400008D5234610220D996FF00100AFF30080F4
:101C500080E007E0102223460D996FF00100FEF7A7
:101C6000FDFC77E04FF0000963284F46C8464B461D
:101C7000CB4602D05B2806D038E0E80601D401202C
:101C8000A060012732E06269D4F80CB00B98012102
:101C900090475E2807D14FF0010949466269D4F8A0
:101CA0000CB00B989047216939B900210A4603AB63
:101CB00043F82120491C0829FADBD8B3216949B32C
:101CC00008F1010862690B98012190475D28F4D161
:101CD000B9F1000F09D0002003A951F82020D24308
:101CE00041F82020401C0828F7DB03AB20690028BE
:101CF00020794FEA40701ED05B462246CDF8008026
:101D0000CDE901970D9900286FF0010020DAAFF3BB
:101D100000801FE0C11703AA00EBD1614B1121F035
:101D20001F0102EB8302411A13680120884003431C
:101D30001360C7E719E00D99224600286FF00100F3
:101D4000009702DAAFF3008004E0AFF3008001E017
:101D5000AFF3008000280ADA401C06D10C9820B1AD
:101D60004FF0FF300FB0BDE8F08F5046FAE7E907BB
:101D700001D10AF1010A064400200C9054E600004B
:101D8000CCCCCC0C2DE9F047814616468AB03548BC
:101D900078440DC88DE80D0032487844801C03ACAF
:101DA0000DC884E80D0041F69B300844372190FBB4
:101DB000F1F290FBF1F5A5F1800501FB12041B3C4B
:101DC00002D56442012000E00020DFF898A08046A0
:101DD0000027FA44AAF1BE0A0EE0E0070AD0324614
:101DE000684607EB470101230AEB810100F02FFB56
:101DF0008DE8070064107F1C002CEED1194F7F4442
:101E0000AE3F19E0E80715D007EB04100DF1180AF2
:101E100090E80E008AE80E00C068F04201D19819DF
:101E200008903246012306A903A800F010FB03AB7B
:101E300083E807006D10641C002DE3D14FF001030F
:101E400032466946B8F1000F03A802D000F0EAFA62
:101E500001E000F0FCFAC9E90001C9F808200AB065
:101E6000BDE8F0871086000070B516460C460546A2
:101E700000F044F8036893F80101012806D0FF2C14
:101E80000FD8185D68B101202C7070BDD3F8070120
:101E90003246214603F2071303442846BDE870404A
:101EA00018474FF0FF3070BD004870479808002079
:101EB0007546FFF7F9FFAE4605006946534620F028
:101EC0000700854618B020B5FEF746FABDE8204069
:101ED0004FF000064FF000074FF000084FF0000BE6
:101EE00021F00701AC46ACE8C009ACE8C009ACE899
:101EF000C009ACE8C0098D467047000010B5FFF777
:101F000007FB001D10BD00BFC177000010B50446DF
:101F1000AFF300802046BDE81040FEF708BA7047D6
:101F200001491820ABBEFEE7260002005FEA400C24
:101F300008BF91F0000F4FEA8C234FEAC12243EA19
:101F400051514FEA1C5018BF00F5F0404FEA3000E5
:101F500018BF41F000415FEA6C5C00F02980BCF1E1
:101F6000FF3F08BF40F080407047130C06BF1204CB
:101F70004FF0100C4FF0000C130E04BF12020CF1C6
:101F8000080C130F04BF12010CF1040C930F04BFD3
:101F900092000CF1020CD30F04BF52000CF1010CA3
:101FA00011464FF00002A0F11F00A0EB0C0070479B
:101FB00011F0004F08BF704731F000413FF4D5AF3A
:101FC0000B0C06BF09044FF0100C4FF0000C0B0E69
:101FD00004BF09020CF1080C0B0F04BF09010CF13E
:101FE000040C8B0F04BF89000CF1020CCB0F04BF53
:101FF00049000CF1010CCCF12003A0EB0C0022FAFB
:1020000003F302FA0CF241EA030100F10100704708
:1020100020F07F4C80EA030023F07F47ACEB0703FE
:1020200003F57C5300F0004003F1FF032DE98049E4
:102030004FEA154B09B44FEA144325EA0B4E24EA44
:1020400003480FF2042606EB132749083E785FEA9F
:10205000320203FB0667C7F5000707FB06F64FEAE7
:1020600054374FEAD64606F1020607FB066CCCF160
:10207000005C4FEA1C472CEA074C07FB06F40CFBFC
:1020800006F504EB15464FEA961634BF00204FF0D4
:1020900000404FEAD13706FB07FC4FEA1C4C0CFB13
:1020A0000BF7D21B03FB0CF761EB07010CFB0EF7E0
:1020B000B0EB074072EB17420CFB08F734BFA2EB02
:1020C0000742B2EB074261EB17414FEA0C444FEA7B
:1020D000910706FB07FC4FEA1C4C0CFB0BF7B0EB1F
:1020E000C74072EB573203FB0CF734BFA2EBC74279
:1020F000B2EBC74261EB57310CFB0EF7B0EBC700F8
:1021000072EB57720CFB08F734BFA2EBC702B2EBBD
:10211000C70261EB5771039F4FEA816141EA921157
:1021200004EBCC044FEAD1374FEA826206FB07FC8E
:1021300042EA90124FEA80604FEA1C4C0CFB0BF70E
:10214000D21B03FB0CF761EB07010CFB0EF7B0EBA6
:10215000074072EB17420CFB08F734BFA2EB0742B3
:10216000B2EB074261EB17414FEA8C554FEA9107FA
:1021700004EB9C2406FB07FC4FEA1C4C0CFB0BF702
:10218000B0EBC74072EB573203FB0CF734BFA2EB46
:10219000C742B2EBC74261EB57310CFB0EF7B0EB15
:1021A000C70072EB57720CFB08F734BFA2EBC702F3
:1021B000B2EBC70261EB577115EB4C254FEA816119
:1021C00041EA92114FEA82624FEAD13742EA901215
:1021D00006FB07FC44F100044FEA80604FEA1C4C08
:1021E0000CFB0BF7D21B03FB0CF761EB07010CFB9D
:1021F0000EF7B0EB074072EB17420CFB08F734BF49
:10220000A2EB0742B2EB074261EB174115EB1C153D
:102210004FEA813141EA92414FEA823242EA9042EA
:102220004FEA80304FEA0C7644F1000448EA034359
:102230004EEA0B484FF0000EB2EB080C71EB0307AF
:1022400024BF624639464EEB0E0E4FF0000B0018CD
:10225000524149414BEB0B0BB2EB080C71EB0307FE
:102260007BF1000B24BF624639464EEB0E0E4FF059
:10227000000B0018524149414BEB0B0BB2EB080C21
:1022800071EB03077BF1000B24BF624639464EEB2E
:102290000E0E51EA020718BF46F0010616EB0E7645
:1022A00055F1000254F1000103D5BDE88901BDE8F4
:1022B0000088BDE88901BDE80048B619524141EBEC
:1022C0000101A3F10103704780807F7E7D7C7B7AD2
:1022D0007978777676757473727171706F6E6E6DD2
:1022E0006C6C6B6A6A696868676666656464636378
:1022F00062616160605F5F5E5E5D5D5C5C5B5B5AFE
:102300005A5959585857575656555555545453536A
:1023100052525251515050504F4F4F4E4E4D4D4DC5
:102320004C4C4C4B4B4B4A4A4A4949494848484710
:10233000474747464646454545444444444343434E
:102340004342424242414141002B9C4630D47700F7
:102350002BD01CB54FEA370703B44FF010004FF0F5
:102360001001BAF1000F06D0BCF1000FDCBF40F045
:10237000080040F008014FF000000FBCBDE810401D
:102380000BF1010BBBF1010F08BF5FEA170722BF7A
:1023900012F1010211F101014FF0004143F100037C
:1023A00000F0004043EA00007047F9D35708D0E737
:1023B00046EA064613F1400F4FEA16461FDD13F1B9
:1023C000200FDFBF16430A46002120335B42BED0F8
:1023D000C3F1200746EA064602FA07F74FEA164617
:1023E00046EA0706C3F1200722FA03F201FA07F7CB
:1023F00021FA03F14FF0000342EA0702A7E746EA99
:10240000020646EA06464FEA164646EA0106BCBF01
:1024100046EA0646360C4FF000034FF000024FF03C
:10242000000194E72DE9804C9A46934670B491E8F8
:10243000380007C831EA400C48BF34EA430C03D5E2
:10244000FFF7E6FDFFF780FFF0BCBDE8008C2DE94B
:10245000804C9A46934670B491E8380007C810F053
:10246000804F08BF13F0804F03D100F005F8FFF74D
:102470006BFFF0BCBDE8008C20F07F4780EA0300D2
:1024800023F07F4C07EB0C03A3F57C5300F00040D6
:10249000A3F1FE0392F0000F00F0B38095F0000F5F
:1024A00000F077802DE901494FEA11404FEA1446C8
:1024B00021EA004800FB06FC24EA064708FB06F672
:1024C00007FB08F800FB07F718EB06484CEB164C27
:1024D0004FEA124B18EB07484FEA15464CEB1740F2
:1024E00022EA0B4E0BFB06FC25EA06470EFB06F61E
:1024F00007FB0EFE0BFB07F71EEB064E4CEB164CD4
:102500004FF000061EEB074E4CEB174B18EB0B0879
:1025100040F1000018EB0E0B58EB000840F10000F2
:102520008F1A4FF000013CBFC943661B14BFB5EBC7
:10253000040C00213CBFC943F61B4FEA17444EEA86
:102540008E0E27EA04454FEA1C4704FB07622CEA7B
:10255000074C05FB07F70CFB05F604FB0CFC16EB20
:10256000074642EB174216EB0C4642EB1C421BEBB4
:10257000060658EB0202414146EA9E0601D5BDE837
:102580000189B619524141EB0101A3F10103BDE8F4
:1025900001894FEA14454FEA114724EA054621EA2A
:1025A000074C05FB07F406FB07F70CFB06F105FBE0
:1025B0000CFC11EB074144EB17444FEA124711EBB7
:1025C0000C4144EB1C4422EA074C05FB07F206FBD6
:1025D00007F70CFB06F605FB0CFC16EB074642EB77
:1025E000174216EB0C4642EB1C456A1854F10001E9
:1025F00048BF7047B619524141EB0101A3F10103F5
:10260000704795F0000F37D04FEA11424FEA144758
:1026100021EA024624EA074C02FB07F106FB07F712
:102620000CFB06F402FB0CFC14EB074441EB1741D6
:102630004FEA154714EB0C4441EB1C4125EA074CCB
:1026400002FB07F506FB07F70CFB06F602FB0CFC8A
:1026500016EB074645EB174516EB0C4645EB1C42BF
:10266000121951F1000148BF7047B619524141EBB0
:102670000101A3F1010370474FEA14454FEA1147E6
:1026800024EA054621EA074C05FB07F106FB07F79C
:102690000CFB06F24FF0000605FB0CFC12EB0742A8
:1026A00041EB174112EB0C4251EB1C4148BF704704
:1026B000921841EB0101A3F101037047FEE7FEE729
:1026C000FEE7000070B53D4800683C4808380068E7
:1026D0003A48001F0068394E4FF440740C3E2346C0
:1026E00000220121304602F0D6FE234602220021BC
:1026F000304602F0F4FE2146304602F087FE0A2002
:1027000001F076FD0024B5152946304602F07CFE26
:10271000052001F06DFD2946304602F077FE0520C8
:1027200001F066FD641CE4B2092CEDD32946304665
:1027300002F06CFE4FF400742146304602F064FE55
:10274000052001F055FD2146304602F05FFE0520D0
:1027500001F04EFD234601220221304602F09BFE8D
:10276000234602220121304602F0B9FE2B46012207
:102770000221304602F08FFE2B4602220121304614
:1027800002F0ADFE0E4C204602F07EFF00220D4905
:10279000204602F017FF002272231146204602F065
:1027A000D1FF204602F0A2FF2115204602F004FFCF
:1027B000BDE870400A2001F01BBD00000C0402407F
:1027C00000540040801A0600FEE7FEE770B50025C1
:1027D00005F1B000C0B200F09DF8002000F09AF8BA
:1027E000102000F097F80024002000F01DF9641C70
:1027F000E4B2802CF8D36D1CEDB2042DE8D370BD8B
:1028000070B5642001F0F4FC0024084D285D00F050
:1028100081F8641CE4B2162CF8D3FFF7D7FFBDE8AB
:1028200070400021084600F003B800001C000020A2
:1028300010B50446B031C8B200F06CF8102040EA80
:10284000141000F067F804F00F00BDE8104000F02D
:1028500061B800002DE9F04180460F460024203A7F
:10286000D5B2B8F17F0F02D9A0467F1CFFB2102B62
:1028700011D039464046FFF7DBFF164905EB45000E
:1028800001EB4005285D00F0CFF8641CE4B2062C93
:10289000F8D3BDE8F08139464046FFF7C9FF0E4E38
:1028A00004EB0510305C00F0BFF8641CE4B2082CA7
:1028B000F6D37F1CF9B24046FFF7BAFF002404EBC1
:1028C00005103044007A00F0AFF8641CE4B2082C24
:1028D000F5D3DEE7F49700081C9A00082DE9F041D3
:1028E00004460E461746984600250DE043463146FD
:1028F0002046FFF7AFFF0834E4B2782C02D9002459
:10290000B61CF6B26D1CEDB27A5D002AEED1BDE8C0
:10291000F08100002DE9F041404900220A70487022
:1029200042F2107425463E4E40F201673946304669
:1029300002F0F2FE28B1FFF7C5FE02E0012001F02F
:1029400057FC3946304602F0E7FE08B16D1EF5D15E
:1029500075B9FFF7B7FE02E0012001F049FC3946E6
:10296000304602F0D9FE08B1641EF5D1002C53D0D8
:10297000304602F0F2FE4FF4A0642146304602F0E9
:10298000CBFE0028F9D06FF001027821304602F02A
:10299000D0FE40F201542146304602F0BDFE002830
:1029A000F9D02146304602F0A6FE40F207542146F7
:1029B000304602F0B1FE0028F9D01A4C174B002225
:1029C0000621204601F078FE02220621204601F071
:1029D000CBFFE114304602F083FE0621204601F0D1
:1029E000CDFD20220621204601F035FE0028F8D03A
:1029F00020220621204601F013FE0621204601F088
:102A0000B4FD34460021204602F06AFE204602F062
:102A1000A9FE21688905FCD4BDE8F08104000020EE
:102A200000540040006002402DE9F041404940223E
:102A30000A70487042F2107425463E4E40F201671B
:102A40003946304602F068FE28B1FFF73BFE02E04F
:102A5000012001F0CDFB3946304602F05DFE08B1A1
:102A60006D1EF5D175B9FFF72DFE02E0012001F0D2
:102A7000BFFB3946304602F04FFE08B1641EF5D167
:102A8000002C53D0304602F068FE4FF4A06421467B
:102A9000304602F041FE0028F9D06FF001027821A3
:102AA000304602F046FE40F201542146304602F024
:102AB00033FE0028F9D02146304602F01CFE40F2D9
:102AC00007542146304602F027FE0028F9D01A4C60
:102AD000174B00220621204601F0EEFD02220621BE
:102AE000204601F041FFE114304602F0F9FD0621D5
:102AF000204601F043FD20220621204601F0ABFDD7
:102B00000028F8D020220621204601F089FD062168
:102B1000204601F02AFD34460021204602F0E0FD67
:102B2000204602F01FFE21688905FCD4BDE8F08133
:102B3000080000200054004000600240FEE704F05E
:102B400019BEFEE701F04ABB7CB54448016841F478
:102B500070010160424D286840F00100286028683B
:102B60008007FCD53E4C083420680026C0F3810065
:102B7000022857D1019602E00198401C019001986B
:102B80005028F9D320680090009820F0F0000090C1
:102B9000009840F08000009000982060019602E0CC
:102BA0000198401C019001985028F9D320680090AA
:102BB000009820F0F0000090009840F09000009005
:102BC00000982060019602E00198401C0190019855
:102BD0005028F9D320680090009820F0F000009071
:102BE000009840F0A000009000982060019602E05C
:102BF0000198401C019001985028F9D3206800905A
:102C0000009820F0F0000090009840F0B000009094
:102C100000982060019602E00198401C0190019804
:102C20005028F9D3C82000F093F8206820F0030062
:102C3000206028680B4908402860286820F480201C
:102C400028602660206806490748091D0860044876
:102C50000C300660BDE87C4005F0F2BD88ED00E078
:102C600000380240FFFFF6FE1030002470B5194C0A
:102C70001749204606F0DAFC002828D0204606F046
:102C800037FC154D0221284601F074FE0246134917
:102C90001348FDF74DFE641521461048FDF7BFFEB1
:102CA000104B012018700221284601F05EFC202202
:102CB0000221284601F0B4FC22460221284601F0F8
:102CC00053FE2846BDE87040022101F057BC70BD9C
:102CD000040304000010014000640240F8010020D9
:102CE0006804002078010020FEE703B40198410049
:102CF000009850EAC12018BF04204A0D18BF40F0C8
:102D0000010040F2FF72B2EB515F08BF40F00200D9
:102D1000012808BF052002B070470907090E0028E6
:102D200004DB00F1E02080F80014704700F00F0091
:102D300000F1E02080F8141D7047012002F018BD5A
:102D4000704730380A2801D20120704700207047B0
:102D500008B50021009100EB800002E00099491CB9
:102D600000910099B1EB400FF8D308BD816841F0A4
:102D70000801816081680907FCD4816841F0040181
:102D8000816081684907FCD47047521E01290FD029
:102D900002290CD1032A0AD8816B21F440118163E6
:102DA000816B4FF4401303EA025211438163704771
:102DB0000F2AFCD8C16A21F47001C162C16A4FF4C4
:102DC000700303EA02521143C162704704490A6862
:102DD00022F4E0220A600A6802430A607047000099
:102DE00004230140002904D0816841F4006181601E
:102DF0007047816821F4006181607047816841F407
:102E0000807181607047816841F400718160704712
:102E10008168C90703D1816841F001018160704771
:102E200001290AD0022907D1816821F4401181606B
:102E3000816841EA025181607047816821F0405108
:102E40008160816841EA027181607047012909D07F
:102E5000022906D1816821F47021816081681143C3
:102E600081607047816821F07061816081681143E1
:102E70008160704730B51F24062909D2456B01EBEC
:102E800081018C40A54302FA01F42C43446318E00D
:102E90000C290AD2056B891F01EB81018C40A543E7
:102EA00002FA01F42C4304630BE0102909D2C56A2D
:102EB0000C3901EB81018C40A54302FA01F42C434B
:102EC000C46207250A2A08D2046902EB42018D4038
:102ED000AC438B402343036130BD122AFCD8C46845
:102EE0000A3A02EB42018D40AC438B402343C3605E
:102EF00030BD012906D0022903D1816841F4800147
:102F000081607047816841F0804181607047002A8C
:102F100012D0CA0503D5426842F4807242604A0565
:102F200003D5426842F480624260890703D5816814
:102F300041F0020181607047CA0503D5426822F45E
:102F4000807242604A0503D5426822F48062426082
:102F50008907F0D5816821F0020181607047000087
:102F600004490A6822F01F020A600A6802430A60E4
:102F7000704700000423014002480349008808808C
:102F800002F062BE0C0000200A0000201CB50548BB
:102F90000549CDE9001000231A460721034801F036
:102FA00019FD1CBD695D0008D95E000860000020A5
:102FB00000F00F01000900EB800001EB4000C0B2FF
:102FC000704770B500245B1E012505EB531507E023
:102FD00051F8243052F82460334040F82430641C07
:102FE000A542F5D870BD10B501F01F040123A34020
:102FF0004C09002A50F8241003D0194340F824103B
:1030000010BD994340F8241010BD521E012303EB5C
:1030100052129200FDF7D2BB4A0950F8220001F08B
:103020001F01C840C0F30000704770B500245B1E4C
:10303000012505EB531507E051F8243052F82460C0
:10304000334340F82430641CA542F5D870BD00001D
:1030500010B58AB040F6024003F0F2FB41F20810CE
:1030600003F0EEFB40F6164003F0EAFB4FF440306D
:10307000FFF7ACFE012300220321324802F00BFAD5
:10308000314C0021204601F09FFA30490191012284
:1030900002922F49039100210491D30205930791D5
:1030A00008925004099001AA204601F0B3FB0022C7
:1030B0001146204601F06BFA0021204601F07BFA10
:1030C0000021204601F05AFA0020FFF749FF1F4C6B
:1030D00001224C3C02212046FFF719FF0122110278
:1030E0002046FFF714FF00212046FFF77BFE012258
:1030F00011462046FFF749FE01230A2200212046FF
:10310000FFF7B8FE002201212046FFF79FFE0022B4
:1031100001212046FFF784FE2046FFF774FE20467B
:10312000FFF76CFE2046FFF773FE012001F04EF81A
:103130002046FFF71BFE01212046FFF7DAFE0AB00A
:1031400010BD000000080240006402404C20014015
:103150000C00002010B540F6014003F071FB40F672
:10316000044003F06DFB4FF4406003F069FB4AF646
:10317000802301220021084802F08DF901231A461C
:103180000021064802F087F90123BDE810401A46E5
:103190000021034802F07FB9000402400010024001
:1031A0000000024010B58AB04FF4406003F048FBC5
:1031B00040F6154003F044FB41F21D0003F040FBD4
:1031C00041F2040003F03CFB1023002203212D48B0
:1031D00002F061F92C4C01220521204601F020FA71
:1031E00004220521204601F01BFA08220521204671
:1031F00001F016FA10220521204601F011FA2022D2
:103200000521204601F00CFA07220521204601F095
:10321000BEF91E4901911E480390402007900121EC
:103220000891029100210491420105924FF440322D
:103230000992069101AA0521204601F0EBFA052129
:10324000204601F09BF9114C083C204600F058FF45
:1032500000221146204600F08FFF0021204600F09A
:103260007DFF00221146204600F09BFF00212046F2
:1032700000F066FF0021204600F054FF05F040FFFB
:103280000AB010BD00000240006002400874004017
:103290000A00002030B587B040F6014003F0D0FAB4
:1032A00041F20E0003F0CCFA40F6154003F0C8FAE4
:1032B0001A4D4FF4604422460521284602F072F868
:1032C000234600220221284602F0E5F82346022286
:1032D0000021284602F003F9AC1423460022012104
:1032E000284602F0D8F8234602220021284602F0A0
:1032F000F6F8002001904FF48271009102900321B2
:103300000591E1100391102106910490694604484B
:1033100005F084F905F05AF807B030BD000402400A
:103320000038004070B540F6034003F089FA094DBB
:103330004FF47C54012223461146284602F0ABF894
:10334000234602220021284602F0C9F8014828300D
:10335000046070BD000C024070B58AB040F60140B8
:1033600003F06EFA41F2150003F06AFA40F61540D8
:1033700003F066FA304E4FF40074224604213046C2
:1033800002F010F865102A460421304602F00AF8CF
:10339000234601220221304602F07DF82346022214
:1033A0000121304602F09BF82B46012202213046D3
:1033B00002F071F82B4602220121304602F08FF80C
:1033C0001F4C00221D49204602F0FCF80022722307
:1033D0001146204602F0B6F9204602F087F9211581
:1033E000204602F0E9F8174C0621204601F0ECF8DF
:1033F00001A801F057FA40210791134903910021D8
:1034000004910591022108910D491031019101218A
:1034100002914FF44030099001AA0621204601F0A4
:10342000F9F90621204601F0BDF8012206212046C7
:1034300001F0ADF80AB070BD00040240801A060029
:1034400000540040006002400800002010B5002435
:1034500041F21C0003F0F4F902F0EEFB00F010F86A
:10346000054800680549C0F30120086100F024F810
:1034700003F09AF8204610BD703802400800002082
:1034800010B54FF4E054204603F02EF9204603F027
:103490003BF94FF4807003F003FA0648FF21C16046
:1034A0007F21816041F60F4003F0CAF9BDE810406A
:1034B00003F0D8BA0800002010B500241148826833
:1034C00011490A81C0684881252008700620C8700B
:1034D000042048703020887000200861C8602320D4
:1034E00008715920487150208871084603F046FA47
:1034F00028B1064943F2F0200860204610BD4FF085
:10350000FF34FAE708000020F803002050280040AC
:1035100070B58AB040F6164003F092F93B4C022198
:10352000204601F051F800210791394A0392049195
:10353000A2150892374A01920120029005914FF49A
:103540004030099001AA0221204601F063F90221CE
:10355000204601F027F804220221204601F017F846
:103560000221204601F00AF84FF4406003F068F9A8
:1035700041F2041003F064F9274E64152246072136
:10358000304601F00FFF65002A460721304601F062
:1035900009FF234601220221304601F07CFF234629
:1035A00002220021304601F09AFF2B46012202211F
:1035B000304601F070FF2B4602220021304601F018
:1035C0008EFF144C241F204605F09AFF4FF4E13182
:1035D000204605F031FF0421204606F040F808217E
:1035E000204606F042F84021204605F0F9FF20462B
:1035F00006F000F800221146252002F0FFF94FF4F2
:103600004171204606F008F80AB070BD006402401F
:10361000F8010020041001400000024010B501F044
:1036200075FEBDE8104001F0FFB9000010B504467A
:103630000A466078012304F1300100F052FF08B11E
:10364000032010BD94F82E0294F82F1240EA0120B6
:10365000A0F52A41553901D0022010BD14F8660F9B
:10366000E178627840EA0161A078663C000440EAB3
:10367000022001430B48B0EB012F01D1002010BD07
:1036800014F8821FE278637841EA0261A27812049A
:1036900042EA03221143B0EB012F01D1002010BDFB
:1036A000012010BD0046415470B502F023FA0446D3
:1036B0000D4602F0B9FA50B102F01CFA04460D466C
:1036C00002F028FA04196941641C41F10005204602
:1036D000294670BD00E0401C02780AB18A42FAD146
:1036E000007870472DE9F047154603681C78303C98
:1036F000092C02D85A783A2A04D000242CB10B2085
:10370000BDE8F0879B1C0360F8E7AD4804680C60D7
:1037100084B1207820B1607800F002FFC1070BD09F
:10372000002738462770607000F0A3FEC1070AD05A
:103730000320E5E70C20E3E71DB1400701D50A208F
:10374000DEE70020DCE71DB1400701D50A20D7E7FE
:10375000002631462046FFF769FF0146012912D1B4
:1037600004F5F770027972B1017AC27A41EA026611
:10377000817A407A090441EA002006433146204616
:10378000FFF754FF0146032902D019B10D20B7E716
:103790000120B5E794F83B0094F83C1040EA012082
:1037A000B0F5007F01D00D20AAE794F8460094F808
:1037B000471040EA012058B914F8540FE1786278B4
:1037C00040EA0160A1780904543C41EA022108431F
:1037D0008146E06194F84010E170012903D002298C
:1037E00001D00D208CE7484394F83D20A27012B11F
:1037F000531E1A4201D00D2082E794F8411094F82C
:10380000423041EA03232381190701D00D2077E7D5
:1038100094F8431094F8445041EA052161B914F832
:10382000501FE57894F801C041EA0561A5782D04A0
:10383000503C45EA0C25294394F83E5094F83FC08B
:1038400045EA0C28B8F1000F07D008EB000505EB9E
:10385000131C614503D20D2052E70D2050E7A1EB68
:103860000C01B1FBF2F131B3012540F6F672914241
:1038700000D302254FF6F672914200D30325891C2E
:10388000A16106EB0C02A26206EB08022262032D84
:1038900013D02BB310446062022D23D001F001003D
:1038A00001EB410100EB510000F2FF10B9EB502F8A
:1038B0001AD20D2024E70D2022E70BB10D201FE7BF
:1038C00014F85C0FE278637840EA0260A278120490
:1038D00042EA0322104344F8380C5C3C8800E3E7DA
:1038E0000D200DE74800DFE74FF0FF302061E76073
:1038F000032D59D1677194F8600094F8611040EA83
:103900000120821962616078012304F1300100F026
:10391000E8FDE8BB94F82E0294F82F1240EA01204B
:10392000A0F52A4155393FD114F8300FE17862787B
:1039300040EA0160A178303C090441EA02210843D1
:103940002049884230D194F8140294F8171294F860
:10395000152240EA016094F81612090441EA022196
:103960000843194988421FD194F81C0294F81F1289
:1039700094F81D2240EA016094F81E12090441EAFD
:1039800002210843E06094F8180294F81B1200E04A
:103990000AE040EA016094F81A1294F81922090426
:1039A00041EA02210843206125700549091F088862
:1039B000401C0880E080E76227710020A0E600003C
:1039C000580000205252614172724161891E826921
:1039D000921E8A4201D800207047826A807801FBDB
:1039E0000020704770B51D25084C00E0641E802043
:1039F00004F0D2FB08B9002CF8D124B1044804F03B
:103A0000C5FB284670BD132070BD0000A0860100D4
:103A1000FF07C0002DE9F04FADF26C4D042266A106
:103A2000FCF73BFF002814D120210AA8FDF719F864
:103A3000202102A8FDF715F8002500266049002086
:103A400001F03CF9DFF87CB138B15FA1584601F0D4
:103A5000A9FF0DF26C4DBDE8F08F012262A192A882
:103A600001F03CF940B158A1584601F09BFF0021FC
:103A7000084601F023F9ECE701ABFF2252A992A816
:103A800001F0E0F960B9019850B152A94FF0000976
:103A900001F800900027B84652AC0DF1480A6BE0DF
:103AA00055A1584601F07EFF92A801F0FDF80021D3
:103AB000084601F003F9CCE7002004E00246401C70
:103AC0000AF80210641C217819B10D2901D00A29C5
:103AD000F4D10AF8009020780D2800D1641C2078D9
:103AE0000A2800D1641C9DF848005B2810D02FB133
:103AF000032249A112A8FCF7D0FEF0B1B8F1000FE3
:103B00003AD0032244A112A8FCF7C7FE20BB24E050
:103B1000072242A112A8FCF7C0FE48B100270722E5
:103B200040A112A8FCF7B9FE20B14FF0000823E035
:103B30000127F4E74FF001081EE03D2112A8FCF731
:103B400033FE48B1411C00E0491C08782028FBD016
:103B50000AA8FCF75FFE01250EE03D2112A8FCF744
:103B600023FE48B1411C00E0491C08782028FBD006
:103B700002A8FCF74FFE0126207800289CD192A8CD
:103B800001F092F80021084601F098F825B10AAA40
:103B900026A1584601F006FF26B102AA26A15846E2
:103BA00001F000FF002D86D0002E84D025A15846BC
:103BB00001F0F8FE4DE70000636F6E660000000044
:103BC0006806002000100140636F6E6669672E6909
:103BD0006E692066696C65206E6F7420666F756E05
:103BE000642E0D0A00000000303A636F6E6669674C
:103BF0002E696E6900000000636F6E6669672E694A
:103C00006E692066696C65207265616420657272F8
:103C10006F722E0D0A000000436830005B52617421
:103C2000696F5D005B4C696D69745D005261746918
:103C30006F3D25730D0A00004C696D69743D257355
:103C40000D0A0000636F6E6669672072656164200B
:103C5000737563636573730D0A0000002DE9F0410D
:103C60002DED028BEAB005460C462846FCF7F6FD22
:103C7000024629462046FCF710FE00287ED120226D
:103C8000774962A8FCF799FE76A12846FCF73CFF2D
:103C900020B1002424B1DFED758A03E00124F9E7A7
:103CA000DFED738A294642A8FCF7B4FD9DF80801B0
:103CB000A0F16101192902D820388DF808012A469F
:103CC0006CA152A8FCF7A8FB2A466DA14AA8FCF7F4
:103CD000A3FB00254FF4807102A8FCF7C2FE0C2262
:103CE000294602A804F0DCFA04226AA102A8FCF723
:103CF000D4FD6A4D6A4E50B16AA1304601F052FEC1
:103D0000B7EE000A85ED000A85ED010A1DE09DF879
:103D10000C009DF80D1040EA01209DF80E1040EABD
:103D200001409DF80F1040EA016028609DF81000E6
:103D30009DF8111040EA01209DF8121040EA014060
:103D40009DF8131040EA016068600CB1286800E03B
:103D5000686805F0D5FC41EC100B5CA153EC102B0E
:103D600062A8FCF759FB62AB42AA5AA1304601F0A7
:103D700019FEBDEEE80A10EE102A00E048E058A156
:103D8000304601F00FFEDFF87081002788F80070E0
:103D900098F800000028FBD01F2258495AA8FCF7C9
:103DA00087FE8DF887715AA8FCF758FD5AAA01E0E2
:103DB000401E1754002806DD111811F8011C0D29AA
:103DC000F6D00A29F4D088F800704FF400714B48FF
:103DD000FCF725FE5AA801F0F7FCF0B15AA804F050
:103DE00035FCB0EE408AB5EEC08AF1EE10FA04D38D
:103DF000B4EEE88AF1EE10FA1BDD52AA40A130467B
:103E000001F0D0FD62AB42AA32A1304601F0CAFDFA
:103E10006AB0BDEC028BBDE8F08152AA38A13046F1
:103E200001F0C0FD62AB42AA2AA1304601F0BAFD02
:103E3000EEE714B185ED008A01E085ED018A4AAA1A
:103E40002FA1304601F0AEFD18EE100A05F058FC27
:103E5000CDE9000142AA2CA1304601F0A3FDD7E72D
:103E60009CA20008726174696F0000000000C842E3
:103E70000000FA43257320696E76616C6964000066
:103E80002573206D6F64696669656420737563636B
:103E900065737300434F4E46000000007C01002014
:103EA000001001404E6F2076616C696420636F6E74
:103EB00066696775726174696F6E20666F756E648E
:103EC00020696E20666C6173680D0A00252E3166CC
:103ED000000000002573203D2025730D0A0000001E
:103EE000496E7075742076616C756528302D256477
:103EF000293A0D0A00000000780100206804002023
:103F000025730D0A000000002573203D20252E3169
:103F1000660D0A002DE9F04106460F46002F08D035
:103F20003946304601F08BF9022809D20120BDE85C
:103F3000F081F56815B1B069A84205D8012503E004
:103F4000B1698142F3D83D462C46641CB069A04259
:103F500004D80224022D01D20020E8E72146304691
:103F600001F06DF938B1411CE1D00128DFD0AC423D
:103F7000EBD10020DBE76FF070422146304602F0C3
:103F800077F928B927B122463946304602F070F950
:103F900020B101280BD001242046C8E7F460306925
:103FA000411CF9D0401E306101207071F4E74FF0E0
:103FB000FF34F1E72DE9F05F8B46DBF8008001E08C
:103FC00008F1010898F800102F29F9D05C29F7D0E2
:103FD000D0F818900B222021484601F0A4FC0025BF
:103FE0002E462F464FF0080A38467F1C18F800402E
:103FF000202C0BD92F2C09D05C2C07D02E2C01D0D3
:10400000564516D3BAF1080F0AD107E008EB0700AE
:10401000CBF80000202C4AD8042049E02E2C02D0F6
:104020000620BDE8F09F08264FF00B0AA806050EF3
:10403000DAE7802C01D345F00305A4F181001E28A6
:1040400002D95F381C2817D838467F1C18F80000A2
:10405000A0F140013F2902D340397D2903D2AAF1C2
:1040600001018E4201D30620DBE7711C09F80640EE
:104070004E1C09F80100B7E721461DA0FFF72AFBF7
:1040800008B10620CDE7A4F14100192802D845F077
:10409000020507E0A4F16100192803D845F00105E5
:1040A000203CE4B23046761C09F800409CE7002032
:1040B00026B199F80010E52902D004E00620B0E707
:1040C000052189F80010BAF1080F01D1A9060D0EDB
:1040D00005F00301012901D140F01000C5F3810171
:1040E000012901D140F0080089F80B00002098E771
:1040F000222A2B2C3A3B3C3D3E3F5B5D7C7F0000FF
:1041000010B50749C84209D140F61D04204602F007
:10411000B7FB2046BDE8104002F0A2BB10BD000076
:10412000008CFFBF002906D0012903D1016841F0AE
:10413000805101607047016841F48051016070470F
:10414000002906D0012903D1016841F480310160C2
:104150007047016841F0010101607047002906D0F5
:10416000012903D1016841F4802101607047016891
:1041700041F004010160704700290AD0012907D1EC
:10418000016821F460110160016841EA02410160A7
:104190007047016821F03801016001681143016036
:1041A000704700290AD0012907D1016821F4400194
:1041B0000160016841EA024101607047016821F035
:1041C000C001016001681143016070470249086045
:1041D00008680028FCD170470000002003480168EF
:1041E000002902D00168491E0160704700000020CC
:1041F00070B50E494A68A0FB024508695A2801DDDE
:10420000086900E05A20C117021B71EB05020BDAA6
:10421000241A65EB010501F0A3F804194D4101F0E2
:104220009FF8001BA941FADB70BD0000900100203F
:1042300070B504460021204600F0D5F8002818D1BA
:104240002169206801F077FB05468DB96069017826
:1042500081B1C17A090704D40B22A16901F04DFB99
:1042600030B10021204600F007F80546002DE7D0C8
:10427000284670BD0425FBE72DE9F04104460E46B3
:10428000E088401C87B2002F04D0206910B13907A4
:1042900003D06AE00420BDE8F081401C2061E168A1
:1042A00031B120688278521E12EA171F06D05CE0F6
:1042B00020680089B84258D80420ECE700F0BFFF1E
:1042C0000546012D01D80220E5E7681C15D02068BD
:1042D0008169A94243D896B1E168FFF71BFE054604
:1042E00028000ED0012D0ED0681C0ED000212068B1
:1042F00001F021FB58B10120CDE70120CBE70420DC
:10430000C9E70720C7E70220C5E70120C3E7206807
:104310004FF400723030002101F005FB294620687F
:10432000FFF754FB2168C86200264FF001080EE039
:1043300080F804800021206801F0FDFA08B1012016
:10434000A9E72068C16A491CC162761CF6B22068E0
:104350008178B142ECD82168C96A891BC162E560E5
:1043600029462068FFF732FB2061E78007F00F0144
:104370003022206802EB41110844606100208AE786
:1043800070B505460021284600F02DF804462000AF
:1043900011D12969286801F0CEFA04465CB9686930
:1043A0000078E52807D030B101212846FFF764FFE7
:1043B0000446002CEDD0A4B92969286801F0BBFAA5
:1043C000044620000DD16E6920220021304601F004
:1043D000AAFA0B223046A96901F09CFA296801204B
:1043E0000871204670BD70B504460D46E580A16891
:1043F000012903D0206882698A4201D8022070BD59
:1044000019B90278032A00D1416A11B180780601F6
:104410001CE0E1600189A94201D8022070BD406A18
:1044200000EB151020611AE0206800F008FF01463B
:10443000481C07D0022903D320688069884203D82A
:10444000022070BD012070BDA81B85B2B542EBD221
:10445000E1602068FFF7BAFA00EB1510206105F063
:104460000F013022206802EB4111084460610020F6
:1044700070BD00B593B000210091002802D001204A
:1044800013B000BD03F057F91D2801D00120F7E754
:1044900001A802F041FF1D2801D00120F0E7BDF87E
:1044A000480003F0B3F8684603F014F90099890155
:1044B00000D5FEE71D2801D00120E1E74FF40060A0
:1044C00002F04AFE1D2801D00120D9E7002003F0A8
:1044D00099FD1D2801D00120D2E70020D0E700205F
:1044E000704770B505460C461C20002C02D01BB14D
:1044F00025B10BE0042070BD042070BD51024FF4C3
:104500000072012B06D0204603F0A8F91D2805D023
:10451000012070BD204602F0E9FBF7E7002070BDE6
:10452000002801D0012070470020704770B5054673
:104530000C461C20002C02D01BB125B10BE004203E
:1045400070BD042070BD51024FF40072012B06D0E3
:10455000204603F0A9FA1D2805D0012070BD204691
:1045600002F0B4FCF7E7002070BD01EB410100EB65
:10457000C100016921F001010161704701EB4101B6
:1045800000EBC100016941F001010161704701EBDD
:10459000410100EBC100016921F0606141EA426123
:1045A0000161704701EB410100EBC100016921F499
:1045B00080710161704701EB410100EBC1000169AD
:1045C00041F480710161704701EB410200EBC202CE
:1045D000136923F001031361002313615361936195
:1045E000D3611362212353623D2204290BD201EBD4
:1045F00041035B00C1F3400103EB81018A40816804
:104600000A4382607047091F01EB41035B00C1F35D
:10461000400103EB81018A40C1680A43C2607047D0
:1046200004290BD201EB41035B00C1F3400103EB12
:1046300081018A4081680A4382607047091F01EB4B
:1046400041035B00C1F3400103EB81018A40C16873
:104650000A43C260704704290ED201EB41035B009C
:10466000C1F3400103EB810100688A40024201D09E
:104670000120704700207047091F01EB41035B00D8
:10468000C1F3400103EB810140688A40024201D03E
:10469000012070470020704701EB410100EBC10091
:1046A000002A04D0016941F02001016170470169CD
:1046B00021F020010161704701EB410100EBC100D5
:1046C000002A01D003627047C361704730B501EB27
:1046D000410100EBC100416A136A194341F0040132
:1046E000416211688161D168C161D16A4161036928
:1046F0001C490B4014695168956A2143146B2C4383
:10470000214394692143D46921431943016191688C
:10471000002912D0012915D0016941F4004101613D
:104720005169A1B1016921F480610161516A99B1B6
:10473000016921F48071016130BD016941F40071AA
:104740000161EDE7016921F400710161E8E70169A8
:1047500041F480610161E9E7016941F4807101611F
:1047600030BD00003F871CFE30B58DB00446274D9C
:10477000012203212846FFF753FF04220321284684
:10478000FFF74EFF082203212846FFF749FF1022BA
:1047900003212846FFF744FF202203212846FFF784
:1047A0003FFF03212846FFF7E0FE03212846FFF7DD
:1047B0000BFF17480090039400200A900B900121F2
:1047C0000291059008030190800004904FF440305E
:1047D0000C904805079080000690032008900991EE
:1047E0006A4603212846FFF771FF0122032128466C
:1047F000FFF752FF042203212846FFF7C8FE0321DA
:104800002846FFF7BBFE0DB030BD0000006402403B
:10481000802C014030B501EB410100EBC100416A41
:1048200021F004014162116881619168C161D1691F
:10483000416103691A490B40146A116995690C4377
:1048400045EA81010C4344EA0301016151680029F2
:1048500012D0012915D0016941F400410161D168EC
:10486000A1B1016921F480610161516999B10169C6
:1048700021F48071016130BD016941F40071016171
:10488000EDE7016921F400710161E8E7016941F494
:1048900080610161E9E7016941F48071016130BD26
:1048A0003F87FCFF00210160012242608160C260FD
:1048B000016142618161C1610162704730B58DB0B3
:1048C0000446274D012203212846FFF7A9FE0422B2
:1048D00003212846FFF7A4FE082203212846FFF7FC
:1048E0009FFE102203212846FFF79AFE2022032173
:1048F0002846FFF795FE03212846FFF736FE0321E1
:104900002846FFF761FE17480090039440200A9064
:1049100000200B9001210291059008030190800076
:1049200004904FF440300C904805079080000690AA
:104930000991032008906A4603212846FFF7C6FE26
:10494000012203212846FFF7A7FE0422032128465F
:10495000FFF71DFE03212846FFF710FE0DB030BD06
:1049600000640240802C014001EB410100EBC100DA
:104970004261704701EB410100EBC10040697047A3
:104980002DE9F0410746124C00250CE02068C5EBEC
:10499000C50100EB8100E169884702462946384697
:1049A000FEF721FB6D1CA088A842EFDC2569A688D4
:1049B00009E0E169281D8847024631463846FEF77E
:1049C00012FB2D68761C002DF3D1BDE8F0810000AC
:1049D0000C0400202DE9F0470746DDE9085688461B
:1049E00091469A460F4C002E1AD0CDB13C2120465C
:1049F000FCF737F82760A4F80480C4F80890A4F8FE
:104A00000CA0A661E561002084F830004FF6FF712C
:104A1000618660634FF4FA70A0630120BDE8F087FF
:104A20000020FBE70C0400201CB504460022009285
:104A300001926846FFF7A4FF2146684600F076F829
:104A40001CBD2DE9FC410646089F884610461D46C0
:104A50002946FEF7E1FAC4B229464046FEF7DCFAE1
:104A6000C1B20020CDE900503B462246304601F05D
:104A7000ABFABDE8FC812DE9FF470746DDF8309031
:104A8000884694461E460020029003904020002451
:104A900000210125401E05EB501319E056F8212096
:104AA000AAB14FF0553000EA5200101A00F033322C
:104AB0004FF0333A0AEA9000104400EB101000F077
:104AC0000F3000EB004000EB0020000E0444491CB6
:104AD0008B42E3D8002C22D040233246614602A804
:104AE000FEF76FFA4022314602A8FEF78EFAC0B1F7
:104AF000002440233246414602A8FEF762FA4022D3
:104B0000314602A8FEF781FA68B100214FF0FF306C
:104B1000CDE900054B462246384601F055FABDE87E
:104B2000FF870124E5E70121F0E700002DE9FC5FA4
:104B300007460E465B4C94F8300000F00108B8F1CF
:104B4000000F04D004F128000821FBF78AFFB8F118
:104B5000000F47D00025AA461EE0CDF800A0CDF8F2
:104B600004A0A06805EBC50100EB810940234A467B
:104B700039466846FEF725FA402249466846FEF760
:104B800044FA80B1002030B104F1280140234A46A4
:104B90000846FEF74AFA6D1CA089A842DDDC65696B
:104BA00004F1280B1CE00120EDE7CDF800A0CDF8C2
:104BB00004A005F1040940234A4639466846FEF739
:104BC00000FA402249466846FEF71FFA80B10020ED
:104BD00028B140234A4659465846FEF726FA2D6822
:104BE000002DE2D1002504F1200904F1280A15E086
:104BF0000120EDE7B8F1000F04D029465046FEF73A
:104C00000BFA50B900962068C5EBC50100EB810096
:104C10002B463A464946FFF714FF6D1CA088A84270
:104C2000E8DC2569B4F804B011E0B8F1000F04D055
:104C300059465046FEF7F0F930B95B463A464946C8
:104C4000281D0096FFF7FDFE2D680BF1010B002DCE
:104C5000EBD14FF008080DE00096A06805EBC50108
:104C600000EB810308EB810108443A464946FFF70F
:104C700002FF6D1CA089A842EEDC646908E0231DD8
:104C80003A46494604F10C000096FFF7F4FE24680A
:104C9000002CF4D14846394602B00822BDE8F05F46
:104CA000FBF78BBE0C04002010B50446204600F034
:104CB0008BF9002801D10021216010BD002801D00E
:104CC0000B207047044A1068002300B1037001B143
:104CD0000B70116000207047580000202DE9F74745
:104CE0008BB007464FF00008C7F8008002F01F069F
:104CF00026F0010204A90CA8FEF7F4FC054601A861
:104D00000A90280004D104A80C9900F059FA05462D
:104D1000099C0DB904B9062516F01C0F59D04DB1E8
:104D2000042D03D104A8FFF72BFB054646F0080627
:104D3000099C08E0E07A10F0110F01D0072502E08D
:104D4000700700D50825EDBB30074DD500F0DCFA23
:104D5000A073010AE173010C2174000E607484F8E1
:104D60000B8084F81C8084F81D8084F81E8084F8F1
:104D70001F80207D617D40EA0120E17E000440EA41
:104D80000129A07E49EA000984F81A8084F81B8072
:104D900084F8148084F81580049901200871B9F111
:104DA000000F21D00498D0F82CA04946049801F0B7
:104DB00081FD0546280017D10498A9F10109C0F822
:104DC0000C9000E010E05146049800F0B4FD054658
:104DD0000AE04DB9E07AC10601D5042504E0B10727
:104DE00002D5C00700D007253DB9300701D546F0F0
:104DF00020060498C06AF8613C62FDB9BE71207D4E
:104E0000617D40EA0120E17E000440EA0120A17EAC
:104E100008433861207FE17F627F40EA0160A17F23
:104E2000090441EA02210843F860C7F80880C7F87E
:104E30001880049838600498C088B8800EB028465E
:104E4000BDE8F0872DE9F05F04460F461646984608
:104E50000020C8F80000A188206804F00CFC00289D
:104E600003D1A079010602D50220BDE8F09FC0075A
:104E700008D0D4E90210401A864200D9064604F14F
:104E800024099CE00720F0E7A068C1057FD12268D3
:104E90009178491E01EA502101F0FF0ABAF1000F92
:104EA00011D158B11046616900F0C9F9022807D242
:104EB000A07940F08000A0710220D6E72069F5E7D4
:104EC000411C1ED0606161692068FEF77FFDF0B172
:104ED00000EB0A0B750A8DB321680AEB050288788E
:104EE000824201D9A0EB0A054878EBB25A4639460E
:104EF000FFF7F7FA88B1A07940F08000A071012097
:104F0000B3E7A07940F08000A0710120ADE7A0795F
:104F100040F08000A0710220A7E7A07940060BD5E1
:104F2000A069A0EB0B00A84206D207EB40204FF48B
:104F30000072494600F0EEFC6D0236E0FFE7A26920
:104F40005A4522D0A079400610D520680123494651
:104F50004078FFF7EBFA28B1A07940F08000A0710B
:104F6000012082E7A07920F04000A0712068012391
:104F70005A4640784946FFF7B4FA30B1A07940F07C
:104F80008000A071012070E701E0C4F818B020890A
:104F9000C0F30800C0F50075B54200D935460119C7
:104FA00024312A46384600F0B5FC2F44A068284436
:104FB000A060D8F800002844C8F80000761B002E36
:104FC0007FF462AF002050E770B50446A1882068E6
:104FD00004F051FB00280ED1A1798A060BD54806B2
:104FE0000ED52068012304F124014078A269FFF75F
:104FF0009DFA08B1012070BDA07920F04000A07199
:10500000E169206800F097FC0028F4D1256AE87A6D
:1050100040F02000E872207B2877A089000A68779A
:10502000E068000CA877E068000EE877207CA8769E
:10503000208A000AE8762069000C28752069000E95
:10504000687500F061F9A875010AE975010C297607
:10505000000E6876A07920F02000A0712168012060
:1050600008712068BDE8704003F030BB70B598B09F
:1050700020221CA110A8FBF7A0FC10A8FBF7EEFB58
:1050800004464FF48055264E1EA1304600F08AFC9F
:10509000284603F001FA03F095FA22A1304600F009
:1050A00081FC641CA2B2294610A803F025F9402116
:1050B0006846FBF7D6FCA2B22946684603F0F0F832
:1050C00010A96846FBF720FD28B11EA1304600F06C
:1050D00069FC18B070BD6A4621A1304600F062FC40
:1050E000F7E700004465766963655F49443A32300A
:1050F00032352D43494D432D323032353638393231
:105100003034000045726173696E6720666C6173AC
:105110006820736563746F722E2E2E0D0A000000D6
:105120000010014057726974696E67206465766982
:10513000636520494420746F20666C6173682E2E6D
:105140002E0D0A004661696C656420746F207365DA
:1051500074206465766963652049440D0A00000087
:1051600044657669636520494420736574207375CE
:10517000636365737366756C6C793A2025730D0AE9
:105180000000000010B59FED0D1AF6EE000A40EE8B
:10519000010ABDEEE00A10EE102A642392FBF3F13F
:1051A00092FBF3F403FB14221204B2FBF3F20B0A9A
:1051B00003704170110A8170C27010BD0000C842B6
:1051C00073B50446019908782F2801D05C2801D1D5
:1051D000491C01910025A56001980078202805D27E
:1051E00000212046FFF7FFF865617CBD01A920463C
:1051F000FEF7E0FE0028F8D12046FFF719F8A16974
:10520000C97A28B10428F0D14907EED405207CBD25
:105210004907FCD46069C17AC90601D405207CBD68
:10522000017D427D41EA0221C27E0904807E41EA7D
:1052300002210143A160D9E74FF0407070472DE98A
:10524000F04104460D46022D02D3A069A84202D8BF
:105250000120BDE8F0812078012804D0022826D062
:1052600003283BD133E005EB5506206A00EB5621BD
:10527000204600F060FB88BBC6F30800204490F88D
:105280003070761C206A00EB5621204600F053FB5C
:1052900020BBC6F30800204490F8300047EA002005
:1052A000E90701D00009D4E7C0F30B00D1E7206A79
:1052B00000EB1521204600F03EFB78B9E8B204EB84
:1052C000400030300178407841EA0020C1E7206A90
:1052D00000EBD511204600F02EFB10B14FF0FF304F
:1052E000B7E740F2FF1000EA850020443030017833
:1052F000C27841EA026182784078120442EA0020D2
:10530000014321F07040A4E70020704770B50020F1
:105310000146EFF3108672B60025104C19E0FEF737
:10532000C3F9A2680023801859416268FBF736F878
:10533000A269E36980185941A26CE36C821A71EB8F
:10534000030202DAA06CE16C01E0A064E16486F380
:1053500010882D1D042DE2D070BD000090010020AA
:1053600070B500200146EFF3108672B600250C4C94
:1053700012E0FEF799F9A26AE36A80185941A26B1C
:10538000E36B821A71EB030202DAA06BE16B01E0BE
:10539000A063E16386F310882D1D042DE9D070BD54
:1053A000900100202DE9F043046A456A002301279B
:1053B0004FF00F0C07FA03F6164208D09E000CFAC5
:1053C00006F824EA080401FA06F848EA04045B1C1B
:1053D0009BB2082BEED3082307FA03F818EA020F52
:1053E0000AD0A3F10806B6000CFA06F825EA08056B
:1053F00001FA06F949EA05055B1C9BB2102BEBD3B9
:1054000004624562BDE8F083816270478161704744
:1054100070B51B4C4FF4F8520C212046FFF7C2FF29
:10542000184D04220C212846FFF7BCFF4FF470668C
:10543000334601220221204600F02DF83346012296
:105440000021204600F04BF8A6143346002202212A
:10545000204600F020F8334601220021204600F0CB
:105460003EF8042301220221284600F014F82846C1
:10547000BDE8704004230122002100F030B8000094
:1054800000080240000C02400069084201D00120DF
:105490007047002070472DE9F0470568C668002472
:1054A0004FF001084FF0030908FA04F71F420ED02D
:1054B000670009FA07FC25EA0C0501FA07FA4AEA2F
:1054C000050526EA0C0602FA07FC4CEA0606641CEF
:1054D000A4B2102CE8D30560C660BDE8F0872DE9C2
:1054E000F04101291AD04168994341608468002144
:1054F0004FF001084FF0030C08FA01F71F4206D0E5
:105500004D000CFA05F6B44302FA05F63443491C83
:1055100089B21029F0D38460BDE8F0814168194355
:105520004160E3E71FB5042216A1FBF7B6F9002896
:1055300027D1164801F0F2F9144801F0C1FA0446E7
:105540001348DFED140A008800EE100AB8EE400A96
:1055500020EE200ADFED100A20EE200A03A8FFF754
:1055600011FE9DF80E109DF80D30CDE900319DF82B
:105570000F0002909DF80C30224608A10D4800F063
:1055800011FA1FBD6869646500000000F80300207F
:105590000C00002033335340000080392530385848
:1055A000253032582530325825303258253032587F
:1055B0000D0A000000100140026822F480620A43D4
:1055C0000260704770B504460D461646022000F092
:1055D000F3FF2A4AB0FBF2F13C2900D33C21636877
:1055E00023F03F030B436360254B9D4219D8B0FB6A
:1055F000F2F1491C3C2902D33C21216205E0022939
:1056000002D80221216200E021626900B0FBF1F0C2
:10561000042800D20420E169C0F30B000143E161DA
:1056200070BD184A9542FBD84FF4967251434FF41F
:105630007A72B1FBF2F1491C216266B105EBC5013A
:1056400001EB0511B0FBF1F0E16941F48041E1614A
:10565000010509D00AE005EB4501B0FBF1F0E16975
:1056600021F48041E161F3E740F00100E16941F498
:105670000041E161E1690143E16170BD40420F0019
:10568000A0860100801A060010B5144940180FD0FA
:10569000B0F5806F16D0B0F5006F1DD140F617043D
:1056A000204601F0EDF82046BDE8104001F0D8B8E2
:1056B00040F61504204601F0E3F82046BDE810400E
:1056C00001F0CEB840F61604204601F0D9F8204685
:1056D000BDE8104001F0C4B810BD000000ACFFBF31
:1056E000426822F400620A4342607047016841F058
:1056F000010101607047A1F5A062013A09D000EBF9
:105700009110026801F01F03012199408A43026051
:10571000704741698069704700EB9110006801F0A3
:105720001F0201219140084201D001207047002052
:105730007047921C03D041F001010161704721F0D4
:105740000101FAE710B5046824F002040C43046078
:10575000C3F309010A43826010BD016841F48071FE
:1057600001607047016841F40071016070470000FA
:105770002DE9F04107460026EFF3108572B60024AC
:1057800007E0384600F0CBF9064600F0ABF985F3A8
:105790001088241D042CF4D003F022FE09480022B6
:1057A0008262C2628261C261026242628263C263D9
:1057B000026442648264C264FDF7C2FA3046BDE806
:1057C000F08100009001002010B50023002200E0CD
:1057D000401C01782029FBD00929F9D004782B2C12
:1057E00001D02D290ED1401C0CE0A1F13004092C70
:1057F00001D8012305E02E2900D10AB1002010BDF7
:105800000122401C01780029EFD1184610BD00008C
:1058100030B5002100220124835C1BB104FA02F39D
:105820000B43D9B2521C062AF6DB144C207888426E
:1058300022D0134A134BCD074FF4807001D0106073
:1058400000E018608D0701D5106000E018604D077A
:1058500001D5106000E018600D0701D5106000E070
:105860001860CD0601D5106000E018608D0601D5E6
:10587000106000E01860217030BD0000240100209D
:10588000180C0240280C02400148FFF7C1BF00007D
:1058900025010020014601A0FEF7E0B96C696D69A1
:1058A0007400000003F0F0F80020FFF761FFC8204B
:1058B000FEF79EFCFFF7C0FCFDF734FDFDF74AFC48
:1058C000FDF74AFDFDF7E6FCFDF722FEFDF7C0FB04
:1058D000FDF768FCFDF7BAFD01F028FFFDF756FB68
:1058E000FCF78EFFFFF7C2FB03F0F4F802F0AAFF0B
:1058F00001F0D8F901F0DCF9FCE710B50023521EE5
:10590000541C05D010F8013B11F8014B1B1BF6D0BD
:10591000184610BD03E011F8013B00F8013B521E90
:10592000531CF8D17047C9B201E000F8011B521EA8
:10593000531CFAD170472DE9F04104460F46E56A41
:10594000BD422DD0207904F13008F0B160780123F8
:105950002A464146FEF7EAFD10B10120BDE8F0817C
:1059600000202071D4E907100844A8420DD9E67838
:1059700009E0E0690544607801232A464146FEF7C4
:10598000D5FD761EF6B2012EF3D84FB16078012313
:105990003A464146FEF7A5FD08B10120DEE7E76281
:1059A0000020DBE70FB4F0B5ADF5017D074688AB0D
:1059B0004FF4007101A8879AFAF714FD05460020FC
:1059C00000900D4C608001AE0DE06088315C38467F
:1059D00003F092FD0721384603F011FE0028F9D0AC
:1059E0006088401C60806088A842EEDB0DF5017D78
:1059F0002846F0BC5DF814FB7801002070B5054620
:105A00000E460023002423480168C1F30221072920
:105A100032D00168C1F3022106292FD00168C1F3F9
:105A2000022105292DD00168C1F3022104292BD0C0
:105A30000068C0F30220032829D04FF4A06000F0D2
:105A40002BF802230224C3F104008640C4F10401B0
:105A50000F20C84010403043000105F1E02181F8DB
:105A6000000405F01F01012088406911890001F13F
:105A7000E021C1F8000170BD0424E4E70123032400
:105A8000E1E702230224DEE703230124DBE704230A
:105A9000D9E700000CED00E0024908430249086024
:105AA000704700000000FA050CED00E00FB470B57F
:105AB000ADF5007D05460E4687AB4FF40071684694
:105AC000869AFAF78FFC044608236A463146284630
:105AD000FCF704FF0DF5007D204670BC5DF814FB5B
