:020000040800F2
:10000000F01000203D030008DB320008D131000869
:10001000D9320008CD310008F9370008000000008F
:10002000000000000000000000000000533600083F
:10003000CF310008000000004D3600087D030008A5
:100040005703000857030008570300085703000828
:100050005703000857030008570300085703000818
:100060005703000857030008570300085703000808
:1000700057030008570300085703000857030008F8
:1000800057030008570300085703000857030008E8
:1000900057030008570300085703000857030008D8
:1000A00057030008570300085703000857030008C8
:1000B00057030008570300085703000857030008B8
:1000C00057030008570300085703000857030008A8
:1000D000570300087D37000857030008570300083E
:1000E0005703000857030008570300085703000888
:1000F0005703000857030008570300085703000878
:10010000570300084F36000857030008570300083C
:100110005703000857030008570300085703000857
:100120005703000857030008570300085703000847
:100130005703000857030008570300085703000837
:100140005703000857030008570300085703000827
:100150005703000857030008570300085703000817
:100160005703000857030008570300085703000807
:100170005703000857030008570300080000000059
:1001800057030008570300085703000857030008E7
:100190005703000857030008570300080000000039
:1001A00057030008570300085703000800F002F83F
:1001B00000F0B4F80AA090E8000C82448344AAF14D
:1001C0000107DA4501D100F0A9F8AFF2090EBAE84B
:1001D0000F0013F0010F18BFFB1A43F0010318477B
:1001E0000CBA00002CBA00000A444FF0000C10F8C2
:1001F000013B13F0070408BF10F8014B1D1108BFA5
:1002000010F8015B641E05D010F8016B641E01F844
:10021000016BF9D113F0080F1EBF10F8014BAD1C94
:100220000C1B09D16D1E58BF01F801CBFAD505E0B2
:1002300014F8016B01F8016B6D1EF9D59142D6D30C
:10024000704700000023002400250026103A28BF34
:1002500078C1FBD8520728BF30C148BF0B60704738
:100260006E2900F09F85702901F00F8166290AF040
:10027000578665290AF0548667290AF05186612954
:100280000AF0508603681B0A28BF41F080016929E3
:1002900000F04C85642900F04985752900F04685F9
:1002A0006F2901F09C80782901F0DB80E92901F0B9
:1002B0003780E42901F03480F52901F03180EF29FD
:1002C00001F09980F82901F0DA800368DB0928BF82
:1002D00041F08001632900F0B887732900F0BD87E1
:1002E000E32901F0EB83F32901F0F083002070474C
:1002F0001FB50AF008FE01F069F904000020002192
:100300000AF088FB401C6060002000210AF06CFBB2
:10031000E06000F03DFC1FBD10B510BD01F02AFEED
:100320001146FFF7E5FF06F0CBFA02F0CDF803B473
:10033000FFF7F2FF03BC02F0FBFA00000948804718
:1003400009480047FEE7FEE7FEE7FEE7FEE7FEE7B7
:10035000FEE7FEE7FEE7FEE704480549054A064BCF
:100360007047000059360008AD010008F008002071
:10037000F0100020F00C0020F00C002030B410B57C
:100380000348804730BCAE4630BC024800470000FE
:100390006D6B00085536000800BF704710B54C1053
:1003A00084EA530404D54042C1F1000138BF491E1C
:1003B0001B4204D55242C3F1000338BF5B1E00F05C
:1003C000F9FB14F0804F04D04042C1F1000138BF66
:1003D000491E14F0004F04D05242C3F1000338BF4D
:1003E0005B1E10BD7CB51D4616460C00009001D06A
:1003F0002044401E074B7B442A4669460190304604
:1004000000F0F9FE05461CB10020694600F006FF29
:1004100028467CBD2D0E00000FB41CB5084B06AA63
:100420007B4469460090059800F0E5FE04460020F4
:10043000694600F0F3FE20461CBC5DF814FB00008A
:10044000F90D000070B50C460546012A05D0287844
:10045000800600D5EA69002302E0012305E05B1C69
:10046000934202D2E05C0028F9D1A869E618C01ACC
:10047000A861286A18442862284600F01DFC04E0A0
:10048000D5E9012114F8010B9047B442F8D328466E
:1004900000F028FC70BD00002DE9F05F894604469D
:1004A0004FF0000ADFF874B1FB44C0F820A02046EA
:1004B000E1688847002874D0252806D0D4E90121B6
:1004C0009047206A401C2062F1E700265F462046E4
:1004D000E16888472028054607DB312D05D27819C9
:1004E00010F8200C08B10643F1E7B00701D526F05B
:1004F0000406C4F81CA00027C4F818A02A2D09D0AF
:10050000284603F0DCFA38B304EB8708303DC8F81E
:10051000185019E059F8041B204604EB870291613A
:10052000E1688847012F054618D1E069002820DAE4
:1005300026F020061DE0D8F8180000EB800005EB3F
:1005400040003038C8F818002046E1688847054662
:1005500003F0B5FA0028EED1012F0AD02E2D08D1D4
:100560002046E16888477F1C0546022F46F020069A
:10057000C4DBA069002803DA404246F00106A0610E
:10058000F00701D026F010066C2D0BD0682D09D095
:100590004C2D39D06A2D35D0742D35D07A2D33D0ED
:1005A00016E038E0E1682F4620468847B842054605
:1005B00009D16C2F26D04FF48060E16806432046B5
:1005C0008847054604E06C2F1AD04FF4807006432C
:1005D0000DB3A5F14100192802D8203546F4006674
:1005E0004A462946204626604E46FFF739FE80B12E
:1005F00001280BD0F61D26F0070000F1080956E788
:100600004020E4E78020D8E70020D6E706F104097F
:100610004DE7284652E7206ABDE8F09F40B600004B
:100620000FB400B58DB010A9099000910B904FF058
:10063000FF300A9000200C90064878440690064847
:1006400078446A4607900F9909A800F03DFF0DB065
:100650005DF814FBAB0E0000C30E00002DE9FF5F38
:100660001D464FF0FF3B91464FF000085F46D5E92D
:100670000146A96901987F1C8847296A82468847F4
:100680000028F6D1BAF1FF3F0CD0002E24F4C0644C
:1006900019DD600614D5BAF12B0F09D0BAF12D0F70
:1006A0000ED103E0584604B0BDE8F09F44F48064E6
:1006B000A96901987F1C8847761E8246002E02DDBC
:1006C000BAF1300F03D0B9F1000F26D032E0A9699A
:1006D000761E01987F1C44F400748847002E8246E1
:1006E00005DDBAF1780F06D0BAF1580F03D0B9F191
:1006F000000F10D01EE0B9F1000F02D0B9F1100FB9
:1007000018D1A969761E01987F1C24F400748847CB
:100710008246102002E0082000E00A20814609E01D
:10072000A96908FB0908761E01987F1C44F400742F
:1007300088478246002E05DD4946504600F0B0FE4F
:100740000028EDDAE96901988847A00502D46FF026
:100750000100A8E7E00725D1600613D5600502D5A2
:10076000C8F1000000E0404629680A1D2A600968B7
:10077000220501D5087015E0220701D5088011E097
:1007800008600FE02868011D29600068210502D576
:1007900080F8008006E0210702D5A0F8008001E083
:1007A000C0F8008038467EE7401ECAB210F8011F2C
:1007B0008A4202D00029F9D10020704740EA0103A3
:1007C00010B59B070FD1042A0DD310C808C9121FFA
:1007D0009C42F8D020BA19BA884201D9012010BD34
:1007E0004FF0FF3010BD1AB1D30703D0521C07E001
:1007F000002010BD10F8013B11F8014B1B1B07D165
:1008000010F8013B11F8014B1B1B01D1921EF1D1D5
:10081000184610BD40EA0103024630B59B0710D1CF
:100820004FF0013400E008C208C91D1B9D4315EAC2
:10083000C41FF8D013F0FF0102F8011B0DD01B0AF2
:10084000F8E711F8013B002B02F8013B05D011F845
:10085000013B002B02F8013BF3D130BD10B5431C26
:1008600002E010F8011B71B18107FAD14FF001329B
:1008700002C88C1A8C4314EAC211F9D0C01A0A06B5
:1008800003D0C01E10BDC01A10BD0A0401D0801EC6
:1008900010BD0902FCD0401E10BD40EA010370B536
:1008A0009B072ED14FF00136042A2AD308C810C95D
:1008B0009D1B9D43121F15EAC61517D0D8B2E1B291
:1008C000401A50EA056110D198B2A1B2401A50EA1C
:1008D00005410AD123F07F4024F07F41401A50EABD
:1008E000052102D1180EA0EB146070BDA342DBD02D
:1008F00018BA21BA884201D9012070BD4FF0FF30EB
:1009000070BD0AB9002070BD10F8013B11F8014B11
:1009100063B1A3420AD1521E08D010F8013B11F86E
:10092000014B1BB1A34201D1521EEDD1181B70BD6A
:10093000032A40F2308010F0030C00F0158011F80B
:10094000013BBCF1020F624498BF11F801CB00F8E3
:10095000013B38BF11F8013BA2F1040298BF00F837
:1009600001CB38BF00F8013B11F0030300F02580F4
:10097000083AC0F0088051F8043B083A51F804CB1B
:10098000A0E80810F5E7121D5CBF51F8043B40F8E1
:10099000043BAFF30080D20724BF11F8013B11F8EC
:1009A00001CB48BF11F8012B24BF00F8013B00F830
:1009B00001CB48BF00F8012B704710B5203AC0F0BA
:1009C0000B80B1E81850203AA0E81850B1E8185050
:1009D000A0E81850BFF4F5AF5FEA027C24BFB1E88D
:1009E0001850A0E8185044BF18C918C0BDE81040FE
:1009F0005FEA827C24BF51F8043B40F8043B08BF07
:100A00007047D20728BF31F8023B48BF11F8012BCD
:100A100028BF20F8023B48BF00F8012B70474FF079
:100A200000020429C0F0128010F0030C00F01B80BB
:100A3000CCF1040CBCF1020F18BF00F8012BA8BFC9
:100A400020F8022BA1EB0C0100F00DB85FEAC17C8D
:100A500024BF00F8012B00F8012B48BF00F8012B40
:100A600070474FF0000200B5134694469646203971
:100A700022BFA0E80C50A0E80C50B1F12001BFF457
:100A8000F7AF090728BFA0E80C5048BF0CC05DF8BD
:100A900004EB890028BF40F8042B08BF704748BF0B
:100AA00020F8022B11F0804F18BF00F8012B70477F
:100AB00010B5044610F0030F08BF11F0030F40F00B
:100AC00015804FF0013E121FC0F20E8051F8043B1A
:100AD000A3EB0E0C2CEA030C1CEACE1C08BF40F85A
:100AE000043BF0D0A1F1040102F10402521E08DB24
:100AF00011F8013B002B00F8013BF7D11146FFF73D
:100B00008EFF204610BD00004FF0013C50F8042B32
:100B100051F8043B9A4221D1A2EB0C03934313EA10
:100B2000CC1317D150F8042B51F8043B9A4215D13D
:100B3000A2EB0C03934313EACC130BD150F8042B14
:100B400051F8043B9A4209D1A2EB0C03934313EAF8
:100B5000CC13DBD04FF00000704700BFD01A01BAB1
:100B6000B1FA81F101F0180122FA01F0CB40C1F194
:100B70002001DBB2C0B2C01A2CFA01F3D11A9143A2
:100B800011EAC311E6D17047704770477047000003
:100B900070B5064C7C44064D7D4403E0206820443B
:100BA0008047241DAC42F9D170BD0000B0B10000F7
:100BB000B0B1000053EA020C00F069802DE9F04B5F
:100BC0004FF00006002B1FBFB3FA83F503FA05F4BC
:100BD00024FA05F65E4012BF1643B2FA82F502FA15
:100BE00005F4C5F120051EBF22FA05FC44EA0C04F9
:100BF000203556EA044C4FEA144418BF641C4FF0E9
:100C000000084FF00009904271EB030C39D3002922
:100C100019BFB1FA81F701FA07F6B0FA80F700FAC6
:100C200007F6C7F120071EBF20FA07FC46EA0C06AC
:100C30002037B6FBF4FCA7EB0507103F07F01F0BAE
:100C4000CBF120060CFA0BFB2CFA06F644BFB34698
:100C50000026202FA4BF5E464FF0000B5BEA060C77
:100C600008BF4FF0010B19EB0B09ABFB027C48EB03
:100C70000608C01B06FB02CC0BFB03CC71EB0C017E
:100C8000C1E70B46024641464846BDE8F08B13B526
:100C90004FF000004FF00001AFF30080BDE81C40B2
:100CA000704710B500F096FC006810BD10B5044602
:100CB00000F090FC046010BD70B5044685690068C2
:100CC000C10601D5302600E02026C00707D070BD40
:100CD000D4E9012130469047206A401C20626D1EF5
:100CE000F6D570BD70B5044685690078C00707D198
:100CF00070BDD4E9012120209047206A401C206269
:100D00006D1EF6D570BD09684A0501D540B2704721
:100D1000C905FCD500B2704709684A0501D5C0B2C3
:100D20007047C905FCD580B2704700002DE9F0413D
:100D30000646002410687529314616A510D0FFF725
:100D4000E2FF002802DA404213A507E031688A0773
:100D500001D512A502E0490704D511A5012401E03F
:100D6000FFF7DAFF00210A2206F1240709E0B0FBB1
:100D7000F2FCB0FBF2F302FB1C0030307854184652
:100D8000491C0028F3D123462A463046BDE8F041ED
:100D900000F072BC000000002D0000002B000000DD
:100DA0002000000011680268006A530501D5087030
:100DB0000AE0D30501D5088006E0130603D5C21763
:100DC000C1E9000200E008600120704770472DE98A
:100DD000FF4F0C461E464FF0FF378BB0D2E90001A3
:100DE000DDF860800A908A46C1F30A5505B93D4690
:100DF000002108464FF00000BAF1000F00F4400057
:100E000005DA00EB80004FF4400101EA50004FEAA0
:100E10009059B9F1010F00DDB9460A9850EA4A002D
:100E20000ED044F61050A5F2FF3545432F14B8F10B
:100E3000000F1ED07542291E1EDDC9F100021CE004
:100E4000B8F1010F4FF0000001D0302103E0F24370
:100E500005E02154401CB042FBDB3046002200215B
:100E600021540B99C1F80880C1E900200FB0BDE8FA
:100E7000F08FBD1B6D1CDEE74A4600DA694206A80A
:100E800000F0E2FF06AB93E8070003AB83E807003E
:100E900050460A9901F065FD8DE80700A0F5005065
:100EA0001F3800900398002D0ADD42F21F014A46C8
:100EB0000844002303A90390684602F011F809E0F2
:100EC000A0F500504A461F38002303A90390684646
:100ED00002F030F88DE807000004000C03D04FF05A
:100EE000FF30410800E01046B8F1000F03D00022A7
:100EF000009215461EE0751E05D400F06FFB3032DF
:100F000062556D1EF9D5B3460122084302D0002276
:100F10007F1C04E02078302801D100227F1E002AA7
:100F2000099784D01DE0112D07DA00F057FB30320D
:100F300062556D1C50EA0102F5D1084302D00098B9
:100F4000C8B10EE00021681E05E0235C625C6354BA
:100F50002254401E491C8142F7DBAB46A81B401EB1
:100F60000990002004F80B000B98099AC0F808803B
:100F7000C0E9002B7AE711264FF0000857E72DE96A
:100F8000F04F88460446D21D22F0070191B0D1E906
:100F90000001CDE90A0102F030FC02460B98C00FB7
:100FA00001D02D2007E02068810701D52B2002E029
:100FB000202101EAC000032A099001D0072A05DB9D
:100FC00003464146204600F02FFD0BE120788006C5
:100FD00001D5E06900E00620B8F1650F814606D032
:100FE000B8F1660F18D0B8F1670F70D131E000206A
:100FF000B9F1110F009001DB112301E009F10103A8
:101000000AAA01A90CA8FFF7E2FEDDE90C70002690
:1010100009F10105834647E001204B4600904FF05F
:1010200000470AAA01A90CA8FFF7D1FEDDE90DB01F
:101030000C995D46002610B909F101000D18B9EBB5
:10104000050003D4C0F1FF3609F10105A5EB090045
:101050002BE0B9F1010F01DA4FF001090020B9F1DD
:10106000110F0090484601DD112300E003460AAA53
:1010700001A90CA8FFF7ABFEDDE90C704D46002678
:101080008346207800070AD4AB4500DA5D4601A804
:10109000012D04DD411911F8011C302907D04F45FD
:1010A00002DA17F1040F04DA012082460FE06D1E08
:1010B000EEE7002F02DCED1B3E4403E0781CA84263
:1010C00000DD7D1CB81B00F1010A4FF000472078BD
:1010D000000703D4AA4501DB4FF0FF3A0021B7F126
:1010E000004F0DF143088DF8431024D002202B232C
:1010F000002F01DA7F422D230A21021EA0F10100F8
:1011000000DC5FB197FBF1FC97FBF1F201FB1C7C6B
:1011100017460CF1300C08F801CDEEE7A8F10100FC
:1011200003702188090501D5452100E06521A0F162
:10113000010800F8011C09980FA9A1EB0807FF1D81
:1011400000B10120411901EBEA70A1693844081A85
:10115000401EA0612078C00602D42046FFF7ACFDF7
:10116000099828B1D4E901219047206A401C2062E7
:101170002078C00622D52046FFF79EFD1EE0002EF7
:1011800004DBB34502DD01A8805D00E03020D4E936
:1011900001219047206A401C2062761CAAF10100C0
:1011A0005FEA000A0AD100F011FAC0680168405CE9
:1011B000D4E901219047206A401C2062281EA5F135
:1011C0000105DCDC07E0D4E9012118F8010B9047A8
:1011D000206A401C2062381EA7F10107F3DC20467C
:1011E000FFF780FD032011B041E6000001694A1CB1
:1011F00002610878704700B58FB0CDE90131002158
:10120000059105497944CDE9031011466846FFF779
:1012100043F90FB000BD0000E5FFFFFF0A6802F8C8
:10122000010B0A607047D1E900239A4202D2531C95
:101230000B601070704710B5436913B1AFF30080B5
:1012400001E0FFF7FFF8012010BD127800F1240142
:101250000A7000224A700122EDE711684FF0FF3258
:10126000E9E700002DE9FF5F15468A460446DFF8EE
:10127000AC80F8440027D8E900103E46CDE90010C4
:1012800010E03AF816106A4602A800F04FFE411C22
:1012900007D02178890603D5E269391891420DD823
:1012A0000744761C2078800602D5E069B84205DD47
:1012B000AE42E6DB3AF816000028E2D1A069C01B76
:1012C000A0612046FFF7F8FCD8E90010CDE9001036
:1012D000002017E03AF818106A4602A800F026FE2F
:1012E000B0F1FF3F81460BD000250DF1080B05E062
:1012F000D4E901211BF8050090476D1C4D45F7D33B
:1013000008F10100B0428046E4DB206A38442062E4
:101310002046FFF7E7FCBDE8FF9F00008AA8000019
:101320002DE9F0418046D21D22F007020025D2E9C6
:101330000002F52915A614D0011E72F1000106DA8B
:101340000023D0EB030063EB020211A608E0D8F8FB
:1013500000108B0701D50FA602E0490701D50EA6A4
:1013600001251146002408F1240704E000F036F9B5
:1013700030323A55641C50EA0102F7D12B4632460E
:1013800021464046BDE8F04100F076B9000000007B
:101390002D0000002B0000002000000030B40021D0
:1013A00000F1240408E002F00705D208303542EAD3
:1013B0004372DB086554491C52EA0305F3D1046803
:1013C000002310A2250707D5A40600D421B1C469C3
:1013D00001230DA2641EC46130BC00F04DB910B5EC
:1013E000044621461068FFF797FC02462046BDE8F8
:1013F00010400023D2E7D21D22F00701D1E90023DB
:10140000CCE700000000000030000000F0B40D4602
:101410000188090502D5214C7C4402E01F4C7C4424
:101420000E34002100F1240608E002F00F07120933
:10143000E75D42EA03721B097754491C52EA03072D
:10144000F3D102780023120704D5702D06D009B11C
:10145000022311342246F0BC00F00EB901231034EF
:10146000F8E770B504460D4621461068FFF754FCB6
:10147000024629462046BDE870400023C6E7D21D3B
:1014800022F00703D3E90023C0E70368126843F0A2
:10149000200303600823C3610023B7E7ECA6000024
:1014A0003A2800D2303820F02002412A01D3A2F19C
:1014B0003700884201D34FF0FF3070470268114473
:1014C0001378016018467047D1600549794451612D
:1014D00004497944116200211161114600F0FABA01
:1014E000EDFFFFFF91010000426842B1016811F871
:1014F000013B23B1521EC0E900121846704701217A
:10150000C160881E704742685AB1C368016843B918
:1015100083688B4205D0491E521CC0E9001200208E
:1015200070474FF0FF3070470FB4002300B589B00B
:101530000CA900910B99CB60214B7B440693214B66
:101540007B44079304236FF00042CDE901321E4A29
:101550007A446B4608920246002009F045FD09B026
:101560005DF814FB70B506464FF0FF3015460C468B
:10157000324686B00091CDE9010169460020049011
:1015800004A8FFF7D1FF02460498211825B108B13D
:10159000084600E020462860049800280DD0002A64
:1015A00002DD0098884208D03246081B6946009444
:1015B000CDE9010404A8FFF7B7FF06B070BD000035
:1015C000ABFFFFFFC3FFFFFF1301000000487047A0
:1015D000B0080020004870479008002030B5B0F1F6
:1015E0000A024FEA900E71F100034EEA817EB0EBE1
:1015F0000E0061EB91014FEA101E4EEA017E10EBE6
:101600000E0041EB11114FEA102E4EEA016E10EB65
:101610000E0041EB11214FEA104E4EEA014E10EB45
:101620000E0041EB1141401841F100014FEAD0009A
:1016300040EA41704FEAD10110EB80054FEA810486
:1016400044EA907444EB01046D1944EB0404521B0A
:10165000A3414FF0000348BF0A3200D530BD401C03
:1016600041F1000130BD10B5044600F0A9FC00684E
:10167000005D00F0010010BD2DE9F0470D469946D0
:101680009246044600F124080168880604D5E06902
:1016900021F01001216000E00120A84201DD471B7C
:1016A00000E00027A1697A1902EB0900081AA0617D
:1016B0002078C00602D42046FFF7FEFA002608E094
:1016C000D4E901211AF806009047206A401C761CD4
:1016D00020624E45F4DB2078C0060AD52046FFF78D
:1016E000EBFA06E0D4E9012130209047206A401C43
:1016F0002062381EA7F10107F4DC07E0D4E90121DC
:1017000018F805009047206A401C2062281EA5F1A9
:101710000105F3DC2046FFF7E5FA2078000602D544
:101720000220BDE8F0870120FBE700002DE9F04F23
:1017300004460D46D21D22F0070089B0D0E900977B
:101740004846394602F059F80246F80F01D02D23D9
:1017500007E02068810701D52B2302E0202101EA60
:10176000C0038DF820300BB1012000E00020032AD7
:10177000824601D0072A04DB2946204600F054F9AE
:101780003FE12078800601D40D2500E0E569C7F32C
:101790000A560D2D49DA00214FEA175B08464FF033
:1017A0000000002F00F4400007DA00EB80004FF447
:1017B000400100EBD07001EA60008115012901DDD4
:1017C0004FF0FF3100224FEA850CBCF1180F06D311
:1017D0001346ACF118004FF08052C24003E04FF4C2
:1017E000801323FA0CF30CF10C0CBCF1200F04D382
:1017F000ACF1200C09FA0CF001E007FA0CF000291A
:101800004FF0004801DD18B90FE00ED140450CD370
:1018100019EB02095F4121B9404502D19F4329EAF2
:101820000209BBEB175F00D0761C2088000502D5AB
:101830007B48784402E07A487844193808AA302373
:1018400002F80A30037C0AF10101002E0AF1020AB3
:1018500053546A4602DC4FF0300101E04FF0310191
:101860004FF001088DF8001002D0A6F2FF3603E019
:1018700059EA470100D06B4E002D02DC21780907A0
:1018800004D54FF002082E218DF80110C446002126
:101890000BE0C7F303433F01C35C491C6D1E02F814
:1018A0000830052908F1010801DA002DF1DC0021DA
:1018B0000CE000EB1973491C1B786D1E082902F817
:1018C00008304FEA091908F1010801DA002DF0DCAF
:1018D00021688B0602D516E0A8F10108E04505DD78
:1018E00002EB080313F8013C302BF5D0B8F1000FE0
:1018F00009DD02EB080313F8013C2E2B03D1090785
:1019000001D4A8F10108002D05DD3E2102F80810E0
:101910006D1E08F10108407C002E02F8080008F155
:10192000010804DA2D20764202F8080002E02B209C
:1019300002F808000A214FF47A70864208F1010883
:101940000BDB96FBF0F3303302F8083096FBF0F334
:1019500008F1010800FB136601E0642E0CDB642033
:1019600096FBF0F3303302F8083096FBF0F308F101
:10197000010800FB136601E00A2E06DB96FBF1F07E
:10198000303002F8080008F1010896FBF1F001FB85
:101990001060303002F80800A16908F1010808EB76
:1019A000050202EB0A00081AA0612078C00602D4E2
:1019B0002046FFF781F9216A08AE01EB0A00206298
:1019C00004E0D4E9012116F8010B9047BAF1010AAD
:1019D000F7D22078C00602D52046FFF76DF96E4693
:1019E00009E016F8010B3E280FD0D4E901219047F9
:1019F000206A401C2062B8F10108F2D22046FFF7AD
:101A000071F909B00320BDE8F08F206A28442062F4
:101A100003E0D4E90121302090476D1EEBD3F8E7B5
:101A20000DA3000002FCFFFF2DE9F0411F46044614
:101A300003260168072A01F4006004DB08B116A53B
:101A400005E016A503E008B115A500E015A521F0F5
:101A500010002060A069C01EA0610FB1401EA061EF
:101A60002046FFF729F94FB1D4E9012138469047C4
:101A7000206A401C2062C01C206206E0206AFAE74F
:101A8000D4E9012115F8010B9047761EF8D22046C3
:101A9000FFF728F9BDE8F0814E414E006E616E00FF
:101AA000494E4600696E660010B5436913B1AFF345
:101AB000008001E0FFF7D6FB012010BD128800F185
:101AC000240182840022C2840122EDE711684FF0D4
:101AD000FF32E9E72DE9F34F4FF0000A0C46564676
:101AE0008DB001200C9001F10C000B9062690B98F5
:101AF00001219047051E2DD0252D2CD0216A884725
:101B0000C0B162690B9801219047216A884700287B
:101B1000F7D16269411E0B98904700E0761CA169DD
:101B20000D988847216A88470028F7D1E1690D9808
:101B30008847DBE7A1690D988847A842074601D18D
:101B4000761CD3E7E1690D9888477F1C02D1BAF172
:101B5000000F6FD06BE162690B9800273D46394654
:101B600090472A2804D162690B98012190470125EA
:101B7000DFF8D08262690B9801219047A0F1300113
:101B80000A290AD24745E5DC07EB870100EB41074C
:101B9000303FDFD445F01005ECE7E90601D46FF0E3
:101BA00000476C280AD04C2814D0682815D06A2821
:101BB0000DD074281CD07A281AD01DE062690B98C9
:101BC000012190476C2802D045F0040514E045F04F
:101BD00002050DE045F020050AE062690B9801213D
:101BE0009047682802D045F0080505E045F40065F7
:101BF00062690B9801219047C4E9015765283DD0DF
:101C000019DC58287AD00CDC452837D004DC25288C
:101C100026D041289ED131E046282FD0472899D19F
:101C20002CE05B2877D0612828D063287CD06428FA
:101C300023D15AE0F6E06F2848D008DC66281DD092
:101C400067281BD0692821D06E2816D127E070287C
:101C500045D0732868D0752847D078280DD14DE03D
:101C6000A1690D988847252805463FF469AFE169C9
:101C70000D9888476D1C3FF46AAFD8E00D99234654
:101C80006A466FF0010009F0AFF9C5E045F0400089
:101C900023464FF000026060A80736D43EE0E80714
:101CA0007FF447AF2068011D21600068290501D538
:101CB00006701BE7290701D5068017E7A90703D59A
:101CC000F117C0E9006111E706600FE745F0400039
:101CD00023464FF008026060A80716D41EE040F6C5
:101CE0000E0125EA0100606016E045F04000234641
:101CF0004FF00A026060A80707D40FE045F04000EB
:101D00006060A80708D5234610220D996FF00100E6
:101D1000AFF3008080E007E0102223460D996FF0BA
:101D20000100FEF79BFC77E04FF0000963284F4667
:101D3000C8464B46CB4602D05B2806D038E0E806C2
:101D400001D40120A060012732E06269D4F80CB010
:101D50000B98012190475E2807D14FF001094946B1
:101D60006269D4F80CB00B989047216939B9002109
:101D70000A4603AB43F82120491C0829FADBD8B3F3
:101D8000216949B308F1010862690B980121904764
:101D90005D28F4D1B9F1000F09D0002003A951F852
:101DA0002020D24341F82020401C0828F7DB03AB59
:101DB0002069002820794FEA40701ED05B462246F9
:101DC000CDF80080CDE901970D9900286FF0010052
:101DD00020DAAFF300801FE0C11703AA00EBD16146
:101DE0004B1121F01F0102EB8302411A13680120FD
:101DF000884003431360C7E719E00D992246002885
:101E00006FF00100009702DAAFF3008004E0AFF357
:101E1000008001E0AFF3008000280ADA401C06D100
:101E20000C9820B14FF0FF300FB0BDE8F08F504656
:101E3000FAE7E90701D10AF1010A064400200C90F3
:101E400054E60000CCCCCC0C2DE9F0478146164678
:101E50008AB0354878440DC88DE80D003248784482
:101E6000801C03AC0DC884E80D0041F69B3008448B
:101E7000372190FBF1F290FBF1F5A5F1800501FB14
:101E800012041B3C02D56442012000E00020DFF870
:101E900098A080460027FA44AAF1BE0A0EE0E007A7
:101EA0000AD03246684607EB470101230AEB81015D
:101EB00001F040F88DE8070064107F1C002CEED183
:101EC000194F7F44AE3F19E0E80715D007EB041027
:101ED0000DF1180A90E80E008AE80E00C068F04282
:101EE00001D1981908903246012306A903A801F0F0
:101EF00021F803AB83E807006D10641C002DE3D1CB
:101F00004FF0010332466946B8F1000F03A802D032
:101F100000F0E6FF01E001F00DF8C9E90001C9F8A1
:101F200008200AB0BDE8F0877C9D000070B5164619
:101F30000C46054600F044F8036893F801010128B7
:101F400006D0FF2C0FD8185D68B101202C7070BD31
:101F5000D3F807013246214603F20713034428460B
:101F6000BDE8704018474FF0FF3070BD0048704723
:101F7000900800207546FFF7F9FFAE460500694658
:101F8000534620F00700854618B020B5FEF7E4F967
:101F9000BDE820404FF000064FF000074FF000086A
:101FA0004FF0000B21F00701AC46ACE8C009ACE8EB
:101FB000C009ACE8C009ACE8C0098D467047000014
:101FC00010B5FFF703FB001D10BD00BF498A0000DC
:101FD0002DE9FF4F06468BB00878FF2806D0491C34
:101FE0002D2805D000244FF0000908E000200CE067
:101FF0000124F8E709EB8903491C00EB4309087841
:10200000FF28F7D114B1C9F10000814610780025EE
:102010002C46AA4629462D2801D02B2804D1521C33
:102020002D2813D0002082468B461078FF280FD031
:102030004FF0000C0A21521CA5FB017804FB018122
:1020400005FB0C11C5194BEB0104EEE70120EAE793
:10205000002108464FF00000BAF1000F02D000EB5B
:1020600080004008C0F38157012F01DD4FF0FF379A
:102070000E9955EA040009EB01080BD04FF0020954
:1020800018F5FA7F16DA4FEACA70002F706008DD83
:10209000012007E04FEACA70C6E900B00FB0BDE802
:1020A000F08F00203060FFF795FAC0F800901821FB
:1020B000084616E0B8F5FA7F18DD002F02DAF74877
:1020C000784401E0F6487844D0E90010C6E90010F1
:1020D00040EACA707060FFF77DFAC0F800901421E2
:1020E00008460FB0BDE8F04F08F017BF00210846C2
:1020F0004FF00000B8F10001099002DAC7F10002C8
:1021000000E03A4601DAC8F1000106A8FFF79CFE9C
:1021100006AB93E8070003AB83E8070044F23E00F8
:102120005BEA04010090584604D144F21E012C469B
:102130005D460091210C0904014306D10099240455
:1021400044EA15442D041039009104F07F41014305
:1021500006D10099240244EA15642D020839009141
:1021600004F07041014306D10099240144EA15743A
:102170002D01091F009104F04041014306D100994F
:10218000A40044EA9574AD00891E009104F000415A
:10219000084304D100986D196441401E00904FF02F
:1021A00001033A466846B8F1000FCDE9014503A99D
:1021B00002DD00F0D4FE01E000F0A7FEBAF1000F4E
:1021C00004460D4601D084F00044002108464FF03B
:1021D0000000099940F2FF77484010F00C0F07D13A
:1021E00024F00040284303D0C4F30A50B84212D16F
:1021F000FFF7F0F9C0F80090C4F30A50B8420AD1D2
:10220000A8487844D0E90010C6E9001004F0004165
:102210000843706042E7C6E900543FE72DE9FF4FED
:102220001F464FF0000A4FF0FF38454691B0D7E9FE
:102230000146CDF83CA0FFF7C9F9C0680168405CD1
:102240001090B96912986D1C8847396A8146884791
:102250000028F6D1B9F1FF3F0AD0002E24F4D06453
:1022600011DDB9F12B0F08D0B9F12D0F0BD102E020
:10227000404615B013E744F48064B96912986D1CA8
:102280008847761E8146600504A901D52D2000E00F
:102290002B20002E01F1010B0DF130088DF81000FC
:1022A0003FDDB9F1690F08D0B9F1490F05D0B9F197
:1022B0006E0F02D0B9F14E0F1CD13B4601A800951C
:1022C00080E85002DDE912126FF0020008F090FE83
:1022D000C11CCED10EE0B96912986D1C88478146A9
:1022E0001398761E44F4007405600F98401C002E6D
:1022F0000F9016DDB9F1300FEDD0B9F1780F02D0A3
:10230000B9F1580F0DD10F9801280AD13B46CDE9FC
:102310000054DDE91212001F029608F067FEC11C8E
:10232000A7D1109989453ED144F0800406E0139965
:10233000681CAAF1010A44F400740860B9696D1CB4
:102340001298761E884730288146F0D02BE01099ED
:10235000894505D1200603D4761E44F0800418E098
:10236000484601F0ACFB08B3761E0DF123018B4506
:1023700044F4007408D2A9F130000BF8010B2006D8
:1023800007D5AAF1010003E0200602D40AF10100FA
:102390008246A00502D51399681C0860B969129895
:1023A0006D1C88478146002ED1DC53E0002E51DDA4
:1023B000B9F1650F02D0B9F1450F4BD1A00549D550
:1023C000B9696D1C1298761E24F440748847002E5B
:1023D00081460CDD2B2804D0B9F12D0F07D144F430
:1023E0008074B96912986D1C8847761E8146E00595
:1023F00001D52D2100E02B2108F8011BCDF800802C
:1024000021E0761E0DF13901884544F400740CD2A8
:10241000A9F1300010F0FF0088F8000002D1009907
:10242000884509D908F1010806E0E00501D51E48F4
:1024300001E042F20F708246B96912986D1C88471C
:10244000814613980560002E04DD484601F037FBF5
:102450000028D6D1F96912988847FF2053468BF897
:10246000000088F8000000200A900B9004AA0CA934
:102470000AA8FFF7ADFDA00502D46FF00100F8E651
:1024800014F0240F12D0E0071CD13868DDE90A12DD
:10249000031D3B600068C0E9001213E0509B000080
:1024A000429B0000069A0000F1D8FFFF0AA9684687
:1024B00001F0EEFAE00705D13868009A011D396095
:1024C000006802602846D4E610B50446AFF30080E9
:1024D0002046BDE81040FDF72ABF70472DE9FF4FA9
:1024E0001F464FF03C0987B04FF00042DDE9141061
:1024F00001F10108DDF858A002EA405003900020E5
:1025000005908346054604460490B969461E08981E
:102510008847AAF1010A0290BAF1000F3BDD029848
:102520002E2815D01021FEF7BBFF00282EDB4FF020
:10253000010B0599014317D0B9F1000F0BDB4A4697
:10254000C11700F0FBF905430C43A9F1040905E0AC
:10255000012004900BE008B145F001050120059031
:10256000049820B9361D02E0049800B1361FB969FD
:10257000089808F101088847BBF1000FAAF1010A89
:102580000290C9D00999C1F80080C5E70298702867
:1025900008D0502806D0F96908988847BBF1000F89
:1025A00014D04FE0002002900120BBF1000F0490F6
:1025B00009D0B969089808F101088847AAF101090A
:1025C000B9F1000F07DCF969089888476FF001003E
:1025D0000BB0BDE8F08F2B2804D02D280CD14FF084
:1025E000FF300490B969089808F101088847A9F1FB
:1025F0000109B9F1000FE6DD411CE4D00A21FEF724
:102600004FFF0028DFDB029908F1010801EB81018F
:1026100000EB41000290B969089888470A21FEF74B
:102620003FFF099AA9F10109B9F1000FC2F8008032
:1026300001DD0028E7DAF9690898884704990298CB
:1026400000FB016655EA040004D004F04041090093
:1026500002D006E0039898E0A40044EA9574AD0027
:10266000B61E04F00041080002D16D196441761EC7
:10267000159810F0240F03D04FF00B095C4803E0CD
:102680004FF028096FF07D008246564507DAAAEB25
:1026900006018944B9F1410F01DD4FF041090120E4
:1026A0000021A9F1010200F049F9024628400B4639
:1026B0002140084301D0012100E00021501E029179
:1026C00043F1FF3128402140084301D0012000E0C0
:1026D00000200299834651EA0B014FD000210846A1
:1026E0004FF00000039900F4400039B100EB800086
:1026F0004FF4400100EBD07001EA60008015012822
:1027000002DD4FF0FF3000E013D0401C36D00298BD
:1027100060B3BBF1000F0CD14A460120002100F04C
:102720000DF928402140084301D0012000E000209D
:10273000E0B101204A46002100F000F903464019AB
:102740000A4661412D1A8C4111D3B9F1400F09DDC0
:10275000159810F0240F02D0AAF1340603E0AAF174
:10276000170600E0761C00254FF0004406E05B1ED3
:1027700042F1FF3220EA030521EA0204CAF1010016
:10278000B04206DA1B4903980843019000200090EC
:102790000EE0039AC4F3D321E80A0A43164940EA3B
:1027A00044500A433146CDE90002684601F07DF904
:1027B000159810F0240F0BD01598C00715D1386864
:1027C000DDE90012031D3B600068C0E900120CE067
:1027D00002A8694601F05CF91598C00705D1386870
:1027E000029A011D3960006802604046F0E6000070
:1027F00002FCFFFF0000F07F0000F03F2DE9FF4FDB
:1028000092461D4685B04FF00041DDE9124BDDE9EF
:1028100014727F1E01EA4B50414940F0FF4940EAE3
:102820000108002122F020004928049102D04E28FE
:1028300028D04CE03BA0012607C88DE80700A96915
:102840000698641C88477F1E014606D41DF80600C2
:1028500018B121F0200181420BD0E9690698884720
:10286000032E34D0082E32D06FF0010009B0BDE83D
:10287000F08F761C032E01D0082EE0D1601CCAF820
:102880000000DCE7A9690698641C88477F1E2AD4EB
:1028900020F02000412826D1A9690698641C8847A9
:1028A0007F1E20D420F020004E281CD1A969069854
:1028B000641C88477F1E48F4002849F48009CAF840
:1028C000004001D4282806D0E969069888475FEAC5
:1028D000CB7012D022E0A9690698641C88477F1E3D
:1028E00001D4002803DAE96906988847BCE729285B
:1028F000F1D1641CCAF80040E9E71BF0240F07D0AF
:1029000028680499031D2B600068C0E9001805E0E1
:102910002868021D2A600068C0F800902046A5E7DC
:102920000000F07F494E46494E49545900000000CE
:1029300001491820ABBEFEE726000200B2F12003D9
:102940000AD5C2F1200301FA02F120FA03F300FADA
:1029500002F041EA0301704700FA03F14FF0000072
:1029600070475FEA400C08BF91F0000F4FEA8C23DC
:102970004FEAC12243EA51514FEA1C5018BF00F5FB
:10298000F0404FEA300018BF41F000415FEA6C5C54
:1029900000F02980BCF1FF3F08BF40F08040704745
:1029A000130C06BF12044FF0100C4FF0000C130E66
:1029B00004BF12020CF1080C130F04BF12010CF13A
:1029C000040C930F04BF92000CF1020CD30F04BF50
:1029D00052000CF1010C11464FF00002A0F11F0053
:1029E000A0EB0C00704711F0004F08BF704731F0AA
:1029F00000413FF4D5AF0B0C06BF09044FF0100C9B
:102A00004FF0000C0B0E04BF09020CF1080C0B0F69
:102A100004BF09010CF1040C8B0F04BF89000CF1F9
:102A2000020CCB0F04BF49000CF1010CCCF12003C8
:102A3000A0EB0C0022FA03F302FA0CF241EA0301C4
:102A400000F10100704720F07F4C80EA030023F082
:102A50007F47ACEB070303F57C5300F0004003F124
:102A6000FF032DE980494FEA154B09B44FEA14439F
:102A700025EA0B4E24EA03480FF2042606EB13273F
:102A800049083E785FEA320203FB0667C7F5000794
:102A900007FB06F64FEA54374FEAD64606F1020620
:102AA00007FB066CCCF1005C4FEA1C472CEA074C94
:102AB00007FB06F40CFB06F504EB15464FEA9616E9
:102AC00034BF00204FF000404FEAD13706FB07FC2F
:102AD0004FEA1C4C0CFB0BF7D21B03FB0CF761EB12
:102AE00007010CFB0EF7B0EB074072EB17420CFB33
:102AF00008F734BFA2EB0742B2EB074261EB174184
:102B00004FEA0C444FEA910706FB07FC4FEA1C4CC6
:102B10000CFB0BF7B0EBC74072EB573203FB0CF723
:102B200034BFA2EBC742B2EBC74261EB57310CFB9B
:102B30000EF7B0EBC70072EB57720CFB08F734BF0F
:102B4000A2EBC702B2EBC70261EB5771039F4FEADA
:102B5000816141EA921104EBCC044FEAD1374FEA8C
:102B6000826206FB07FC42EA90124FEA80604FEA5D
:102B70001C4C0CFB0BF7D21B03FB0CF761EB0701A2
:102B80000CFB0EF7B0EB074072EB17420CFB08F79B
:102B900034BFA2EB0742B2EB074261EB17414FEAA9
:102BA0008C554FEA910704EB9C2406FB07FC4FEA87
:102BB0001C4C0CFB0BF7B0EBC74072EB573203FB1E
:102BC0000CF734BFA2EBC742B2EBC74261EB5731FF
:102BD0000CFB0EF7B0EBC70072EB57720CFB08F75B
:102BE00034BFA2EBC702B2EBC70261EB577115EB22
:102BF0004C254FEA816141EA92114FEA82624FEA25
:102C0000D13742EA901206FB07FC44F100044FEA78
:102C100080604FEA1C4C0CFB0BF7D21B03FB0CF73C
:102C200061EB07010CFB0EF7B0EB074072EB1742AC
:102C30000CFB08F734BFA2EB0742B2EB074261EB93
:102C4000174115EB1C154FEA813141EA92414FEAD9
:102C5000823242EA90424FEA80304FEA0C7644F1E9
:102C6000000448EA03434EEA0B484FF0000EB2EB73
:102C7000080C71EB030724BF624639464EEB0E0E7B
:102C80004FF0000B0018524149414BEB0B0BB2EBDC
:102C9000080C71EB03077BF1000B24BF6246394639
:102CA0004EEB0E0E4FF0000B0018524149414BEB1A
:102CB0000B0BB2EB080C71EB03077BF1000B24BF8D
:102CC000624639464EEB0E0E51EA020718BF46F037
:102CD000010616EB0E7655F1000254F1000103D502
:102CE000BDE88901BDE80088BDE88901BDE800486C
:102CF000B619524141EB0101A3F1010370478080F5
:102D00007F7E7D7C7B7A7978777676757473727145
:102D100071706F6E6E6D6C6C6B6A6A6968686766FD
:102D200066656464636362616160605F5F5E5E5D8F
:102D30005D5C5C5B5B5A5A59595858575756565503
:102D400055555454535352525251515050504F4F65
:102D50004F4E4E4D4D4D4C4C4C4B4B4B4A4A4A49B5
:102D600049494848484747474746464645454544F8
:102D700044444443434343424242424141410000B0
:102D800046EA0646A3F570534FEA164646EA42560F
:102D90004FEAD22242EA415210B54FEAD121A3F1C3
:102DA000010300F02FF820F0004000F1020C00F0C9
:102DB000004701EB00501146BCF5006F40EA0700E8
:102DC00000D210BDBAF1000F0AD01CB503B44FF009
:102DD00004004FF004014FF000000FBCBDE81040AC
:102DE0004FF00001BBF1010FB9BF04484FF0FF31B4
:102DF0000348002140EA070010BD00BFFFFFEF7F3E
:102E00000000F07F002B9C4630D477002BD01CB5FF
:102E10004FEA370703B44FF010004FF01001BAF13A
:102E2000000F06D0BCF1000FDCBF40F0080040F0FE
:102E300008014FF000000FBCBDE810400BF1010B82
:102E4000BBF1010F08BF5FEA170722BF12F10102B1
:102E500011F101014FF0004143F1000300F0004087
:102E600043EA00007047F9D35708D0E746EA064620
:102E700013F1400F4FEA16461FDD13F1200FDFBF9D
:102E800016430A46002120335B42BED0C3F120071F
:102E900046EA064602FA07F74FEA164646EA0706EA
:102EA000C3F1200722FA03F201FA07F721FA03F12E
:102EB0004FF0000342EA0702A7E746EA020646EAA5
:102EC00006464FEA164646EA0106BCBF46EA0646F3
:102ED000360C4FF000034FF000024FF0000194E772
:102EE0002DE9804C9A46934670B491E8380007C8A3
:102EF00031EA400C48BF34EA430C03D5FFF7A3FD89
:102F0000FFF780FFF0BCBDE8008C2DE9804C9A46AD
:102F1000934670B491E8380007C831EA400C48BFC6
:102F200034EA430C03D5FFF78EFDFFF729FFF0BC11
:102F3000BDE8008C2DE9804C9A46934670B491E828
:102F4000380007C810F0804F08BF13F0804F03D13E
:102F500000F01AF8FFF756FFF0BCBDE8008C2DE931
:102F6000804C9A46934670B491E8380007C810F038
:102F7000804F08BF13F0804F03D100F005F8FFF732
:102F8000FFFEF0BCBDE8008C20F07F4780EA030024
:102F900023F07F4C07EB0C03A3F57C5300F00040BB
:102FA000A3F1FE0392F0000F00F0B38095F0000F44
:102FB00000F077802DE901494FEA11404FEA1446AD
:102FC00021EA004800FB06FC24EA064708FB06F657
:102FD00007FB08F800FB07F718EB06484CEB164C0C
:102FE0004FEA124B18EB07484FEA15464CEB1740D7
:102FF00022EA0B4E0BFB06FC25EA06470EFB06F603
:1030000007FB0EFE0BFB07F71EEB064E4CEB164CB8
:103010004FF000061EEB074E4CEB174B18EB0B085E
:1030200040F1000018EB0E0B58EB000840F10000D7
:103030008F1A4FF000013CBFC943661B14BFB5EBAC
:10304000040C00213CBFC943F61B4FEA17444EEA6B
:103050008E0E27EA04454FEA1C4704FB07622CEA60
:10306000074C05FB07F70CFB05F604FB0CFC16EB05
:10307000074642EB174216EB0C4642EB1C421BEB99
:10308000060658EB0202414146EA9E0601D5BDE81C
:103090000189B619524141EB0101A3F10103BDE8D9
:1030A00001894FEA14454FEA114724EA054621EA0F
:1030B000074C05FB07F406FB07F70CFB06F105FBC5
:1030C0000CFC11EB074144EB17444FEA124711EB9C
:1030D0000C4144EB1C4422EA074C05FB07F206FBBB
:1030E00007F70CFB06F605FB0CFC16EB074642EB5C
:1030F000174216EB0C4642EB1C456A1854F10001CE
:1031000048BF7047B619524141EB0101A3F10103D9
:10311000704795F0000F37D04FEA11424FEA14473D
:1031200021EA024624EA074C02FB07F106FB07F7F7
:103130000CFB06F402FB0CFC14EB074441EB1741BB
:103140004FEA154714EB0C4441EB1C4125EA074CB0
:1031500002FB07F506FB07F70CFB06F602FB0CFC6F
:1031600016EB074645EB174516EB0C4645EB1C42A4
:10317000121951F1000148BF7047B619524141EB95
:103180000101A3F1010370474FEA14454FEA1147CB
:1031900024EA054621EA074C05FB07F106FB07F781
:1031A0000CFB06F24FF0000605FB0CFC12EB07428D
:1031B00041EB174112EB0C4251EB1C4148BF7047E9
:1031C000921841EB0101A3F101037047FEE7FEE70E
:1031D000FEE7000070B53D4800683C4808380068CC
:1031E0003A48001F0068394E4FF440740C3E2346A5
:1031F00000220121304603F05CF92346022200211F
:10320000304603F07AF92146304603F00DF90A20E2
:1032100001F0B6FF0024B5152946304603F002F947
:10322000052001F0ADFF2946304603F0FDF80520EA
:1032300001F0A6FF641CE4B2092CEDD32946304608
:1032400003F0F2F84FF400742146304603F0EAF838
:10325000052001F095FF2146304603F0E5F80520F2
:1032600001F08EFF234601220221304603F021F9AE
:10327000234602220121304603F03FF92B4601226A
:103280000221304603F015F92B4602220121304677
:1032900003F033F90E4C204603F004FA00220D49E6
:1032A000204603F09DF9002272231146204603F0C8
:1032B00057FA204603F028FA2115204603F08AF930
:1032C000BDE870400A2001F05BBF00000C04024022
:1032D00000540040801A0600FEE7FEE770B50025A6
:1032E00005F1B000C0B200F09DF8002000F09AF89F
:1032F000102000F097F80024002000F01DF9641C55
:10330000E4B2802CF8D36D1CEDB2042DE8D370BD6F
:1033100070B5642001F034FF0024084D285D00F0F2
:1033200081F8641CE4B2162CF8D3FFF7D7FFBDE890
:1033300070400021084600F003B800001C00002087
:1033400010B50446B031C8B200F06CF8102040EA65
:10335000141000F067F804F00F00BDE8104000F012
:1033600061B800002DE9F04180460F460024203A64
:10337000D5B2B8F17F0F02D9A0467F1CFFB2102B47
:1033800011D039464046FFF7DBFF164905EB4500F3
:1033900001EB4005285D00F0CFF8641CE4B2062C78
:1033A000F8D3BDE8F08139464046FFF7C9FF0E4E1D
:1033B00004EB0510305C00F0BFF8641CE4B2082C8C
:1033C000F6D37F1CF9B24046FFF7BAFF002404EBA6
:1033D00005103044007A00F0AFF8641CE4B2082C09
:1033E000F5D3DEE724B000084CB200082DE9F04127
:1033F00004460E461746984600250DE043463146E2
:103400002046FFF7AFFF0834E4B2782C02D900243D
:10341000B61CF6B26D1CEDB27A5D002AEED1BDE8A5
:10342000F08100002DE9F041404900220A70487007
:1034300042F2107425463E4E40F20167394630464E
:1034400003F078F928B1FFF7C5FE02E0012001F092
:1034500097FE3946304603F06DF908B16D1EF5D17F
:1034600075B9FFF7B7FE02E0012001F089FE394689
:10347000304603F05FF908B1641EF5D1002C53D03B
:10348000304603F078F94FF4A0642146304603F04B
:1034900051F90028F9D06FF001027821304603F08D
:1034A00056F940F201542146304603F043F9002812
:1034B000F9D02146304603F02CF940F2075421465A
:1034C000304603F037F90028F9D01A4C174B002288
:1034D0000621204602F0B8F802220621204602F01A
:1034E0000BFAE114304603F009F90621204602F0F8
:1034F0000DF820220621204602F075F80028F8D0A9
:1035000020220621204602F053F80621204601F031
:10351000F4FF34460021204603F0F0F8204603F083
:103520002FF921688905FCD4BDE8F0810400002052
:1035300000540040006002402DE9F0414049402223
:103540000A70487042F2107425463E4E40F2016700
:103550003946304603F0EEF828B1FFF73BFE02E0B3
:10356000012001F00DFE3946304603F0E3F808B1C2
:103570006D1EF5D175B9FFF72DFE02E0012001F0B7
:10358000FFFD3946304603F0D5F808B1641EF5D189
:10359000002C53D0304603F0EEF84FF4A0642146DF
:1035A000304603F0C7F80028F9D06FF00102782107
:1035B000304603F0CCF840F201542146304603F087
:1035C000B9F80028F9D02146304603F0A2F840F2BD
:1035D00007542146304603F0ADF80028F9D01A4CC4
:1035E000174B00220621204602F02EF80222062167
:1035F000204602F081F9E114304603F07FF80621FD
:10360000204601F083FF20220621204601F0EBFF37
:103610000028F8D020220621204601F0C9FF06210B
:10362000204601F06AFF34460021204603F066F888
:10363000204603F0A5F821688905FCD4BDE8F08197
:10364000080000200054004000600240FEE705F042
:1036500031BAFEE701F08ABD7CB54448016841F407
:1036600070010160424D286840F001002860286820
:103670008007FCD53E4C083420680026C0F381004A
:10368000022857D1019602E00198401C0190019850
:103690005028F9D320680090009820F0F0000090A6
:1036A000009840F08000009000982060019602E0B1
:1036B0000198401C019001985028F9D3206800908F
:1036C000009820F0F0000090009840F090000090EA
:1036D00000982060019602E00198401C019001983A
:1036E0005028F9D320680090009820F0F000009056
:1036F000009840F0A000009000982060019602E041
:103700000198401C019001985028F9D3206800903E
:10371000009820F0F0000090009840F0B000009079
:1037200000982060019602E00198401C01900198E9
:103730005028F9D3C82000F0C9F9206820F0030010
:10374000206028680B4908402860286820F4802001
:1037500028602660206806490748091D086004485B
:103760000C300660BDE87C4006F00ABA88ED00E047
:1037700000380240FFFFF6FE1030002470B5194CEF
:103780001749204607F0F8F8002828D0204607F00F
:1037900055F8154D0221284602F0B4F802461349A7
:1037A0001348FDF7C5F8641521461048FDF737F9B1
:1037B000104B012018700221284601F09EFE2022A5
:1037C0000221284601F0F4FE22460221284602F09A
:1037D00093F82846BDE87040022101F097BE70BD05
:1037E000040304000010014000640240F0010020C6
:1037F0006004002078010020FEE703B40198410036
:10380000009850EAC12018BF04204A0D18BF40F0AC
:10381000010040F2FF72B2EB515F08BF40F00200BE
:10382000012808BF052002B070470907090E0028CB
:1038300004DB00F1E02080F80014704700F00F0076
:1038400000F1E02080F8141D704700000000000027
:1038500030B52DED048B81B0B0EE408AF0EE608A79
:103860006A4651EC180B02F0AFFC00989FED329BBA
:103870007E300090002821DC53EC192B51EC180B02
:1038800007F024F91AD0002140F608004FF000009C
:10389000044651EC180B07F0D3F808EE100A40F676
:1038A000080004EA00014FF00000B5EEC08AF1EE16
:1038B00010FA04BF0220FDF7F9F92DE00098FF2867
:1038C00030DB002108464FF0000000F4400553ECC7
:1038D000192B51EC180B07F06FFA8CBF0024012450
:1038E0000220FDF7E3F99FED168A4DB1002C0CBFC5
:1038F0004FF400004FF48000A84218BF9FED118ADA
:10390000042108464FF00000002C01BFB1EE480A28
:1039100001B0BDEC048B30BDB0EE480A01B0BDEC87
:10392000048B30BD51EC180B07F08AF801B000EEA3
:10393000100ABDEC048B30BD000000000000000048
:103940000000807FFFFF7F7F30B583B00446FDF726
:10395000A8F99FED090B05468DED000B00222146CD
:103960006846FDF7FFFD2846FDF7A0F99DED000B29
:1039700003B030BD000000000000000000000000A7
:1039800030B540F2FF742DED048BF0EE608A18EE36
:10399000901A85B0B0EE408A9FED2B9B05468DEDC9
:1039A000008B34EA115147D053EC192B51EC180B12
:1039B00007F08CF840D02A4651EC180B07F0E6FAD5
:1039C00041EC180B18EE900A8DED008B34EA105084
:1039D0001CD053EC192B51EC180B07F077F82BD1B6
:1039E0000220FDF763F900F043F810EE901A18EE8C
:1039F000900A8DED020B8DED008B61F31E0003909C
:103A00009DED020B05B0BDEC048B30BD0220FDF72F
:103A10004DF900F01DF810EE901A18EE900A8DED99
:103A2000020B8DED008B61F31E0003909DED020BE8
:103A300005B0BDEC048B30BD05B0B0EE480AF0EE29
:103A4000680ABDEC048B30BD0000000000000000DF
:103A50009FED050B10B553EC102B51EC100B07F03C
:103A6000ADF841EC100B10BD00000000000000702C
:103A70009FED050B10B553EC102B51EC100B07F01C
:103A80009DF841EC100B10BD00000000000000107C
:103A900010B5044691ED000BFFF7DAFE84ED000A45
:103AA00010BD012002F072BE704710B5044690EDC3
:103AB000000B0846FFF764FF84ED000B10BD3038A3
:103AC0000A2801D2012070470020704708B5002164
:103AD000009100EB800002E00099491C00910099E0
:103AE000B1EB400FF8D308BD816841F00801816057
:103AF00081680907FCD4816841F004018160816814
:103B00004907FCD47047521E01290FD002290CD15D
:103B1000032A0AD8816B21F440118163816B4FF431
:103B2000401303EA02521143816370470F2AFCD805
:103B3000C16A21F47001C162C16A4FF4700303EAE3
:103B400002521143C162704704490A6822F4E0221C
:103B50000A600A6802430A607047000004230140BB
:103B6000002904D0816841F4006181607047816858
:103B700021F4006181607047816841F48071816047
:103B80007047816841F40071816070478168C9079E
:103B900003D1816841F001018160704701290AD099
:103BA000022907D1816821F440118160816841EACE
:103BB000025181607047816821F0405181608168C5
:103BC00041EA027181607047012909D0022906D1BA
:103BD000816821F4702181608168114381607047A0
:103BE000816821F070618160816811438160704754
:103BF00030B51F24062909D2456B01EB81018C40A9
:103C0000A54302FA01F42C43446318E00C290AD2BC
:103C1000056B891F01EB81018C40A54302FA01F479
:103C20002C4304630BE0102909D2C56A0C3901EB5F
:103C300081018C40A54302FA01F42C43C46207259C
:103C40000A2A08D2046902EB42018D40AC438B4042
:103C50002343036130BD122AFCD8C4680A3A02EB40
:103C600042018D40AC438B402343C36030BD0129EA
:103C700006D0022903D1816841F480018160704738
:103C8000816841F0804181607047002A12D0CA05E6
:103C900003D5426842F4807242604A0503D5426807
:103CA00042F480624260890703D5816841F00201D5
:103CB00081607047CA0503D5426822F48072426071
:103CC0004A0503D5426822F4806242608907F0D534
:103CD000816821F0020181607047000004490A6890
:103CE00022F01F020A600A6802430A60704700005F
:103CF00004230140024803490088088002F0B2BF53
:103D00000C0000200A0000201CB505480549CDE93B
:103D1000001000231A460721034801F023FE1CBDB2
:103D2000856D0008F56E00086000002000F00F01AE
:103D3000000900EB800001EB4000C0B2704770B595
:103D400000245B1E012505EB531507E051F82430D4
:103D500052F82460334040F82430641CA542F5D862
:103D600070BD10B501F01F040123A3404C09002AC7
:103D700050F8241003D0194340F8241010BD994383
:103D800040F8241010BD521E012303EB5212920082
:103D9000FCF714BD4A0950F8220001F01F01C84089
:103DA000C0F30000704770B500245B1E012505EBD1
:103DB000531507E051F8243052F82460334340F89B
:103DC0002430641CA542F5D870BD000010B58AB03F
:103DD00040F6024003F042FD41F2081003F03EFDC0
:103DE00040F6164003F03AFD4FF44030FFF7ACFECA
:103DF000012300220321324802F05BFB314C0021F9
:103E0000204601F0A9FB30490191012202922F497D
:103E1000039100210491D302059307910892500465
:103E2000099001AA204601F0BDFC0022114620465F
:103E300001F075FB0021204601F085FB00212046A2
:103E400001F064FB0020FFF749FF1F4C01224C3CAE
:103E500002212046FFF719FF012211022046FFF739
:103E600014FF00212046FFF77BFE01221146204669
:103E7000FFF749FE01230A2200212046FFF7B8FE82
:103E8000002201212046FFF79FFE0022012120464B
:103E9000FFF784FE2046FFF774FE2046FFF76CFE16
:103EA0002046FFF773FE012001F058F92046FFF786
:103EB0001BFE01212046FFF7DAFE0AB010BD00000C
:103EC00000080240006402404C2001400C00002029
:103ED00010B540F6014003F0C1FC40F6044003F089
:103EE000BDFC4FF4406003F0B9FC4AF68023012288
:103EF0000021084802F0DDFA01231A460021064895
:103F000002F0D7FA0123BDE810401A460021034809
:103F100002F0CFBA0004024000100240000002404C
:103F200010B58AB04FF4406003F098FC40F615409D
:103F300003F094FC41F21D0003F090FC41F20400F8
:103F400003F08CFC1023002203212D4802F0B1FA6B
:103F50002C4C01220521204601F02AFB04220521D8
:103F6000204601F025FB08220521204601F020FB18
:103F700010220521204601F01BFB202205212046AE
:103F800001F016FB07220521204601F0C8FA1E4960
:103F900001911E4803904020079001210891029151
:103FA00000210491420105924FF44032099206919A
:103FB00001AA0521204601F0F5FB0521204601F06C
:103FC000A5FA114C083C204601F062F80022114687
:103FD000204601F099F80021204601F087F80022E0
:103FE0001146204601F0A5F80021204601F070F8A6
:103FF0000021204601F05EF806F022FA0AB010BD5A
:104000000000024000600240087400400A000020E6
:1040100030B587B040F6014003F020FC41F20E00BD
:1040200003F01CFC40F6154003F018FC1A4D4FF449
:10403000604422460521284602F0C2F923460022A8
:104040000221284602F035FA2346022200212846A2
:1040500002F053FAAC14234600220121284602F054
:1040600028FA234602220021284602F046FA0020C0
:1040700001904FF482710091029003210591E110AB
:1040800003911021069104906946044805F066FCEE
:1040900005F03CFB07B030BD000402400038004092
:1040A00070B540F6034003F0D9FB094D4FF47C5442
:1040B000012223461146284602F0FBF9234602223C
:1040C0000021284602F019FA01482830046070BD2A
:1040D000000C024070B58AB040F6014003F0BEFB10
:1040E00041F2150003F0BAFB40F6154003F0B6FBB1
:1040F000304E4FF4007422460421304602F060F93D
:1041000065102A460421304602F05AF9234601225E
:104110000221304602F0CDF9234602220121304629
:1041200002F0EBF92B4601220221304602F0C1F9E0
:104130002B4602220121304602F0DFF91F4C0022FB
:104140001D49204602F04CFA0022722311462046F7
:1041500002F006FB204602F0D7FA2115204602F0B5
:1041600039FA174C0621204601F0F6F901A801F0B2
:1041700061FB4021079113490391002104910591AE
:10418000022108910D4910310191012102914FF452
:104190004030099001AA0621204601F003FB0621C8
:1041A000204601F0C7F901220621204601F0B7F9A7
:1041B0000AB070BD00040240801A0600005400409E
:1041C000006002400800002010B5002441F21C00ED
:1041D00003F044FB02F03EFD00F010F805480068D3
:1041E0000549C0F30120086100F024F803F0EAF962
:1041F000204610BD703802400800002010B54FF472
:10420000E054204603F07EFA204603F08BFA4FF488
:10421000807003F053FB0648FF21C1607F2181605D
:1042200041F60F4003F01AFBBDE8104003F0BABDA1
:104230000800002010B500241148826811490A8145
:10424000C0684881252008700620C8700420487086
:104250003020887000200861C86023200871592030
:10426000487150208871084603F028FD28B106499E
:1042700043F2F0200860204610BD4FF0FF34FAE70B
:1042800008000020F00300205028004070B58AB0DC
:1042900040F6164003F0E2FA3B4C0221204601F0C2
:1042A0005BF900210791394A03920491A215089203
:1042B000374A01920120029005914FF44030099055
:1042C00001AA0221204601F06DFA0221204601F0E8
:1042D00031F904220221204601F021F90221204671
:1042E00001F014F94FF4406003F0B8FA41F2041001
:1042F00003F0B4FA274E641522460721304602F037
:104300005FF865002A460721304602F059F8234637
:1043100001220221304602F0CCF82346022200217D
:10432000304602F0EAF82B4601220221304602F024
:10433000C0F82B4602220021304602F0DEF8144C71
:10434000241F204606F082FA4FF4E131204606F0A1
:1043500019FA0421204606F028FB0821204606F021
:104360002AFB4021204606F0E1FA204606F0E8FA52
:1043700000221146252002F04FFB4FF441712046E8
:1043800006F0F0FA0AB070BD00640240F0010020AF
:10439000041001400000024010B501F0C5FFBDE867
:1043A000104001F009BB000010B504460A466078D1
:1043B000012304F1300101F05CF808B1032010BDC5
:1043C00094F82E0294F82F1240EA0120A0F52A4119
:1043D000553901D0022010BD14F8660FE1786278DB
:1043E00040EA0161A078663C000440EA02200143F3
:1043F0000B48B0EB012F01D1002010BD14F8821F33
:10440000E278637841EA0261A278120442EA032268
:104410001143B0EB012F01D1002010BD012010BDD0
:104420000046415470B502F073FB04460D4602F09D
:1044300009FC50B102F06CFB04460D4602F078FB1B
:1044400004196941641C41F100052046294670BDEC
:1044500000E0401C02780AB18A42FAD10078704725
:104460002DE9F047154603681C78303C092C02D82A
:104470005A783A2A04D000242CB10B20BDE8F087EA
:104480009B1C0360F8E7AD4804680C6084B1207899
:1044900020B1607801F00CF8C1070BD00027384636
:1044A0002770607000F0ADFFC1070AD00320E5E778
:1044B0000C20E3E71DB1400701D50A20DEE700200C
:1044C000DCE71DB1400701D50A20D7E700263146B9
:1044D0002046FFF769FF0146012912D104F5F77064
:1044E000027972B1017AC27A41EA0266817A407A2F
:1044F000090441EA0020064331462046FFF754FFF5
:104500000146032902D019B10D20B7E70120B5E714
:1045100094F83B0094F83C1040EA0120B0F5007F8D
:1045200001D00D20AAE794F8460094F8471040EA1D
:10453000012058B914F8540FE178627840EA01601C
:10454000A1780904543C41EA022108438146E06114
:1045500094F84010E170012903D0022901D00D2008
:104560008CE7484394F83D20A27012B1531E1A42C2
:1045700001D00D2082E794F8411094F8423041EACE
:1045800003232381190701D00D2077E794F8431006
:1045900094F8445041EA052161B914F8501FE578B8
:1045A00094F801C041EA0561A5782D04503C45EA24
:1045B0000C25294394F83E5094F83FC045EA0C2856
:1045C000B8F1000F07D008EB000505EB131C61459F
:1045D00003D20D2052E70D2050E7A1EB0C01B1FBF7
:1045E000F2F131B3012540F6F672914200D3022573
:1045F0004FF6F672914200D30325891CA16106EBA8
:104600000C02A26206EB08022262032D13D02BB328
:1046100010446062022D23D001F0010001EB410142
:1046200000EB510000F2FF10B9EB502F1AD20D2011
:1046300024E70D2022E70BB10D201FE714F85C0FD3
:10464000E278637840EA0260A278120442EA032228
:10465000104344F8380C5C3C8800E3E70D200DE77C
:104660004800DFE74FF0FF302061E760032D59D1AC
:10467000677194F8600094F8611040EA0120821993
:1046800062616078012304F1300100F0F2FEE8BBC2
:1046900094F82E0294F82F1240EA0120A0F52A4146
:1046A00055393FD114F8300FE178627840EA016063
:1046B000A178303C090441EA02210843204988429C
:1046C00030D194F8140294F8171294F8152240EAA5
:1046D000016094F81612090441EA022108431949BD
:1046E00088421FD194F81C0294F81F1294F81D22DE
:1046F00040EA016094F81E12090441EA02210843CD
:10470000E06094F8180294F81B1200E00AE040EA16
:10471000016094F81A1294F81922090441EA02215E
:104720000843206125700549091F0888401C08803E
:10473000E080E76227710020A0E60000580000201A
:104740005252614172724161891E8269921E8A428F
:1047500001D800207047826A807801FB00207047F2
:1047600070B51D25084C00E0641E802004F0B4FEE6
:1047700008B9002CF8D124B1044804F0A7FE28465B
:1047800070BD132070BD0000A0860100FF07C000AF
:1047900010B5C2B00B222DA1FCF77FF8002815D16F
:1047A00000244FF4807102A8FCF75BF90C2221462B
:1047B00002A804F015FF042227A102A8FCF76DF857
:1047C000274C28B127A1204602F0FAF842B010BDCC
:1047D0009DF80C009DF80D1040EA01209DF80E1088
:1047E00040EA01409DF80F1040EA016001909DF8F9
:1047F00010009DF8111040EA01209DF8121040EAC7
:1048000001409DF8131040EA01600090019806F005
:1048100009FB41EC100B1DA153EC102B204602F0BC
:10482000CFF8009806F0FEFA41EC100B1BA153ECF8
:10483000102B204602F0C4F81C49002008704FF4E9
:1048400000711B48FCF7EBF8C0E70000636F6E6671
:104850006967207265616400434F4E4600000000A6
:10486000001001404E6F2076616C696420636F6EAA
:1048700066696775726174696F6E20666F756E64C4
:1048800020696E20666C6173680D0A00726174693C
:104890006F3A20252E31660D0A0000006C696D69A3
:1048A000743A20252E32660D0A000000780100209F
:1048B000600400202DE9F04FADF2745D0B2273A16E
:1048C000FBF7EBFF002815D120214CA8FCF7C9F815
:1048D000202144A8FCF7C5F84FF00008C1466E49F6
:1048E000002001F0B3F9DFF8B4A138B16CA1504653
:1048F00002F066F80DF2745DBDE8F08F012270A140
:10490000D4A801F0B3F940B165A1504602F058F8BF
:104910000021084601F09AF9ECE743ABFF2294A985
:10492000D4A801F057FA58B9439848B194A94FF068
:10493000000B01F800B00025002694AC54AF54E001
:1049400063A1504602F03CF8D4A801F075F90021AB
:10495000084601F07BF9CDE7002003E00246401C49
:10496000B954641C217819B10D2901D00A29F5D157
:1049700007F800B020780D2800D1641C20780A28A0
:1049800000D1641C9DF850015B280ED02DB104228B
:1049900057A154A8FBF781FFD0B1FEB1042254A166
:1049A00054A8FBF77AFFC8B919E0072252A154A80E
:1049B000FBF773FF40B10025072251A154A8FBF774
:1049C0006CFF18B1002610E00125F5E701260CE088
:1049D000391D4CA8FBF71EFF4FF0010805E0391DFB
:1049E00044A8FBF717FF4FF0010920780028B3D146
:1049F000D4A801F021F90021084601F027F9B8F107
:104A0000000F38D04CAA40A1504601F0D9FFB9F1AF
:104A1000000F35D044AA3FA1504601F0D1FF002439
:104A20004FF4807103A8FCF71CF83DA103A8FBF725
:104A3000F1FE4CA8FEF788FF51EC100B06F000F8D1
:104A400002900298049044A8FEF77EFF51EC100BF0
:104A500005F0F6FF0190019805900C25204604F022
:104A6000BBFE2A46214603A804F0E6FD2EA15046CF
:104A700001F0A6FF3EE733A1504601F0A1FF39E760
:104A800035A1504601F09CFF34E70000636F6E666D
:104A900069675F7361766500600600200010014061
:104AA000636F6E6669672E696E692066696C652042
:104AB0006E6F7420666F756E642E0D0A0000000024
:104AC000303A636F6E6669672E696E690000000098
:104AD000636F6E6669672E696E692066696C652012
:104AE00072656164206572726F722E0D0A0000009B
:104AF0004368303D000000005B526174696F5D00E7
:104B00005B4C696D69745D00726174696F3A202550
:104B1000730D0A006C696D69743A2025730D0A00E3
:104B2000434F4E460000000073617665207061724D
:104B3000616D657465727320746F20666C61736853
:104B40000D0A0000726174696F3A206E6F742066FE
:104B50006F756E640D0A00006C696D69743A206EA1
:104B60006F7420666F756E640D0A00002DE9F043C6
:104B70002DED028BADF52B7D05460C462846FBF747
:104B80006DFE024629462046FBF787FE002878D1B5
:104B900020229C49A3A8FBF710FFB7EE000A8DED79
:104BA000A20A99A12846FBF7AFFF002836D00024BF
:104BB000294682A8FBF72EFE9DF80802A0F16101AC
:104BC000192902D820388DF808022A4690A192A807
:104BD000FBF722FC2A4691A18AA8FBF71DFC4FF0A7
:104BE00000084FF48079494642A8FBF73AFF0C22AF
:104BF000414642A804F0F4FC04228DA142A8FBF730
:104C00004CFE8D4D60B18DA1284601F0D9FEA3ABBD
:104C100082AA94A1284601F0D3FE31E00124C7E71F
:104C200074B19DF80C019DF80D1140EA01209DF82A
:104C30000E1140EA01409DF80F1140EA01600DE0BD
:104C40009DF810019DF8111140EA01209DF8121104
:104C500040EA01409DF8131140EA0160A290A29839
:104C600006F0E0F841EC100B81A153EC102BA3A847
:104C7000FBF7D2FBA3AB82AA7AA1284601F0A0FEE3
:104C800000E044E07CA1284601F09AFE804F002617
:104C90003E7038780028FCD01F227E499AA8FBF786
:104CA00007FF8DF887629AA8FBF7D8FD9AAA01E062
:104CB000401E1654002806DD111811F8011C0D299C
:104CC000F6D00A29F4D03E704FF400717148FBF71A
:104CD000A6FE9AA801F086FDF8B19AA804F056FE47
:104CE000B0EE408AB5EEC08AF1EE10FA04D318EEA9
:104CF000100A694988421CDD92AA68A1284601F081
:104D00005FFEA3AB82AA57A1284601F059FE0DF51C
:104D10002B7DBDEC028BBDE8F08392AA5FA12846F3
:104D200001F04EFEA3AB82AA4EA1284601F048FE38
:104D3000EDE7494602A8FBF794FE3DA102A8FBF768
:104D400069FD9DEDA20A8DED010A9DEDA20A8DED92
:104D5000000A042236A142A8FBF79FFDE8B99DF89E
:104D60000C019DF80D1140EA01209DF80E1140EA5A
:104D700001409DF80F1140EA016001909DF810017B
:104D80009DF8111140EA01209DF8121140EA0140FE
:104D90009DF8131140EA0160009014B18DED018A75
:104DA00001E08DED008A01988DF80C00010A8DF864
:104DB0000D10010C8DF80E10000E8DF80F000098EC
:104DC0008DF81000010A8DF81110010C8DF81210E9
:104DD000000E0C248DF81300404604F0FDFC04F096
:104DE00091FD2246414602A804F026FC8AAA2BA186
:104DF000284601F0E5FD9AAB82AA1AA1284601F0E7
:104E0000DFFD84E7CCBA0008726174696F000000AE
:104E1000257320696E76616C696400002573206DCE
:104E20006F64696669656420737563636573730095
:104E3000434F4E4600000000001001404E6F2076A8
:104E4000616C696420636F6E66696775726174690D
:104E50006F6E20666F756E6420696E20666C61737C
:104E6000680D0A002573203D2025730D0A000000FF
:104E7000252E316600000000496E70757420766141
:104E80006C756528302D313030293A0D0A0000004C
:104E900078010020600400200000C84225730D0A3C
:104EA000000000002DE9F04106460F46002F08D013
:104EB0003946304601F0D1F9022809D20120BDE877
:104EC000F081F56815B1B069A84205D8012503E065
:104ED000B1698142F3D83D462C46641CB069A042BA
:104EE00004D80224022D01D20020E8E721463046F2
:104EF00001F0B3F938B1411CE1D00128DFD0AC4258
:104F0000EBD10020DBE76FF070422146304602F023
:104F1000BDF928B927B122463946304602F0B6F924
:104F200020B101280BD001242046C8E7F460306985
:104F3000411CF9D0401E306101207071F4E74FF040
:104F4000FF34F1E72DE9F05F8B46DBF8008001E0EC
:104F500008F1010898F800102F29F9D05C29F7D042
:104F6000D0F818900B222021484601F0EAFC0025D9
:104F70002E462F464FF0080A38467F1C18F800408E
:104F8000202C0BD92F2C09D05C2C07D02E2C01D033
:104F9000564516D3BAF1080F0AD107E008EB07000F
:104FA000CBF80000202C4AD8042049E02E2C02D057
:104FB0000620BDE8F09F08264FF00B0AA806050E54
:104FC000DAE7802C01D345F00305A4F181001E2807
:104FD00002D95F381C2817D838467F1C18F8000003
:104FE000A0F140013F2902D340397D2903D2AAF123
:104FF00001018E4201D30620DBE7711C09F806404F
:105000004E1C09F80100B7E721461DA0FFF720FA62
:1050100008B10620CDE7A4F14100192802D845F0D7
:10502000020507E0A4F16100192803D845F0010545
:10503000203CE4B23046761C09F800409CE7002092
:1050400026B199F80010E52902D004E00620B0E767
:10505000052189F80010BAF1080F01D1A9060D0E3B
:1050600005F00301012901D140F01000C5F38101D1
:10507000012901D140F0080089F80B00002098E7D1
:10508000222A2B2C3A3B3C3D3E3F5B5D7C7F00005F
:1050900010B50749C84209D140F61D04204602F068
:1050A000FDFB2046BDE8104002F0E8BB10BD00004B
:1050B000008CFFBF002906D0012903D1016841F00F
:1050C000805101607047016841F480510160704770
:1050D000002906D0012903D1016841F48031016023
:1050E0007047016841F0010101607047002906D056
:1050F000012903D1016841F48021016070470168F2
:1051000041F004010160704700290AD0012907D14C
:10511000016821F460110160016841EA0241016007
:105120007047016821F03801016001681143016096
:10513000704700290AD0012907D1016821F44001F4
:105140000160016841EA024101607047016821F095
:10515000C0010160016811430160704702490860A5
:1051600008680028FCD1704700000020034801684F
:10517000002902D00168491E01607047000000202C
:1051800070B50E494A68A0FB024508695A2801DD3E
:10519000086900E05A20C117021B71EB05020BDA07
:1051A000241A65EB010501F0E9F804194D4101F0FD
:1051B000E5F8001BA941FADB70BD00008801002062
:1051C00070B504460021204600F0D5F8002818D11B
:1051D0002169206801F0BDFB05468DB96069017841
:1051E00081B1C17A090704D40B22A16901F093FBB4
:1051F00030B10021204600F007F80546002DE7D029
:10520000284670BD0425FBE72DE9F04104460E4613
:10521000E088401C87B2002F04D0206910B1390704
:1052200003D06AE00420BDE8F081401C2061E16801
:1052300031B120688278521E12EA171F06D05CE056
:1052400020680089B84258D80420ECE701F005F83E
:105250000546012D01D80220E5E7681C15D020681D
:105260008169A94243D896B1E168FFF71BFE054664
:1052700028000ED0012D0ED0681C0ED00021206811
:1052800001F067FB58B10120CDE70120CBE70420F6
:10529000C9E70720C7E70220C5E70120C3E7206868
:1052A0004FF400723030002101F04BFB294620689A
:1052B000FFF74AFA2168C86200264FF001080EE0A5
:1052C00080F804800021206801F043FB08B1012030
:1052D000A9E72068C16A491CC162761CF6B2206841
:1052E0008178B142ECD82168C96A891BC162E56046
:1052F00029462068FFF728FA2061E78007F00F01B0
:105300003022206802EB41110844606100208AE7E6
:1053100070B505460021284600F02DF8044620000F
:1053200011D12969286801F014FB04465CB9686949
:105330000078E52807D030B101212846FFF764FF47
:105340000446002CEDD0A4B92969286801F001FBBE
:10535000044620000DD16E6920220021304601F064
:10536000F0FA0B223046A96901F0E2FA296801201F
:105370000871204670BD70B504460D46E580A168F1
:10538000012903D0206882698A4201D8022070BDB9
:1053900019B90278032A00D1416A11B18078060157
:1053A0001CE0E1600189A94201D8022070BD406A79
:1053B00000EB151020611AE0206800F04EFF014656
:1053C000481C07D0022903D320688069884203D88B
:1053D000022070BD012070BDA81B85B2B542EBD282
:1053E000E1602068FFF7B0F900EB1510206105F0CF
:1053F0000F013022206802EB411108446061002057
:1054000070BD00B593B000210091002802D00120AA
:1054100013B000BD03F02FFB1D2801D00120F7E7DA
:1054200001A803F019F91D2801D00120F0E7BDF80B
:10543000480003F08BFA684603F0ECFA0099890102
:1054400000D5FEE71D2801D00120E1E74FF4006000
:1054500003F022F81D2801D00120D9E7002003F035
:1054600071FF1D2801D00120D2E70020D0E70020E5
:10547000704770B505460C461C20002C02D01BB1AD
:1054800025B10BE0042070BD042070BD51024FF423
:105490000072012B06D0204603F080FB1D2805D0AA
:1054A000012070BD204602F0C1FDF7E7002070BD6D
:1054B000002801D0012070470020704770B50546D4
:1054C0000C461C20002C02D01BB125B10BE004209F
:1054D00070BD042070BD51024FF40072012B06D044
:1054E000204603F081FC1D2805D0012070BD204618
:1054F00002F08CFEF7E7002070BD01EB410100EBEC
:10550000C100016921F001010161704701EB410116
:1055100000EBC100016941F001010161704701EB3D
:10552000410100EBC100016921F0606141EA426183
:105530000161704701EB410100EBC100016921F4F9
:1055400080710161704701EB410100EBC10001690D
:1055500041F480710161704701EB410200EBC2022E
:10556000136923F0010313610023136153619361F5
:10557000D3611362212353623D2204290BD201EB34
:1055800041035B00C1F3400103EB81018A40816864
:105590000A4382607047091F01EB41035B00C1F3BE
:1055A000400103EB81018A40C1680A43C260704731
:1055B00004290BD201EB41035B00C1F3400103EB73
:1055C00081018A4081680A4382607047091F01EBAC
:1055D00041035B00C1F3400103EB81018A40C168D4
:1055E0000A43C260704704290ED201EB41035B00FD
:1055F000C1F3400103EB810100688A40024201D0FF
:105600000120704700207047091F01EB41035B0038
:10561000C1F3400103EB810140688A40024201D09E
:10562000012070470020704701EB410100EBC100F1
:10563000002A04D0016941F020010161704701692D
:1056400021F020010161704701EB410100EBC10035
:10565000002A01D003627047C361704730B501EB87
:10566000410100EBC100416A136A194341F0040192
:10567000416211688161D168C161D16A4161036988
:105680001C490B4014695168956A2143146B2C43E3
:10569000214394692143D4692143194301619168ED
:1056A000002912D0012915D0016941F4004101619E
:1056B0005169A1B1016921F480610161516A99B117
:1056C000016921F48071016130BD016941F400710B
:1056D0000161EDE7016921F400710161E8E7016909
:1056E00041F480610161E9E7016941F48071016180
:1056F00030BD00003F871CFE30B58DB00446274DFD
:10570000012203212846FFF753FF042203212846E4
:10571000FFF74EFF082203212846FFF749FF10221A
:1057200003212846FFF744FF202203212846FFF7E4
:105730003FFF03212846FFF7E0FE03212846FFF73D
:105740000BFF17480090039400200A900B90012152
:105750000291059008030190800004904FF44030BE
:105760000C9048050790800006900320089009914E
:105770006A4603212846FFF771FF012203212846CC
:10578000FFF752FF042203212846FFF7C8FE03213A
:105790002846FFF7BBFE0DB030BD0000006402409C
:1057A000802C014030B501EB410100EBC100416AA2
:1057B00021F004014162116881619168C161D16980
:1057C000416103691A490B40146A116995690C43D8
:1057D00045EA81010C4344EA030101615168002953
:1057E00012D0012915D0016941F400410161D1684D
:1057F000A1B1016921F480610161516999B1016927
:1058000021F48071016130BD016941F400710161D1
:10581000EDE7016921F400710161E8E7016941F4F4
:1058200080610161E9E7016941F48071016130BD86
:105830003F87FCFF00210160012242608160C2605D
:10584000016142618161C1610162704730B58DB013
:105850000446274D012203212846FFF7A9FE042212
:1058600003212846FFF7A4FE082203212846FFF75C
:105870009FFE102203212846FFF79AFE20220321D3
:105880002846FFF795FE03212846FFF736FE032141
:105890002846FFF761FE17480090039440200A90C5
:1058A00000200B90012102910590080301908000D7
:1058B00004904FF440300C9048050790800006900B
:1058C0000991032008906A4603212846FFF7C6FE87
:1058D000012203212846FFF7A7FE042203212846C0
:1058E000FFF71DFE03212846FFF710FE0DB030BD67
:1058F00000640240802C014001EB410100EBC1003B
:105900004261704701EB410100EBC1004069704703
:105910002DE9F0410746124C00250CE02068C5EB4C
:10592000C50100EB8100E1698847024629463846F7
:10593000FEF717FA6D1CA088A842EFDC2569A6883F
:1059400009E0E169281D8847024631463846FEF7DE
:1059500008FA2D68761C002DF3D1BDE8F081000017
:10596000040400202DE9F0470746DDE90856884683
:1059700091469A460F4C002E1AD0CDB13C212046BC
:10598000FBF76FF82760A4F80480C4F80890A4F827
:105990000CA0A661E561002084F830004FF6FF718D
:1059A000618660634FF4FA70A0630120BDE8F08760
:1059B0000020FBE7040400201CB5044600220092EE
:1059C00001926846FFF7A4FF2146684600F076F88A
:1059D0001CBD2DE9FC410646089F884610461D4621
:1059E0002946FEF7D7F9C4B229464046FEF7D2F958
:1059F000C1B20020CDE900503B462246304601F0BE
:105A0000F1FABDE8FC812DE9FF470746DDF830904B
:105A1000884694461E4600200290039040200024B1
:105A200000210125401E05EB501319E056F82120F6
:105A3000AAB14FF0553000EA5200101A00F033328C
:105A40004FF0333A0AEA9000104400EB101000F0D7
:105A50000F3000EB004000EB0020000E0444491C16
:105A60008B42E3D8002C22D040233246614602A864
:105A7000FEF765F94022314602A8FEF784F9C0B16D
:105A8000002440233246414602A8FEF758F940223E
:105A9000314602A8FEF777F968B100214FF0FF30D8
:105AA000CDE900054B462246384601F09BFABDE899
:105AB000FF870124E5E70121F0E700002DE9FC5F05
:105AC00007460E465B4C94F8300000F00108B8F130
:105AD000000F04D004F128000821FAF7C2FFB8F142
