:020000040800F2
:10000000A81900203D030008C7270008BD260008E6
:10001000C5270008B9260008E52C000800000000EC
:100020000000000000000000000000003F2B00085E
:10003000BB26000800000000392B00087D030008E3
:100040005703000857030008570300085703000828
:100050005703000857030008570300085703000818
:100060005703000857030008570300085703000808
:1000700057030008570300085703000857030008F8
:1000800057030008570300085703000857030008E8
:1000900057030008570300085703000857030008D8
:1000A00057030008570300085703000857030008C8
:1000B00057030008570300085703000857030008B8
:1000C00057030008570300085703000857030008A8
:1000D00057030008692C000857030008570300085D
:1000E0005703000857030008570300085703000888
:1000F0005703000857030008570300085703000878
:10010000570300083B2B000857030008570300085B
:100110005703000857030008570300085703000857
:100120005703000857030008570300085703000847
:100130005703000857030008570300085703000837
:100140005703000857030008570300085703000827
:100150005703000857030008570300085703000817
:100160005703000857030008570300085703000807
:100170005703000857030008570300080000000059
:1001800057030008570300085703000857030008E7
:100190005703000857030008570300080000000039
:1001A00057030008570300085703000800F002F83F
:1001B00000F0B4F80AA090E8000C82448344AAF14D
:1001C0000107DA4501D100F0A9F8AFF2090EBAE84B
:1001D0000F0013F0010F18BFFB1A43F0010318477B
:1001E00044BE000064BE00000A444FF0000C10F84A
:1001F000013B13F0070408BF10F8014B1D1108BFA5
:1002000010F8015B641E05D010F8016B641E01F844
:10021000016BF9D113F0080F1EBF10F8014BAD1C94
:100220000C1B09D16D1E58BF01F801CBFAD505E0B2
:1002300014F8016B01F8016B6D1EF9D59142D6D30C
:10024000704700000023002400250026103A28BF34
:1002500078C1FBD8520728BF30C148BF0B60704738
:100260006E2900F03586702900F0B78166290BF001
:100270002F8065290BF02C8067290BF029806129DC
:100280000BF0288003681B0A28BF41F08001692910
:1002900000F02881642900F02581752900F0228171
:1002A0006F2901F03281782900F08381E92901F07A
:1002B000CD80E42901F0CA80F52901F0C780EF293B
:1002C00001F02F81F82900F082810368DB0928BF43
:1002D00041F08001632901F04E80732901F05380C1
:1002E000E32901F08783F32901F08C830020704714
:1002F0001FB50AF0E8FF01F063F9040000200021B7
:100300000AF054FF401C6060002000210AF038FF12
:10031000E06000F0E9FC1FBD10B510BD01F0C6FDA6
:100320001146FFF7E5FF06F0EFFC01F0EDFD03B429
:10033000FFF7F2FF03BC01F0F1FD00000948804720
:1003400009480047FEE7FEE7FEE7FEE7FEE7FEE7B7
:10035000FEE7FEE7FEE7FEE704480549054A064BCF
:1003600070470000452B0008AD010008A8110020CF
:10037000A8190020A8150020A815002030B410B539
:100380000348804730BCAE4630BC024800470000FE
:10039000B96F0008412B000800BF704710B54C1022
:1003A00084EA530404D54042C1F1000138BF491E1C
:1003B0001B4204D55242C3F1000338BF5B1E00F05C
:1003C000A5FC14F0804F04D04042C1F1000138BFB9
:1003D000491E14F0004F04D05242C3F1000338BF4D
:1003E0005B1E10BD7CB51D4616460C00009001D06A
:1003F0002044401E074B7B442A4669460190304604
:1004000000F08FFF05461CB10020694600F09CFFFC
:1004100028467CBD590F00000FB41CB5084B06AA36
:100420007B4469460090059800F07BFF044600205D
:10043000694600F089FF20461CBC5DF814FB0000F3
:10044000250F000070B5044685690068C10601D516
:10045000302600E02026C00707D070BDD4E9012176
:1004600030469047206A401C20626D1EF6D570BD54
:1004700070B5044685690078C00707D170BDD4E91E
:10048000012120209047206A401C20626D1EF6D575
:1004900070BD70B50C460546012A05D02878800647
:1004A00000D5EA69002302E0012305E05B1C9342CA
:1004B00002D2E05C0028F9D1A869E618C01AA86148
:1004C000286A184428622846FFF7BCFF04E0D5E9F3
:1004D000012114F8010B9047B442F8D32846FFF7E6
:1004E000C7FF70BD2DE9F04106460024106875294C
:1004F000314616A510D000F080FC002802DA4042F8
:1005000013A507E031688A0701D512A502E0490763
:1005100004D511A5012401E000F078FC00210A2295
:1005200006F1240709E0B0FBF2FCB0FBF2F302FB9A
:100530001C00303078541846491C0028F3D123465B
:100540002A463046BDE8F04100F069BC00000000DA
:100550002D0000002B00000020000000F0B40D462C
:100560000188090502D5214C7C4402E01F4C7C44E3
:100570000E34002100F1240608E002F00F071209F2
:10058000E75D42EA03721B097754491C52EA0307EC
:10059000F3D102780023120704D5702D06D009B1DB
:1005A000022311342246F0BC00F039BC0123103480
:1005B000F8E770B504460D462146106800F026FCA9
:1005C000024629462046BDE870400023C6E7D21DFA
:1005D00022F00703D3E90023C0E70368126843F061
:1005E000200303600823C3610023B7E7B8B9000004
:1005F0002DE9F05F894604464FF0000ADFF874B138
:10060000FB44C0F820A02046E1688847002874D049
:10061000252806D0D4E901219047206A401C206299
:10062000F1E700265F462046E16888472028054616
:1006300007DB312D05D2781910F8200C08B10643DC
:10064000F1E7B00701D526F00406C4F81CA0002786
:10065000C4F818A02A2D09D0284602F070FB38B340
:1006600004EB8708303DC8F8185019E059F8041B0E
:10067000204604EB87029161E1688847012F054617
:1006800018D1E069002820DA26F020061DE0D8F80D
:10069000180000EB800005EB40003038C8F8180067
:1006A0002046E1688847054602F049FB0028EED164
:1006B000012F0AD02E2D08D12046E16888477F1CE3
:1006C0000546022F46F02006C4DBA069002803DAA5
:1006D000404246F00106A061F00701D026F0100666
:1006E0006C2D0BD0682D09D04C2D39D06A2D35D00A
:1006F000742D35D07A2D33D016E038E0E1682F46DE
:1007000020468847B842054609D16C2F26D04FF4C1
:100710008060E168064320468847054604E06C2F68
:100720001AD04FF4807006430DB3A5F1410019288B
:1007300002D8203546F400664A46294620462660FF
:100740004E46FFF78DFD80B101280BD0F61D26F037
:10075000070000F1080956E74020E4E78020D8E7C9
:100760000020D6E706F104094DE7284652E7206A43
:10077000BDE8F09F48B900000FB400B58DB010A9D6
:10078000099000910B904FF0FF300A9000200C90E0
:10079000064878440690064878446A4607900F99C0
:1007A00009A800F0DDFE0DB05DF814FBEB0D0000B4
:1007B000030E00002DE9FF5F1D464FF0FF3B914601
:1007C0004FF000085F46D5E90146A96901987F1CF2
:1007D0008847296A824688470028F6D1BAF1FF3F48
:1007E0000CD0002E24F4C06419DD600614D5BAF1D3
:1007F0002B0F09D0BAF12D0F0ED103E0584604B0EB
:10080000BDE8F09F44F48064A96901987F1C884783
:10081000761E8246002E02DDBAF1300F03D0B9F108
:10082000000F26D032E0A969761E01987F1C44F49F
:1008300000748847002E824605DDBAF1780F06D095
:10084000BAF1580F03D0B9F1000F10D01EE0B9F182
:10085000000F02D0B9F1100F18D1A969761E0198C6
:100860007F1C24F4007488478246102002E0082090
:1008700000E00A20814609E0A96908FB0908761E04
:1008800001987F1C44F4007488478246002E05DDE1
:100890004946504600F050FE0028EDDAE96901981B
:1008A0008847A00502D46FF00100A8E7E00725D132
:1008B000600613D5600502D5C8F1000000E040468F
:1008C00029680A1D2A600968220501D5087015E00B
:1008D000220701D5088011E008600FE02868011D9B
:1008E00029600068210502D580F8008006E0210714
:1008F00002D5A0F8008001E0C0F8008038467EE70D
:10090000401ECAB210F8011F8A4202D00029F9D154
:100910000020704740EA010310B59B070FD1042A5D
:100920000DD310C808C9121F9C42F8D020BA19BABA
:10093000884201D9012010BD4FF0FF3010BD1AB11F
:10094000D30703D0521C07E0002010BD10F8013B74
:1009500011F8014B1B1B07D110F8013B11F8014B9B
:100960001B1B01D1921EF1D1184610BD40EA0103B4
:10097000024630B59B0710D14FF0013400E008C2A9
:1009800008C91D1B9D4315EAC41FF8D013F0FF01D1
:1009900002F8011B0DD01B0AF8E711F8013B002BF0
:1009A00002F8013B05D011F8013B002B02F8013B96
:1009B000F3D130BD10B5431C02E010F8011B71B13A
:1009C0008107FAD14FF0013202C88C1A8C4314EA25
:1009D000C211F9D0C01A0A0603D0C01E10BDC01A39
:1009E00010BD0A0401D0801E10BD0902FCD0401EBB
:1009F00010BD40EA010370B59B072ED14FF00136C0
:100A0000042A2AD308C810C99D1B9D43121F15EA4A
:100A1000C61517D0D8B2E1B2401A50EA056110D11C
:100A200098B2A1B2401A50EA05410AD123F07F40A2
:100A300024F07F41401A50EA052102D1180EA0EBA4
:100A4000146070BDA342DBD018BA21BA884201D924
:100A5000012070BD4FF0FF3070BD0AB9002070BD9D
:100A600010F8013B11F8014B63B1A3420AD1521EA9
:100A700008D010F8013B11F8014B1BB1A34201D182
:100A8000521EEDD1181B70BD032A40F2308010F0C9
:100A9000030C00F0158011F8013BBCF1020F624419
:100AA00098BF11F801CB00F8013B38BF11F8013BAA
:100AB000A2F1040298BF00F801CB38BF00F8013B57
:100AC00011F0030300F02580083AC0F0088051F8C7
:100AD000043B083A51F804CBA0E80810F5E7121DD2
:100AE0005CBF51F8043B40F8043BAFF30080D207F1
:100AF00024BF11F8013B11F801CB48BF11F8012BBD
:100B000024BF00F8013B00F801CB48BF00F8012BDF
:100B1000704710B5203AC0F00B80B1E81850203A69
:100B2000A0E81850B1E81850A0E81850BFF4F5AF8D
:100B30005FEA027C24BFB1E81850A0E8185044BF17
:100B400018C918C0BDE810405FEA827C24BF51F884
:100B5000043B40F8043B08BF7047D20728BF31F878
:100B6000023B48BF11F8012B28BF20F8023B48BFC9
:100B700000F8012B70474FF000020429C0F01280EA
:100B800010F0030C00F01B80CCF1040CBCF1020F40
:100B900018BF00F8012BA8BF20F8022BA1EB0C0115
:100BA00000F00DB85FEAC17C24BF00F8012B00F80B
:100BB000012B48BF00F8012B70474FF0000200B531
:100BC000134694469646203922BFA0E80C50A0E870
:100BD0000C50B1F12001BFF4F7AF090728BFA0E81E
:100BE0000C5048BF0CC05DF804EB890028BF40F8EA
:100BF000042B08BF704748BF20F8022B11F0804F2C
:100C000018BF00F8012B704710B5044610F0030F11
:100C100008BF11F0030F40F015804FF0013E121F86
:100C2000C0F20E8051F8043BA3EB0E0C2CEA030C2F
:100C30001CEACE1C08BF40F8043BF0D0A1F104012F
:100C400002F10402521E08DB11F8013B002B00F8F0
:100C5000013BF7D11146FFF78EFF204610BD000083
:100C60004FF0013C50F8042B51F8043B9A4221D13B
:100C7000A2EB0C03934313EACC1317D150F8042BC7
:100C800051F8043B9A4215D1A2EB0C03934313EAAB
:100C9000CC130BD150F8042B51F8043B9A4209D1E4
:100CA000A2EB0C03934313EACC13DBD04FF000000C
:100CB000704700BFD01A01BAB1FA81F101F01801F2
:100CC00022FA01F0CB40C1F12001DBB2C0B2C01A60
:100CD0002CFA01F3D11A914311EAC311E6D17047FE
:100CE000704770477047000070B5064C7C44064D55
:100CF0007D4403E0206820448047241DAC42F9D1A4
:100D000070BD000080B4000080B4000053EA020C03
:100D100000F069802DE9F04B4FF00006002B1FBF5B
:100D2000B3FA83F503FA05F424FA05F65E4012BF20
:100D30001643B2FA82F502FA05F4C5F120051EBF8A
:100D400022FA05FC44EA0C04203556EA044C4FEA2A
:100D5000144418BF641C4FF000084FF00009904283
:100D600071EB030C39D3002919BFB1FA81F701FAED
:100D700007F6B0FA80F700FA07F6C7F120071EBFA2
:100D800020FA07FC46EA0C062037B6FBF4FCA7EB7A
:100D90000507103F07F01F0BCBF120060CFA0BFBE9
:100DA0002CFA06F644BFB3460026202FA4BF5E46A9
:100DB0004FF0000B5BEA060C08BF4FF0010B19EB7C
:100DC0000B09ABFB027C48EB0608C01B06FB02CC00
:100DD0000BFB03CC71EB0C01C1E70B46024641460D
:100DE0004846BDE8F08B13B54FF000004FF000010E
:100DF000AFF30080BDE81C40704709684A0501D583
:100E000040B27047C905FCD500B2704709684A0571
:100E100001D5C0B27047C905FCD580B270472DE935
:100E2000F0470D4699469246044600F124080168B1
:100E3000880604D5E06921F01001216000E001205E
:100E4000A84201DD471B00E00027A1697A1902EBE7
:100E50000900081AA0612078C00602D42046FFF7D6
:100E6000F1FA002608E0D4E901211AF806009047BB
:100E7000206A401C761C20624E45F4DB2078C006B8
:100E80000AD52046FFF7DEFA06E0D4E9012130203A
:100E90009047206A401C2062381EA7F10107F4DC4D
:100EA00007E0D4E9012118F805009047206A401CAA
:100EB0002062281EA5F10105F3DC2046FFF7D8FAD1
:100EC0002078000602D50220BDE8F0870120FBE76C
:100ED00011680268006A530501D508700AE0D3055D
:100EE00001D5088006E0130603D5C217C1E9000248
:100EF00000E008600120704770472DE9FF4F0C4665
:100F00001E464FF0FF378BB0D2E90001DDF860805C
:100F10000A908A46C1F30A5505B93D4600210846A4
:100F20004FF00000BAF1000F00F4400005DA00EBCA
:100F300080004FF4400101EA50004FEA9059B9F1A6
:100F4000010F00DDB9460A9850EA4A000ED044F677
:100F50001050A5F2FF3545432F14B8F1000F1ED0F5
:100F60007542291E1EDDC9F100021CE0B8F1010F17
:100F70004FF0000001D0302103E0F24305E021549E
:100F8000401CB042FBDB30460022002121540B996B
:100F9000C1F80880C1E900200FB0BDE8F08FBD1B8B
:100FA0006D1CDEE74A4600DA694206A800F0E8FE5A
:100FB00006AB93E8070003AB83E8070050460A99A5
:100FC00000F0B2FF8DE80700A0F500501F38009038
:100FD0000398002D0ADD42F21F014A46084400230F
:100FE00003A90390684601F01BFA09E0A0F5005040
:100FF0004A461F38002303A90390684601F025FAEA
:101000008DE807000004000C03D04FF0FF304108CA
:1010100000E01046B8F1000F03D000220092154600
:101020001EE0751E05D400F0CFFA303262556D1EF9
:10103000F9D5B3460122084302D000227F1C04E008
:101040002078302801D100227F1E002A099784D001
:101050001DE0112D07DA00F0B7FA303262556D1C31
:1010600050EA0102F5D1084302D00098C8B10EE061
:101070000021681E05E0235C625C63542254401E1C
:10108000491C8142F7DBAB46A81B401E099000209B
:1010900004F80B000B98099AC0F80880C0E9002BEF
:1010A0007AE711264FF0000857E72DE9F04F884600
:1010B0000446D21D22F0070191B0D1E90001CDE92B
:1010C0000A0101F010FE02460B98C00F01D02D203E
:1010D00007E02068810701D52B2002E0202101EAEA
:1010E000C000032A099001D0072A05DB03464146C8
:1010F000204600F035FC0BE12078800601D5E06940
:1011000000E00620B8F1650F814606D0B8F1660F01
:1011100018D0B8F1670F70D131E00020B9F1110F8C
:10112000009001DB112301E009F101030AAA01A9E2
:101130000CA8FFF7E2FEDDE90C70002609F10105BD
:10114000834647E001204B4600904FF000470AAA33
:1011500001A90CA8FFF7D1FEDDE90DB00C995D46A1
:10116000002610B909F101000D18B9EB050003D4F0
:10117000C0F1FF3609F10105A5EB09002BE0B9F13B
:10118000010F01DA4FF001090020B9F1110F0090B1
:10119000484601DD112300E003460AAA01A90CA874
:1011A000FFF7ABFEDDE90C704D4600268346207844
:1011B00000070AD4AB4500DA5D4601A8012D04DD25
:1011C000411911F8011C302907D04F4502DA17F1F7
:1011D000040F04DA012082460FE06D1EEEE7002FB7
:1011E00002DCED1B3E4403E0781CA84200DD7D1CC0
:1011F000B81B00F1010A4FF000472078000703D424
:10120000AA4501DB4FF0FF3A0021B7F1004F0DF185
:1012100043088DF8431024D002202B23002F01DA3D
:101220007F422D230A21021EA0F1010000DC5FB1E4
:1012300097FBF1FC97FBF1F201FB1C7C17460CF1CC
:10124000300C08F801CDEEE7A8F101000370218809
:10125000090501D5452100E06521A0F1010800F84C
:10126000011C09980FA9A1EB0807FF1D00B101207F
:10127000411901EBEA70A1693844081A401EA061C7
:101280002078C00602D42046FFF7DCF8099828B180
:10129000D4E901219047206A401C20622078C006D2
:1012A00022D52046FFF7CEF81EE0002E04DBB34522
:1012B00002DD01A8805D00E03020D4E901219047E3
:1012C000206A401C2062761CAAF101005FEA000A35
:1012D0000AD100F075F9C0680168405CD4E90121C9
:1012E0009047206A401C2062281EA5F10105DCDC25
:1012F00007E0D4E9012118F8010B9047206A401C4F
:101300002062381EA7F10107F3DC2046FFF7B0F892
:10131000032011B041E6000001694A1C026108780F
:10132000704700B58FB0CDE9013100210591054925
:101330007944CDE9031011466846FFF759F90FB01B
:1013400000BD0000E5FFFFFF0A6802F8010B0A601C
:101350007047D1E900239A4202D2531C0B601070EF
:10136000704710B5436913B1AFF3008001E0FFF798
:1013700090F8012010BD127800F124010A700022BB
:101380004A700122EDE711684FF0FF32E9E70000F3
:101390002DE9FF5F15468A460446DFF8AC80F84425
:1013A0000027D8E900103E46CDE9001010E03AF8D9
:1013B00016106A4602A800F055FD411C07D021789E
:1013C000890603D5E269391891420DD80744761C85
:1013D0002078800602D5E069B84205DDAE42E6DB42
:1013E0003AF816000028E2D1A069C01BA06120468F
:1013F000FFF728F8D8E90010CDE90010002017E029
:101400003AF818106A4602A800F02CFDB0F1FF3F30
:1014100081460BD000250DF1080B05E0D4E9012130
:101420001BF8050090476D1C4D45F7D308F10100EE
:10143000B0428046E4DB206A384420622046FFF751
:1014400017F8BDE8FF9F0000BEAB00002DE9F0419A
:101450008046D21D22F007020025D2E90002F529BC
:1014600015A614D0011E72F1000106DA0023D0EB9C
:10147000030063EB020211A608E0D8F800108B0706
:1014800001D50FA602E0490701D50EA60125114698
:10149000002408F1240704E000F096F830323A55B1
:1014A000641C50EA0102F7D12B46324621464046E1
:1014B000BDE8F041FFF7B3BC000000002D000000C4
:1014C0002B0000002000000030B4002100F12404B3
:1014D00008E002F00705D208303542EA4372DB0823
:1014E0006554491C52EA0305F3D10468002310A295
:1014F000250707D5A40600D421B1C46901230DA294
:10150000641EC46130BCFFF78ABC10B50446214696
:101510001068FFF77BFC02462046BDE81040002320
:10152000D2E7D21D22F00701D1E90023CCE7000069
:1015300000000000300000003A2800D2303820F0CF
:101540002002412A01D3A2F13700884201D34FF093
:10155000FF307047026811441378016018467047E5
:10156000D1600549794451610449794411620021EF
:101570001161114600F04ABAEDFFFFFFE5000000DF
:10158000426842B1016811F8013B23B1521EC0E923
:101590000012184670470121C160881E70474268DA
:1015A0005AB1C368016843B983688B4205D0491EAC
:1015B000521CC0E90012002070474FF0FF30704706
:1015C000004870476411002030B5B0F10A024FEABC
:1015D000900E71F100034EEA817EB0EB0E0061EBDC
:1015E00091014FEA101E4EEA017E10EB0E0041EB16
:1015F00011114FEA102E4EEA016E10EB0E0041EB76
:1016000011214FEA104E4EEA014E10EB0E0041EB55
:101610001141401841F100014FEAD00040EA417009
:101620004FEAD10110EB80054FEA810444EA90743F
:1016300044EB01046D1944EB0404521BA3414FF029
:10164000000348BF0A3200D530BD401C41F1000103
:1016500030BD10B5044600F04FFC0068005D00F09E
:10166000010010BD2DE9F04F04460D46D21D22F0B9
:10167000070089B0D0E900974846394601F033FBAE
:101680000246F80F01D02D2307E02068810701D51D
:101690002B2302E0202101EAC0038DF820300BB19A
:1016A000012000E00020032A824601D0072A04DB43
:1016B0002946204600F054F93FE12078800601D405
:1016C0000D2500E0E569C7F30A560D2D49DA002122
:1016D0004FEA175B08464FF00000002F00F440006F
:1016E00007DA00EB80004FF4400100EBD07001EA14
:1016F00060008115012901DD4FF0FF3100224FEA22
:10170000850CBCF1180F06D31346ACF118004FF04E
:101710008052C24003E04FF4801323FA0CF30CF123
:101720000C0CBCF1200F04D3ACF1200C09FA0CF026
:1017300001E007FA0CF000294FF0004801DD18B96C
:101740000FE00ED140450CD319EB02095F4121B9DE
:10175000404502D19F4329EA0209BBEB175F00D045
:10176000761C2088000502D57B48784402E07A4840
:101770007844193808AA302302F80A30037C0AF1A9
:101780000101002E0AF1020A53546A4602DC4FF0AE
:10179000300101E04FF031014FF001088DF80010E9
:1017A00002D0A6F2FF3603E059EA470100D06B4EA3
:1017B000002D02DC2178090704D54FF002082E2104
:1017C0008DF80110C44600210BE0C7F303433F012D
:1017D000C35C491C6D1E02F80830052908F1010898
:1017E00001DA002DF1DC00210CE000EB1973491C3B
:1017F0001B786D1E082902F808304FEA091908F114
:10180000010801DA002DF0DC21688B0602D516E014
:10181000A8F10108E04505DD02EB080313F8013CDF
:10182000302BF5D0B8F1000F09DD02EB080313F8F7
:10183000013C2E2B03D1090701D4A8F10108002D8A
:1018400005DD3E2102F808106D1E08F10108407CFC
:10185000002E02F8080008F1010804DA2D20764273
:1018600002F8080002E02B2002F808000A214FF4D9
:101870007A70864208F101080BDB96FBF0F33033F7
:1018800002F8083096FBF0F308F1010800FB13663C
:1018900001E0642E0CDB642096FBF0F3303302F899
:1018A000083096FBF0F308F1010800FB136601E035
:1018B0000A2E06DB96FBF1F0303002F8080008F142
:1018C000010896FBF1F001FB1060303002F80800CF
:1018D000A16908F1010808EB050202EB0A00081AE9
:1018E000A0612078C00602D42046FEF7ABFD216A35
:1018F00008AE01EB0A00206204E0D4E9012116F8E9
:10190000010B9047BAF1010AF7D22078C00602D540
:101910002046FEF797FD6E4609E016F8010B3E28BB
:101920000FD0D4E901219047206A401C2062B8F111
:101930000108F2D22046FEF79BFD09B00320BDE866
:10194000F08F206A2844206203E0D4E9012130208E
:1019500090476D1EEBD3F8E70DA8000002FCFFFFD7
:101960002DE9F0411F46044603260168072A01F4C9
:10197000006004DB08B116A505E016A503E008B178
:1019800015A500E015A521F010002060A069C01E7B
:10199000A0610FB1401EA0612046FEF753FD4FB17C
:1019A000D4E9012138469047206A401C2062C01CBF
:1019B000206206E0206AFAE7D4E9012115F8010B5C
:1019C0009047761EF8D22046FEF752FDBDE8F08122
:1019D0004E414E006E616E00494E4600696E6600D3
:1019E00010B5436913B1AFF3008001E0FFF7D0FCFD
:1019F000012010BD128800F1240182840022C284DB
:101A00000122EDE711684FF0FF32E9E72DE9F34FCE
:101A10004FF0000A0C4656468DB001200C9001F1A3
:101A20000C000B9062690B9801219047051E2DD088
:101A3000252D2CD0216A8847C0B162690B980121FD
:101A40009047216A88470028F7D16269411E0B98A8
:101A5000904700E0761CA1690D988847216A884765
:101A60000028F7D1E1690D988847DBE7A1690D9857
:101A70008847A842074601D1761CD3E7E1690D9853
:101A800088477F1C02D1BAF1000F6FD06BE1626909
:101A90000B9800273D46394690472A2804D16269B1
:101AA0000B98012190470125DFF8D08262690B98DD
:101AB00001219047A0F130010A290AD24745E5DC0F
:101AC00007EB870100EB4107303FDFD445F01005FD
:101AD000ECE7E90601D46FF000476C280AD04C28E7
:101AE00014D0682815D06A280DD074281CD07A2804
:101AF0001AD01DE062690B98012190476C2802D032
:101B000045F0040514E045F002050DE045F0200520
:101B10000AE062690B9801219047682802D045F0DD
:101B2000080505E045F4006562690B9801219047BE
:101B3000C4E9015765283DD019DC58287AD00CDC5F
:101B4000452837D004DC252826D041289ED131E015
:101B500046282FD0472899D12CE05B2877D06128E0
:101B600028D063287CD0642823D15AE0F6E06F287F
:101B700048D008DC66281DD067281BD0692821D0F2
:101B80006E2816D127E0702845D0732868D07528B4
:101B900047D078280DD14DE0A1690D9888472528B8
:101BA00005463FF469AFE1690D9888476D1C3FF425
:101BB0006AAFD8E00D9923466A466FF00100AFF393
:101BC0000080C5E045F0400023464FF00002606011
:101BD000A80736D43EE0E8077FF447AF2068011D30
:101BE00021600068290501D506701BE7290701D58A
:101BF000068017E7A90703D5F117C0E9006111E7CF
:101C000006600FE745F0400023464FF00802606091
:101C1000A80716D41EE040F60E0125EA0100606018
:101C200016E045F0400023464FF00A026060A80726
:101C300007D40FE045F040006060A80708D52346B0
:101C400010220D996FF00100AFF3008080E007E0F3
:101C5000102223460D996FF00100FEF7ABFD77E0EF
:101C60004FF0000963284F46C8464B46CB4602D08A
:101C70005B2806D038E0E80601D40120A0600127E7
:101C800032E06269D4F80CB00B98012190475E28CD
:101C900007D14FF0010949466269D4F80CB00B989E
:101CA0009047216939B900210A4603AB43F8212046
:101CB000491C0829FADBD8B3216949B308F10108A6
:101CC00062690B98012190475D28F4D1B9F1000FAA
:101CD00009D0002003A951F82020D24341F8202048
:101CE000401C0828F7DB03AB2069002820794FEA65
:101CF00040701ED05B462246CDF80080CDE90197AA
:101D00000D9900286FF0010020DAAFF300801FE08A
:101D1000C11703AA00EBD1614B1121F01F0102EBA7
:101D20008302411A13680120884003431360C7E708
:101D300019E00D99224600286FF00100009702DAA1
:101D4000AFF3008004E0AFF3008001E0AFF3008068
:101D500000280ADA401C06D10C9820B14FF0FF3061
:101D60000FB0BDE8F08F5046FAE7E90701D10AF15C
:101D7000010A064400200C9054E60000CCCCCC0CA8
:101D80002DE9F047814616468AB0354878440DC89B
:101D90008DE80D0032487844801C03AC0DC884E8FF
:101DA0000D0041F69B300844372190FBF1F290FB87
:101DB000F1F5A5F1800501FB12041B3C02D564423C
:101DC000012000E00020DFF898A080460027FA44B8
:101DD000AAF1BE0A0EE0E0070AD03246684607EBD9
:101DE000470101230AEB810100F02FFB8DE807007A
:101DF00064107F1C002CEED1194F7F44AE3F19E0D8
:101E0000E80715D007EB04100DF1180A90E80E0052
:101E10008AE80E00C068F04201D198190890324655
:101E2000012306A903A800F010FB03AB83E8070019
:101E30006D10641C002DE3D14FF00103324669465A
:101E4000B8F1000F03A802D000F0EAFA01E000F0B8
:101E5000FCFAC9E90001C9F808200AB0BDE8F0871A
:101E60007CA2000070B516460C46054600F044F80A
:101E7000036893F80101012806D0FF2C0FD8185DE4
:101E800068B101202C7070BDD3F80701324621469D
:101E900003F2071303442846BDE8704018474FF08B
:101EA000FF3070BD00487047441100207546FFF7B1
:101EB000F9FFAE4605006946534620F00700854607
:101EC00018B020B5FEF748FABDE820404FF00006F4
:101ED0004FF000074FF000084FF0000B21F0070112
:101EE000AC46ACE8C009ACE8C009ACE8C009ACE855
:101EF000C0098D467047000010B5FFF761FB001D5B
:101F000010BD00BFA992000010B50446AFF30080D9
:101F10002046BDE81040FEF70ABA70470149182074
:101F2000ABBEFEE7260002005FEA400C08BF91F05E
:101F3000000F4FEA8C234FEAC12243EA51514FEA86
:101F40001C5018BF00F5F0404FEA300018BF41F0B8
:101F500000415FEA6C5C00F02980BCF1FF3F08BFE4
:101F600040F080407047130C06BF12044FF0100C75
:101F70004FF0000C130E04BF12020CF1080C130FEB
:101F800004BF12010CF1040C930F04BF92000CF17A
:101F9000020CD30F04BF52000CF1010C11464FF09C
:101FA0000002A0F11F00A0EB0C00704711F0004FE1
:101FB00008BF704731F000413FF4D5AF0B0C06BFAE
:101FC00009044FF0100C4FF0000C0B0E04BF090277
:101FD0000CF1080C0B0F04BF09010CF1040C8B0F62
:101FE00004BF89000CF1020CCB0F04BF49000CF1B7
:101FF000010CCCF12003A0EB0C0022FA03F302FA4F
:102000000CF241EA030100F10100704720F07F4C1F
:1020100080EA030023F07F47ACEB070303F57C5312
:1020200000F0004003F1FF032DE980494FEA154B12
:1020300009B44FEA144325EA0B4E24EA03480FF291
:10204000042606EB132749083E785FEA320203FBB9
:102050000667C7F5000707FB06F64FEA54374FEA55
:10206000D64606F1020607FB066CCCF1005C4FEA8F
:102070001C472CEA074C07FB06F40CFB06F504EBA7
:1020800015464FEA961634BF00204FF000404FEA45
:10209000D13706FB07FC4FEA1C4C0CFB0BF7D21B9D
:1020A00003FB0CF761EB07010CFB0EF7B0EB0740ED
:1020B00072EB17420CFB08F734BFA2EB0742B2EBFE
:1020C000074261EB17414FEA0C444FEA910706FBC8
:1020D00007FC4FEA1C4C0CFB0BF7B0EBC74072EB54
:1020E000573203FB0CF734BFA2EBC742B2EBC74237
:1020F00061EB57310CFB0EF7B0EBC70072EB577278
:102100000CFB08F734BFA2EBC702B2EBC70261EBCE
:102110005771039F4FEA816141EA921104EBCC04AD
:102120004FEAD1374FEA826206FB07FC42EA90127F
:102130004FEA80604FEA1C4C0CFB0BF7D21B03FBF1
:102140000CF761EB07010CFB0EF7B0EB074072EBED
:1021500017420CFB08F734BFA2EB0742B2EB074271
:1021600061EB17414FEA8C554FEA910704EB9C2431
:1021700006FB07FC4FEA1C4C0CFB0BF7B0EBC7400F
:1021800072EB573203FB0CF734BFA2EBC742B2EB42
:10219000C74261EB57310CFB0EF7B0EBC70072EB97
:1021A00057720CFB08F734BFA2EBC702B2EBC702B1
:1021B00061EB577115EB4C254FEA816141EA9211B1
:1021C0004FEA82624FEAD13742EA901206FB07FCDF
:1021D00044F100044FEA80604FEA1C4C0CFB0BF703
:1021E000D21B03FB0CF761EB07010CFB0EF7B0EB06
:1021F000074072EB17420CFB08F734BFA2EB074213
:10220000B2EB074261EB174115EB1C154FEA813128
:1022100041EA92414FEA823242EA90424FEA8030EC
:102220004FEA0C7644F1000448EA03434EEA0B48B7
:102230004FF0000EB2EB080C71EB030724BF6246AF
:1022400039464EEB0E0E4FF0000B0018524149413B
:102250004BEB0B0BB2EB080C71EB03077BF1000BA4
:1022600024BF624639464EEB0E0E4FF0000B0018AD
:10227000524149414BEB0B0BB2EB080C71EB0307DE
:102280007BF1000B24BF624639464EEB0E0E51EA3D
:10229000020718BF46F0010616EB0E7655F1000254
:1022A00054F1000103D5BDE88901BDE80088BDE80F
:1022B0008901BDE80048B619524141EB0101A3F183
:1022C0000103704780807F7E7D7C7B7A797877768A
:1022D00076757473727171706F6E6E6D6C6C6B6A03
:1022E0006A696868676666656464636362616160A1
:1022F000605F5F5E5E5D5D5C5C5B5B5A5A5959581E
:102300005857575656555555545453535252525187
:10231000515050504F4F4F4E4E4D4D4D4C4C4C4BDD
:102320004B4B4A4A4A494949484848474747474624
:102330004646454545444444444343434342424260
:1023400042414141002B9C4630D477002BD01CB534
:102350004FEA370703B44FF010004FF01001BAF105
:10236000000F06D0BCF1000FDCBF40F0080040F0C9
:1023700008014FF000000FBCBDE810400BF1010B4D
:10238000BBF1010F08BF5FEA170722BF12F101027C
:1023900011F101014FF0004143F1000300F0004052
:1023A00043EA00007047F9D35708D0E746EA0646EB
:1023B00013F1400F4FEA16461FDD13F1200FDFBF68
:1023C00016430A46002120335B42BED0C3F12007EA
:1023D00046EA064602FA07F74FEA164646EA0706B5
:1023E000C3F1200722FA03F201FA07F721FA03F1F9
:1023F0004FF0000342EA0702A7E746EA020646EA70
:1024000006464FEA164646EA0106BCBF46EA0646BD
:10241000360C4FF000034FF000024FF0000194E73C
:102420002DE9804C9A46934670B491E8380007C86D
:1024300031EA400C48BF34EA430C03D5FFF7E6FD10
:10244000FFF780FFF0BCBDE8008C2DE9804C9A4678
:10245000934670B491E8380007C810F0804F08BF69
:1024600013F0804F03D100F005F8FFF76BFFF0BCCD
:10247000BDE8008C20F07F4780EA030023F07F4C0A
:1024800007EB0C03A3F57C5300F00040A3F1FE031F
:1024900092F0000F00F0B38095F0000F00F077800D
:1024A0002DE901494FEA11404FEA144621EA00485C
:1024B00000FB06FC24EA064708FB06F607FB08F8C3
:1024C00000FB07F718EB06484CEB164C4FEA124B93
:1024D00018EB07484FEA15464CEB174022EA0B4E23
:1024E0000BFB06FC25EA06470EFB06F607FB0EFE75
:1024F0000BFB07F71EEB064E4CEB164C4FF000069D
:102500001EEB074E4CEB174B18EB0B0840F100008D
:1025100018EB0E0B58EB000840F100008F1A4FF03B
:1025200000013CBFC943661B14BFB5EB040C00217E
:102530003CBFC943F61B4FEA17444EEA8E0E27EA0A
:1025400004454FEA1C4704FB07622CEA074C05FBD5
:1025500007F70CFB05F604FB0CFC16EB074642EBF9
:10256000174216EB0C4642EB1C421BEB060658EBDF
:102570000202414146EA9E0601D5BDE80189B6192D
:10258000524141EB0101A3F10103BDE801894FEA8A
:1025900014454FEA114724EA054621EA074C05FB9A
:1025A00007F406FB07F70CFB06F105FB0CFC11EB2F
:1025B000074144EB17444FEA124711EB0C4144EB3F
:1025C0001C4422EA074C05FB07F206FB07F70CFB4D
:1025D00006F605FB0CFC16EB074642EB174216EB22
:1025E0000C4642EB1C456A1854F1000148BF704785
:1025F000B619524141EB0101A3F10103704795F077
:10260000000F37D04FEA11424FEA144721EA024641
:1026100024EA074C02FB07F106FB07F70CFB06F464
:1026200002FB0CFC14EB074441EB17414FEA154742
:1026300014EB0C4441EB1C4125EA074C02FB07F567
:1026400006FB07F70CFB06F602FB0CFC16EB074635
:1026500045EB174516EB0C4645EB1C42121951F1A0
:10266000000148BF7047B619524141EB0101A3F187
:10267000010370474FEA14454FEA114724EA054623
:1026800021EA074C05FB07F106FB07F70CFB06F2F6
:102690004FF0000605FB0CFC12EB074241EB174123
:1026A00012EB0C4251EB1C4148BF7047921841EBB2
:1026B0000101A3F101037047FEE7FEE7FEE700001A
:1026C00070B53D4800683C48083800683A48001F2B
:1026D0000068394E4FF440740C3E2346002201211D
:1026E000304603F0F0FF234602220021304604F07A
:1026F0000EF82146304603F0A1FF0A2002F016FA38
:102700000024B5152946304603F096FF052002F057
:102710000DFA2946304603F091FF052002F006FA33
:10272000641CE4B2092CEDD32946304603F086FF41
:102730004FF400742146304603F07EFF052002F07E
:10274000F5F92146304603F079FF052002F0EEF955
:10275000234601220221304603F0B5FF2346022220
:102760000121304603F0D3FF2B46012202213046DF
:1027700003F0A9FF2B4602220121304603F0C7FFD8
:102780000E4C204604F098F800220D49204604F033
:1027900031F8002272231146204604F0EBF820465F
:1027A00004F0BCF82115204604F01EF8BDE8704086
:1027B0000A2002F0BBB900000C04024000540040A3
:1027C000801A0600FEE7FEE770B5002505F1B000AF
:1027D000C0B200F09DF8002000F09AF8102000F040
:1027E00097F80024002000F01DF9641CE4B2802C4E
:1027F000F8D36D1CEDB2042DE8D370BD70B5642024
:1028000002F094F90024084D285D00F081F8641C62
:10281000E4B2162CF8D3FFF7D7FFBDE870400021D3
:10282000084600F003B800001C00002010B5044664
:10283000B031C8B200F06CF8102040EA141000F07B
:1028400067F804F00F00BDE8104000F061B8000028
:102850002DE9F04180460F460024203AD5B2B8F168
:102860007F0F02D9A0467F1CFFB2102B11D0394632
:102870004046FFF7DBFF164905EB450001EB40053D
:10288000285D00F0CFF8641CE4B2062CF8D3BDE854
:10289000F08139464046FFF7C9FF0E4E04EB0510A4
:1028A000305C00F0BFF8641CE4B2082CF6D37F1C47
:1028B000F9B24046FFF7BAFF002404EB051030449C
:1028C000007A00F0AFF8641CE4B2082CF5D3DEE720
:1028D000D8B2000800B500082DE9F04104460E46C4
:1028E0001746984600250DE0434631462046FFF73F
:1028F000AFFF0834E4B2782C02D90024B61CF6B23B
:102900006D1CEDB27A5D002AEED1BDE8F0810000C9
:102910002DE9F041404900220A70487042F21074DB
:1029200025463E4E40F201673946304604F00CF829
:1029300028B1FFF7C5FE02E0012002F0F7F83946A2
:10294000304604F001F808B16D1EF5D175B9FFF7F6
:10295000B7FE02E0012002F0E9F83946304603F004
:10296000F3FF08B1641EF5D1002C53D0304604F0BB
:102970000CF84FF4A0642146304603F0E5FF002830
:10298000F9D06FF001027821304603F0EAFF40F2FF
:1029900001542146304603F0D7FF0028F9D02146E4
:1029A000304603F0C0FF40F207542146304603F0A2
:1029B000CBFF0028F9D01A4C174B002206212046E5
:1029C00002F0CCFB02220621204602F01FFDE1149A
:1029D000304603F09DFF0621204602F021FB202215
:1029E0000621204602F089FB0028F8D0202206218B
:1029F000204602F067FB0621204602F008FB344621
:102A00000021204603F084FF204603F0C3FF216825
:102A10008905FCD4BDE8F08104000020005400408A
:102A2000006002402DE9F041404940220A704870A0
:102A300042F2107425463E4E40F201673946304658
:102A400003F082FF28B1FFF73BFE02E0012002F015
:102A50006DF83946304603F077FF08B16D1EF5D1A9
:102A600075B9FFF72DFE02E0012002F05FF839464C
:102A7000304603F069FF08B1641EF5D1002C53D035
:102A8000304603F082FF4FF4A0642146304603F045
:102A90005BFF0028F9D06FF001027821304603F087
:102AA00060FF40F201542146304603F04DFF0028FC
:102AB000F9D02146304603F036FF40F20754214654
:102AC000304603F041FF0028F9D01A4C174B002282
:102AD0000621204602F042FB02220621204602F097
:102AE00095FCE114304603F013FF0621204602F066
:102AF00097FA20220621204602F0FFFA0028F8D09B
:102B000020220621204602F0DDFA0621204602F0AE
:102B10007EFA34460021204603F0FAFE204603F0F8
:102B200039FF21688905FCD4BDE8F0810800002048
:102B30000054004000600240FEE706F0AFBAFEE736
:102B400001F0EABF7CB54448016841F470010160BE
:102B5000424D286840F00100286028688007FCD5B5
:102B60003E4C083420680026C0F38100022857D16B
:102B7000019602E00198401C019001985028F9D379
:102B800020680090009820F0F0000090009840F03D
:102B90008000009000982060019602E00198401C9F
:102BA000019001985028F9D320680090009820F0F7
:102BB000F0000090009840F0900000900098206095
:102BC000019602E00198401C019001985028F9D329
:102BD00020680090009820F0F0000090009840F0ED
:102BE000A000009000982060019602E00198401C2F
:102BF000019001985028F9D320680090009820F0A7
:102C0000F0000090009840F0B00000900098206024
:102C1000019602E00198401C019001985028F9D3D8
:102C2000C82000F093F8206820F003002060286896
:102C30000B4908402860286820F48020286026601E
:102C4000206806490748091D086004480C300660E2
:102C5000BDE87C4007F096BA88ED00E000380240FD
:102C6000FFFFF6FE1030002470B5194C17492046BE
:102C700008F084F9002828D0204608F0E1F8154D26
:102C80000221284602F0C8FB024613491348FDF70B
:102C9000FBFE641521461048FDF76DFF104B012027
:102CA00018700221284602F0B2F92022022128469B
:102CB00002F008FA22460221284602F0A7FB284625
:102CC000BDE87040022102F0ABB970BD04030400FE
:102CD0000010014000640240080200207804002037
:102CE00078010020FEE703B401984100009850EA03
:102CF000C12018BF04204A0D18BF40F0010040F267
:102D0000FF72B2EB515F08BF40F00200012808BF1C
:102D1000052002B070470907090E002804DB00F106
:102D2000E02080F80014704700F00F0000F1E02070
:102D300080F8141D7047012003F032BE7047303810
:102D40000A2801D2012070470020704708B50021F1
:102D5000009100EB800002E00099491C009100996D
:102D6000B1EB400FF8D308BD816841F008018160E4
:102D700081680907FCD4816841F0040181608168A1
:102D80004907FCD47047521E01290FD002290CD1EB
:102D9000032A0AD8816B21F440118163816B4FF4BF
:102DA000401303EA02521143816370470F2AFCD893
:102DB000C16A21F47001C162C16A4FF4700303EA71
:102DC00002521143C162704704490A6822F4E022AA
:102DD0000A600A6802430A60704700000423014049
:102DE000002904D0816841F40061816070478168E6
:102DF00021F4006181607047816841F480718160D5
:102E00007047816841F40071816070478168C9072B
:102E100003D1816841F001018160704701290AD026
:102E2000022907D1816821F440118160816841EA5B
:102E3000025181607047816821F040518160816852
:102E400041EA027181607047012909D0022906D147
:102E5000816821F47021816081681143816070472D
:102E6000816821F0706181608168114381607047E1
:102E700030B51F24062909D2456B01EB81018C4036
:102E8000A54302FA01F42C43446318E00C290AD24A
:102E9000056B891F01EB81018C40A54302FA01F407
:102EA0002C4304630BE0102909D2C56A0C3901EBED
:102EB00081018C40A54302FA01F42C43C46207252A
:102EC0000A2A08D2046902EB42018D40AC438B40D0
:102ED0002343036130BD122AFCD8C4680A3A02EBCE
:102EE00042018D40AC438B402343C36030BD012978
:102EF00006D0022903D1816841F4800181607047C6
:102F0000816841F0804181607047002A12D0CA0573
:102F100003D5426842F4807242604A0503D5426894
:102F200042F480624260890703D5816841F0020162
:102F300081607047CA0503D5426822F480724260FE
:102F40004A0503D5426822F4806242608907F0D5C1
:102F5000816821F0020181607047000004490A681D
:102F600022F01F020A600A6802430A6070470000EC
:102F700004230140024803490088088004F098B8FF
:102F80000C0000200A0000201CB505480549CDE9C9
:102F9000001000231A460721034802F06DFA1CBDF9
:102FA00075720008E57300086000002000F00F0152
:102FB000000900EB800001EB4000C0B2704700F058
:102FC0000F01000900EB800001EB4000C0B2704728
:102FD00070B500245B1E012505EB531507E051F881
:102FE000243052F82460334040F82430641CA54259
:102FF000F5D870BD10B501F01F040123A3404C09A2
:10300000002A50F8241003D0194340F8241010BDB2
:10301000994340F8241010BD521E012303EB5212B5
:103020009200FDF777BC4A0950F8220001F01F0119
:10303000C840C0F30000704770B500245B1E012536
:1030400005EB531507E051F8243052F82460334360
:1030500040F82430641CA542F5D870BD10B58AB084
:1030600040F6024004F072FE41F2081004F06EFED9
:1030700040F6164004F06AFE4FF44030FFF7A4FE1D
:10308000012300220321324803F01DFB314C0021B3
:10309000204601F0EBFF30490191012202922F49B5
:1030A000039100210491D3020593079108925004E3
:1030B000099001AA204602F0FFF80022114620469E
:1030C00001F0B7FF0021204601F0C7FF0021204694
:1030D00001F0A6FF0020FFF741FF1F4C01224C3CEE
:1030E00002212046FFF711FF012211022046FFF7BF
:1030F0000CFF00212046FFF773FE012211462046F7
:10310000FFF741FE01230A2200212046FFF7B0FE0F
:10311000002201212046FFF797FE002201212046D0
:10312000FFF77CFE2046FFF76CFE2046FFF764FEAB
:103130002046FFF76BFE012001F0E6FC2046FFF77A
:1031400013FE01212046FFF7D2FE0AB010BD000099
:1031500000080240006402404C2001400C000020A6
:1031600010B540F6014004F0F1FD40F6044004F0D3
:10317000EDFD4FF4406004F0E9FD4AF680230122A2
:103180000021084803F09FFA01231A46002106484F
:1031900003F099FA0123BDE810401A4600210348C4
:1031A00003F091BA00040240001002400000024007
:1031B00010B58AB04FF4406004F0C8FD40F61540E9
:1031C00004F0C4FD41F21D0004F0C0FD41F2040012
:1031D00004F0BCFD1023002203212D4803F073FAF4
:1031E0002C4C01220521204601F06CFF0422052110
:1031F000204601F067FF08220521204601F062FF0A
:1032000010220521204601F05DFF202205212046E5
:1032100001F058FF07220521204601F00AFF1E4950
:1032200001911E48039040200790012108910291CE
:1032300000210491420105924FF440320992069117
:1032400001AA0521204602F037F80521204601F0A9
:10325000E7FE114C083C204601F0F0FB002211462D
:10326000204601F027FC0021204601F015FC002239
:103270001146204601F033FC0021204601F0FEFB00
:103280000021204601F0ECFB07F0DCFB0AB010BD8A
:103290000000024000600240087400400A00002064
:1032A00030B587B040F6014004F050FD41F20E0009
:1032B00004F04CFD40F6154004F048FD1A4D4FF463
:1032C000604422460521284603F084F92346002263
:1032D0000221284603F0F7F923460222002128465E
:1032E00003F015FAAC14234600220121284603F00E
:1032F000EAF9234602220021284603F008FA0020BA
:1033000001904FF482710091029003210591E11028
:1033100003911021069104906946044806F012FEBC
:1033200006F0E8FC07B030BD000402400038004061
:1033300070B540F6034004F009FD094D4FF47C548C
:10334000012223461146284603F0BDF923460222F6
:103350000021284603F0DBF901482830046070BDE5
:10336000000C024070B58AB040F6014004F0EEFC5B
:1033700041F2150004F0EAFC40F6154004F0E6FCCA
:10338000304E4FF4007422460421304603F022F9F7
:1033900065102A460421304603F01CF92346012219
:1033A0000221304603F08FF92346022201213046E4
:1033B00003F0ADF92B4601220221304603F083F9D8
:1033C0002B4602220121304603F0A1F91F4C0022B6
:1033D0001D49204603F00EFA0022722311462046B2
:1033E00003F0C8FA204603F099FA2115204603F0AD
:1033F000FBF9174C0621204601F038FE01A801F028
:10340000A3FF4021079113490391002104910591E5
:10341000022108910D4910310191012102914FF4CF
:103420004030099001AA0621204601F045FF0621FF
:10343000204601F009FE01220621204601F0F9FD97
:103440000AB070BD00040240801A0600005400401B
:10345000006002400800002010B5002441F21C006A
:1034600004F074FC03F01CFE00F010F8054800683E
:103470000549C0F30120086100F024F804F01AFBAC
:10348000204610BD703802400800002010B54FF4EF
:10349000E054204604F0AEFB204604F0BBFB4FF4A2
:1034A000807004F083FC0648FF21C1607F218160A9
:1034B00041F60F4004F04AFCBDE8104004F0B4BDF2
:1034C0000800002010B500241148826811490A81C3
:1034D000C0684881252008700620C8700420487004
:1034E0003020887000200861C860232008715920AE
:1034F000487150208871084604F022FD28B1064921
:1035000043F2F0200860204610BD4FF0FF34FAE788
:1035100008000020080400205028004070B58AB040
:1035200040F6164004F012FC3B4C0221204601F00C
:103530009DFD00210791394A03920491A21508923A
:10354000374A01920120029005914FF440300990D2
:1035500001AA0221204601F0AFFE0221204601F01F
:1035600073FD04220221204601F063FD0221204662
:1035700001F056FD4FF4406004F0E8FB41F2041006
:1035800004F0E4FB274E641522460721304603F081
:1035900021F865002A460721304603F01BF8234630
:1035A00001220221304603F08EF823460222002138
:1035B000304603F0ACF82B4601220221304603F0DE
:1035C00082F82B4602220021304603F0A0F8144C6A
:1035D000241F204607F03CFC4FF4E131204607F061
:1035E000D3FB0421204607F0E2FC0821204607F027
:1035F000E4FC4021204607F09BFC204607F0A2FC9B
:1036000000221146252003F02DFC4FF44171204685
:1036100007F0AAFC0AB070BD006402400802002056
:10362000041001400000024010B502F087FFBDE821
:10363000104001F04BBF000010B504460A46607808
:10364000012304F1300101F09EFC08B1032010BDFC
:1036500094F82E0294F82F1240EA0120A0F52A4196
:10366000553901D0022010BD14F8660FE178627858
:1036700040EA0161A078663C000440EA0220014370
:103680000B48B0EB012F01D1002010BD14F8821FB0
:10369000E278637841EA0261A278120442EA0322E6
:1036A0001143B0EB012F01D1002010BD012010BD4E
:1036B0000046415470B503F051FC04460D4603F03A
:1036C000E7FC50B103F04AFC04460D4603F056FCFB
:1036D00004196941641C41F100052046294670BD6A
:1036E00000E0401C02780AB18A42FAD100787047A3
:1036F0002DE9F047154603681C78303C092C02D8A8
:103700005A783A2A04D000242CB10B20BDE8F08767
:103710009B1C0360F8E7AD4804680C6084B1207816
:1037200020B1607801F04EFCC1070BD0002738466D
:103730002770607001F0EFFBC1070AD00320E5E7B6
:103740000C20E3E71DB1400701D50A20DEE7002089
:10375000DCE71DB1400701D50A20D7E70026314636
:103760002046FFF769FF0146012912D104F5F770E1
:10377000027972B1017AC27A41EA0266817A407AAC
:10378000090441EA0020064331462046FFF754FF72
:103790000146032902D019B10D20B7E70120B5E792
:1037A00094F83B0094F83C1040EA0120B0F5007F0B
:1037B00001D00D20AAE794F8460094F8471040EA9B
:1037C000012058B914F8540FE178627840EA01609A
:1037D000A1780904543C41EA022108438146E06192
:1037E00094F84010E170012903D0022901D00D2086
:1037F0008CE7484394F83D20A27012B1531E1A4240
:1038000001D00D2082E794F8411094F8423041EA4B
:1038100003232381190701D00D2077E794F8431083
:1038200094F8445041EA052161B914F8501FE57835
:1038300094F801C041EA0561A5782D04503C45EAA1
:103840000C25294394F83E5094F83FC045EA0C28D3
:10385000B8F1000F07D008EB000505EB131C61451C
:1038600003D20D2052E70D2050E7A1EB0C01B1FB74
:10387000F2F131B3012540F6F672914200D30225F0
:103880004FF6F672914200D30325891CA16106EB25
:103890000C02A26206EB08022262032D13D02BB3A6
:1038A00010446062022D23D001F0010001EB4101C0
:1038B00000EB510000F2FF10B9EB502F1AD20D208F
:1038C00024E70D2022E70BB10D201FE714F85C0F51
:1038D000E278637840EA0260A278120442EA0322A6
:1038E000104344F8380C5C3C8800E3E70D200DE7FA
:1038F0004800DFE74FF0FF302061E760032D59D12A
:10390000677194F8600094F8611040EA0120821910
:1039100062616078012304F1300101F034FBE8BBFF
:1039200094F82E0294F82F1240EA0120A0F52A41C3
:1039300055393FD114F8300FE178627840EA0160E0
:10394000A178303C090441EA022108432049884219
:1039500030D194F8140294F8171294F8152240EA22
:10396000016094F81612090441EA0221084319493A
:1039700088421FD194F81C0294F81F1294F81D225B
:1039800040EA016094F81E12090441EA022108434A
:10399000E06094F8180294F81B1200E00AE040EA94
:1039A000016094F81A1294F81922090441EA0221DC
:1039B0000843206125700549091F0888401C0880BC
:1039C000E080E76227710020A0E600005800002098
:1039D0005252614172724161891E8269921E8A420D
:1039E00001D800207047826A807801FB0020704770
:1039F00070B51D25084C00E0641E802006F060F8BC
:103A000008B9002CF8D124B1044806F053F8284630
:103A100070BD132070BD0000A0860100FF07C0002C
:103A20002DE9F05F81460F46387820F04000401EB7
:103A300000EB800101EBC00400260125DFF85CA04B
:103A400007F101084FF6FF7B1AF80600395C10F801
:103A5000080041EA00207DB102F08AFA0546FF2CF9
:103A600007D22046641C39F8100002F081FAA842FF
:103A700006D00020BDE8F09F584501D00020F9E7AE
:103A8000761C0D2EE0D33878400605D525B139F8DF
:103A9000140008B10020EDE70120EBE770BD00083D
:103AA0002DE9F04FADF26C4D044604226AA1204688
:103AB000FCF79FFF00281CD1207928B10D2803D0E6
:103AC0000A2801D0202814D120210AA8FDF775F872
:103AD000202102A8FDF771F800250026604900208A
:103AE00001F086FFDFF87CB138B15FA1584603F0E2
:103AF0008DF90DF26C4DBDE8F08F012262A192A804
:103B000001F086FF40B158A1584603F07FF900212B
:103B1000084601F06DFFECE701ABFF2252A992A825
:103B200002F02EF860B9019850B152A94FF0000987
:103B300001F800900027B84652AC0DF1480A6BE03E
:103B400055A1584603F062F992A801F085FE0021C4
:103B5000084601F04DFFCCE7002004E00246401C7F
:103B60000AF80210641C217819B10D2901D00A2924
:103B7000F4D10AF8009020780D2800D1641C207838
:103B80000A2800D1641C9DF848005B2810D02FB192
:103B9000032249A112A8FCF72CFFF0B1B8F1000FE5
:103BA0003AD0032244A112A8FCF723FF20BB24E053
:103BB000072242A112A8FCF71CFF48B100270722E8
:103BC00040A112A8FCF715FF20B14FF0000823E038
:103BD0000127F4E74FF001081EE03D2112A8FCF791
:103BE0008FFE48B1411C00E0491C08782028FBD01A
:103BF0000AA8FCF7BBFE01250EE03D2112A8FCF748
:103C00007FFE48B1411C00E0491C08782028FBD009
:103C100002A8FCF7ABFE0126207800289CD192A8D0
:103C200001F01AFE0021084601F0E2FE25B10AAAC1
:103C300026A1584603F0EAF826B102AA26A1584662
:103C400003F0E4F8002D86D0002E84D025A158463C
:103C500003F0DCF84DE70000636F6E6600000000C3
:103C60007806002000100140636F6E6669672E6958
:103C70006E692066696C65206E6F7420666F756E64
:103C8000642E0D0A00000000303A636F6E666967AB
:103C90002E696E6900000000636F6E6669672E69A9
:103CA0006E692066696C6520726561642065727258
:103CB0006F722E0D0A000000436830005B52617481
:103CC000696F5D005B4C696D69745D005261746978
:103CD0006F3D25730D0A00004C696D69743D2573B5
:103CE0000D0A0000636F6E6669672072656164206B
:103CF000737563636573730D0A00000010B5C2B07D
:103D00000B222BA1FCF775FE002815D100244FF4DF
:103D1000807102A8FCF751FF0C22214602A805F091
:103D200053FF042225A102A8FCF763FE01002548E9
:103D300004D025A103F06AF842B010BD9DF80C1024
:103D40009DF80D2041EA02219DF80E2041EA024132
:103D50009DF80F2041EA026101919DF810109DF835
:103D6000112041EA02219DF8122041EA02419DF80A
:103D7000132041EA026100911DA1044603F046F8B8
:103D8000019807F02FFA41EC100B21A153EC102BF6
:103D9000204603F03BF8009807F024FA41EC100BA2
:103DA0001FA153EC102B204603F030F8C4E70000AD
:103DB000636F6E666967207265616400434F4E46AB
:103DC00000000000001001404E6F2076616C6964B5
:103DD00020636F6E66696775726174696F6E2066C5
:103DE0006F756E6420696E20666C6173680D0A00E1
:103DF0007265616420706172616D657465727320B3
:103E000066726F6D20666C6173680D0A00000000B9
:103E1000726174696F3A252E31660D0A0000000048
:103E20006C696D69743A252E32660D0A0000000037
:103E300070B5C0B00B2229A1FCF7DBFD00284AD1E8
:103E4000294C206807F0CEF941EC100B2B4D53ECB8
:103E5000102B26A1284602F0D9FF606807F0C2F9AE
:103E600041EC100B26A153EC102B284602F0CEFF9C
:103E7000A9156846FCF7A1FE25A16846FCF776FD6A
:103E800020688DF80400010A8DF80510010C8DF8EA
:103E90000610000E8DF8070060688DF80800010A12
:103EA0008DF80910010C8DF80A10000E0C268DF803
:103EB0000B000024204605F083FF06F017F8324679
:103EC0002146684605F0ACFE13A1284602F09EFF8D
:103ED00018A002F0ADFE40B070BD0000636F6E66CA
:103EE00069672073617665007C01002072617469E6
:103EF0006F3A252E31660D0A0000000000100140C7
:103F00006C696D69743A252E32660D0A0000000056
:103F1000434F4E4600000000736176652070617269
:103F2000616D657465727320746F20666C6173686F
:103F30000D0A0000636F6E666967207361766564C1
:103F4000000000002DE9F0412DED028BEAB005469E
:103F50000C462846FCF72EFD024629462046FCF773
:103F600048FD00287ED120227B4962A8FCF7D1FDC4
:103F70007AA12846FCF774FE20B1002424B1DFEDBD
:103F8000798A03E00124F9E7DFED778A294642A820
:103F9000FCF7ECFC9DF80801A0F16101192902D899
:103FA00020388DF808012A4670A152A8FCF734FA8F
:103FB0002A4671A14AA8FCF72FFA00254FF4807118
:103FC00002A8FCF7FAFD0C22294602A805F0FCFD28
:103FD00004226EA102A8FCF70CFD6E4D6E4E50B18E
:103FE0006EA1304602F012FFB7EE000A85ED000A1E
:103FF00085ED010A1DE09DF80C009DF80D1040EACA
:1040000001209DF80E1040EA01409DF80F1040EA93
:10401000016028609DF810009DF8111040EA012011
:104020009DF8121040EA01409DF8131040EA01602B
:1040300068600CB1286800E0686807F0D3F841ECCC
:10404000100B60A153EC102B62A8FCF7E5F962ABF2
:1040500042AA5EA1304602F0D9FEBDEEE80A10EE9B
:10406000102A00E048E05CA1304602F0CFFEDFF805
:104070008081002788F8007098F800000028FBD0A5
:104080001F225C495AA8FCF7BFFD8DF887715AA81A
:10409000FCF790FC5AAA01E0401E1754002806DDE8
:1040A000111811F8011C0D29F6D00A29F4D088F84E
:1040B00000704FF400714F48FCF75DFD5AA802F004
:1040C0009BFCF0B15AA805F055FFB0EE408AB5EE62
:1040D000C08AF1EE10FA04D3B4EEE88AF1EE10FAD9
:1040E0001BDD52AA44A1304602F090FE62AB42AA08
:1040F00036A1304602F08AFE6AB0BDEC028BBDE804
:10410000F08152AA3CA1304602F080FE62AB42AA86
:104110002EA1304602F07AFEEEE714B185ED008A5A
:1041200001E085ED018A4AAA33A1304602F06EFE15
:1041300018EE100A07F056F8CDE9000142AA30A1A6
:10414000304602F063FE1CB130A002F071FDD3E7EF
:1041500032A002F06DFDCFE704BF00087261746900
:104160006F0000000000C8420000FA432573206978
:104170006E76616C696400002573206D6F646966FA
:10418000696564207375636365737300434F4E46BE
:10419000000000007C010020001001404E6F2076DE
:1041A000616C696420636F6E6669677572617469BA
:1041B0006F6E20666F756E6420696E20666C617329
:1041C000680D0A00252E3166000000002573203D91
:1041D0002025730D0A000000496E70757420766109
:1041E0006C756528302D2564293A0D0A0000000001
:1041F000780100207804002025730D0A00000000DB
:104200002573203D20252E31660D0A0072617469E8
:104210006F20636F6E666967000000006C696D69EE
:104220007420636F6E666967000000002DE9F0413D
:1042300006460F46002F08D03946304602F016F9E0
:10424000022809D20120BDE8F081F56815B1B069F6
:10425000A84205D8012503E0B1698142F3D83D4663
:104260002C46641CB069A04204D80224022D01D25D
:104270000020E8E72146304602F0F8F838B1411C4A
:10428000E1D00128DFD0AC42EBD10020DBE76FF0BA
:1042900070422146304603F071FA28B927B1224610
:1042A0003946304603F06AFA20B101280BD00124C8
:1042B0002046C8E7F4603069411CF9D0401E3061E7
:1042C00001207071F4E74FF0FF34F1E710B501F011
:1042D0003DFA104C60B110A001F0C8FA02466AB174
:1042E000082A11D00EA1204602F090FD002010BD3A
:1042F00016A1204602F08AFD002010BD1FA1204615
:1043000002F084FD012010BD26A1204602F07EFDB2
:10431000012010BD00100140303A2F6C6F67000083
:104320004661696C656420746F20637265617465B1
:10433000206C6F67206469726563746F72792C20DA
:104340006572726F723A2025640D0A00534420632F
:10435000617264206E6F7420726561647920666F8B
:1043600072206C6F67206469726563746F72792064
:104370006372656174696F6E0D0A00004C6F67208F
:104380006469726563746F727920637265617465C4
:1043900064207375636365737366756C6C790D0A5D
:1043A000000000004C6F67206469726563746F726F
:1043B0007920616C726561647920657869737473C2
:1043C0000D0A00002DE9F35F8846D8F8006000E090
:1043D000761C30782F28FBD05C28F9D00098D0F8D4
:1043E0001CA00024254628466D1C305C202808D3DC
:1043F0002F2806D05C2804D0FF2C09D30620BDE866
:10440000FC9F7119C8F8001020282DD2042535E032
:10441000C0B2A0F181011E2902D95F391C290ED832
:1044200029466D1C715CA1F140023F2A04D3403A39
:104430007D2A01D30620E2E701EB002080B20121B2
:1044400001F08FFD074647B1802F08D2394665A09D
:10445000FFF746F918B10620D1E70620CFE720463E
:10446000641C2AF81070BEE7002507E0601E3AF8C9
:104470001000202801D02E2802D1641E002CF5D176
:1044800054B100202AF8140000980B2220218069E2
:1044900002F07DFC002702E00620B0E77F1C3AF81E
:1044A00017002028FAD02E28F8D01FB145F00305B8
:1044B00000E0641E24B1601E3AF810002E28F8D1E6
:1044C0004FF00008C1464FF0080B38467F1C3AF801
:1044D000106006B3202E03D02E2E04D1A74202D0A6
:1044E00045F00305F1E7D84501D2A74219D1BBF148
:1044F0000B0F0ED0A74201D045F003050BD827467D
:104500004FF008084FF00B0B4FEA89604FEA106933
:10451000DBE745F00305009880690178E5293DD087
:104520003EE0802E08D3304601F022FD002101F04C
:1045300018FD064645F00205FF2E0FD9ABF101002C
:10454000804503D345F00305D846BEE70098310AFD
:104550008269404608F10108115418E026B131463D
:1045600023A0FFF7BDF818B15F2645F003050EE064
:10457000A6F14100192802D849F0020907E0A6F186
:104580006100192803D849F00109203EB6B200980D
:104590008169404608F101080E5496E70521017033
:1045A000BBF1080F03D14FEA89604FEA1069C9F3E4
:1045B0008100032803D06FEA0901890701D145F082
:1045C0000205A90709D409F00301012901D145F029
:1045D0001005012801D145F0080500988069C572D1
:1045E00000200CE7222A3A3C3E3F7C7F000000007E
:1045F0002B2C3B3D5B5D000000B589B003460EA24D
:104600000FA101A8FBF708FF0A2201A9104801F039
:10461000FFF903460F4833B101AA0FA102F0F6FBE0
:10462000002009B000BD01AA16A102F0EFFB084866
:1046300001F068FB0120F4E7303A2F6C6F6700004F
:1046400025732F6C6F67256C752E747874000000CD
:10465000200F0020001001404661696C65642074E1
:104660006F20637265617465206C6F672066696C8A
:10467000653A2025732C206572726F723A2025648A
:104680000D0A00004C6F672066696C6520637265D7
:10469000617465643A2025730D0A000000B5A5B069
:1046A00021A801F0A9FE21AB0EA212A111A8FBF7CF
:1046B000B3FE11A901A8FCF759F90A2201A9114872
:1046C00001F0A6F90346104833B101AA0FA102F088
:1046D0009DFB002025B000BD01AA19A102F096FBA8
:1046E0000120F7E7303A2F6F7665724C696D697477
:1046F0000000000025732F6C696D697425732E749A
:1047000078740000FC0C0020001001404661696CC8
:10471000656420746F20637265617465206F7665CF
:10472000726C696D69742066696C653A2025732C1A
:10473000206572726F723A2025640D0A0000000035
:104740004F7665726C696D69742066696C6520636B
:104750007265617465643A2025730D0A00000000DB
:1047600000B5A5B021A801F047FE21AB0EA211A112
:1047700011A8FBF751FE11A901A8FCF7F7F80A22CE
:1047800001A9104801F044F903460F4833B101AACA
:104790000EA102F03BFB002025B000BD01AA17A12D
:1047A00002F034FB0120F7E7303A2F73616D706C33
:1047B0006500000025732F6461746125732E747881
:1047C00074000000A8080020001001404661696CD8
:1047D000656420746F206372656174652073616D18
:1047E000706C652066696C653A2025732C206572B3
:1047F000726F723A2025640D0A00000053616D70DB
:104800006C652066696C6520637265617465643AE5
:104810002025730D0A00000010B500F097FF104C22
:1048200060B110A001F022F802466AB1082A11D046
:1048300010A1204602F0EAFA002010BD1AA120467D
:1048400002F0E4FA002010BD25A1204602F0DEFAB5
:10485000012010BD2DA1204602F0D8FA012010BD84
:1048600000100140303A2F6F7665724C696D6974A3
:10487000000000004661696C656420746F206372FB
:1048800065617465206F7665726C696D697420640A
:1048900069726563746F72792C206572726F723AF7
:1048A0002025640D0A0000005344206361726420D7
:1048B0006E6F7420726561647920666F72206F7606
:1048C00065726C696D6974206469726563746F7276
:1048D00079206372656174696F6E0D0A00000000D3
:1048E0004F7665726C696D69742064697265637472
:1048F0006F72792063726561746564207375636398
:1049000065737366756C6C790D0A00004F7665727D
:104910006C696D6974206469726563746F72792063
:10492000616C7265616479206578697374730D0ACE
:104930000000000010B500F009FF104C60B110A09D
:1049400000F094FF02466AB1082A11D00FA1204658
:1049500002F05CFA002010BD18A1204602F056FAC1
:10496000002010BD22A1204602F050FA012010BD07
:1049700029A1204602F04AFA012010BD0010014092
:10498000303A2F73616D706C650000004661696C90
:10499000656420746F206372656174652073616D56
:1049A000706C65206469726563746F72792C206520
:1049B00072726F723A2025640D0A0000534420631E
:1049C000617264206E6F7420726561647920666F15
:1049D000722073616D706C65206469726563746FB9
:1049E0007279206372656174696F6E0D0A00000050
:1049F00053616D706C65206469726563746F727960
:104A00002063726561746564207375636365737395
:104A100066756C6C790D0A0053616D706C6520646D
:104A200069726563746F727920616C726561647913
:104A3000206578697374730D0A00000010B507498A
:104A4000C84209D140F61D04204603F09FF92046D4
:104A5000BDE8104003F08AB910BD0000008CFFBF14
:104A6000002906D0012903D1016841F0805101607D
:104A70007047016841F4805101607047002906D0F9
:104A8000012903D1016841F4803101607047016858
:104A900041F0010101607047002906D0012903D1CE
:104AA000016841F4802101607047016841F0040110
:104AB0000160704700290AD0012907D1016821F45B
:104AC00060110160016841EA0241016070470168BC
:104AD00021F038010160016811430160704700292D
:104AE0000AD0012907D1016821F440010160016861
:104AF00041EA024101607047016821F0C001016094
:104B00000168114301607047024908600868002885
:104B1000FCD170470000002003480168002902D042
:104B20000168491E016070470000002070B50E4901
:104B30004A68A0FB024508695A2801DD086900E0BF
:104B40005A20C117021B71EB05020BDA241A65EB20
:104B5000010501F01DFD04194D4101F019FD001B77
:104B6000A941FADB70BD0000A00100202DE9F0474B
:104B700004460021204600F088F9002852D1FF2683
:104B8000B1462169206802F00AF980465FEA080010
:104B900047D167693D7855B1F87A00F03F00E52DBF
:104BA00003D0010706D50F2804D0FF2631E04FF0CF
:104BB000040836E00F2801D0CEB11DE0E06940B313
:104BC000690606D597F80D9025F040052E46E18838
:104BD0002184B54208D1797B494505D13946FEF794
:104BE0001FFF08B1761E00E0FF26F6B211E038463E
:104BF00005F000FA484514D0FF264FF6FF702084D8
:104C0000A169C87AC00704D10B22384602F0A9F87E
:104C100038B10021204600F007F880465FEA08001E
:104C2000AFD04046BDE8F0872DE9F04104460E467E
:104C3000E088401C87B2002F04D0206910B13907EA
:104C400003D06AE00420BDE8F081401C2061E168E7
:104C500031B120688278521E12EA171F06D05CE03C
:104C600020680089B84258D80420ECE701F0FEFB28
:104C70000546012D01D80220E5E7681C15D0206803
:104C80008169A94243D896B1E168FFF7CFFA05469A
:104C900028000ED0012D0ED0681C0ED000212068F7
:104CA00002F07DF858B10120CDE70120CBE70420C8
:104CB000C9E70720C7E70220C5E70120C3E720684E
:104CC0004FF400723030002102F061F8294620686C
:104CD000FEF782FE2168C86200264FF001080EE050
:104CE00080F804800021206802F059F808B1012002
:104CF000A9E72068C16A491CC162761CF6B2206827
:104D00008178B142ECD82168C96A891BC162E5602B
:104D100029462068FEF760FE2061E78007F00F015A
:104D20003022206802EB41110844606100208AE7CC
:104D30002DE9FE430446A769E6690C223946684618
:104D400002F01CF89DF80B00C00719D00020F87283
:104D5000E06101252B4632466946384601F007FBE3
:104D60002046FFF703FF18B96D1CADB2642DF1D3D7
:104D7000642D0BD004280AD19DF80B00F872E6616F
:104D80009DF80B00800710D5002004E00720BDE847
:104D9000FE83401C80B236F810100029F9D119307A
:104DA0000D21B0FBF1F087B200E001270021204681
:104DB00000F06BF80028EAD10026B146216920688E
:104DC00001F0EDFF054628000CD160690078E52868
:104DD0000CD058B1002601212046FFF725FF0546DB
:104DE0002800EBD04FF0010845B131E00EB9B4F81E
:104DF0000690761CB6B2BE42F4D0ECE7012F27D95C
:104E00004946204600F041F80546280020D1A06917
:104E100005F0F0F881467F1EBEB22169206801F0DE
:104E2000BEFF0546280013D1F2B24B466169E06926
:104E300001F0BCF8206880F8048000212046FFF7CC
:104E4000F3FE0546280003D1761E3604360CE4D165
:104E5000CDB92169206801F0A2FF0546280012D1D2
:104E6000666920220021304601F091FF0B22304676
:104E7000A16901F083FFA069C07A00F018003073C7
:104E8000206880F80480284681E770B504460D4606
:104E9000E580A168012903D0206882698A4201D88F
:104EA000022070BD19B90278032A00D1416A11B1FC
:104EB000807806011CE0E1600189A94201D8022046
:104EC00070BD406A00EB151020611AE0206801F007
:104ED000CDFA0146481C07D0022903D32068806917
:104EE000884203D8022070BD012070BDA81B85B286
:104EF000B542EBD2E1602068FEF76EFD00EB1510C5
:104F0000206105F00F013022206802EB41110844B6
:104F10006061002070BD00B593B0002100910028B1
:104F200002D0012013B000BD04F099F81D2801D073
:104F30000120F7E701A803F083FE1D2801D001201E
:104F4000F0E7BDF8480003F0F5FF684604F056F8B6
:104F50000099890100D5FEE71D2801D00120E1E775
:104F60004FF4006003F08CFD1D2801D00120D9E72B
:104F7000002004F0DBFC1D2801D00120D2E7002036
:104F8000D0E70020704770B505460C461C20002C69
:104F900002D01BB125B10BE0042070BD042070BD10
:104FA00051024FF40072012B06D0204604F0EAF8BB
:104FB0001D2805D0012070BD204603F02BFBF7E72C
:104FC000002070BD002801D00120704700207047EC
:104FD00070B505460C461C20002C02D01BB125B133
:104FE0000BE0042070BD042070BD51024FF400722C
:104FF000012B06D0204604F0EBF91D2805D0012036
:1050000070BD204603F0F6FBF7E7002070BD01EB12
:10501000410100EBC100016921F00101016170470C
:1050200001EB410100EBC100016941F001010161A7
:10503000704701EB410100EBC100016921F06061A3
:1050400041EA42610161704701EB410100EBC1009F
:10505000016921F480710161704701EB410100EBAE
:10506000C100016941F480710161704701EB4102A7
:1050700000EBC202136923F00103136100231361E3
:1050800053619361D3611362212353623D2204294A
:105090000BD201EB41035B00C1F3400103EB810143
:1050A0008A4081680A4382607047091F01EB41030F
:1050B0005B00C1F3400103EB81018A40C1680A43F0
:1050C000C260704704290BD201EB41035B00C1F3BE
:1050D000400103EB81018A4081680A438260704786
:1050E000091F01EB41035B00C1F3400103EB8101A8
:1050F0008A40C1680A43C260704704290ED201EB9E
:1051000041035B00C1F3400103EB810100688A4069
:10511000024201D00120704700207047091F01EBB7
:1051200041035B00C1F3400103EB810140688A4009
:10513000024201D0012070470020704701EB41017D
:1051400000EBC100002A04D0016941F02001016197
:105150007047016921F020010161704701EB4101B5
:1051600000EBC100002A01D003627047C3617047A1
:1051700030B501EB410100EBC100416A136A1943EC
:1051800041F00401416211688161D168C161D16A55
:10519000416103691C490B4014695168956A2143B8
:1051A000146B2C43214394692143D469214319434F
:1051B00001619168002912D0012915D0016941F4DB
:1051C000004101615169A1B1016921F4806101616E
:1051D000516A99B1016921F48071016130BD0169A1
:1051E00041F400710161EDE7016921F40071016191
:1051F000E8E7016941F480610161E9E7016941F48F
:105200008071016130BD00003F871CFE30B58DB05C
:105210000446274D012203212846FFF753FF0422AD
:1052200003212846FFF74EFF082203212846FFF7F7
:1052300049FF102203212846FFF744FF20220321C3
:105240002846FFF73FFF03212846FFF7E0FE032132
:105250002846FFF70BFF17480090039400200A90A0
:105260000B900121029105900803019080000490A9
:105270004FF440300C9048050790800006900320C2
:10528000089009916A4603212846FFF771FF012221
:1052900003212846FFF752FF042203212846FFF787
:1052A000C8FE03212846FFF7BBFE0DB030BD00004D
:1052B00000640240802C014030B501EB410100EB5D
:1052C000C100416A21F00401416211688161916865
:1052D000C161D169416103691A490B40146A1169BE
:1052E00095690C4345EA81010C4344EA03010161DD
:1052F0005168002912D0012915D0016941F40041FB
:105300000161D168A1B1016921F480610161516934
:1053100099B1016921F48071016130BD016941F4E5
:1053200000710161EDE7016921F400710161E8E7B5
:10533000016941F480610161E9E7016941F480712B
:10534000016130BD3F87FCFF002101600122426006
:105350008160C260016142618161C1610162704727
:1053600030B58DB00446274D012203212846FFF7B2
:10537000A9FE042203212846FFF7A4FE08220321E8
:105380002846FFF79FFE102203212846FFF79AFECA
:10539000202203212846FFF795FE03212846FFF728
:1053A00036FE03212846FFF761FE1748009003945C
:1053B00040200A9000200B900121029105900803E3
:1053C0000190800004904FF440300C904805079005
:1053D000800006900991032008906A460321284620
:1053E000FFF7C6FE012203212846FFF7A7FE04228D
:1053F00003212846FFF71DFE03212846FFF710FE74
:105400000DB030BD00640240802C014001EB410131
:1054100000EBC1004261704701EB410100EBC100AC
:10542000406970472DE9F0410746124C00250CE019
:105430002068C5EBC50100EB8100E16988470246A1
:1054400029463846FDF7D6FD6D1CA088A842EFDC42
:105450002569A68809E0E169281D8847024631468A
:105460003846FDF7C7FD2D68761C002DF3D1BDE849
:10547000F08100001C0400202DE9F0470746DDE91B
:105480000856884691469A460F4C002E1AD0CDB148
:105490003C212046FBF791FB2760A4F80480C4F868
:1054A0000890A4F80CA0A661E561002084F8300003
:1054B0004FF6FF71618660634FF4FA70A0630120BC
:1054C000BDE8F0870020FBE71C0400201CB5044663
:1054D0000022009201926846FFF7A4FF2146684629
:1054E00000F076F81CBD2DE9FC410646089F884671
:1054F00010461D462946FDF796FDC4B22946404692
:10550000FDF791FDC1B20020CDE900503B46224697
:10551000304601F0DFFFBDE8FC812DE9FF4707467B
:10552000DDF83090884694461E4600200290039095
:105530004020002400210125401E05EB501319E0F6
:1055400056F82120AAB14FF0553000EA5200101A47
:1055500000F033324FF0333A0AEA9000104400EB87
:10556000101000F00F3000EB004000EB0020000EA8
:105570000444491C8B42E3D8002C22D040233246FD
:10558000614602A8FDF724FD4022314602A8FDF73E
:1055900043FDC0B1002440233246414602A8FDF736
:1055A00017FD4022314602A8FDF736FD68B1002103
:1055B0004FF0FF30CDE900054B462246384601F05A
:1055C00089FFBDE8FF870124E5E70121F0E700003E
:1055D0002DE9FC5F07460E465B4C94F8300000F066
:1055E0000108B8F1000F04D004F128000821FBF7EE
:1055F000E4FAB8F1000F47D00025AA461EE0CDF826
:1056000000A0CDF804A0A06805EBC50100EB81095E
:1056100040234A4639466846FDF7DAFC40224946AF
:105620006846FDF7F9FC80B1002030B104F1280193
:1056300040234A460846FDF7FFFC6D1CA089A8429E
:10564000DDDC656904F1280B1CE00120EDE7CDF8F5
:1056500000A0CDF804A005F1040940234A463946CC
:105660006846FDF7B5FC402249466846FDF7D4FC84
:1056700080B1002028B140234A4659465846FDF7DC
:10568000DBFC2D68002DE2D1002504F1200904F196
:10569000280A15E00120EDE7B8F1000F04D02946F3
:1056A0005046FDF7C0FC50B900962068C5EBC50117
:1056B00000EB81002B463A464946FFF714FF6D1C6C
:1056C000A088A842E8DC2569B4F804B011E0B8F17C
:1056D000000F04D059465046FDF7A5FC30B95B4693
:1056E0003A464946281D0096FFF7FDFE2D680BF14E
:1056F000010B002DEBD14FF008080DE00096A068DB
:1057000005EBC50100EB810308EB810108443A4633
:105710004946FFF702FF6D1CA089A842EEDC6469D0
:1057200008E0231D3A46494604F10C000096FFF7B5
:10573000F4FE2468002CF4D14846394602B0082211
:10574000BDE8F05FFBF7E5B91C04002070B5184C0C
:10575000E079002803D0217A09B1012070BD154EEF
:10576000012578B90020FFF7D6FB02462AB112A125
:10577000304601F04BFB002070BD1AA1304601F00D
:1057800045FBE571207A80B91F49002000F030F90F
:1057900002462AB11DA1304601F038FB002070BD41
:1057A00024A1304601F032FB2572012070BD0000BB
:1057B00090010020001001404661696C656420740E
:1057C0006F20696E697469616C697A652053442041
:1057D000636172642C207374617475733A2025645C
:1057E0000D0A00005344206361726420696E69747D
:1057F00069616C697A656420737563636573736648
:10580000756C6C790D0A0000CC0A00204661696C49
:10581000656420746F206D6F756E742066696C65A9
:1058200073797374656D2C206572726F723A2025DE
:10583000640D0A0046696C6573797374656D206D3B
:105840006F756E74656420737563636573736675D5
:105850006C6C790D0A00000010B50446204600F07B
:1058600051FA002801D10021216010BD2DE9F14F2E
:10587000ADF50C7D00F05FFE0746012283A98CA8E0
:10588000FDF736FF044620007ED180A88990CDF830
:1058900028D283A88C9900F069FC0446200000D12E
:1058A0000824042C70D100218398FEF7BFFC064623
:1058B000002406B90724012E00D10224701C00D157
:1058C000012424B90021839801F069FA04464FF0BD
:1058D00010094FF00108002C62D131468398FEF781
:1058E0007BF88246839D30354FF4007200212846B4
:1058F00001F04DFA0B222021284601F048FA4FF022
:105900002E0B85F800B085F80B90AF75380AE87556
:10591000380C2876380E6876AE76300AE876300C89
:105920002875300E68752022294605F1200001F007
:1059300025FA85F821B0859883990978032904D13F
:105940008399496A814200D100203435A871010A47
:10595000E971010C2970000E6870343D839890F84D
:1059600002B01AE08398C0F82CA00AF1010A8398CB
:1059700080F804800021839801F011FA0446200089
:105980000ED14FF4007200E02DE00021284601F016
:10599000FEF9ABF1010B0BF0FF0BBBF1000FE1D1F6
:1059A0001CB983A8FFF7C4F9044624B13146839893
:1059B00002F062FA17E0889880F80B908775390A30
:1059C000C175390C0176390E41768676310AC17679
:1059D000310C0175310E4175839880F804808398ED
:1059E00004F015FB04460DF50D7D2046BDE8F08F53
:1059F000002801D00B207047044A1068002300B132
:105A0000037001B10B701160002070475800002036
:105A10002DE9F747ADF50D7D07464FF00008C7F8B3
:105A2000008002F01F0626F0010284A98EA8FDF76F
:105A30005FFE054681A88A9001A88B90280004D1BA
:105A400084A88E9900F092FB0546899C0DB904B993
:105A5000062516F01C0F59D04DB1042D03D184A892
:105A6000FFF766F9054646F00806899C08E0E07AEB
:105A700010F0110F01D0072502E0700700D50825AE
:105A8000F5BB30074DD500F056FDA073010AE17358
:105A9000010C2174000E607484F80B8084F81C8063
:105AA00084F81D8084F81E8084F81F80207D617D2D
:105AB00040EA0120E17E000440EA0129A07E49EA93
:105AC000000984F81A8084F81B8084F8148084F814
:105AD0001580849901200871B9F1000F21D08498B4
